{
	"Contract Pools/NekoPools_flattened.sol": {
		"NekoPools": {
			"abi": [
				{
					"inputs": [
						{
							"internalType": "address",
							"name": "_stakingToken",
							"type": "address"
						},
						{
							"internalType": "address",
							"name": "_rewardToken",
							"type": "address"
						},
						{
							"internalType": "uint256",
							"name": "_timeUnit",
							"type": "uint256"
						},
						{
							"internalType": "uint256",
							"name": "_rewardRatioNumerator",
							"type": "uint256"
						},
						{
							"internalType": "uint256",
							"name": "_rewardRatioDenominator",
							"type": "uint256"
						},
						{
							"internalType": "uint256",
							"name": "_nativeFee",
							"type": "uint256"
						}
					],
					"stateMutability": "nonpayable",
					"type": "constructor"
				},
				{
					"inputs": [
						{
							"internalType": "address",
							"name": "owner",
							"type": "address"
						}
					],
					"name": "OwnableInvalidOwner",
					"type": "error"
				},
				{
					"inputs": [
						{
							"internalType": "address",
							"name": "account",
							"type": "address"
						}
					],
					"name": "OwnableUnauthorizedAccount",
					"type": "error"
				},
				{
					"anonymous": false,
					"inputs": [
						{
							"indexed": false,
							"internalType": "uint256",
							"name": "newFee",
							"type": "uint256"
						}
					],
					"name": "NativeFeeUpdated",
					"type": "event"
				},
				{
					"anonymous": false,
					"inputs": [
						{
							"indexed": true,
							"internalType": "address",
							"name": "previousOwner",
							"type": "address"
						},
						{
							"indexed": true,
							"internalType": "address",
							"name": "newOwner",
							"type": "address"
						}
					],
					"name": "OwnershipTransferred",
					"type": "event"
				},
				{
					"anonymous": false,
					"inputs": [
						{
							"indexed": false,
							"internalType": "address",
							"name": "account",
							"type": "address"
						}
					],
					"name": "Paused",
					"type": "event"
				},
				{
					"anonymous": false,
					"inputs": [
						{
							"indexed": true,
							"internalType": "address",
							"name": "user",
							"type": "address"
						},
						{
							"indexed": false,
							"internalType": "uint256",
							"name": "reward",
							"type": "uint256"
						}
					],
					"name": "RewardClaimed",
					"type": "event"
				},
				{
					"anonymous": false,
					"inputs": [
						{
							"indexed": false,
							"internalType": "uint256",
							"name": "numerator",
							"type": "uint256"
						},
						{
							"indexed": false,
							"internalType": "uint256",
							"name": "denominator",
							"type": "uint256"
						}
					],
					"name": "RewardRatioUpdated",
					"type": "event"
				},
				{
					"anonymous": false,
					"inputs": [
						{
							"indexed": true,
							"internalType": "address",
							"name": "owner",
							"type": "address"
						},
						{
							"indexed": false,
							"internalType": "uint256",
							"name": "amount",
							"type": "uint256"
						}
					],
					"name": "RewardTokenDeposited",
					"type": "event"
				},
				{
					"anonymous": false,
					"inputs": [
						{
							"indexed": true,
							"internalType": "address",
							"name": "owner",
							"type": "address"
						},
						{
							"indexed": false,
							"internalType": "uint256",
							"name": "amount",
							"type": "uint256"
						}
					],
					"name": "RewardTokenWithdrawn",
					"type": "event"
				},
				{
					"anonymous": false,
					"inputs": [
						{
							"indexed": true,
							"internalType": "address",
							"name": "user",
							"type": "address"
						},
						{
							"indexed": false,
							"internalType": "uint256",
							"name": "amount",
							"type": "uint256"
						}
					],
					"name": "Staked",
					"type": "event"
				},
				{
					"anonymous": false,
					"inputs": [
						{
							"indexed": false,
							"internalType": "address",
							"name": "account",
							"type": "address"
						}
					],
					"name": "Unpaused",
					"type": "event"
				},
				{
					"anonymous": false,
					"inputs": [
						{
							"indexed": true,
							"internalType": "address",
							"name": "user",
							"type": "address"
						},
						{
							"indexed": false,
							"internalType": "uint256",
							"name": "amount",
							"type": "uint256"
						}
					],
					"name": "Unstaked",
					"type": "event"
				},
				{
					"inputs": [],
					"name": "claimReward",
					"outputs": [],
					"stateMutability": "nonpayable",
					"type": "function"
				},
				{
					"inputs": [
						{
							"internalType": "uint256",
							"name": "amount",
							"type": "uint256"
						}
					],
					"name": "depositRewardTokens",
					"outputs": [],
					"stateMutability": "nonpayable",
					"type": "function"
				},
				{
					"inputs": [],
					"name": "getAPR",
					"outputs": [
						{
							"internalType": "uint256",
							"name": "",
							"type": "uint256"
						}
					],
					"stateMutability": "view",
					"type": "function"
				},
				{
					"inputs": [
						{
							"internalType": "address",
							"name": "user",
							"type": "address"
						}
					],
					"name": "getPendingReward",
					"outputs": [
						{
							"internalType": "uint256",
							"name": "",
							"type": "uint256"
						}
					],
					"stateMutability": "view",
					"type": "function"
				},
				{
					"inputs": [],
					"name": "getTotalStaked",
					"outputs": [
						{
							"internalType": "uint256",
							"name": "",
							"type": "uint256"
						}
					],
					"stateMutability": "view",
					"type": "function"
				},
				{
					"inputs": [
						{
							"internalType": "address",
							"name": "user",
							"type": "address"
						}
					],
					"name": "getUserStaked",
					"outputs": [
						{
							"internalType": "uint256",
							"name": "",
							"type": "uint256"
						}
					],
					"stateMutability": "view",
					"type": "function"
				},
				{
					"inputs": [],
					"name": "nativeFee",
					"outputs": [
						{
							"internalType": "uint256",
							"name": "",
							"type": "uint256"
						}
					],
					"stateMutability": "view",
					"type": "function"
				},
				{
					"inputs": [],
					"name": "owner",
					"outputs": [
						{
							"internalType": "address",
							"name": "",
							"type": "address"
						}
					],
					"stateMutability": "view",
					"type": "function"
				},
				{
					"inputs": [],
					"name": "pause",
					"outputs": [],
					"stateMutability": "nonpayable",
					"type": "function"
				},
				{
					"inputs": [],
					"name": "paused",
					"outputs": [
						{
							"internalType": "bool",
							"name": "",
							"type": "bool"
						}
					],
					"stateMutability": "view",
					"type": "function"
				},
				{
					"inputs": [],
					"name": "renounceOwnership",
					"outputs": [],
					"stateMutability": "nonpayable",
					"type": "function"
				},
				{
					"inputs": [],
					"name": "rewardRatioDenominator",
					"outputs": [
						{
							"internalType": "uint256",
							"name": "",
							"type": "uint256"
						}
					],
					"stateMutability": "view",
					"type": "function"
				},
				{
					"inputs": [],
					"name": "rewardRatioNumerator",
					"outputs": [
						{
							"internalType": "uint256",
							"name": "",
							"type": "uint256"
						}
					],
					"stateMutability": "view",
					"type": "function"
				},
				{
					"inputs": [],
					"name": "rewardToken",
					"outputs": [
						{
							"internalType": "contract IERC20",
							"name": "",
							"type": "address"
						}
					],
					"stateMutability": "view",
					"type": "function"
				},
				{
					"inputs": [
						{
							"internalType": "uint256",
							"name": "_nativeFee",
							"type": "uint256"
						}
					],
					"name": "setNativeFee",
					"outputs": [],
					"stateMutability": "nonpayable",
					"type": "function"
				},
				{
					"inputs": [
						{
							"internalType": "uint256",
							"name": "_numerator",
							"type": "uint256"
						},
						{
							"internalType": "uint256",
							"name": "_denominator",
							"type": "uint256"
						}
					],
					"name": "setRewardRatio",
					"outputs": [],
					"stateMutability": "nonpayable",
					"type": "function"
				},
				{
					"inputs": [
						{
							"internalType": "uint256",
							"name": "amount",
							"type": "uint256"
						}
					],
					"name": "stake",
					"outputs": [],
					"stateMutability": "payable",
					"type": "function"
				},
				{
					"inputs": [
						{
							"internalType": "address",
							"name": "",
							"type": "address"
						}
					],
					"name": "stakers",
					"outputs": [
						{
							"internalType": "uint256",
							"name": "amountStaked",
							"type": "uint256"
						},
						{
							"internalType": "uint256",
							"name": "lastClaimedTime",
							"type": "uint256"
						},
						{
							"internalType": "uint256",
							"name": "rewardDebt",
							"type": "uint256"
						}
					],
					"stateMutability": "view",
					"type": "function"
				},
				{
					"inputs": [],
					"name": "stakingToken",
					"outputs": [
						{
							"internalType": "contract IERC20",
							"name": "",
							"type": "address"
						}
					],
					"stateMutability": "view",
					"type": "function"
				},
				{
					"inputs": [],
					"name": "timeUnit",
					"outputs": [
						{
							"internalType": "uint256",
							"name": "",
							"type": "uint256"
						}
					],
					"stateMutability": "view",
					"type": "function"
				},
				{
					"inputs": [
						{
							"internalType": "address",
							"name": "newOwner",
							"type": "address"
						}
					],
					"name": "transferOwnership",
					"outputs": [],
					"stateMutability": "nonpayable",
					"type": "function"
				},
				{
					"inputs": [],
					"name": "unpause",
					"outputs": [],
					"stateMutability": "nonpayable",
					"type": "function"
				},
				{
					"inputs": [
						{
							"internalType": "uint256",
							"name": "amount",
							"type": "uint256"
						}
					],
					"name": "unstake",
					"outputs": [],
					"stateMutability": "nonpayable",
					"type": "function"
				},
				{
					"inputs": [
						{
							"internalType": "uint256",
							"name": "amount",
							"type": "uint256"
						}
					],
					"name": "withdrawRewardTokens",
					"outputs": [],
					"stateMutability": "nonpayable",
					"type": "function"
				},
				{
					"stateMutability": "payable",
					"type": "receive"
				}
			],
			"devdoc": {
				"errors": {
					"OwnableInvalidOwner(address)": [
						{
							"details": "The owner is not a valid owner account. (eg. `address(0)`)"
						}
					],
					"OwnableUnauthorizedAccount(address)": [
						{
							"details": "The caller account is not authorized to perform an operation."
						}
					]
				},
				"events": {
					"Paused(address)": {
						"details": "Emitted when the pause is triggered by `account`."
					},
					"Unpaused(address)": {
						"details": "Emitted when the pause is lifted by `account`."
					}
				},
				"kind": "dev",
				"methods": {
					"owner()": {
						"details": "Returns the address of the current owner."
					},
					"paused()": {
						"details": "Returns true if the contract is paused, and false otherwise."
					},
					"renounceOwnership()": {
						"details": "Leaves the contract without owner. It will not be possible to call `onlyOwner` functions. Can only be called by the current owner. NOTE: Renouncing ownership will leave the contract without an owner, thereby disabling any functionality that is only available to the owner."
					},
					"transferOwnership(address)": {
						"details": "Transfers ownership of the contract to a new account (`newOwner`). Can only be called by the current owner."
					}
				},
				"version": 1
			},
			"evm": {
				"assembly": "    /* \"Contract Pools/NekoPools_flattened.sol\":12635:18787  contract NekoPools is Ownable, ReentrancyGuard, Pausable {... */\n  mstore(0x40, 0xc0)\n    /* \"Contract Pools/NekoPools_flattened.sol\":13596:14378  constructor(... */\n  callvalue\n  dup1\n  iszero\n  tag_1\n  jumpi\n  0x00\n  dup1\n  revert\ntag_1:\n  pop\n  mload(0x40)\n  sub(codesize, bytecodeSize)\n  dup1\n  bytecodeSize\n  dup4\n  codecopy\n  dup2\n  dup2\n  add\n  0x40\n  mstore\n  dup2\n  add\n  swap1\n  tag_2\n  swap2\n  swap1\n  tag_3\n  jump\t// in\ntag_2:\n    /* \"Contract Pools/NekoPools_flattened.sol\":13818:13828  msg.sender */\n  caller\n    /* \"Contract Pools/NekoPools_flattened.sol\":5066:5067  0 */\n  0x00\n    /* \"Contract Pools/NekoPools_flattened.sol\":5042:5068  initialOwner == address(0) */\n  0xffffffffffffffffffffffffffffffffffffffff\n  and\n    /* \"Contract Pools/NekoPools_flattened.sol\":5042:5054  initialOwner */\n  dup2\n    /* \"Contract Pools/NekoPools_flattened.sol\":5042:5068  initialOwner == address(0) */\n  0xffffffffffffffffffffffffffffffffffffffff\n  and\n  sub\n    /* \"Contract Pools/NekoPools_flattened.sol\":5038:5133  if (initialOwner == address(0)) {... */\n  tag_9\n  jumpi\n    /* \"Contract Pools/NekoPools_flattened.sol\":5119:5120  0 */\n  0x00\n    /* \"Contract Pools/NekoPools_flattened.sol\":5091:5122  OwnableInvalidOwner(address(0)) */\n  mload(0x40)\n  0x1e4fbdf700000000000000000000000000000000000000000000000000000000\n  dup2\n  mstore\n  0x04\n  add\n  tag_10\n  swap2\n  swap1\n  tag_11\n  jump\t// in\ntag_10:\n  mload(0x40)\n  dup1\n  swap2\n  sub\n  swap1\n  revert\n    /* \"Contract Pools/NekoPools_flattened.sol\":5038:5133  if (initialOwner == address(0)) {... */\ntag_9:\n    /* \"Contract Pools/NekoPools_flattened.sol\":5142:5174  _transferOwnership(initialOwner) */\n  tag_12\n    /* \"Contract Pools/NekoPools_flattened.sol\":5161:5173  initialOwner */\n  dup2\n    /* \"Contract Pools/NekoPools_flattened.sol\":5142:5160  _transferOwnership */\n  shl(0x20, tag_13)\n    /* \"Contract Pools/NekoPools_flattened.sol\":5142:5174  _transferOwnership(initialOwner) */\n  0x20\n  shr\n  jump\t// in\ntag_12:\n    /* \"Contract Pools/NekoPools_flattened.sol\":4994:5181  constructor(address initialOwner) {... */\n  pop\n    /* \"Contract Pools/NekoPools_flattened.sol\":8620:8621  1 */\n  0x01\n    /* \"Contract Pools/NekoPools_flattened.sol\":8725:8732  _status */\n  dup1\n    /* \"Contract Pools/NekoPools_flattened.sol\":8725:8747  _status = _NOT_ENTERED */\n  dup2\n  swap1\n  sstore\n  pop\n    /* \"Contract Pools/NekoPools_flattened.sol\":11032:11037  false */\n  0x00\n    /* \"Contract Pools/NekoPools_flattened.sol\":11022:11029  _paused */\n  0x02\n  0x00\n    /* \"Contract Pools/NekoPools_flattened.sol\":11022:11037  _paused = false */\n  0x0100\n  exp\n  dup2\n  sload\n  dup2\n  0xff\n  mul\n  not\n  and\n  swap1\n  dup4\n  iszero\n  iszero\n  mul\n  or\n  swap1\n  sstore\n  pop\n    /* \"Contract Pools/NekoPools_flattened.sol\":13873:13874  0 */\n  0x00\n    /* \"Contract Pools/NekoPools_flattened.sol\":13848:13875  _stakingToken != address(0) */\n  0xffffffffffffffffffffffffffffffffffffffff\n  and\n    /* \"Contract Pools/NekoPools_flattened.sol\":13848:13861  _stakingToken */\n  dup7\n    /* \"Contract Pools/NekoPools_flattened.sol\":13848:13875  _stakingToken != address(0) */\n  0xffffffffffffffffffffffffffffffffffffffff\n  and\n  sub\n    /* \"Contract Pools/NekoPools_flattened.sol\":13840:13906  require(_stakingToken != address(0), \"Staking token zero address\") */\n  tag_17\n  jumpi\n  mload(0x40)\n  0x08c379a000000000000000000000000000000000000000000000000000000000\n  dup2\n  mstore\n  0x04\n  add\n  tag_18\n  swap1\n  tag_19\n  jump\t// in\ntag_18:\n  mload(0x40)\n  dup1\n  swap2\n  sub\n  swap1\n  revert\ntag_17:\n    /* \"Contract Pools/NekoPools_flattened.sol\":13948:13949  0 */\n  0x00\n    /* \"Contract Pools/NekoPools_flattened.sol\":13924:13950  _rewardToken != address(0) */\n  0xffffffffffffffffffffffffffffffffffffffff\n  and\n    /* \"Contract Pools/NekoPools_flattened.sol\":13924:13936  _rewardToken */\n  dup6\n    /* \"Contract Pools/NekoPools_flattened.sol\":13924:13950  _rewardToken != address(0) */\n  0xffffffffffffffffffffffffffffffffffffffff\n  and\n  sub\n    /* \"Contract Pools/NekoPools_flattened.sol\":13916:13980  require(_rewardToken != address(0), \"Reward token zero address\") */\n  tag_20\n  jumpi\n  mload(0x40)\n  0x08c379a000000000000000000000000000000000000000000000000000000000\n  dup2\n  mstore\n  0x04\n  add\n  tag_21\n  swap1\n  tag_22\n  jump\t// in\ntag_21:\n  mload(0x40)\n  dup1\n  swap2\n  sub\n  swap1\n  revert\ntag_20:\n    /* \"Contract Pools/NekoPools_flattened.sol\":14010:14011  0 */\n  0x00\n    /* \"Contract Pools/NekoPools_flattened.sol\":13998:14007  _timeUnit */\n  dup5\n    /* \"Contract Pools/NekoPools_flattened.sol\":13998:14011  _timeUnit > 0 */\n  gt\n    /* \"Contract Pools/NekoPools_flattened.sol\":13990:14034  require(_timeUnit > 0, \"Time unit must > 0\") */\n  tag_23\n  jumpi\n  mload(0x40)\n  0x08c379a000000000000000000000000000000000000000000000000000000000\n  dup2\n  mstore\n  0x04\n  add\n  tag_24\n  swap1\n  tag_25\n  jump\t// in\ntag_24:\n  mload(0x40)\n  dup1\n  swap2\n  sub\n  swap1\n  revert\ntag_23:\n    /* \"Contract Pools/NekoPools_flattened.sol\":14078:14079  0 */\n  0x00\n    /* \"Contract Pools/NekoPools_flattened.sol\":14052:14075  _rewardRatioDenominator */\n  dup3\n    /* \"Contract Pools/NekoPools_flattened.sol\":14052:14079  _rewardRatioDenominator > 0 */\n  gt\n    /* \"Contract Pools/NekoPools_flattened.sol\":14044:14104  require(_rewardRatioDenominator > 0, \"Denominator must > 0\") */\n  tag_26\n  jumpi\n  mload(0x40)\n  0x08c379a000000000000000000000000000000000000000000000000000000000\n  dup2\n  mstore\n  0x04\n  add\n  tag_27\n  swap1\n  tag_28\n  jump\t// in\ntag_27:\n  mload(0x40)\n  dup1\n  swap2\n  sub\n  swap1\n  revert\ntag_26:\n    /* \"Contract Pools/NekoPools_flattened.sol\":14137:14150  _stakingToken */\n  dup6\n    /* \"Contract Pools/NekoPools_flattened.sol\":14115:14151  stakingToken = IERC20(_stakingToken) */\n  0xffffffffffffffffffffffffffffffffffffffff\n  and\n  0x80\n  dup2\n  0xffffffffffffffffffffffffffffffffffffffff\n  and\n  dup2\n  mstore\n  pop\n  pop\n    /* \"Contract Pools/NekoPools_flattened.sol\":14182:14194  _rewardToken */\n  dup5\n    /* \"Contract Pools/NekoPools_flattened.sol\":14161:14195  rewardToken = IERC20(_rewardToken) */\n  0xffffffffffffffffffffffffffffffffffffffff\n  and\n  0xa0\n  dup2\n  0xffffffffffffffffffffffffffffffffffffffff\n  and\n  dup2\n  mstore\n  pop\n  pop\n    /* \"Contract Pools/NekoPools_flattened.sol\":14217:14226  _timeUnit */\n  dup4\n    /* \"Contract Pools/NekoPools_flattened.sol\":14206:14214  timeUnit */\n  0x03\n    /* \"Contract Pools/NekoPools_flattened.sol\":14206:14226  timeUnit = _timeUnit */\n  dup2\n  swap1\n  sstore\n  pop\n    /* \"Contract Pools/NekoPools_flattened.sol\":14259:14280  _rewardRatioNumerator */\n  dup3\n    /* \"Contract Pools/NekoPools_flattened.sol\":14236:14256  rewardRatioNumerator */\n  0x04\n    /* \"Contract Pools/NekoPools_flattened.sol\":14236:14280  rewardRatioNumerator = _rewardRatioNumerator */\n  dup2\n  swap1\n  sstore\n  pop\n    /* \"Contract Pools/NekoPools_flattened.sol\":14315:14338  _rewardRatioDenominator */\n  dup2\n    /* \"Contract Pools/NekoPools_flattened.sol\":14290:14312  rewardRatioDenominator */\n  0x05\n    /* \"Contract Pools/NekoPools_flattened.sol\":14290:14338  rewardRatioDenominator = _rewardRatioDenominator */\n  dup2\n  swap1\n  sstore\n  pop\n    /* \"Contract Pools/NekoPools_flattened.sol\":14361:14371  _nativeFee */\n  dup1\n    /* \"Contract Pools/NekoPools_flattened.sol\":14349:14358  nativeFee */\n  0x06\n    /* \"Contract Pools/NekoPools_flattened.sol\":14349:14371  nativeFee = _nativeFee */\n  dup2\n  swap1\n  sstore\n  pop\n    /* \"Contract Pools/NekoPools_flattened.sol\":13596:14378  constructor(... */\n  pop\n  pop\n  pop\n  pop\n  pop\n  pop\n    /* \"Contract Pools/NekoPools_flattened.sol\":12635:18787  contract NekoPools is Ownable, ReentrancyGuard, Pausable {... */\n  jump(tag_29)\n    /* \"Contract Pools/NekoPools_flattened.sol\":6681:6868  function _transferOwnership(address newOwner) internal virtual {... */\ntag_13:\n    /* \"Contract Pools/NekoPools_flattened.sol\":6754:6770  address oldOwner */\n  0x00\n    /* \"Contract Pools/NekoPools_flattened.sol\":6773:6779  _owner */\n  dup1\n  0x00\n  swap1\n  sload\n  swap1\n  0x0100\n  exp\n  swap1\n  div\n  0xffffffffffffffffffffffffffffffffffffffff\n  and\n    /* \"Contract Pools/NekoPools_flattened.sol\":6754:6779  address oldOwner = _owner */\n  swap1\n  pop\n    /* \"Contract Pools/NekoPools_flattened.sol\":6798:6806  newOwner */\n  dup2\n    /* \"Contract Pools/NekoPools_flattened.sol\":6789:6795  _owner */\n  0x00\n  dup1\n    /* \"Contract Pools/NekoPools_flattened.sol\":6789:6806  _owner = newOwner */\n  0x0100\n  exp\n  dup2\n  sload\n  dup2\n  0xffffffffffffffffffffffffffffffffffffffff\n  mul\n  not\n  and\n  swap1\n  dup4\n  0xffffffffffffffffffffffffffffffffffffffff\n  and\n  mul\n  or\n  swap1\n  sstore\n  pop\n    /* \"Contract Pools/NekoPools_flattened.sol\":6852:6860  newOwner */\n  dup2\n    /* \"Contract Pools/NekoPools_flattened.sol\":6821:6861  OwnershipTransferred(oldOwner, newOwner) */\n  0xffffffffffffffffffffffffffffffffffffffff\n  and\n    /* \"Contract Pools/NekoPools_flattened.sol\":6842:6850  oldOwner */\n  dup2\n    /* \"Contract Pools/NekoPools_flattened.sol\":6821:6861  OwnershipTransferred(oldOwner, newOwner) */\n  0xffffffffffffffffffffffffffffffffffffffff\n  and\n  0x8be0079c531659141344cd1fd0a4f28419497f9722a3daafe3b4186f6b6457e0\n  mload(0x40)\n  mload(0x40)\n  dup1\n  swap2\n  sub\n  swap1\n  log3\n    /* \"Contract Pools/NekoPools_flattened.sol\":6744:6868  {... */\n  pop\n    /* \"Contract Pools/NekoPools_flattened.sol\":6681:6868  function _transferOwnership(address newOwner) internal virtual {... */\n  pop\n  jump\t// out\n    /* \"#utility.yul\":88:205   */\ntag_32:\n    /* \"#utility.yul\":197:198   */\n  0x00\n    /* \"#utility.yul\":194:195   */\n  dup1\n    /* \"#utility.yul\":187:199   */\n  revert\n    /* \"#utility.yul\":334:460   */\ntag_34:\n    /* \"#utility.yul\":371:378   */\n  0x00\n    /* \"#utility.yul\":411:453   */\n  0xffffffffffffffffffffffffffffffffffffffff\n    /* \"#utility.yul\":404:409   */\n  dup3\n    /* \"#utility.yul\":400:454   */\n  and\n    /* \"#utility.yul\":389:454   */\n  swap1\n  pop\n    /* \"#utility.yul\":334:460   */\n  swap2\n  swap1\n  pop\n  jump\t// out\n    /* \"#utility.yul\":466:562   */\ntag_35:\n    /* \"#utility.yul\":503:510   */\n  0x00\n    /* \"#utility.yul\":532:556   */\n  tag_57\n    /* \"#utility.yul\":550:555   */\n  dup3\n    /* \"#utility.yul\":532:556   */\n  tag_34\n  jump\t// in\ntag_57:\n    /* \"#utility.yul\":521:556   */\n  swap1\n  pop\n    /* \"#utility.yul\":466:562   */\n  swap2\n  swap1\n  pop\n  jump\t// out\n    /* \"#utility.yul\":568:690   */\ntag_36:\n    /* \"#utility.yul\":641:665   */\n  tag_59\n    /* \"#utility.yul\":659:664   */\n  dup2\n    /* \"#utility.yul\":641:665   */\n  tag_35\n  jump\t// in\ntag_59:\n    /* \"#utility.yul\":634:639   */\n  dup2\n    /* \"#utility.yul\":631:666   */\n  eq\n    /* \"#utility.yul\":621:684   */\n  tag_60\n  jumpi\n    /* \"#utility.yul\":680:681   */\n  0x00\n    /* \"#utility.yul\":677:678   */\n  dup1\n    /* \"#utility.yul\":670:682   */\n  revert\n    /* \"#utility.yul\":621:684   */\ntag_60:\n    /* \"#utility.yul\":568:690   */\n  pop\n  jump\t// out\n    /* \"#utility.yul\":696:839   */\ntag_37:\n    /* \"#utility.yul\":753:758   */\n  0x00\n    /* \"#utility.yul\":784:790   */\n  dup2\n    /* \"#utility.yul\":778:791   */\n  mload\n    /* \"#utility.yul\":769:791   */\n  swap1\n  pop\n    /* \"#utility.yul\":800:833   */\n  tag_62\n    /* \"#utility.yul\":827:832   */\n  dup2\n    /* \"#utility.yul\":800:833   */\n  tag_36\n  jump\t// in\ntag_62:\n    /* \"#utility.yul\":696:839   */\n  swap3\n  swap2\n  pop\n  pop\n  jump\t// out\n    /* \"#utility.yul\":845:922   */\ntag_38:\n    /* \"#utility.yul\":882:889   */\n  0x00\n    /* \"#utility.yul\":911:916   */\n  dup2\n    /* \"#utility.yul\":900:916   */\n  swap1\n  pop\n    /* \"#utility.yul\":845:922   */\n  swap2\n  swap1\n  pop\n  jump\t// out\n    /* \"#utility.yul\":928:1050   */\ntag_39:\n    /* \"#utility.yul\":1001:1025   */\n  tag_65\n    /* \"#utility.yul\":1019:1024   */\n  dup2\n    /* \"#utility.yul\":1001:1025   */\n  tag_38\n  jump\t// in\ntag_65:\n    /* \"#utility.yul\":994:999   */\n  dup2\n    /* \"#utility.yul\":991:1026   */\n  eq\n    /* \"#utility.yul\":981:1044   */\n  tag_66\n  jumpi\n    /* \"#utility.yul\":1040:1041   */\n  0x00\n    /* \"#utility.yul\":1037:1038   */\n  dup1\n    /* \"#utility.yul\":1030:1042   */\n  revert\n    /* \"#utility.yul\":981:1044   */\ntag_66:\n    /* \"#utility.yul\":928:1050   */\n  pop\n  jump\t// out\n    /* \"#utility.yul\":1056:1199   */\ntag_40:\n    /* \"#utility.yul\":1113:1118   */\n  0x00\n    /* \"#utility.yul\":1144:1150   */\n  dup2\n    /* \"#utility.yul\":1138:1151   */\n  mload\n    /* \"#utility.yul\":1129:1151   */\n  swap1\n  pop\n    /* \"#utility.yul\":1160:1193   */\n  tag_68\n    /* \"#utility.yul\":1187:1192   */\n  dup2\n    /* \"#utility.yul\":1160:1193   */\n  tag_39\n  jump\t// in\ntag_68:\n    /* \"#utility.yul\":1056:1199   */\n  swap3\n  swap2\n  pop\n  pop\n  jump\t// out\n    /* \"#utility.yul\":1205:2339   */\ntag_3:\n    /* \"#utility.yul\":1320:1326   */\n  0x00\n    /* \"#utility.yul\":1328:1334   */\n  dup1\n    /* \"#utility.yul\":1336:1342   */\n  0x00\n    /* \"#utility.yul\":1344:1350   */\n  dup1\n    /* \"#utility.yul\":1352:1358   */\n  0x00\n    /* \"#utility.yul\":1360:1366   */\n  dup1\n    /* \"#utility.yul\":1409:1412   */\n  0xc0\n    /* \"#utility.yul\":1397:1406   */\n  dup8\n    /* \"#utility.yul\":1388:1395   */\n  dup10\n    /* \"#utility.yul\":1384:1407   */\n  sub\n    /* \"#utility.yul\":1380:1413   */\n  slt\n    /* \"#utility.yul\":1377:1497   */\n  iszero\n  tag_70\n  jumpi\n    /* \"#utility.yul\":1416:1495   */\n  tag_71\n  tag_32\n  jump\t// in\ntag_71:\n    /* \"#utility.yul\":1377:1497   */\ntag_70:\n    /* \"#utility.yul\":1536:1537   */\n  0x00\n    /* \"#utility.yul\":1561:1625   */\n  tag_72\n    /* \"#utility.yul\":1617:1624   */\n  dup10\n    /* \"#utility.yul\":1608:1614   */\n  dup3\n    /* \"#utility.yul\":1597:1606   */\n  dup11\n    /* \"#utility.yul\":1593:1615   */\n  add\n    /* \"#utility.yul\":1561:1625   */\n  tag_37\n  jump\t// in\ntag_72:\n    /* \"#utility.yul\":1551:1625   */\n  swap7\n  pop\n    /* \"#utility.yul\":1507:1635   */\n  pop\n    /* \"#utility.yul\":1674:1676   */\n  0x20\n    /* \"#utility.yul\":1700:1764   */\n  tag_73\n    /* \"#utility.yul\":1756:1763   */\n  dup10\n    /* \"#utility.yul\":1747:1753   */\n  dup3\n    /* \"#utility.yul\":1736:1745   */\n  dup11\n    /* \"#utility.yul\":1732:1754   */\n  add\n    /* \"#utility.yul\":1700:1764   */\n  tag_37\n  jump\t// in\ntag_73:\n    /* \"#utility.yul\":1690:1764   */\n  swap6\n  pop\n    /* \"#utility.yul\":1645:1774   */\n  pop\n    /* \"#utility.yul\":1813:1815   */\n  0x40\n    /* \"#utility.yul\":1839:1903   */\n  tag_74\n    /* \"#utility.yul\":1895:1902   */\n  dup10\n    /* \"#utility.yul\":1886:1892   */\n  dup3\n    /* \"#utility.yul\":1875:1884   */\n  dup11\n    /* \"#utility.yul\":1871:1893   */\n  add\n    /* \"#utility.yul\":1839:1903   */\n  tag_40\n  jump\t// in\ntag_74:\n    /* \"#utility.yul\":1829:1903   */\n  swap5\n  pop\n    /* \"#utility.yul\":1784:1913   */\n  pop\n    /* \"#utility.yul\":1952:1954   */\n  0x60\n    /* \"#utility.yul\":1978:2042   */\n  tag_75\n    /* \"#utility.yul\":2034:2041   */\n  dup10\n    /* \"#utility.yul\":2025:2031   */\n  dup3\n    /* \"#utility.yul\":2014:2023   */\n  dup11\n    /* \"#utility.yul\":2010:2032   */\n  add\n    /* \"#utility.yul\":1978:2042   */\n  tag_40\n  jump\t// in\ntag_75:\n    /* \"#utility.yul\":1968:2042   */\n  swap4\n  pop\n    /* \"#utility.yul\":1923:2052   */\n  pop\n    /* \"#utility.yul\":2091:2094   */\n  0x80\n    /* \"#utility.yul\":2118:2182   */\n  tag_76\n    /* \"#utility.yul\":2174:2181   */\n  dup10\n    /* \"#utility.yul\":2165:2171   */\n  dup3\n    /* \"#utility.yul\":2154:2163   */\n  dup11\n    /* \"#utility.yul\":2150:2172   */\n  add\n    /* \"#utility.yul\":2118:2182   */\n  tag_40\n  jump\t// in\ntag_76:\n    /* \"#utility.yul\":2108:2182   */\n  swap3\n  pop\n    /* \"#utility.yul\":2062:2192   */\n  pop\n    /* \"#utility.yul\":2231:2234   */\n  0xa0\n    /* \"#utility.yul\":2258:2322   */\n  tag_77\n    /* \"#utility.yul\":2314:2321   */\n  dup10\n    /* \"#utility.yul\":2305:2311   */\n  dup3\n    /* \"#utility.yul\":2294:2303   */\n  dup11\n    /* \"#utility.yul\":2290:2312   */\n  add\n    /* \"#utility.yul\":2258:2322   */\n  tag_40\n  jump\t// in\ntag_77:\n    /* \"#utility.yul\":2248:2322   */\n  swap2\n  pop\n    /* \"#utility.yul\":2202:2332   */\n  pop\n    /* \"#utility.yul\":1205:2339   */\n  swap3\n  swap6\n  pop\n  swap3\n  swap6\n  pop\n  swap3\n  swap6\n  jump\t// out\n    /* \"#utility.yul\":2345:2463   */\ntag_41:\n    /* \"#utility.yul\":2432:2456   */\n  tag_79\n    /* \"#utility.yul\":2450:2455   */\n  dup2\n    /* \"#utility.yul\":2432:2456   */\n  tag_35\n  jump\t// in\ntag_79:\n    /* \"#utility.yul\":2427:2430   */\n  dup3\n    /* \"#utility.yul\":2420:2457   */\n  mstore\n    /* \"#utility.yul\":2345:2463   */\n  pop\n  pop\n  jump\t// out\n    /* \"#utility.yul\":2469:2691   */\ntag_11:\n    /* \"#utility.yul\":2562:2566   */\n  0x00\n    /* \"#utility.yul\":2600:2602   */\n  0x20\n    /* \"#utility.yul\":2589:2598   */\n  dup3\n    /* \"#utility.yul\":2585:2603   */\n  add\n    /* \"#utility.yul\":2577:2603   */\n  swap1\n  pop\n    /* \"#utility.yul\":2613:2684   */\n  tag_81\n    /* \"#utility.yul\":2681:2682   */\n  0x00\n    /* \"#utility.yul\":2670:2679   */\n  dup4\n    /* \"#utility.yul\":2666:2683   */\n  add\n    /* \"#utility.yul\":2657:2663   */\n  dup5\n    /* \"#utility.yul\":2613:2684   */\n  tag_41\n  jump\t// in\ntag_81:\n    /* \"#utility.yul\":2469:2691   */\n  swap3\n  swap2\n  pop\n  pop\n  jump\t// out\n    /* \"#utility.yul\":2697:2866   */\ntag_42:\n    /* \"#utility.yul\":2781:2792   */\n  0x00\n    /* \"#utility.yul\":2815:2821   */\n  dup3\n    /* \"#utility.yul\":2810:2813   */\n  dup3\n    /* \"#utility.yul\":2803:2822   */\n  mstore\n    /* \"#utility.yul\":2855:2859   */\n  0x20\n    /* \"#utility.yul\":2850:2853   */\n  dup3\n    /* \"#utility.yul\":2846:2860   */\n  add\n    /* \"#utility.yul\":2831:2860   */\n  swap1\n  pop\n    /* \"#utility.yul\":2697:2866   */\n  swap3\n  swap2\n  pop\n  pop\n  jump\t// out\n    /* \"#utility.yul\":2872:3048   */\ntag_43:\n    /* \"#utility.yul\":3012:3040   */\n  0x5374616b696e6720746f6b656e207a65726f2061646472657373000000000000\n    /* \"#utility.yul\":3008:3009   */\n  0x00\n    /* \"#utility.yul\":3000:3006   */\n  dup3\n    /* \"#utility.yul\":2996:3010   */\n  add\n    /* \"#utility.yul\":2989:3041   */\n  mstore\n    /* \"#utility.yul\":2872:3048   */\n  pop\n  jump\t// out\n    /* \"#utility.yul\":3054:3420   */\ntag_44:\n    /* \"#utility.yul\":3196:3199   */\n  0x00\n    /* \"#utility.yul\":3217:3284   */\n  tag_85\n    /* \"#utility.yul\":3281:3283   */\n  0x1a\n    /* \"#utility.yul\":3276:3279   */\n  dup4\n    /* \"#utility.yul\":3217:3284   */\n  tag_42\n  jump\t// in\ntag_85:\n    /* \"#utility.yul\":3210:3284   */\n  swap2\n  pop\n    /* \"#utility.yul\":3293:3386   */\n  tag_86\n    /* \"#utility.yul\":3382:3385   */\n  dup3\n    /* \"#utility.yul\":3293:3386   */\n  tag_43\n  jump\t// in\ntag_86:\n    /* \"#utility.yul\":3411:3413   */\n  0x20\n    /* \"#utility.yul\":3406:3409   */\n  dup3\n    /* \"#utility.yul\":3402:3414   */\n  add\n    /* \"#utility.yul\":3395:3414   */\n  swap1\n  pop\n    /* \"#utility.yul\":3054:3420   */\n  swap2\n  swap1\n  pop\n  jump\t// out\n    /* \"#utility.yul\":3426:3845   */\ntag_19:\n    /* \"#utility.yul\":3592:3596   */\n  0x00\n    /* \"#utility.yul\":3630:3632   */\n  0x20\n    /* \"#utility.yul\":3619:3628   */\n  dup3\n    /* \"#utility.yul\":3615:3633   */\n  add\n    /* \"#utility.yul\":3607:3633   */\n  swap1\n  pop\n    /* \"#utility.yul\":3679:3688   */\n  dup2\n    /* \"#utility.yul\":3673:3677   */\n  dup2\n    /* \"#utility.yul\":3669:3689   */\n  sub\n    /* \"#utility.yul\":3665:3666   */\n  0x00\n    /* \"#utility.yul\":3654:3663   */\n  dup4\n    /* \"#utility.yul\":3650:3667   */\n  add\n    /* \"#utility.yul\":3643:3690   */\n  mstore\n    /* \"#utility.yul\":3707:3838   */\n  tag_88\n    /* \"#utility.yul\":3833:3837   */\n  dup2\n    /* \"#utility.yul\":3707:3838   */\n  tag_44\n  jump\t// in\ntag_88:\n    /* \"#utility.yul\":3699:3838   */\n  swap1\n  pop\n    /* \"#utility.yul\":3426:3845   */\n  swap2\n  swap1\n  pop\n  jump\t// out\n    /* \"#utility.yul\":3851:4026   */\ntag_45:\n    /* \"#utility.yul\":3991:4018   */\n  0x52657761726420746f6b656e207a65726f206164647265737300000000000000\n    /* \"#utility.yul\":3987:3988   */\n  0x00\n    /* \"#utility.yul\":3979:3985   */\n  dup3\n    /* \"#utility.yul\":3975:3989   */\n  add\n    /* \"#utility.yul\":3968:4019   */\n  mstore\n    /* \"#utility.yul\":3851:4026   */\n  pop\n  jump\t// out\n    /* \"#utility.yul\":4032:4398   */\ntag_46:\n    /* \"#utility.yul\":4174:4177   */\n  0x00\n    /* \"#utility.yul\":4195:4262   */\n  tag_91\n    /* \"#utility.yul\":4259:4261   */\n  0x19\n    /* \"#utility.yul\":4254:4257   */\n  dup4\n    /* \"#utility.yul\":4195:4262   */\n  tag_42\n  jump\t// in\ntag_91:\n    /* \"#utility.yul\":4188:4262   */\n  swap2\n  pop\n    /* \"#utility.yul\":4271:4364   */\n  tag_92\n    /* \"#utility.yul\":4360:4363   */\n  dup3\n    /* \"#utility.yul\":4271:4364   */\n  tag_45\n  jump\t// in\ntag_92:\n    /* \"#utility.yul\":4389:4391   */\n  0x20\n    /* \"#utility.yul\":4384:4387   */\n  dup3\n    /* \"#utility.yul\":4380:4392   */\n  add\n    /* \"#utility.yul\":4373:4392   */\n  swap1\n  pop\n    /* \"#utility.yul\":4032:4398   */\n  swap2\n  swap1\n  pop\n  jump\t// out\n    /* \"#utility.yul\":4404:4823   */\ntag_22:\n    /* \"#utility.yul\":4570:4574   */\n  0x00\n    /* \"#utility.yul\":4608:4610   */\n  0x20\n    /* \"#utility.yul\":4597:4606   */\n  dup3\n    /* \"#utility.yul\":4593:4611   */\n  add\n    /* \"#utility.yul\":4585:4611   */\n  swap1\n  pop\n    /* \"#utility.yul\":4657:4666   */\n  dup2\n    /* \"#utility.yul\":4651:4655   */\n  dup2\n    /* \"#utility.yul\":4647:4667   */\n  sub\n    /* \"#utility.yul\":4643:4644   */\n  0x00\n    /* \"#utility.yul\":4632:4641   */\n  dup4\n    /* \"#utility.yul\":4628:4645   */\n  add\n    /* \"#utility.yul\":4621:4668   */\n  mstore\n    /* \"#utility.yul\":4685:4816   */\n  tag_94\n    /* \"#utility.yul\":4811:4815   */\n  dup2\n    /* \"#utility.yul\":4685:4816   */\n  tag_46\n  jump\t// in\ntag_94:\n    /* \"#utility.yul\":4677:4816   */\n  swap1\n  pop\n    /* \"#utility.yul\":4404:4823   */\n  swap2\n  swap1\n  pop\n  jump\t// out\n    /* \"#utility.yul\":4829:4997   */\ntag_47:\n    /* \"#utility.yul\":4969:4989   */\n  0x54696d6520756e6974206d757374203e20300000000000000000000000000000\n    /* \"#utility.yul\":4965:4966   */\n  0x00\n    /* \"#utility.yul\":4957:4963   */\n  dup3\n    /* \"#utility.yul\":4953:4967   */\n  add\n    /* \"#utility.yul\":4946:4990   */\n  mstore\n    /* \"#utility.yul\":4829:4997   */\n  pop\n  jump\t// out\n    /* \"#utility.yul\":5003:5369   */\ntag_48:\n    /* \"#utility.yul\":5145:5148   */\n  0x00\n    /* \"#utility.yul\":5166:5233   */\n  tag_97\n    /* \"#utility.yul\":5230:5232   */\n  0x12\n    /* \"#utility.yul\":5225:5228   */\n  dup4\n    /* \"#utility.yul\":5166:5233   */\n  tag_42\n  jump\t// in\ntag_97:\n    /* \"#utility.yul\":5159:5233   */\n  swap2\n  pop\n    /* \"#utility.yul\":5242:5335   */\n  tag_98\n    /* \"#utility.yul\":5331:5334   */\n  dup3\n    /* \"#utility.yul\":5242:5335   */\n  tag_47\n  jump\t// in\ntag_98:\n    /* \"#utility.yul\":5360:5362   */\n  0x20\n    /* \"#utility.yul\":5355:5358   */\n  dup3\n    /* \"#utility.yul\":5351:5363   */\n  add\n    /* \"#utility.yul\":5344:5363   */\n  swap1\n  pop\n    /* \"#utility.yul\":5003:5369   */\n  swap2\n  swap1\n  pop\n  jump\t// out\n    /* \"#utility.yul\":5375:5794   */\ntag_25:\n    /* \"#utility.yul\":5541:5545   */\n  0x00\n    /* \"#utility.yul\":5579:5581   */\n  0x20\n    /* \"#utility.yul\":5568:5577   */\n  dup3\n    /* \"#utility.yul\":5564:5582   */\n  add\n    /* \"#utility.yul\":5556:5582   */\n  swap1\n  pop\n    /* \"#utility.yul\":5628:5637   */\n  dup2\n    /* \"#utility.yul\":5622:5626   */\n  dup2\n    /* \"#utility.yul\":5618:5638   */\n  sub\n    /* \"#utility.yul\":5614:5615   */\n  0x00\n    /* \"#utility.yul\":5603:5612   */\n  dup4\n    /* \"#utility.yul\":5599:5616   */\n  add\n    /* \"#utility.yul\":5592:5639   */\n  mstore\n    /* \"#utility.yul\":5656:5787   */\n  tag_100\n    /* \"#utility.yul\":5782:5786   */\n  dup2\n    /* \"#utility.yul\":5656:5787   */\n  tag_48\n  jump\t// in\ntag_100:\n    /* \"#utility.yul\":5648:5787   */\n  swap1\n  pop\n    /* \"#utility.yul\":5375:5794   */\n  swap2\n  swap1\n  pop\n  jump\t// out\n    /* \"#utility.yul\":5800:5970   */\ntag_49:\n    /* \"#utility.yul\":5940:5962   */\n  0x44656e6f6d696e61746f72206d757374203e2030000000000000000000000000\n    /* \"#utility.yul\":5936:5937   */\n  0x00\n    /* \"#utility.yul\":5928:5934   */\n  dup3\n    /* \"#utility.yul\":5924:5938   */\n  add\n    /* \"#utility.yul\":5917:5963   */\n  mstore\n    /* \"#utility.yul\":5800:5970   */\n  pop\n  jump\t// out\n    /* \"#utility.yul\":5976:6342   */\ntag_50:\n    /* \"#utility.yul\":6118:6121   */\n  0x00\n    /* \"#utility.yul\":6139:6206   */\n  tag_103\n    /* \"#utility.yul\":6203:6205   */\n  0x14\n    /* \"#utility.yul\":6198:6201   */\n  dup4\n    /* \"#utility.yul\":6139:6206   */\n  tag_42\n  jump\t// in\ntag_103:\n    /* \"#utility.yul\":6132:6206   */\n  swap2\n  pop\n    /* \"#utility.yul\":6215:6308   */\n  tag_104\n    /* \"#utility.yul\":6304:6307   */\n  dup3\n    /* \"#utility.yul\":6215:6308   */\n  tag_49\n  jump\t// in\ntag_104:\n    /* \"#utility.yul\":6333:6335   */\n  0x20\n    /* \"#utility.yul\":6328:6331   */\n  dup3\n    /* \"#utility.yul\":6324:6336   */\n  add\n    /* \"#utility.yul\":6317:6336   */\n  swap1\n  pop\n    /* \"#utility.yul\":5976:6342   */\n  swap2\n  swap1\n  pop\n  jump\t// out\n    /* \"#utility.yul\":6348:6767   */\ntag_28:\n    /* \"#utility.yul\":6514:6518   */\n  0x00\n    /* \"#utility.yul\":6552:6554   */\n  0x20\n    /* \"#utility.yul\":6541:6550   */\n  dup3\n    /* \"#utility.yul\":6537:6555   */\n  add\n    /* \"#utility.yul\":6529:6555   */\n  swap1\n  pop\n    /* \"#utility.yul\":6601:6610   */\n  dup2\n    /* \"#utility.yul\":6595:6599   */\n  dup2\n    /* \"#utility.yul\":6591:6611   */\n  sub\n    /* \"#utility.yul\":6587:6588   */\n  0x00\n    /* \"#utility.yul\":6576:6585   */\n  dup4\n    /* \"#utility.yul\":6572:6589   */\n  add\n    /* \"#utility.yul\":6565:6612   */\n  mstore\n    /* \"#utility.yul\":6629:6760   */\n  tag_106\n    /* \"#utility.yul\":6755:6759   */\n  dup2\n    /* \"#utility.yul\":6629:6760   */\n  tag_50\n  jump\t// in\ntag_106:\n    /* \"#utility.yul\":6621:6760   */\n  swap1\n  pop\n    /* \"#utility.yul\":6348:6767   */\n  swap2\n  swap1\n  pop\n  jump\t// out\n    /* \"Contract Pools/NekoPools_flattened.sol\":12635:18787  contract NekoPools is Ownable, ReentrancyGuard, Pausable {... */\ntag_29:\n  mload(0x80)\n  mload(0xa0)\n  codecopy(0x00, dataOffset(sub_0), dataSize(sub_0))\n  0x00\n  assignImmutable(\"0x7f9a77d0f3f20f99186d3c96ceebda14d57ab164762749b2f5e24ec7779a0f9c\")\n  0x00\n  assignImmutable(\"0x45b6342a02ae42cf7a36e3769317f7b96c6a4d2644ee9d0c4985d913762cb1d4\")\n  return(0x00, dataSize(sub_0))\nstop\n\nsub_0: assembly {\n        /* \"Contract Pools/NekoPools_flattened.sol\":12635:18787  contract NekoPools is Ownable, ReentrancyGuard, Pausable {... */\n      mstore(0x40, 0x80)\n      jumpi(tag_1, lt(calldatasize, 0x04))\n      shr(0xe0, calldataload(0x00))\n      dup1\n      0x9168ae72\n      gt\n      tag_27\n      jumpi\n      dup1\n      0xc89d5b8b\n      gt\n      tag_28\n      jumpi\n      dup1\n      0xc89d5b8b\n      eq\n      tag_21\n      jumpi\n      dup1\n      0xcb43b2dd\n      eq\n      tag_22\n      jumpi\n      dup1\n      0xcc317f31\n      eq\n      tag_23\n      jumpi\n      dup1\n      0xdac3fc3f\n      eq\n      tag_24\n      jumpi\n      dup1\n      0xf2fde38b\n      eq\n      tag_25\n      jumpi\n      dup1\n      0xf7c618c1\n      eq\n      tag_26\n      jumpi\n      jump(tag_2)\n    tag_28:\n      dup1\n      0x9168ae72\n      eq\n      tag_15\n      jumpi\n      dup1\n      0x996f79c0\n      eq\n      tag_16\n      jumpi\n      dup1\n      0xa694fc3a\n      eq\n      tag_17\n      jumpi\n      dup1\n      0xb5d90dc0\n      eq\n      tag_18\n      jumpi\n      dup1\n      0xb88a802f\n      eq\n      tag_19\n      jumpi\n      dup1\n      0xb91a1e8f\n      eq\n      tag_20\n      jumpi\n      jump(tag_2)\n    tag_27:\n      dup1\n      0x4df9d6ba\n      gt\n      tag_29\n      jumpi\n      dup1\n      0x4df9d6ba\n      eq\n      tag_9\n      jumpi\n      dup1\n      0x5c975abb\n      eq\n      tag_10\n      jumpi\n      dup1\n      0x715018a6\n      eq\n      tag_11\n      jumpi\n      dup1\n      0x72f702f3\n      eq\n      tag_12\n      jumpi\n      dup1\n      0x8456cb59\n      eq\n      tag_13\n      jumpi\n      dup1\n      0x8da5cb5b\n      eq\n      tag_14\n      jumpi\n      jump(tag_2)\n    tag_29:\n      dup1\n      0x1b7934\n      eq\n      tag_3\n      jumpi\n      dup1\n      0x0917e776\n      eq\n      tag_4\n      jumpi\n      dup1\n      0x16c621e0\n      eq\n      tag_5\n      jumpi\n      dup1\n      0x2e17de78\n      eq\n      tag_6\n      jumpi\n      dup1\n      0x3c6a7f9b\n      eq\n      tag_7\n      jumpi\n      dup1\n      0x3f4ba83a\n      eq\n      tag_8\n      jumpi\n      jump(tag_2)\n    tag_1:\n      jumpi(tag_2, calldatasize)\n      stop\n    tag_2:\n      0x00\n      dup1\n      revert\n        /* \"Contract Pools/NekoPools_flattened.sol\":14384:14684  function setRewardRatio(uint256 _numerator, uint256 _denominator) external onlyOwner {... */\n    tag_3:\n      callvalue\n      dup1\n      iszero\n      tag_32\n      jumpi\n      0x00\n      dup1\n      revert\n    tag_32:\n      pop\n      tag_33\n      0x04\n      dup1\n      calldatasize\n      sub\n      dup2\n      add\n      swap1\n      tag_34\n      swap2\n      swap1\n      tag_35\n      jump\t// in\n    tag_34:\n      tag_36\n      jump\t// in\n    tag_33:\n      stop\n        /* \"Contract Pools/NekoPools_flattened.sol\":18216:18309  function getTotalStaked() external view returns (uint256) {... */\n    tag_4:\n      callvalue\n      dup1\n      iszero\n      tag_37\n      jumpi\n      0x00\n      dup1\n      revert\n    tag_37:\n      pop\n      tag_38\n      tag_39\n      jump\t// in\n    tag_38:\n      mload(0x40)\n      tag_40\n      swap2\n      swap1\n      tag_41\n      jump\t// in\n    tag_40:\n      mload(0x40)\n      dup1\n      swap2\n      sub\n      swap1\n      return\n        /* \"Contract Pools/NekoPools_flattened.sol\":17481:17703  function depositRewardTokens(uint256 amount) external onlyOwner {... */\n    tag_5:\n      callvalue\n      dup1\n      iszero\n      tag_42\n      jumpi\n      0x00\n      dup1\n      revert\n    tag_42:\n      pop\n      tag_43\n      0x04\n      dup1\n      calldatasize\n      sub\n      dup2\n      add\n      swap1\n      tag_44\n      swap2\n      swap1\n      tag_45\n      jump\t// in\n    tag_44:\n      tag_46\n      jump\t// in\n    tag_43:\n      stop\n        /* \"Contract Pools/NekoPools_flattened.sol\":15748:16241  function unstake(uint256 amount) external nonReentrant whenNotPaused {... */\n    tag_6:\n      callvalue\n      dup1\n      iszero\n      tag_47\n      jumpi\n      0x00\n      dup1\n      revert\n    tag_47:\n      pop\n      tag_48\n      0x04\n      dup1\n      calldatasize\n      sub\n      dup2\n      add\n      swap1\n      tag_49\n      swap2\n      swap1\n      tag_45\n      jump\t// in\n    tag_49:\n      tag_50\n      jump\t// in\n    tag_48:\n      stop\n        /* \"Contract Pools/NekoPools_flattened.sol\":12782:12805  uint256 public timeUnit */\n    tag_7:\n      callvalue\n      dup1\n      iszero\n      tag_51\n      jumpi\n      0x00\n      dup1\n      revert\n    tag_51:\n      pop\n      tag_52\n      tag_53\n      jump\t// in\n    tag_52:\n      mload(0x40)\n      tag_54\n      swap2\n      swap1\n      tag_41\n      jump\t// in\n    tag_54:\n      mload(0x40)\n      dup1\n      swap2\n      sub\n      swap1\n      return\n        /* \"Contract Pools/NekoPools_flattened.sol\":14906:14971  function unpause() external onlyOwner {... */\n    tag_8:\n      callvalue\n      dup1\n      iszero\n      tag_55\n      jumpi\n      0x00\n      dup1\n      revert\n    tag_55:\n      pop\n      tag_56\n      tag_57\n      jump\t// in\n    tag_56:\n      stop\n        /* \"Contract Pools/NekoPools_flattened.sol\":17967:18085  function getPendingReward(address user) external view returns (uint256) {... */\n    tag_9:\n      callvalue\n      dup1\n      iszero\n      tag_58\n      jumpi\n      0x00\n      dup1\n      revert\n    tag_58:\n      pop\n      tag_59\n      0x04\n      dup1\n      calldatasize\n      sub\n      dup2\n      add\n      swap1\n      tag_60\n      swap2\n      swap1\n      tag_61\n      jump\t// in\n    tag_60:\n      tag_62\n      jump\t// in\n    tag_59:\n      mload(0x40)\n      tag_63\n      swap2\n      swap1\n      tag_41\n      jump\t// in\n    tag_63:\n      mload(0x40)\n      dup1\n      swap2\n      sub\n      swap1\n      return\n        /* \"Contract Pools/NekoPools_flattened.sol\":11641:11725  function paused() public view virtual returns (bool) {... */\n    tag_10:\n      callvalue\n      dup1\n      iszero\n      tag_64\n      jumpi\n      0x00\n      dup1\n      revert\n    tag_64:\n      pop\n      tag_65\n      tag_66\n      jump\t// in\n    tag_65:\n      mload(0x40)\n      tag_67\n      swap2\n      swap1\n      tag_68\n      jump\t// in\n    tag_67:\n      mload(0x40)\n      dup1\n      swap2\n      sub\n      swap1\n      return\n        /* \"Contract Pools/NekoPools_flattened.sol\":6062:6163  function renounceOwnership() public virtual onlyOwner {... */\n    tag_11:\n      callvalue\n      dup1\n      iszero\n      tag_69\n      jumpi\n      0x00\n      dup1\n      revert\n    tag_69:\n      pop\n      tag_70\n      tag_71\n      jump\t// in\n    tag_70:\n      stop\n        /* \"Contract Pools/NekoPools_flattened.sol\":12698:12734  IERC20 public immutable stakingToken */\n    tag_12:\n      callvalue\n      dup1\n      iszero\n      tag_72\n      jumpi\n      0x00\n      dup1\n      revert\n    tag_72:\n      pop\n      tag_73\n      tag_74\n      jump\t// in\n    tag_73:\n      mload(0x40)\n      tag_75\n      swap2\n      swap1\n      tag_76\n      jump\t// in\n    tag_75:\n      mload(0x40)\n      dup1\n      swap2\n      sub\n      swap1\n      return\n        /* \"Contract Pools/NekoPools_flattened.sol\":14839:14900  function pause() external onlyOwner {... */\n    tag_13:\n      callvalue\n      dup1\n      iszero\n      tag_77\n      jumpi\n      0x00\n      dup1\n      revert\n    tag_77:\n      pop\n      tag_78\n      tag_79\n      jump\t// in\n    tag_78:\n      stop\n        /* \"Contract Pools/NekoPools_flattened.sol\":5407:5492  function owner() public view virtual returns (address) {... */\n    tag_14:\n      callvalue\n      dup1\n      iszero\n      tag_80\n      jumpi\n      0x00\n      dup1\n      revert\n    tag_80:\n      pop\n      tag_81\n      tag_82\n      jump\t// in\n    tag_81:\n      mload(0x40)\n      tag_83\n      swap2\n      swap1\n      tag_84\n      jump\t// in\n    tag_83:\n      mload(0x40)\n      dup1\n      swap2\n      sub\n      swap1\n      return\n        /* \"Contract Pools/NekoPools_flattened.sol\":13114:13155  mapping(address => Staker) public stakers */\n    tag_15:\n      callvalue\n      dup1\n      iszero\n      tag_85\n      jumpi\n      0x00\n      dup1\n      revert\n    tag_85:\n      pop\n      tag_86\n      0x04\n      dup1\n      calldatasize\n      sub\n      dup2\n      add\n      swap1\n      tag_87\n      swap2\n      swap1\n      tag_61\n      jump\t// in\n    tag_87:\n      tag_88\n      jump\t// in\n    tag_86:\n      mload(0x40)\n      tag_89\n      swap4\n      swap3\n      swap2\n      swap1\n      tag_90\n      jump\t// in\n    tag_89:\n      mload(0x40)\n      dup1\n      swap2\n      sub\n      swap1\n      return\n        /* \"Contract Pools/NekoPools_flattened.sol\":12896:12920  uint256 public nativeFee */\n    tag_16:\n      callvalue\n      dup1\n      iszero\n      tag_91\n      jumpi\n      0x00\n      dup1\n      revert\n    tag_91:\n      pop\n      tag_92\n      tag_93\n      jump\t// in\n    tag_92:\n      mload(0x40)\n      tag_94\n      swap2\n      swap1\n      tag_41\n      jump\t// in\n    tag_94:\n      mload(0x40)\n      dup1\n      swap2\n      sub\n      swap1\n      return\n        /* \"Contract Pools/NekoPools_flattened.sol\":15049:15742  function stake(uint256 amount) external payable nonReentrant whenNotPaused {... */\n    tag_17:\n      tag_95\n      0x04\n      dup1\n      calldatasize\n      sub\n      dup2\n      add\n      swap1\n      tag_96\n      swap2\n      swap1\n      tag_45\n      jump\t// in\n    tag_96:\n      tag_97\n      jump\t// in\n    tag_95:\n      stop\n        /* \"Contract Pools/NekoPools_flattened.sol\":12852:12889  uint256 public rewardRatioDenominator */\n    tag_18:\n      callvalue\n      dup1\n      iszero\n      tag_98\n      jumpi\n      0x00\n      dup1\n      revert\n    tag_98:\n      pop\n      tag_99\n      tag_100\n      jump\t// in\n    tag_99:\n      mload(0x40)\n      tag_101\n      swap2\n      swap1\n      tag_41\n      jump\t// in\n    tag_101:\n      mload(0x40)\n      dup1\n      swap2\n      sub\n      swap1\n      return\n        /* \"Contract Pools/NekoPools_flattened.sol\":16247:16653  function claimReward() external nonReentrant whenNotPaused {... */\n    tag_19:\n      callvalue\n      dup1\n      iszero\n      tag_102\n      jumpi\n      0x00\n      dup1\n      revert\n    tag_102:\n      pop\n      tag_103\n      tag_104\n      jump\t// in\n    tag_103:\n      stop\n        /* \"Contract Pools/NekoPools_flattened.sol\":14690:14833  function setNativeFee(uint256 _nativeFee) external onlyOwner {... */\n    tag_20:\n      callvalue\n      dup1\n      iszero\n      tag_105\n      jumpi\n      0x00\n      dup1\n      revert\n    tag_105:\n      pop\n      tag_106\n      0x04\n      dup1\n      calldatasize\n      sub\n      dup2\n      add\n      swap1\n      tag_107\n      swap2\n      swap1\n      tag_45\n      jump\t// in\n    tag_107:\n      tag_108\n      jump\t// in\n    tag_106:\n      stop\n        /* \"Contract Pools/NekoPools_flattened.sol\":18367:18750  function getAPR() external view returns (uint256) {... */\n    tag_21:\n      callvalue\n      dup1\n      iszero\n      tag_109\n      jumpi\n      0x00\n      dup1\n      revert\n    tag_109:\n      pop\n      tag_110\n      tag_111\n      jump\t// in\n    tag_110:\n      mload(0x40)\n      tag_112\n      swap2\n      swap1\n      tag_41\n      jump\t// in\n    tag_112:\n      mload(0x40)\n      dup1\n      swap2\n      sub\n      swap1\n      return\n        /* \"Contract Pools/NekoPools_flattened.sol\":17709:17914  function withdrawRewardTokens(uint256 amount) external onlyOwner {... */\n    tag_22:\n      callvalue\n      dup1\n      iszero\n      tag_113\n      jumpi\n      0x00\n      dup1\n      revert\n    tag_113:\n      pop\n      tag_114\n      0x04\n      dup1\n      calldatasize\n      sub\n      dup2\n      add\n      swap1\n      tag_115\n      swap2\n      swap1\n      tag_45\n      jump\t// in\n    tag_115:\n      tag_116\n      jump\t// in\n    tag_114:\n      stop\n        /* \"Contract Pools/NekoPools_flattened.sol\":12811:12846  uint256 public rewardRatioNumerator */\n    tag_23:\n      callvalue\n      dup1\n      iszero\n      tag_117\n      jumpi\n      0x00\n      dup1\n      revert\n    tag_117:\n      pop\n      tag_118\n      tag_119\n      jump\t// in\n    tag_118:\n      mload(0x40)\n      tag_120\n      swap2\n      swap1\n      tag_41\n      jump\t// in\n    tag_120:\n      mload(0x40)\n      dup1\n      swap2\n      sub\n      swap1\n      return\n        /* \"Contract Pools/NekoPools_flattened.sol\":18091:18210  function getUserStaked(address user) external view returns (uint256) {... */\n    tag_24:\n      callvalue\n      dup1\n      iszero\n      tag_121\n      jumpi\n      0x00\n      dup1\n      revert\n    tag_121:\n      pop\n      tag_122\n      0x04\n      dup1\n      calldatasize\n      sub\n      dup2\n      add\n      swap1\n      tag_123\n      swap2\n      swap1\n      tag_61\n      jump\t// in\n    tag_123:\n      tag_124\n      jump\t// in\n    tag_122:\n      mload(0x40)\n      tag_125\n      swap2\n      swap1\n      tag_41\n      jump\t// in\n    tag_125:\n      mload(0x40)\n      dup1\n      swap2\n      sub\n      swap1\n      return\n        /* \"Contract Pools/NekoPools_flattened.sol\":6312:6527  function transferOwnership(address newOwner) public virtual onlyOwner {... */\n    tag_25:\n      callvalue\n      dup1\n      iszero\n      tag_126\n      jumpi\n      0x00\n      dup1\n      revert\n    tag_126:\n      pop\n      tag_127\n      0x04\n      dup1\n      calldatasize\n      sub\n      dup2\n      add\n      swap1\n      tag_128\n      swap2\n      swap1\n      tag_61\n      jump\t// in\n    tag_128:\n      tag_129\n      jump\t// in\n    tag_127:\n      stop\n        /* \"Contract Pools/NekoPools_flattened.sol\":12740:12775  IERC20 public immutable rewardToken */\n    tag_26:\n      callvalue\n      dup1\n      iszero\n      tag_130\n      jumpi\n      0x00\n      dup1\n      revert\n    tag_130:\n      pop\n      tag_131\n      tag_132\n      jump\t// in\n    tag_131:\n      mload(0x40)\n      tag_133\n      swap2\n      swap1\n      tag_76\n      jump\t// in\n    tag_133:\n      mload(0x40)\n      dup1\n      swap2\n      sub\n      swap1\n      return\n        /* \"Contract Pools/NekoPools_flattened.sol\":14384:14684  function setRewardRatio(uint256 _numerator, uint256 _denominator) external onlyOwner {... */\n    tag_36:\n        /* \"Contract Pools/NekoPools_flattened.sol\":5300:5313  _checkOwner() */\n      tag_135\n        /* \"Contract Pools/NekoPools_flattened.sol\":5300:5311  _checkOwner */\n      tag_136\n        /* \"Contract Pools/NekoPools_flattened.sol\":5300:5313  _checkOwner() */\n      jump\t// in\n    tag_135:\n        /* \"Contract Pools/NekoPools_flattened.sol\":14502:14503  0 */\n      0x00\n        /* \"Contract Pools/NekoPools_flattened.sol\":14487:14499  _denominator */\n      dup2\n        /* \"Contract Pools/NekoPools_flattened.sol\":14487:14503  _denominator > 0 */\n      gt\n        /* \"Contract Pools/NekoPools_flattened.sol\":14479:14528  require(_denominator > 0, \"Denominator must > 0\") */\n      tag_138\n      jumpi\n      mload(0x40)\n      0x08c379a000000000000000000000000000000000000000000000000000000000\n      dup2\n      mstore\n      0x04\n      add\n      tag_139\n      swap1\n      tag_140\n      jump\t// in\n    tag_139:\n      mload(0x40)\n      dup1\n      swap2\n      sub\n      swap1\n      revert\n    tag_138:\n        /* \"Contract Pools/NekoPools_flattened.sol\":14561:14571  _numerator */\n      dup2\n        /* \"Contract Pools/NekoPools_flattened.sol\":14538:14558  rewardRatioNumerator */\n      0x04\n        /* \"Contract Pools/NekoPools_flattened.sol\":14538:14571  rewardRatioNumerator = _numerator */\n      dup2\n      swap1\n      sstore\n      pop\n        /* \"Contract Pools/NekoPools_flattened.sol\":14606:14618  _denominator */\n      dup1\n        /* \"Contract Pools/NekoPools_flattened.sol\":14581:14603  rewardRatioDenominator */\n      0x05\n        /* \"Contract Pools/NekoPools_flattened.sol\":14581:14618  rewardRatioDenominator = _denominator */\n      dup2\n      swap1\n      sstore\n      pop\n        /* \"Contract Pools/NekoPools_flattened.sol\":14633:14677  RewardRatioUpdated(_numerator, _denominator) */\n      0x2cda5f90308a6ed0aad400f6ddc7575e31b5f1428c50c054ae54e1939ff164b8\n        /* \"Contract Pools/NekoPools_flattened.sol\":14652:14662  _numerator */\n      dup3\n        /* \"Contract Pools/NekoPools_flattened.sol\":14664:14676  _denominator */\n      dup3\n        /* \"Contract Pools/NekoPools_flattened.sol\":14633:14677  RewardRatioUpdated(_numerator, _denominator) */\n      mload(0x40)\n      tag_141\n      swap3\n      swap2\n      swap1\n      tag_142\n      jump\t// in\n    tag_141:\n      mload(0x40)\n      dup1\n      swap2\n      sub\n      swap1\n      log1\n        /* \"Contract Pools/NekoPools_flattened.sol\":14384:14684  function setRewardRatio(uint256 _numerator, uint256 _denominator) external onlyOwner {... */\n      pop\n      pop\n      jump\t// out\n        /* \"Contract Pools/NekoPools_flattened.sol\":18216:18309  function getTotalStaked() external view returns (uint256) {... */\n    tag_39:\n        /* \"Contract Pools/NekoPools_flattened.sol\":18265:18272  uint256 */\n      0x00\n        /* \"Contract Pools/NekoPools_flattened.sol\":18291:18302  totalStaked */\n      sload(0x07)\n        /* \"Contract Pools/NekoPools_flattened.sol\":18284:18302  return totalStaked */\n      swap1\n      pop\n        /* \"Contract Pools/NekoPools_flattened.sol\":18216:18309  function getTotalStaked() external view returns (uint256) {... */\n      swap1\n      jump\t// out\n        /* \"Contract Pools/NekoPools_flattened.sol\":17481:17703  function depositRewardTokens(uint256 amount) external onlyOwner {... */\n    tag_46:\n        /* \"Contract Pools/NekoPools_flattened.sol\":5300:5313  _checkOwner() */\n      tag_145\n        /* \"Contract Pools/NekoPools_flattened.sol\":5300:5311  _checkOwner */\n      tag_136\n        /* \"Contract Pools/NekoPools_flattened.sol\":5300:5313  _checkOwner() */\n      jump\t// in\n    tag_145:\n        /* \"Contract Pools/NekoPools_flattened.sol\":17563:17574  rewardToken */\n      immutable(\"0x7f9a77d0f3f20f99186d3c96ceebda14d57ab164762749b2f5e24ec7779a0f9c\")\n        /* \"Contract Pools/NekoPools_flattened.sol\":17563:17587  rewardToken.transferFrom */\n      0xffffffffffffffffffffffffffffffffffffffff\n      and\n      0x23b872dd\n        /* \"Contract Pools/NekoPools_flattened.sol\":17588:17598  msg.sender */\n      caller\n        /* \"Contract Pools/NekoPools_flattened.sol\":17608:17612  this */\n      address\n        /* \"Contract Pools/NekoPools_flattened.sol\":17615:17621  amount */\n      dup5\n        /* \"Contract Pools/NekoPools_flattened.sol\":17563:17622  rewardToken.transferFrom(msg.sender, address(this), amount) */\n      mload(0x40)\n      dup5\n      0xffffffff\n      and\n      0xe0\n      shl\n      dup2\n      mstore\n      0x04\n      add\n      tag_147\n      swap4\n      swap3\n      swap2\n      swap1\n      tag_148\n      jump\t// in\n    tag_147:\n      0x20\n      mload(0x40)\n      dup1\n      dup4\n      sub\n      dup2\n      0x00\n      dup8\n      gas\n      call\n      iszero\n      dup1\n      iszero\n      tag_150\n      jumpi\n      returndatasize\n      0x00\n      dup1\n      returndatacopy\n      revert(0x00, returndatasize)\n    tag_150:\n      pop\n      pop\n      pop\n      pop\n      mload(0x40)\n      returndatasize\n      not(0x1f)\n      0x1f\n      dup3\n      add\n      and\n      dup3\n      add\n      dup1\n      0x40\n      mstore\n      pop\n      dup2\n      add\n      swap1\n      tag_151\n      swap2\n      swap1\n      tag_152\n      jump\t// in\n    tag_151:\n        /* \"Contract Pools/NekoPools_flattened.sol\":17555:17641  require(rewardToken.transferFrom(msg.sender, address(this), amount), \"Deposit failed\") */\n      tag_153\n      jumpi\n      mload(0x40)\n      0x08c379a000000000000000000000000000000000000000000000000000000000\n      dup2\n      mstore\n      0x04\n      add\n      tag_154\n      swap1\n      tag_155\n      jump\t// in\n    tag_154:\n      mload(0x40)\n      dup1\n      swap2\n      sub\n      swap1\n      revert\n    tag_153:\n        /* \"Contract Pools/NekoPools_flattened.sol\":17677:17687  msg.sender */\n      caller\n        /* \"Contract Pools/NekoPools_flattened.sol\":17656:17696  RewardTokenDeposited(msg.sender, amount) */\n      0xffffffffffffffffffffffffffffffffffffffff\n      and\n      0xac1f5f240b57fc014c4875ec0fa399f96ca891f85156ba195e6512ccd4ada548\n        /* \"Contract Pools/NekoPools_flattened.sol\":17689:17695  amount */\n      dup3\n        /* \"Contract Pools/NekoPools_flattened.sol\":17656:17696  RewardTokenDeposited(msg.sender, amount) */\n      mload(0x40)\n      tag_156\n      swap2\n      swap1\n      tag_41\n      jump\t// in\n    tag_156:\n      mload(0x40)\n      dup1\n      swap2\n      sub\n      swap1\n      log2\n        /* \"Contract Pools/NekoPools_flattened.sol\":17481:17703  function depositRewardTokens(uint256 amount) external onlyOwner {... */\n      pop\n      jump\t// out\n        /* \"Contract Pools/NekoPools_flattened.sol\":15748:16241  function unstake(uint256 amount) external nonReentrant whenNotPaused {... */\n    tag_50:\n        /* \"Contract Pools/NekoPools_flattened.sol\":9165:9186  _nonReentrantBefore() */\n      tag_158\n        /* \"Contract Pools/NekoPools_flattened.sol\":9165:9184  _nonReentrantBefore */\n      tag_159\n        /* \"Contract Pools/NekoPools_flattened.sol\":9165:9186  _nonReentrantBefore() */\n      jump\t// in\n    tag_158:\n        /* \"Contract Pools/NekoPools_flattened.sol\":11265:11284  _requireNotPaused() */\n      tag_161\n        /* \"Contract Pools/NekoPools_flattened.sol\":11265:11282  _requireNotPaused */\n      tag_162\n        /* \"Contract Pools/NekoPools_flattened.sol\":11265:11284  _requireNotPaused() */\n      jump\t// in\n    tag_161:\n        /* \"Contract Pools/NekoPools_flattened.sol\":15827:15848  Staker storage staker */\n      0x00\n        /* \"Contract Pools/NekoPools_flattened.sol\":15851:15858  stakers */\n      0x08\n        /* \"Contract Pools/NekoPools_flattened.sol\":15851:15870  stakers[msg.sender] */\n      0x00\n        /* \"Contract Pools/NekoPools_flattened.sol\":15859:15869  msg.sender */\n      caller\n        /* \"Contract Pools/NekoPools_flattened.sol\":15851:15870  stakers[msg.sender] */\n      0xffffffffffffffffffffffffffffffffffffffff\n      and\n      0xffffffffffffffffffffffffffffffffffffffff\n      and\n      dup2\n      mstore\n      0x20\n      add\n      swap1\n      dup2\n      mstore\n      0x20\n      add\n      0x00\n      keccak256\n        /* \"Contract Pools/NekoPools_flattened.sol\":15827:15870  Staker storage staker = stakers[msg.sender] */\n      swap1\n      pop\n        /* \"Contract Pools/NekoPools_flattened.sol\":15911:15917  amount */\n      dup2\n        /* \"Contract Pools/NekoPools_flattened.sol\":15888:15894  staker */\n      dup2\n        /* \"Contract Pools/NekoPools_flattened.sol\":15888:15907  staker.amountStaked */\n      0x00\n      add\n      sload\n        /* \"Contract Pools/NekoPools_flattened.sol\":15888:15917  staker.amountStaked >= amount */\n      lt\n      iszero\n        /* \"Contract Pools/NekoPools_flattened.sol\":15880:15940  require(staker.amountStaked >= amount, \"Insufficient stake\") */\n      tag_164\n      jumpi\n      mload(0x40)\n      0x08c379a000000000000000000000000000000000000000000000000000000000\n      dup2\n      mstore\n      0x04\n      add\n      tag_165\n      swap1\n      tag_166\n      jump\t// in\n    tag_165:\n      mload(0x40)\n      dup1\n      swap2\n      sub\n      swap1\n      revert\n    tag_164:\n        /* \"Contract Pools/NekoPools_flattened.sol\":15951:15975  _claimReward(msg.sender) */\n      tag_167\n        /* \"Contract Pools/NekoPools_flattened.sol\":15964:15974  msg.sender */\n      caller\n        /* \"Contract Pools/NekoPools_flattened.sol\":15951:15963  _claimReward */\n      tag_168\n        /* \"Contract Pools/NekoPools_flattened.sol\":15951:15975  _claimReward(msg.sender) */\n      jump\t// in\n    tag_167:\n        /* \"Contract Pools/NekoPools_flattened.sol\":16009:16015  amount */\n      dup2\n        /* \"Contract Pools/NekoPools_flattened.sol\":15986:15992  staker */\n      dup2\n        /* \"Contract Pools/NekoPools_flattened.sol\":15986:16005  staker.amountStaked */\n      0x00\n      add\n      0x00\n        /* \"Contract Pools/NekoPools_flattened.sol\":15986:16015  staker.amountStaked -= amount */\n      dup3\n      dup3\n      sload\n      tag_169\n      swap2\n      swap1\n      tag_170\n      jump\t// in\n    tag_169:\n      swap3\n      pop\n      pop\n      dup2\n      swap1\n      sstore\n      pop\n        /* \"Contract Pools/NekoPools_flattened.sol\":16040:16046  amount */\n      dup2\n        /* \"Contract Pools/NekoPools_flattened.sol\":16025:16036  totalStaked */\n      0x07\n      0x00\n        /* \"Contract Pools/NekoPools_flattened.sol\":16025:16046  totalStaked -= amount */\n      dup3\n      dup3\n      sload\n      tag_171\n      swap2\n      swap1\n      tag_170\n      jump\t// in\n    tag_171:\n      swap3\n      pop\n      pop\n      dup2\n      swap1\n      sstore\n      pop\n        /* \"Contract Pools/NekoPools_flattened.sol\":16115:16127  stakingToken */\n      immutable(\"0x45b6342a02ae42cf7a36e3769317f7b96c6a4d2644ee9d0c4985d913762cb1d4\")\n        /* \"Contract Pools/NekoPools_flattened.sol\":16115:16136  stakingToken.transfer */\n      0xffffffffffffffffffffffffffffffffffffffff\n      and\n      0xa9059cbb\n        /* \"Contract Pools/NekoPools_flattened.sol\":16137:16147  msg.sender */\n      caller\n        /* \"Contract Pools/NekoPools_flattened.sol\":16149:16155  amount */\n      dup5\n        /* \"Contract Pools/NekoPools_flattened.sol\":16115:16156  stakingToken.transfer(msg.sender, amount) */\n      mload(0x40)\n      dup4\n      0xffffffff\n      and\n      0xe0\n      shl\n      dup2\n      mstore\n      0x04\n      add\n      tag_172\n      swap3\n      swap2\n      swap1\n      tag_173\n      jump\t// in\n    tag_172:\n      0x20\n      mload(0x40)\n      dup1\n      dup4\n      sub\n      dup2\n      0x00\n      dup8\n      gas\n      call\n      iszero\n      dup1\n      iszero\n      tag_175\n      jumpi\n      returndatasize\n      0x00\n      dup1\n      returndatacopy\n      revert(0x00, returndatasize)\n    tag_175:\n      pop\n      pop\n      pop\n      pop\n      mload(0x40)\n      returndatasize\n      not(0x1f)\n      0x1f\n      dup3\n      add\n      and\n      dup3\n      add\n      dup1\n      0x40\n      mstore\n      pop\n      dup2\n      add\n      swap1\n      tag_176\n      swap2\n      swap1\n      tag_152\n      jump\t// in\n    tag_176:\n        /* \"Contract Pools/NekoPools_flattened.sol\":16107:16190  require(stakingToken.transfer(msg.sender, amount), \"Unstake token transfer failed\") */\n      tag_177\n      jumpi\n      mload(0x40)\n      0x08c379a000000000000000000000000000000000000000000000000000000000\n      dup2\n      mstore\n      0x04\n      add\n      tag_178\n      swap1\n      tag_179\n      jump\t// in\n    tag_178:\n      mload(0x40)\n      dup1\n      swap2\n      sub\n      swap1\n      revert\n    tag_177:\n        /* \"Contract Pools/NekoPools_flattened.sol\":16215:16225  msg.sender */\n      caller\n        /* \"Contract Pools/NekoPools_flattened.sol\":16206:16234  Unstaked(msg.sender, amount) */\n      0xffffffffffffffffffffffffffffffffffffffff\n      and\n      0x0f5bb82176feb1b5e747e28471aa92156a04d9f3ab9f45f28e2d704232b93f75\n        /* \"Contract Pools/NekoPools_flattened.sol\":16227:16233  amount */\n      dup4\n        /* \"Contract Pools/NekoPools_flattened.sol\":16206:16234  Unstaked(msg.sender, amount) */\n      mload(0x40)\n      tag_180\n      swap2\n      swap1\n      tag_41\n      jump\t// in\n    tag_180:\n      mload(0x40)\n      dup1\n      swap2\n      sub\n      swap1\n      log2\n        /* \"Contract Pools/NekoPools_flattened.sol\":15817:16241  {... */\n      pop\n        /* \"Contract Pools/NekoPools_flattened.sol\":9207:9227  _nonReentrantAfter() */\n      tag_181\n        /* \"Contract Pools/NekoPools_flattened.sol\":9207:9225  _nonReentrantAfter */\n      tag_182\n        /* \"Contract Pools/NekoPools_flattened.sol\":9207:9227  _nonReentrantAfter() */\n      jump\t// in\n    tag_181:\n        /* \"Contract Pools/NekoPools_flattened.sol\":15748:16241  function unstake(uint256 amount) external nonReentrant whenNotPaused {... */\n      pop\n      jump\t// out\n        /* \"Contract Pools/NekoPools_flattened.sol\":12782:12805  uint256 public timeUnit */\n    tag_53:\n      sload(0x03)\n      dup2\n      jump\t// out\n        /* \"Contract Pools/NekoPools_flattened.sol\":14906:14971  function unpause() external onlyOwner {... */\n    tag_57:\n        /* \"Contract Pools/NekoPools_flattened.sol\":5300:5313  _checkOwner() */\n      tag_184\n        /* \"Contract Pools/NekoPools_flattened.sol\":5300:5311  _checkOwner */\n      tag_136\n        /* \"Contract Pools/NekoPools_flattened.sol\":5300:5313  _checkOwner() */\n      jump\t// in\n    tag_184:\n        /* \"Contract Pools/NekoPools_flattened.sol\":14954:14964  _unpause() */\n      tag_186\n        /* \"Contract Pools/NekoPools_flattened.sol\":14954:14962  _unpause */\n      tag_187\n        /* \"Contract Pools/NekoPools_flattened.sol\":14954:14964  _unpause() */\n      jump\t// in\n    tag_186:\n        /* \"Contract Pools/NekoPools_flattened.sol\":14906:14971  function unpause() external onlyOwner {... */\n      jump\t// out\n        /* \"Contract Pools/NekoPools_flattened.sol\":17967:18085  function getPendingReward(address user) external view returns (uint256) {... */\n    tag_62:\n        /* \"Contract Pools/NekoPools_flattened.sol\":18030:18037  uint256 */\n      0x00\n        /* \"Contract Pools/NekoPools_flattened.sol\":18056:18078  _calculateReward(user) */\n      tag_189\n        /* \"Contract Pools/NekoPools_flattened.sol\":18073:18077  user */\n      dup3\n        /* \"Contract Pools/NekoPools_flattened.sol\":18056:18072  _calculateReward */\n      tag_190\n        /* \"Contract Pools/NekoPools_flattened.sol\":18056:18078  _calculateReward(user) */\n      jump\t// in\n    tag_189:\n        /* \"Contract Pools/NekoPools_flattened.sol\":18049:18078  return _calculateReward(user) */\n      swap1\n      pop\n        /* \"Contract Pools/NekoPools_flattened.sol\":17967:18085  function getPendingReward(address user) external view returns (uint256) {... */\n      swap2\n      swap1\n      pop\n      jump\t// out\n        /* \"Contract Pools/NekoPools_flattened.sol\":11641:11725  function paused() public view virtual returns (bool) {... */\n    tag_66:\n        /* \"Contract Pools/NekoPools_flattened.sol\":11688:11692  bool */\n      0x00\n        /* \"Contract Pools/NekoPools_flattened.sol\":11711:11718  _paused */\n      0x02\n      0x00\n      swap1\n      sload\n      swap1\n      0x0100\n      exp\n      swap1\n      div\n      0xff\n      and\n        /* \"Contract Pools/NekoPools_flattened.sol\":11704:11718  return _paused */\n      swap1\n      pop\n        /* \"Contract Pools/NekoPools_flattened.sol\":11641:11725  function paused() public view virtual returns (bool) {... */\n      swap1\n      jump\t// out\n        /* \"Contract Pools/NekoPools_flattened.sol\":6062:6163  function renounceOwnership() public virtual onlyOwner {... */\n    tag_71:\n        /* \"Contract Pools/NekoPools_flattened.sol\":5300:5313  _checkOwner() */\n      tag_193\n        /* \"Contract Pools/NekoPools_flattened.sol\":5300:5311  _checkOwner */\n      tag_136\n        /* \"Contract Pools/NekoPools_flattened.sol\":5300:5313  _checkOwner() */\n      jump\t// in\n    tag_193:\n        /* \"Contract Pools/NekoPools_flattened.sol\":6126:6156  _transferOwnership(address(0)) */\n      tag_195\n        /* \"Contract Pools/NekoPools_flattened.sol\":6153:6154  0 */\n      0x00\n        /* \"Contract Pools/NekoPools_flattened.sol\":6126:6144  _transferOwnership */\n      tag_196\n        /* \"Contract Pools/NekoPools_flattened.sol\":6126:6156  _transferOwnership(address(0)) */\n      jump\t// in\n    tag_195:\n        /* \"Contract Pools/NekoPools_flattened.sol\":6062:6163  function renounceOwnership() public virtual onlyOwner {... */\n      jump\t// out\n        /* \"Contract Pools/NekoPools_flattened.sol\":12698:12734  IERC20 public immutable stakingToken */\n    tag_74:\n      immutable(\"0x45b6342a02ae42cf7a36e3769317f7b96c6a4d2644ee9d0c4985d913762cb1d4\")\n      dup2\n      jump\t// out\n        /* \"Contract Pools/NekoPools_flattened.sol\":14839:14900  function pause() external onlyOwner {... */\n    tag_79:\n        /* \"Contract Pools/NekoPools_flattened.sol\":5300:5313  _checkOwner() */\n      tag_198\n        /* \"Contract Pools/NekoPools_flattened.sol\":5300:5311  _checkOwner */\n      tag_136\n        /* \"Contract Pools/NekoPools_flattened.sol\":5300:5313  _checkOwner() */\n      jump\t// in\n    tag_198:\n        /* \"Contract Pools/NekoPools_flattened.sol\":14885:14893  _pause() */\n      tag_200\n        /* \"Contract Pools/NekoPools_flattened.sol\":14885:14891  _pause */\n      tag_201\n        /* \"Contract Pools/NekoPools_flattened.sol\":14885:14893  _pause() */\n      jump\t// in\n    tag_200:\n        /* \"Contract Pools/NekoPools_flattened.sol\":14839:14900  function pause() external onlyOwner {... */\n      jump\t// out\n        /* \"Contract Pools/NekoPools_flattened.sol\":5407:5492  function owner() public view virtual returns (address) {... */\n    tag_82:\n        /* \"Contract Pools/NekoPools_flattened.sol\":5453:5460  address */\n      0x00\n        /* \"Contract Pools/NekoPools_flattened.sol\":5479:5485  _owner */\n      dup1\n      0x00\n      swap1\n      sload\n      swap1\n      0x0100\n      exp\n      swap1\n      div\n      0xffffffffffffffffffffffffffffffffffffffff\n      and\n        /* \"Contract Pools/NekoPools_flattened.sol\":5472:5485  return _owner */\n      swap1\n      pop\n        /* \"Contract Pools/NekoPools_flattened.sol\":5407:5492  function owner() public view virtual returns (address) {... */\n      swap1\n      jump\t// out\n        /* \"Contract Pools/NekoPools_flattened.sol\":13114:13155  mapping(address => Staker) public stakers */\n    tag_88:\n      mstore(0x20, 0x08)\n      dup1\n      0x00\n      mstore\n      keccak256(0x00, 0x40)\n      0x00\n      swap2\n      pop\n      swap1\n      pop\n      dup1\n      0x00\n      add\n      sload\n      swap1\n      dup1\n      0x01\n      add\n      sload\n      swap1\n      dup1\n      0x02\n      add\n      sload\n      swap1\n      pop\n      dup4\n      jump\t// out\n        /* \"Contract Pools/NekoPools_flattened.sol\":12896:12920  uint256 public nativeFee */\n    tag_93:\n      sload(0x06)\n      dup2\n      jump\t// out\n        /* \"Contract Pools/NekoPools_flattened.sol\":15049:15742  function stake(uint256 amount) external payable nonReentrant whenNotPaused {... */\n    tag_97:\n        /* \"Contract Pools/NekoPools_flattened.sol\":9165:9186  _nonReentrantBefore() */\n      tag_204\n        /* \"Contract Pools/NekoPools_flattened.sol\":9165:9184  _nonReentrantBefore */\n      tag_159\n        /* \"Contract Pools/NekoPools_flattened.sol\":9165:9186  _nonReentrantBefore() */\n      jump\t// in\n    tag_204:\n        /* \"Contract Pools/NekoPools_flattened.sol\":11265:11284  _requireNotPaused() */\n      tag_206\n        /* \"Contract Pools/NekoPools_flattened.sol\":11265:11282  _requireNotPaused */\n      tag_162\n        /* \"Contract Pools/NekoPools_flattened.sol\":11265:11284  _requireNotPaused() */\n      jump\t// in\n    tag_206:\n        /* \"Contract Pools/NekoPools_flattened.sol\":15155:15164  nativeFee */\n      sload(0x06)\n        /* \"Contract Pools/NekoPools_flattened.sol\":15142:15151  msg.value */\n      callvalue\n        /* \"Contract Pools/NekoPools_flattened.sol\":15142:15164  msg.value >= nativeFee */\n      lt\n      iszero\n        /* \"Contract Pools/NekoPools_flattened.sol\":15134:15188  require(msg.value >= nativeFee, \"Must pay native fee\") */\n      tag_208\n      jumpi\n      mload(0x40)\n      0x08c379a000000000000000000000000000000000000000000000000000000000\n      dup2\n      mstore\n      0x04\n      add\n      tag_209\n      swap1\n      tag_210\n      jump\t// in\n    tag_209:\n      mload(0x40)\n      dup1\n      swap2\n      sub\n      swap1\n      revert\n    tag_208:\n        /* \"Contract Pools/NekoPools_flattened.sol\":15215:15216  0 */\n      0x00\n        /* \"Contract Pools/NekoPools_flattened.sol\":15206:15212  amount */\n      dup2\n        /* \"Contract Pools/NekoPools_flattened.sol\":15206:15216  amount > 0 */\n      gt\n        /* \"Contract Pools/NekoPools_flattened.sol\":15198:15236  require(amount > 0, \"Amount must > 0\") */\n      tag_211\n      jumpi\n      mload(0x40)\n      0x08c379a000000000000000000000000000000000000000000000000000000000\n      dup2\n      mstore\n      0x04\n      add\n      tag_212\n      swap1\n      tag_213\n      jump\t// in\n    tag_212:\n      mload(0x40)\n      dup1\n      swap2\n      sub\n      swap1\n      revert\n    tag_211:\n        /* \"Contract Pools/NekoPools_flattened.sol\":15288:15295  owner() */\n      tag_214\n        /* \"Contract Pools/NekoPools_flattened.sol\":15288:15293  owner */\n      tag_82\n        /* \"Contract Pools/NekoPools_flattened.sol\":15288:15295  owner() */\n      jump\t// in\n    tag_214:\n        /* \"Contract Pools/NekoPools_flattened.sol\":15280:15305  payable(owner()).transfer */\n      0xffffffffffffffffffffffffffffffffffffffff\n      and\n        /* \"Contract Pools/NekoPools_flattened.sol\":15280:15316  payable(owner()).transfer(nativeFee) */\n      0x08fc\n        /* \"Contract Pools/NekoPools_flattened.sol\":15306:15315  nativeFee */\n      sload(0x06)\n        /* \"Contract Pools/NekoPools_flattened.sol\":15280:15316  payable(owner()).transfer(nativeFee) */\n      swap1\n      dup2\n      iszero\n      mul\n      swap1\n      mload(0x40)\n      0x00\n      mload(0x40)\n      dup1\n      dup4\n      sub\n      dup2\n      dup6\n      dup9\n      dup9\n      call\n      swap4\n      pop\n      pop\n      pop\n      pop\n      iszero\n      dup1\n      iszero\n      tag_216\n      jumpi\n      returndatasize\n      0x00\n      dup1\n      returndatacopy\n      revert(0x00, returndatasize)\n    tag_216:\n      pop\n        /* \"Contract Pools/NekoPools_flattened.sol\":15327:15348  Staker storage staker */\n      0x00\n        /* \"Contract Pools/NekoPools_flattened.sol\":15351:15358  stakers */\n      0x08\n        /* \"Contract Pools/NekoPools_flattened.sol\":15351:15370  stakers[msg.sender] */\n      0x00\n        /* \"Contract Pools/NekoPools_flattened.sol\":15359:15369  msg.sender */\n      caller\n        /* \"Contract Pools/NekoPools_flattened.sol\":15351:15370  stakers[msg.sender] */\n      0xffffffffffffffffffffffffffffffffffffffff\n      and\n      0xffffffffffffffffffffffffffffffffffffffff\n      and\n      dup2\n      mstore\n      0x20\n      add\n      swap1\n      dup2\n      mstore\n      0x20\n      add\n      0x00\n      keccak256\n        /* \"Contract Pools/NekoPools_flattened.sol\":15327:15370  Staker storage staker = stakers[msg.sender] */\n      swap1\n      pop\n        /* \"Contract Pools/NekoPools_flattened.sol\":15380:15404  _claimReward(msg.sender) */\n      tag_217\n        /* \"Contract Pools/NekoPools_flattened.sol\":15393:15403  msg.sender */\n      caller\n        /* \"Contract Pools/NekoPools_flattened.sol\":15380:15392  _claimReward */\n      tag_168\n        /* \"Contract Pools/NekoPools_flattened.sol\":15380:15404  _claimReward(msg.sender) */\n      jump\t// in\n    tag_217:\n        /* \"Contract Pools/NekoPools_flattened.sol\":15479:15491  stakingToken */\n      immutable(\"0x45b6342a02ae42cf7a36e3769317f7b96c6a4d2644ee9d0c4985d913762cb1d4\")\n        /* \"Contract Pools/NekoPools_flattened.sol\":15479:15504  stakingToken.transferFrom */\n      0xffffffffffffffffffffffffffffffffffffffff\n      and\n      0x23b872dd\n        /* \"Contract Pools/NekoPools_flattened.sol\":15505:15515  msg.sender */\n      caller\n        /* \"Contract Pools/NekoPools_flattened.sol\":15525:15529  this */\n      address\n        /* \"Contract Pools/NekoPools_flattened.sol\":15532:15538  amount */\n      dup6\n        /* \"Contract Pools/NekoPools_flattened.sol\":15479:15539  stakingToken.transferFrom(msg.sender, address(this), amount) */\n      mload(0x40)\n      dup5\n      0xffffffff\n      and\n      0xe0\n      shl\n      dup2\n      mstore\n      0x04\n      add\n      tag_218\n      swap4\n      swap3\n      swap2\n      swap1\n      tag_148\n      jump\t// in\n    tag_218:\n      0x20\n      mload(0x40)\n      dup1\n      dup4\n      sub\n      dup2\n      0x00\n      dup8\n      gas\n      call\n      iszero\n      dup1\n      iszero\n      tag_220\n      jumpi\n      returndatasize\n      0x00\n      dup1\n      returndatacopy\n      revert(0x00, returndatasize)\n    tag_220:\n      pop\n      pop\n      pop\n      pop\n      mload(0x40)\n      returndatasize\n      not(0x1f)\n      0x1f\n      dup3\n      add\n      and\n      dup3\n      add\n      dup1\n      0x40\n      mstore\n      pop\n      dup2\n      add\n      swap1\n      tag_221\n      swap2\n      swap1\n      tag_152\n      jump\t// in\n    tag_221:\n        /* \"Contract Pools/NekoPools_flattened.sol\":15471:15571  require(stakingToken.transferFrom(msg.sender, address(this), amount), \"Stake token transfer failed\") */\n      tag_222\n      jumpi\n      mload(0x40)\n      0x08c379a000000000000000000000000000000000000000000000000000000000\n      dup2\n      mstore\n      0x04\n      add\n      tag_223\n      swap1\n      tag_224\n      jump\t// in\n    tag_223:\n      mload(0x40)\n      dup1\n      swap2\n      sub\n      swap1\n      revert\n    tag_222:\n        /* \"Contract Pools/NekoPools_flattened.sol\":15605:15611  amount */\n      dup2\n        /* \"Contract Pools/NekoPools_flattened.sol\":15582:15588  staker */\n      dup2\n        /* \"Contract Pools/NekoPools_flattened.sol\":15582:15601  staker.amountStaked */\n      0x00\n      add\n      0x00\n        /* \"Contract Pools/NekoPools_flattened.sol\":15582:15611  staker.amountStaked += amount */\n      dup3\n      dup3\n      sload\n      tag_225\n      swap2\n      swap1\n      tag_226\n      jump\t// in\n    tag_225:\n      swap3\n      pop\n      pop\n      dup2\n      swap1\n      sstore\n      pop\n        /* \"Contract Pools/NekoPools_flattened.sol\":15646:15661  block.timestamp */\n      timestamp\n        /* \"Contract Pools/NekoPools_flattened.sol\":15621:15627  staker */\n      dup2\n        /* \"Contract Pools/NekoPools_flattened.sol\":15621:15643  staker.lastClaimedTime */\n      0x01\n      add\n        /* \"Contract Pools/NekoPools_flattened.sol\":15621:15661  staker.lastClaimedTime = block.timestamp */\n      dup2\n      swap1\n      sstore\n      pop\n        /* \"Contract Pools/NekoPools_flattened.sol\":15687:15693  amount */\n      dup2\n        /* \"Contract Pools/NekoPools_flattened.sol\":15672:15683  totalStaked */\n      0x07\n      0x00\n        /* \"Contract Pools/NekoPools_flattened.sol\":15672:15693  totalStaked += amount */\n      dup3\n      dup3\n      sload\n      tag_227\n      swap2\n      swap1\n      tag_226\n      jump\t// in\n    tag_227:\n      swap3\n      pop\n      pop\n      dup2\n      swap1\n      sstore\n      pop\n        /* \"Contract Pools/NekoPools_flattened.sol\":15716:15726  msg.sender */\n      caller\n        /* \"Contract Pools/NekoPools_flattened.sol\":15709:15735  Staked(msg.sender, amount) */\n      0xffffffffffffffffffffffffffffffffffffffff\n      and\n      0x9e71bc8eea02a63969f509818f2dafb9254532904319f9dbda79b67bd34a5f3d\n        /* \"Contract Pools/NekoPools_flattened.sol\":15728:15734  amount */\n      dup4\n        /* \"Contract Pools/NekoPools_flattened.sol\":15709:15735  Staked(msg.sender, amount) */\n      mload(0x40)\n      tag_228\n      swap2\n      swap1\n      tag_41\n      jump\t// in\n    tag_228:\n      mload(0x40)\n      dup1\n      swap2\n      sub\n      swap1\n      log2\n        /* \"Contract Pools/NekoPools_flattened.sol\":15124:15742  {... */\n      pop\n        /* \"Contract Pools/NekoPools_flattened.sol\":9207:9227  _nonReentrantAfter() */\n      tag_229\n        /* \"Contract Pools/NekoPools_flattened.sol\":9207:9225  _nonReentrantAfter */\n      tag_182\n        /* \"Contract Pools/NekoPools_flattened.sol\":9207:9227  _nonReentrantAfter() */\n      jump\t// in\n    tag_229:\n        /* \"Contract Pools/NekoPools_flattened.sol\":15049:15742  function stake(uint256 amount) external payable nonReentrant whenNotPaused {... */\n      pop\n      jump\t// out\n        /* \"Contract Pools/NekoPools_flattened.sol\":12852:12889  uint256 public rewardRatioDenominator */\n    tag_100:\n      sload(0x05)\n      dup2\n      jump\t// out\n        /* \"Contract Pools/NekoPools_flattened.sol\":16247:16653  function claimReward() external nonReentrant whenNotPaused {... */\n    tag_104:\n        /* \"Contract Pools/NekoPools_flattened.sol\":9165:9186  _nonReentrantBefore() */\n      tag_231\n        /* \"Contract Pools/NekoPools_flattened.sol\":9165:9184  _nonReentrantBefore */\n      tag_159\n        /* \"Contract Pools/NekoPools_flattened.sol\":9165:9186  _nonReentrantBefore() */\n      jump\t// in\n    tag_231:\n        /* \"Contract Pools/NekoPools_flattened.sol\":11265:11284  _requireNotPaused() */\n      tag_233\n        /* \"Contract Pools/NekoPools_flattened.sol\":11265:11282  _requireNotPaused */\n      tag_162\n        /* \"Contract Pools/NekoPools_flattened.sol\":11265:11284  _requireNotPaused() */\n      jump\t// in\n    tag_233:\n        /* \"Contract Pools/NekoPools_flattened.sol\":16316:16330  uint256 reward */\n      0x00\n        /* \"Contract Pools/NekoPools_flattened.sol\":16333:16361  _calculateReward(msg.sender) */\n      tag_235\n        /* \"Contract Pools/NekoPools_flattened.sol\":16350:16360  msg.sender */\n      caller\n        /* \"Contract Pools/NekoPools_flattened.sol\":16333:16349  _calculateReward */\n      tag_190\n        /* \"Contract Pools/NekoPools_flattened.sol\":16333:16361  _calculateReward(msg.sender) */\n      jump\t// in\n    tag_235:\n        /* \"Contract Pools/NekoPools_flattened.sol\":16316:16361  uint256 reward = _calculateReward(msg.sender) */\n      swap1\n      pop\n        /* \"Contract Pools/NekoPools_flattened.sol\":16388:16389  0 */\n      0x00\n        /* \"Contract Pools/NekoPools_flattened.sol\":16379:16385  reward */\n      dup2\n        /* \"Contract Pools/NekoPools_flattened.sol\":16379:16389  reward > 0 */\n      gt\n        /* \"Contract Pools/NekoPools_flattened.sol\":16371:16403  require(reward > 0, \"No reward\") */\n      tag_236\n      jumpi\n      mload(0x40)\n      0x08c379a000000000000000000000000000000000000000000000000000000000\n      dup2\n      mstore\n      0x04\n      add\n      tag_237\n      swap1\n      tag_238\n      jump\t// in\n    tag_237:\n      mload(0x40)\n      dup1\n      swap2\n      sub\n      swap1\n      revert\n    tag_236:\n        /* \"Contract Pools/NekoPools_flattened.sol\":16452:16467  block.timestamp */\n      timestamp\n        /* \"Contract Pools/NekoPools_flattened.sol\":16414:16421  stakers */\n      0x08\n        /* \"Contract Pools/NekoPools_flattened.sol\":16414:16433  stakers[msg.sender] */\n      0x00\n        /* \"Contract Pools/NekoPools_flattened.sol\":16422:16432  msg.sender */\n      caller\n        /* \"Contract Pools/NekoPools_flattened.sol\":16414:16433  stakers[msg.sender] */\n      0xffffffffffffffffffffffffffffffffffffffff\n      and\n      0xffffffffffffffffffffffffffffffffffffffff\n      and\n      dup2\n      mstore\n      0x20\n      add\n      swap1\n      dup2\n      mstore\n      0x20\n      add\n      0x00\n      keccak256\n        /* \"Contract Pools/NekoPools_flattened.sol\":16414:16449  stakers[msg.sender].lastClaimedTime */\n      0x01\n      add\n        /* \"Contract Pools/NekoPools_flattened.sol\":16414:16467  stakers[msg.sender].lastClaimedTime = block.timestamp */\n      dup2\n      swap1\n      sstore\n      pop\n        /* \"Contract Pools/NekoPools_flattened.sol\":16510:16511  0 */\n      0x00\n        /* \"Contract Pools/NekoPools_flattened.sol\":16477:16484  stakers */\n      0x08\n        /* \"Contract Pools/NekoPools_flattened.sol\":16477:16496  stakers[msg.sender] */\n      0x00\n        /* \"Contract Pools/NekoPools_flattened.sol\":16485:16495  msg.sender */\n      caller\n        /* \"Contract Pools/NekoPools_flattened.sol\":16477:16496  stakers[msg.sender] */\n      0xffffffffffffffffffffffffffffffffffffffff\n      and\n      0xffffffffffffffffffffffffffffffffffffffff\n      and\n      dup2\n      mstore\n      0x20\n      add\n      swap1\n      dup2\n      mstore\n      0x20\n      add\n      0x00\n      keccak256\n        /* \"Contract Pools/NekoPools_flattened.sol\":16477:16507  stakers[msg.sender].rewardDebt */\n      0x02\n      add\n        /* \"Contract Pools/NekoPools_flattened.sol\":16477:16511  stakers[msg.sender].rewardDebt = 0 */\n      dup2\n      swap1\n      sstore\n      pop\n        /* \"Contract Pools/NekoPools_flattened.sol\":16530:16541  rewardToken */\n      immutable(\"0x7f9a77d0f3f20f99186d3c96ceebda14d57ab164762749b2f5e24ec7779a0f9c\")\n        /* \"Contract Pools/NekoPools_flattened.sol\":16530:16550  rewardToken.transfer */\n      0xffffffffffffffffffffffffffffffffffffffff\n      and\n      0xa9059cbb\n        /* \"Contract Pools/NekoPools_flattened.sol\":16551:16561  msg.sender */\n      caller\n        /* \"Contract Pools/NekoPools_flattened.sol\":16563:16569  reward */\n      dup4\n        /* \"Contract Pools/NekoPools_flattened.sol\":16530:16570  rewardToken.transfer(msg.sender, reward) */\n      mload(0x40)\n      dup4\n      0xffffffff\n      and\n      0xe0\n      shl\n      dup2\n      mstore\n      0x04\n      add\n      tag_239\n      swap3\n      swap2\n      swap1\n      tag_173\n      jump\t// in\n    tag_239:\n      0x20\n      mload(0x40)\n      dup1\n      dup4\n      sub\n      dup2\n      0x00\n      dup8\n      gas\n      call\n      iszero\n      dup1\n      iszero\n      tag_241\n      jumpi\n      returndatasize\n      0x00\n      dup1\n      returndatacopy\n      revert(0x00, returndatasize)\n    tag_241:\n      pop\n      pop\n      pop\n      pop\n      mload(0x40)\n      returndatasize\n      not(0x1f)\n      0x1f\n      dup3\n      add\n      and\n      dup3\n      add\n      dup1\n      0x40\n      mstore\n      pop\n      dup2\n      add\n      swap1\n      tag_242\n      swap2\n      swap1\n      tag_152\n      jump\t// in\n    tag_242:\n        /* \"Contract Pools/NekoPools_flattened.sol\":16522:16597  require(rewardToken.transfer(msg.sender, reward), \"Reward transfer failed\") */\n      tag_243\n      jumpi\n      mload(0x40)\n      0x08c379a000000000000000000000000000000000000000000000000000000000\n      dup2\n      mstore\n      0x04\n      add\n      tag_244\n      swap1\n      tag_245\n      jump\t// in\n    tag_244:\n      mload(0x40)\n      dup1\n      swap2\n      sub\n      swap1\n      revert\n    tag_243:\n        /* \"Contract Pools/NekoPools_flattened.sol\":16627:16637  msg.sender */\n      caller\n        /* \"Contract Pools/NekoPools_flattened.sol\":16613:16646  RewardClaimed(msg.sender, reward) */\n      0xffffffffffffffffffffffffffffffffffffffff\n      and\n      0x106f923f993c2149d49b4255ff723acafa1f2d94393f561d3eda32ae348f7241\n        /* \"Contract Pools/NekoPools_flattened.sol\":16639:16645  reward */\n      dup3\n        /* \"Contract Pools/NekoPools_flattened.sol\":16613:16646  RewardClaimed(msg.sender, reward) */\n      mload(0x40)\n      tag_246\n      swap2\n      swap1\n      tag_41\n      jump\t// in\n    tag_246:\n      mload(0x40)\n      dup1\n      swap2\n      sub\n      swap1\n      log2\n        /* \"Contract Pools/NekoPools_flattened.sol\":16306:16653  {... */\n      pop\n        /* \"Contract Pools/NekoPools_flattened.sol\":9207:9227  _nonReentrantAfter() */\n      tag_247\n        /* \"Contract Pools/NekoPools_flattened.sol\":9207:9225  _nonReentrantAfter */\n      tag_182\n        /* \"Contract Pools/NekoPools_flattened.sol\":9207:9227  _nonReentrantAfter() */\n      jump\t// in\n    tag_247:\n        /* \"Contract Pools/NekoPools_flattened.sol\":16247:16653  function claimReward() external nonReentrant whenNotPaused {... */\n      jump\t// out\n        /* \"Contract Pools/NekoPools_flattened.sol\":14690:14833  function setNativeFee(uint256 _nativeFee) external onlyOwner {... */\n    tag_108:\n        /* \"Contract Pools/NekoPools_flattened.sol\":5300:5313  _checkOwner() */\n      tag_249\n        /* \"Contract Pools/NekoPools_flattened.sol\":5300:5311  _checkOwner */\n      tag_136\n        /* \"Contract Pools/NekoPools_flattened.sol\":5300:5313  _checkOwner() */\n      jump\t// in\n    tag_249:\n        /* \"Contract Pools/NekoPools_flattened.sol\":14773:14783  _nativeFee */\n      dup1\n        /* \"Contract Pools/NekoPools_flattened.sol\":14761:14770  nativeFee */\n      0x06\n        /* \"Contract Pools/NekoPools_flattened.sol\":14761:14783  nativeFee = _nativeFee */\n      dup2\n      swap1\n      sstore\n      pop\n        /* \"Contract Pools/NekoPools_flattened.sol\":14798:14826  NativeFeeUpdated(_nativeFee) */\n      0x8b58a69c09c2dff0e67bea4782c73a9ff3c4bba6dc50dbe66643372b8ce9035d\n        /* \"Contract Pools/NekoPools_flattened.sol\":14815:14825  _nativeFee */\n      dup2\n        /* \"Contract Pools/NekoPools_flattened.sol\":14798:14826  NativeFeeUpdated(_nativeFee) */\n      mload(0x40)\n      tag_251\n      swap2\n      swap1\n      tag_41\n      jump\t// in\n    tag_251:\n      mload(0x40)\n      dup1\n      swap2\n      sub\n      swap1\n      log1\n        /* \"Contract Pools/NekoPools_flattened.sol\":14690:14833  function setNativeFee(uint256 _nativeFee) external onlyOwner {... */\n      pop\n      jump\t// out\n        /* \"Contract Pools/NekoPools_flattened.sol\":18367:18750  function getAPR() external view returns (uint256) {... */\n    tag_111:\n        /* \"Contract Pools/NekoPools_flattened.sol\":18408:18415  uint256 */\n      0x00\n        /* \"Contract Pools/NekoPools_flattened.sol\":18446:18447  0 */\n      dup1\n        /* \"Contract Pools/NekoPools_flattened.sol\":18431:18442  totalStaked */\n      sload(0x07)\n        /* \"Contract Pools/NekoPools_flattened.sol\":18431:18447  totalStaked == 0 */\n      sub\n        /* \"Contract Pools/NekoPools_flattened.sol\":18427:18535  if (totalStaked == 0) {... */\n      tag_253\n      jumpi\n        /* \"Contract Pools/NekoPools_flattened.sol\":18502:18524  rewardRatioDenominator */\n      sload(0x05)\n        /* \"Contract Pools/NekoPools_flattened.sol\":18494:18498  1e18 */\n      0x0de0b6b3a7640000\n        /* \"Contract Pools/NekoPools_flattened.sol\":18471:18491  rewardRatioNumerator */\n      sload(0x04)\n        /* \"Contract Pools/NekoPools_flattened.sol\":18471:18498  rewardRatioNumerator * 1e18 */\n      tag_254\n      swap2\n      swap1\n      tag_255\n      jump\t// in\n    tag_254:\n        /* \"Contract Pools/NekoPools_flattened.sol\":18470:18524  (rewardRatioNumerator * 1e18) / rewardRatioDenominator */\n      tag_256\n      swap2\n      swap1\n      tag_257\n      jump\t// in\n    tag_256:\n        /* \"Contract Pools/NekoPools_flattened.sol\":18463:18524  return (rewardRatioNumerator * 1e18) / rewardRatioDenominator */\n      swap1\n      pop\n      jump(tag_252)\n        /* \"Contract Pools/NekoPools_flattened.sol\":18427:18535  if (totalStaked == 0) {... */\n    tag_253:\n        /* \"Contract Pools/NekoPools_flattened.sol\":18544:18559  uint256 baseAPR */\n      0x00\n        /* \"Contract Pools/NekoPools_flattened.sol\":18594:18616  rewardRatioDenominator */\n      sload(0x05)\n        /* \"Contract Pools/NekoPools_flattened.sol\":18586:18590  1e18 */\n      0x0de0b6b3a7640000\n        /* \"Contract Pools/NekoPools_flattened.sol\":18563:18583  rewardRatioNumerator */\n      sload(0x04)\n        /* \"Contract Pools/NekoPools_flattened.sol\":18563:18590  rewardRatioNumerator * 1e18 */\n      tag_258\n      swap2\n      swap1\n      tag_255\n      jump\t// in\n    tag_258:\n        /* \"Contract Pools/NekoPools_flattened.sol\":18562:18616  (rewardRatioNumerator * 1e18) / rewardRatioDenominator */\n      tag_259\n      swap2\n      swap1\n      tag_257\n      jump\t// in\n    tag_259:\n        /* \"Contract Pools/NekoPools_flattened.sol\":18544:18616  uint256 baseAPR = (rewardRatioNumerator * 1e18) / rewardRatioDenominator */\n      swap1\n      pop\n        /* \"Contract Pools/NekoPools_flattened.sol\":18626:18637  uint256 apr */\n      0x00\n        /* \"Contract Pools/NekoPools_flattened.sol\":18672:18676  1e18 */\n      0x0de0b6b3a7640000\n        /* \"Contract Pools/NekoPools_flattened.sol\":18658:18669  totalStaked */\n      sload(0x07)\n        /* \"Contract Pools/NekoPools_flattened.sol\":18658:18676  totalStaked + 1e18 */\n      tag_260\n      swap2\n      swap1\n      tag_226\n      jump\t// in\n    tag_260:\n        /* \"Contract Pools/NekoPools_flattened.sol\":18650:18654  1e18 */\n      0x0de0b6b3a7640000\n        /* \"Contract Pools/NekoPools_flattened.sol\":18640:18647  baseAPR */\n      dup4\n        /* \"Contract Pools/NekoPools_flattened.sol\":18640:18654  baseAPR * 1e18 */\n      tag_261\n      swap2\n      swap1\n      tag_255\n      jump\t// in\n    tag_261:\n        /* \"Contract Pools/NekoPools_flattened.sol\":18640:18677  baseAPR * 1e18 / (totalStaked + 1e18) */\n      tag_262\n      swap2\n      swap1\n      tag_257\n      jump\t// in\n    tag_262:\n        /* \"Contract Pools/NekoPools_flattened.sol\":18626:18677  uint256 apr = baseAPR * 1e18 / (totalStaked + 1e18) */\n      swap1\n      pop\n        /* \"Contract Pools/NekoPools_flattened.sol\":18740:18743  apr */\n      dup1\n        /* \"Contract Pools/NekoPools_flattened.sol\":18733:18743  return apr */\n      swap3\n      pop\n      pop\n      pop\n        /* \"Contract Pools/NekoPools_flattened.sol\":18367:18750  function getAPR() external view returns (uint256) {... */\n    tag_252:\n      swap1\n      jump\t// out\n        /* \"Contract Pools/NekoPools_flattened.sol\":17709:17914  function withdrawRewardTokens(uint256 amount) external onlyOwner {... */\n    tag_116:\n        /* \"Contract Pools/NekoPools_flattened.sol\":5300:5313  _checkOwner() */\n      tag_264\n        /* \"Contract Pools/NekoPools_flattened.sol\":5300:5311  _checkOwner */\n      tag_136\n        /* \"Contract Pools/NekoPools_flattened.sol\":5300:5313  _checkOwner() */\n      jump\t// in\n    tag_264:\n        /* \"Contract Pools/NekoPools_flattened.sol\":17792:17803  rewardToken */\n      immutable(\"0x7f9a77d0f3f20f99186d3c96ceebda14d57ab164762749b2f5e24ec7779a0f9c\")\n        /* \"Contract Pools/NekoPools_flattened.sol\":17792:17812  rewardToken.transfer */\n      0xffffffffffffffffffffffffffffffffffffffff\n      and\n      0xa9059cbb\n        /* \"Contract Pools/NekoPools_flattened.sol\":17813:17823  msg.sender */\n      caller\n        /* \"Contract Pools/NekoPools_flattened.sol\":17825:17831  amount */\n      dup4\n        /* \"Contract Pools/NekoPools_flattened.sol\":17792:17832  rewardToken.transfer(msg.sender, amount) */\n      mload(0x40)\n      dup4\n      0xffffffff\n      and\n      0xe0\n      shl\n      dup2\n      mstore\n      0x04\n      add\n      tag_266\n      swap3\n      swap2\n      swap1\n      tag_173\n      jump\t// in\n    tag_266:\n      0x20\n      mload(0x40)\n      dup1\n      dup4\n      sub\n      dup2\n      0x00\n      dup8\n      gas\n      call\n      iszero\n      dup1\n      iszero\n      tag_268\n      jumpi\n      returndatasize\n      0x00\n      dup1\n      returndatacopy\n      revert(0x00, returndatasize)\n    tag_268:\n      pop\n      pop\n      pop\n      pop\n      mload(0x40)\n      returndatasize\n      not(0x1f)\n      0x1f\n      dup3\n      add\n      and\n      dup3\n      add\n      dup1\n      0x40\n      mstore\n      pop\n      dup2\n      add\n      swap1\n      tag_269\n      swap2\n      swap1\n      tag_152\n      jump\t// in\n    tag_269:\n        /* \"Contract Pools/NekoPools_flattened.sol\":17784:17852  require(rewardToken.transfer(msg.sender, amount), \"Withdraw failed\") */\n      tag_270\n      jumpi\n      mload(0x40)\n      0x08c379a000000000000000000000000000000000000000000000000000000000\n      dup2\n      mstore\n      0x04\n      add\n      tag_271\n      swap1\n      tag_272\n      jump\t// in\n    tag_271:\n      mload(0x40)\n      dup1\n      swap2\n      sub\n      swap1\n      revert\n    tag_270:\n        /* \"Contract Pools/NekoPools_flattened.sol\":17888:17898  msg.sender */\n      caller\n        /* \"Contract Pools/NekoPools_flattened.sol\":17867:17907  RewardTokenWithdrawn(msg.sender, amount) */\n      0xffffffffffffffffffffffffffffffffffffffff\n      and\n      0x5991a08bb51d1fc3f552255ed446f040dca378ad3ff91763507b63b185eb5d2e\n        /* \"Contract Pools/NekoPools_flattened.sol\":17900:17906  amount */\n      dup3\n        /* \"Contract Pools/NekoPools_flattened.sol\":17867:17907  RewardTokenWithdrawn(msg.sender, amount) */\n      mload(0x40)\n      tag_273\n      swap2\n      swap1\n      tag_41\n      jump\t// in\n    tag_273:\n      mload(0x40)\n      dup1\n      swap2\n      sub\n      swap1\n      log2\n        /* \"Contract Pools/NekoPools_flattened.sol\":17709:17914  function withdrawRewardTokens(uint256 amount) external onlyOwner {... */\n      pop\n      jump\t// out\n        /* \"Contract Pools/NekoPools_flattened.sol\":12811:12846  uint256 public rewardRatioNumerator */\n    tag_119:\n      sload(0x04)\n      dup2\n      jump\t// out\n        /* \"Contract Pools/NekoPools_flattened.sol\":18091:18210  function getUserStaked(address user) external view returns (uint256) {... */\n    tag_124:\n        /* \"Contract Pools/NekoPools_flattened.sol\":18151:18158  uint256 */\n      0x00\n        /* \"Contract Pools/NekoPools_flattened.sol\":18177:18184  stakers */\n      0x08\n        /* \"Contract Pools/NekoPools_flattened.sol\":18177:18190  stakers[user] */\n      0x00\n        /* \"Contract Pools/NekoPools_flattened.sol\":18185:18189  user */\n      dup4\n        /* \"Contract Pools/NekoPools_flattened.sol\":18177:18190  stakers[user] */\n      0xffffffffffffffffffffffffffffffffffffffff\n      and\n      0xffffffffffffffffffffffffffffffffffffffff\n      and\n      dup2\n      mstore\n      0x20\n      add\n      swap1\n      dup2\n      mstore\n      0x20\n      add\n      0x00\n      keccak256\n        /* \"Contract Pools/NekoPools_flattened.sol\":18177:18203  stakers[user].amountStaked */\n      0x00\n      add\n      sload\n        /* \"Contract Pools/NekoPools_flattened.sol\":18170:18203  return stakers[user].amountStaked */\n      swap1\n      pop\n        /* \"Contract Pools/NekoPools_flattened.sol\":18091:18210  function getUserStaked(address user) external view returns (uint256) {... */\n      swap2\n      swap1\n      pop\n      jump\t// out\n        /* \"Contract Pools/NekoPools_flattened.sol\":6312:6527  function transferOwnership(address newOwner) public virtual onlyOwner {... */\n    tag_129:\n        /* \"Contract Pools/NekoPools_flattened.sol\":5300:5313  _checkOwner() */\n      tag_276\n        /* \"Contract Pools/NekoPools_flattened.sol\":5300:5311  _checkOwner */\n      tag_136\n        /* \"Contract Pools/NekoPools_flattened.sol\":5300:5313  _checkOwner() */\n      jump\t// in\n    tag_276:\n        /* \"Contract Pools/NekoPools_flattened.sol\":6416:6417  0 */\n      0x00\n        /* \"Contract Pools/NekoPools_flattened.sol\":6396:6418  newOwner == address(0) */\n      0xffffffffffffffffffffffffffffffffffffffff\n      and\n        /* \"Contract Pools/NekoPools_flattened.sol\":6396:6404  newOwner */\n      dup2\n        /* \"Contract Pools/NekoPools_flattened.sol\":6396:6418  newOwner == address(0) */\n      0xffffffffffffffffffffffffffffffffffffffff\n      and\n      sub\n        /* \"Contract Pools/NekoPools_flattened.sol\":6392:6483  if (newOwner == address(0)) {... */\n      tag_278\n      jumpi\n        /* \"Contract Pools/NekoPools_flattened.sol\":6469:6470  0 */\n      0x00\n        /* \"Contract Pools/NekoPools_flattened.sol\":6441:6472  OwnableInvalidOwner(address(0)) */\n      mload(0x40)\n      0x1e4fbdf700000000000000000000000000000000000000000000000000000000\n      dup2\n      mstore\n      0x04\n      add\n      tag_279\n      swap2\n      swap1\n      tag_84\n      jump\t// in\n    tag_279:\n      mload(0x40)\n      dup1\n      swap2\n      sub\n      swap1\n      revert\n        /* \"Contract Pools/NekoPools_flattened.sol\":6392:6483  if (newOwner == address(0)) {... */\n    tag_278:\n        /* \"Contract Pools/NekoPools_flattened.sol\":6492:6520  _transferOwnership(newOwner) */\n      tag_280\n        /* \"Contract Pools/NekoPools_flattened.sol\":6511:6519  newOwner */\n      dup2\n        /* \"Contract Pools/NekoPools_flattened.sol\":6492:6510  _transferOwnership */\n      tag_196\n        /* \"Contract Pools/NekoPools_flattened.sol\":6492:6520  _transferOwnership(newOwner) */\n      jump\t// in\n    tag_280:\n        /* \"Contract Pools/NekoPools_flattened.sol\":6312:6527  function transferOwnership(address newOwner) public virtual onlyOwner {... */\n      pop\n      jump\t// out\n        /* \"Contract Pools/NekoPools_flattened.sol\":12740:12775  IERC20 public immutable rewardToken */\n    tag_132:\n      immutable(\"0x7f9a77d0f3f20f99186d3c96ceebda14d57ab164762749b2f5e24ec7779a0f9c\")\n      dup2\n      jump\t// out\n        /* \"Contract Pools/NekoPools_flattened.sol\":5565:5727  function _checkOwner() internal view virtual {... */\n    tag_136:\n        /* \"Contract Pools/NekoPools_flattened.sol\":5635:5647  _msgSender() */\n      tag_282\n        /* \"Contract Pools/NekoPools_flattened.sol\":5635:5645  _msgSender */\n      tag_283\n        /* \"Contract Pools/NekoPools_flattened.sol\":5635:5647  _msgSender() */\n      jump\t// in\n    tag_282:\n        /* \"Contract Pools/NekoPools_flattened.sol\":5624:5647  owner() != _msgSender() */\n      0xffffffffffffffffffffffffffffffffffffffff\n      and\n        /* \"Contract Pools/NekoPools_flattened.sol\":5624:5631  owner() */\n      tag_284\n        /* \"Contract Pools/NekoPools_flattened.sol\":5624:5629  owner */\n      tag_82\n        /* \"Contract Pools/NekoPools_flattened.sol\":5624:5631  owner() */\n      jump\t// in\n    tag_284:\n        /* \"Contract Pools/NekoPools_flattened.sol\":5624:5647  owner() != _msgSender() */\n      0xffffffffffffffffffffffffffffffffffffffff\n      and\n      eq\n        /* \"Contract Pools/NekoPools_flattened.sol\":5620:5721  if (owner() != _msgSender()) {... */\n      tag_285\n      jumpi\n        /* \"Contract Pools/NekoPools_flattened.sol\":5697:5709  _msgSender() */\n      tag_286\n        /* \"Contract Pools/NekoPools_flattened.sol\":5697:5707  _msgSender */\n      tag_283\n        /* \"Contract Pools/NekoPools_flattened.sol\":5697:5709  _msgSender() */\n      jump\t// in\n    tag_286:\n        /* \"Contract Pools/NekoPools_flattened.sol\":5670:5710  OwnableUnauthorizedAccount(_msgSender()) */\n      mload(0x40)\n      0x118cdaa700000000000000000000000000000000000000000000000000000000\n      dup2\n      mstore\n      0x04\n      add\n      tag_287\n      swap2\n      swap1\n      tag_84\n      jump\t// in\n    tag_287:\n      mload(0x40)\n      dup1\n      swap2\n      sub\n      swap1\n      revert\n        /* \"Contract Pools/NekoPools_flattened.sol\":5620:5721  if (owner() != _msgSender()) {... */\n    tag_285:\n        /* \"Contract Pools/NekoPools_flattened.sol\":5565:5727  function _checkOwner() internal view virtual {... */\n      jump\t// out\n        /* \"Contract Pools/NekoPools_flattened.sol\":9240:9527  function _nonReentrantBefore() private {... */\n    tag_159:\n        /* \"Contract Pools/NekoPools_flattened.sol\":8663:8664  2 */\n      0x02\n        /* \"Contract Pools/NekoPools_flattened.sol\":9372:9379  _status */\n      sload(0x01)\n        /* \"Contract Pools/NekoPools_flattened.sol\":9372:9391  _status != _ENTERED */\n      sub\n        /* \"Contract Pools/NekoPools_flattened.sol\":9364:9427  require(_status != _ENTERED, \"ReentrancyGuard: reentrant call\") */\n      tag_289\n      jumpi\n      mload(0x40)\n      0x08c379a000000000000000000000000000000000000000000000000000000000\n      dup2\n      mstore\n      0x04\n      add\n      tag_290\n      swap1\n      tag_291\n      jump\t// in\n    tag_290:\n      mload(0x40)\n      dup1\n      swap2\n      sub\n      swap1\n      revert\n    tag_289:\n        /* \"Contract Pools/NekoPools_flattened.sol\":8663:8664  2 */\n      0x02\n        /* \"Contract Pools/NekoPools_flattened.sol\":9502:9509  _status */\n      0x01\n        /* \"Contract Pools/NekoPools_flattened.sol\":9502:9520  _status = _ENTERED */\n      dup2\n      swap1\n      sstore\n      pop\n        /* \"Contract Pools/NekoPools_flattened.sol\":9240:9527  function _nonReentrantBefore() private {... */\n      jump\t// out\n        /* \"Contract Pools/NekoPools_flattened.sol\":11793:11899  function _requireNotPaused() internal view virtual {... */\n    tag_162:\n        /* \"Contract Pools/NekoPools_flattened.sol\":11863:11871  paused() */\n      tag_293\n        /* \"Contract Pools/NekoPools_flattened.sol\":11863:11869  paused */\n      tag_66\n        /* \"Contract Pools/NekoPools_flattened.sol\":11863:11871  paused() */\n      jump\t// in\n    tag_293:\n        /* \"Contract Pools/NekoPools_flattened.sol\":11862:11871  !paused() */\n      iszero\n        /* \"Contract Pools/NekoPools_flattened.sol\":11854:11892  require(!paused(), \"Pausable: paused\") */\n      tag_294\n      jumpi\n      mload(0x40)\n      0x08c379a000000000000000000000000000000000000000000000000000000000\n      dup2\n      mstore\n      0x04\n      add\n      tag_295\n      swap1\n      tag_296\n      jump\t// in\n    tag_295:\n      mload(0x40)\n      dup1\n      swap2\n      sub\n      swap1\n      revert\n    tag_294:\n        /* \"Contract Pools/NekoPools_flattened.sol\":11793:11899  function _requireNotPaused() internal view virtual {... */\n      jump\t// out\n        /* \"Contract Pools/NekoPools_flattened.sol\":16659:17030  function _claimReward(address user) internal {... */\n    tag_168:\n        /* \"Contract Pools/NekoPools_flattened.sol\":16714:16728  uint256 reward */\n      0x00\n        /* \"Contract Pools/NekoPools_flattened.sol\":16731:16753  _calculateReward(user) */\n      tag_298\n        /* \"Contract Pools/NekoPools_flattened.sol\":16748:16752  user */\n      dup3\n        /* \"Contract Pools/NekoPools_flattened.sol\":16731:16747  _calculateReward */\n      tag_190\n        /* \"Contract Pools/NekoPools_flattened.sol\":16731:16753  _calculateReward(user) */\n      jump\t// in\n    tag_298:\n        /* \"Contract Pools/NekoPools_flattened.sol\":16714:16753  uint256 reward = _calculateReward(user) */\n      swap1\n      pop\n        /* \"Contract Pools/NekoPools_flattened.sol\":16776:16777  0 */\n      0x00\n        /* \"Contract Pools/NekoPools_flattened.sol\":16767:16773  reward */\n      dup2\n        /* \"Contract Pools/NekoPools_flattened.sol\":16767:16777  reward > 0 */\n      gt\n        /* \"Contract Pools/NekoPools_flattened.sol\":16763:17024  if (reward > 0) {... */\n      iszero\n      tag_299\n      jumpi\n        /* \"Contract Pools/NekoPools_flattened.sol\":16825:16840  block.timestamp */\n      timestamp\n        /* \"Contract Pools/NekoPools_flattened.sol\":16793:16800  stakers */\n      0x08\n        /* \"Contract Pools/NekoPools_flattened.sol\":16793:16806  stakers[user] */\n      0x00\n        /* \"Contract Pools/NekoPools_flattened.sol\":16801:16805  user */\n      dup5\n        /* \"Contract Pools/NekoPools_flattened.sol\":16793:16806  stakers[user] */\n      0xffffffffffffffffffffffffffffffffffffffff\n      and\n      0xffffffffffffffffffffffffffffffffffffffff\n      and\n      dup2\n      mstore\n      0x20\n      add\n      swap1\n      dup2\n      mstore\n      0x20\n      add\n      0x00\n      keccak256\n        /* \"Contract Pools/NekoPools_flattened.sol\":16793:16822  stakers[user].lastClaimedTime */\n      0x01\n      add\n        /* \"Contract Pools/NekoPools_flattened.sol\":16793:16840  stakers[user].lastClaimedTime = block.timestamp */\n      dup2\n      swap1\n      sstore\n      pop\n        /* \"Contract Pools/NekoPools_flattened.sol\":16881:16882  0 */\n      0x00\n        /* \"Contract Pools/NekoPools_flattened.sol\":16854:16861  stakers */\n      0x08\n        /* \"Contract Pools/NekoPools_flattened.sol\":16854:16867  stakers[user] */\n      0x00\n        /* \"Contract Pools/NekoPools_flattened.sol\":16862:16866  user */\n      dup5\n        /* \"Contract Pools/NekoPools_flattened.sol\":16854:16867  stakers[user] */\n      0xffffffffffffffffffffffffffffffffffffffff\n      and\n      0xffffffffffffffffffffffffffffffffffffffff\n      and\n      dup2\n      mstore\n      0x20\n      add\n      swap1\n      dup2\n      mstore\n      0x20\n      add\n      0x00\n      keccak256\n        /* \"Contract Pools/NekoPools_flattened.sol\":16854:16878  stakers[user].rewardDebt */\n      0x02\n      add\n        /* \"Contract Pools/NekoPools_flattened.sol\":16854:16882  stakers[user].rewardDebt = 0 */\n      dup2\n      swap1\n      sstore\n      pop\n        /* \"Contract Pools/NekoPools_flattened.sol\":16905:16916  rewardToken */\n      immutable(\"0x7f9a77d0f3f20f99186d3c96ceebda14d57ab164762749b2f5e24ec7779a0f9c\")\n        /* \"Contract Pools/NekoPools_flattened.sol\":16905:16925  rewardToken.transfer */\n      0xffffffffffffffffffffffffffffffffffffffff\n      and\n      0xa9059cbb\n        /* \"Contract Pools/NekoPools_flattened.sol\":16926:16930  user */\n      dup4\n        /* \"Contract Pools/NekoPools_flattened.sol\":16932:16938  reward */\n      dup4\n        /* \"Contract Pools/NekoPools_flattened.sol\":16905:16939  rewardToken.transfer(user, reward) */\n      mload(0x40)\n      dup4\n      0xffffffff\n      and\n      0xe0\n      shl\n      dup2\n      mstore\n      0x04\n      add\n      tag_300\n      swap3\n      swap2\n      swap1\n      tag_173\n      jump\t// in\n    tag_300:\n      0x20\n      mload(0x40)\n      dup1\n      dup4\n      sub\n      dup2\n      0x00\n      dup8\n      gas\n      call\n      iszero\n      dup1\n      iszero\n      tag_302\n      jumpi\n      returndatasize\n      0x00\n      dup1\n      returndatacopy\n      revert(0x00, returndatasize)\n    tag_302:\n      pop\n      pop\n      pop\n      pop\n      mload(0x40)\n      returndatasize\n      not(0x1f)\n      0x1f\n      dup3\n      add\n      and\n      dup3\n      add\n      dup1\n      0x40\n      mstore\n      pop\n      dup2\n      add\n      swap1\n      tag_303\n      swap2\n      swap1\n      tag_152\n      jump\t// in\n    tag_303:\n        /* \"Contract Pools/NekoPools_flattened.sol\":16897:16966  require(rewardToken.transfer(user, reward), \"Reward transfer failed\") */\n      tag_304\n      jumpi\n      mload(0x40)\n      0x08c379a000000000000000000000000000000000000000000000000000000000\n      dup2\n      mstore\n      0x04\n      add\n      tag_305\n      swap1\n      tag_245\n      jump\t// in\n    tag_305:\n      mload(0x40)\n      dup1\n      swap2\n      sub\n      swap1\n      revert\n    tag_304:\n        /* \"Contract Pools/NekoPools_flattened.sol\":17000:17004  user */\n      dup2\n        /* \"Contract Pools/NekoPools_flattened.sol\":16986:17013  RewardClaimed(user, reward) */\n      0xffffffffffffffffffffffffffffffffffffffff\n      and\n      0x106f923f993c2149d49b4255ff723acafa1f2d94393f561d3eda32ae348f7241\n        /* \"Contract Pools/NekoPools_flattened.sol\":17006:17012  reward */\n      dup3\n        /* \"Contract Pools/NekoPools_flattened.sol\":16986:17013  RewardClaimed(user, reward) */\n      mload(0x40)\n      tag_306\n      swap2\n      swap1\n      tag_41\n      jump\t// in\n    tag_306:\n      mload(0x40)\n      dup1\n      swap2\n      sub\n      swap1\n      log2\n        /* \"Contract Pools/NekoPools_flattened.sol\":16763:17024  if (reward > 0) {... */\n    tag_299:\n        /* \"Contract Pools/NekoPools_flattened.sol\":16704:17030  {... */\n      pop\n        /* \"Contract Pools/NekoPools_flattened.sol\":16659:17030  function _claimReward(address user) internal {... */\n      pop\n      jump\t// out\n        /* \"Contract Pools/NekoPools_flattened.sol\":9533:9742  function _nonReentrantAfter() private {... */\n    tag_182:\n        /* \"Contract Pools/NekoPools_flattened.sol\":8620:8621  1 */\n      0x01\n        /* \"Contract Pools/NekoPools_flattened.sol\":9713:9720  _status */\n      dup1\n        /* \"Contract Pools/NekoPools_flattened.sol\":9713:9735  _status = _NOT_ENTERED */\n      dup2\n      swap1\n      sstore\n      pop\n        /* \"Contract Pools/NekoPools_flattened.sol\":9533:9742  function _nonReentrantAfter() private {... */\n      jump\t// out\n        /* \"Contract Pools/NekoPools_flattened.sol\":12459:12576  function _unpause() internal virtual whenPaused {... */\n    tag_187:\n        /* \"Contract Pools/NekoPools_flattened.sol\":11512:11528  _requirePaused() */\n      tag_309\n        /* \"Contract Pools/NekoPools_flattened.sol\":11512:11526  _requirePaused */\n      tag_310\n        /* \"Contract Pools/NekoPools_flattened.sol\":11512:11528  _requirePaused() */\n      jump\t// in\n    tag_309:\n        /* \"Contract Pools/NekoPools_flattened.sol\":12527:12532  false */\n      0x00\n        /* \"Contract Pools/NekoPools_flattened.sol\":12517:12524  _paused */\n      0x02\n      0x00\n        /* \"Contract Pools/NekoPools_flattened.sol\":12517:12532  _paused = false */\n      0x0100\n      exp\n      dup2\n      sload\n      dup2\n      0xff\n      mul\n      not\n      and\n      swap1\n      dup4\n      iszero\n      iszero\n      mul\n      or\n      swap1\n      sstore\n      pop\n        /* \"Contract Pools/NekoPools_flattened.sol\":12547:12569  Unpaused(_msgSender()) */\n      0x5db9ee0a495bf2e6ff9c91a7834c1ba4fdd244a5e8aa4e537bd38aeae4b073aa\n        /* \"Contract Pools/NekoPools_flattened.sol\":12556:12568  _msgSender() */\n      tag_312\n        /* \"Contract Pools/NekoPools_flattened.sol\":12556:12566  _msgSender */\n      tag_283\n        /* \"Contract Pools/NekoPools_flattened.sol\":12556:12568  _msgSender() */\n      jump\t// in\n    tag_312:\n        /* \"Contract Pools/NekoPools_flattened.sol\":12547:12569  Unpaused(_msgSender()) */\n      mload(0x40)\n      tag_313\n      swap2\n      swap1\n      tag_84\n      jump\t// in\n    tag_313:\n      mload(0x40)\n      dup1\n      swap2\n      sub\n      swap1\n      log1\n        /* \"Contract Pools/NekoPools_flattened.sol\":12459:12576  function _unpause() internal virtual whenPaused {... */\n      jump\t// out\n        /* \"Contract Pools/NekoPools_flattened.sol\":17036:17475  function _calculateReward(address user) internal view returns (uint256) {... */\n    tag_190:\n        /* \"Contract Pools/NekoPools_flattened.sol\":17099:17106  uint256 */\n      0x00\n        /* \"Contract Pools/NekoPools_flattened.sol\":17118:17139  Staker storage staker */\n      dup1\n        /* \"Contract Pools/NekoPools_flattened.sol\":17142:17149  stakers */\n      0x08\n        /* \"Contract Pools/NekoPools_flattened.sol\":17142:17155  stakers[user] */\n      0x00\n        /* \"Contract Pools/NekoPools_flattened.sol\":17150:17154  user */\n      dup5\n        /* \"Contract Pools/NekoPools_flattened.sol\":17142:17155  stakers[user] */\n      0xffffffffffffffffffffffffffffffffffffffff\n      and\n      0xffffffffffffffffffffffffffffffffffffffff\n      and\n      dup2\n      mstore\n      0x20\n      add\n      swap1\n      dup2\n      mstore\n      0x20\n      add\n      0x00\n      keccak256\n        /* \"Contract Pools/NekoPools_flattened.sol\":17118:17155  Staker storage staker = stakers[user] */\n      swap1\n      pop\n        /* \"Contract Pools/NekoPools_flattened.sol\":17192:17193  0 */\n      0x00\n        /* \"Contract Pools/NekoPools_flattened.sol\":17169:17175  staker */\n      dup2\n        /* \"Contract Pools/NekoPools_flattened.sol\":17169:17188  staker.amountStaked */\n      0x00\n      add\n      sload\n        /* \"Contract Pools/NekoPools_flattened.sol\":17169:17193  staker.amountStaked == 0 */\n      eq\n        /* \"Contract Pools/NekoPools_flattened.sol\":17169:17224  staker.amountStaked == 0 || staker.lastClaimedTime == 0 */\n      dup1\n      tag_315\n      jumpi\n      pop\n        /* \"Contract Pools/NekoPools_flattened.sol\":17223:17224  0 */\n      0x00\n        /* \"Contract Pools/NekoPools_flattened.sol\":17197:17203  staker */\n      dup2\n        /* \"Contract Pools/NekoPools_flattened.sol\":17197:17219  staker.lastClaimedTime */\n      0x01\n      add\n      sload\n        /* \"Contract Pools/NekoPools_flattened.sol\":17197:17224  staker.lastClaimedTime == 0 */\n      eq\n        /* \"Contract Pools/NekoPools_flattened.sol\":17169:17224  staker.amountStaked == 0 || staker.lastClaimedTime == 0 */\n    tag_315:\n        /* \"Contract Pools/NekoPools_flattened.sol\":17165:17234  if (staker.amountStaked == 0 || staker.lastClaimedTime == 0) return 0 */\n      iszero\n      tag_316\n      jumpi\n        /* \"Contract Pools/NekoPools_flattened.sol\":17233:17234  0 */\n      0x00\n        /* \"Contract Pools/NekoPools_flattened.sol\":17226:17234  return 0 */\n      swap2\n      pop\n      pop\n      jump(tag_314)\n        /* \"Contract Pools/NekoPools_flattened.sol\":17165:17234  if (staker.amountStaked == 0 || staker.lastClaimedTime == 0) return 0 */\n    tag_316:\n        /* \"Contract Pools/NekoPools_flattened.sol\":17245:17261  uint256 timeDiff */\n      0x00\n        /* \"Contract Pools/NekoPools_flattened.sol\":17282:17288  staker */\n      dup2\n        /* \"Contract Pools/NekoPools_flattened.sol\":17282:17304  staker.lastClaimedTime */\n      0x01\n      add\n      sload\n        /* \"Contract Pools/NekoPools_flattened.sol\":17264:17279  block.timestamp */\n      timestamp\n        /* \"Contract Pools/NekoPools_flattened.sol\":17264:17304  block.timestamp - staker.lastClaimedTime */\n      tag_317\n      swap2\n      swap1\n      tag_170\n      jump\t// in\n    tag_317:\n        /* \"Contract Pools/NekoPools_flattened.sol\":17245:17304  uint256 timeDiff = block.timestamp - staker.lastClaimedTime */\n      swap1\n      pop\n        /* \"Contract Pools/NekoPools_flattened.sol\":17314:17328  uint256 reward */\n      0x00\n        /* \"Contract Pools/NekoPools_flattened.sol\":17401:17423  rewardRatioDenominator */\n      sload(0x05)\n        /* \"Contract Pools/NekoPools_flattened.sol\":17390:17398  timeUnit */\n      sload(0x03)\n        /* \"Contract Pools/NekoPools_flattened.sol\":17390:17423  timeUnit * rewardRatioDenominator */\n      tag_318\n      swap2\n      swap1\n      tag_255\n      jump\t// in\n    tag_318:\n        /* \"Contract Pools/NekoPools_flattened.sol\":17377:17385  timeDiff */\n      dup3\n        /* \"Contract Pools/NekoPools_flattened.sol\":17354:17374  rewardRatioNumerator */\n      sload(0x04)\n        /* \"Contract Pools/NekoPools_flattened.sol\":17332:17338  staker */\n      dup6\n        /* \"Contract Pools/NekoPools_flattened.sol\":17332:17351  staker.amountStaked */\n      0x00\n      add\n      sload\n        /* \"Contract Pools/NekoPools_flattened.sol\":17332:17374  staker.amountStaked * rewardRatioNumerator */\n      tag_319\n      swap2\n      swap1\n      tag_255\n      jump\t// in\n    tag_319:\n        /* \"Contract Pools/NekoPools_flattened.sol\":17332:17385  staker.amountStaked * rewardRatioNumerator * timeDiff */\n      tag_320\n      swap2\n      swap1\n      tag_255\n      jump\t// in\n    tag_320:\n        /* \"Contract Pools/NekoPools_flattened.sol\":17331:17424  (staker.amountStaked * rewardRatioNumerator * timeDiff) / (timeUnit * rewardRatioDenominator) */\n      tag_321\n      swap2\n      swap1\n      tag_257\n      jump\t// in\n    tag_321:\n        /* \"Contract Pools/NekoPools_flattened.sol\":17314:17424  uint256 reward = (staker.amountStaked * rewardRatioNumerator * timeDiff) / (timeUnit * rewardRatioDenominator) */\n      swap1\n      pop\n        /* \"Contract Pools/NekoPools_flattened.sol\":17451:17457  staker */\n      dup3\n        /* \"Contract Pools/NekoPools_flattened.sol\":17451:17468  staker.rewardDebt */\n      0x02\n      add\n      sload\n        /* \"Contract Pools/NekoPools_flattened.sol\":17442:17448  reward */\n      dup2\n        /* \"Contract Pools/NekoPools_flattened.sol\":17442:17468  reward + staker.rewardDebt */\n      tag_322\n      swap2\n      swap1\n      tag_226\n      jump\t// in\n    tag_322:\n        /* \"Contract Pools/NekoPools_flattened.sol\":17435:17468  return reward + staker.rewardDebt */\n      swap4\n      pop\n      pop\n      pop\n      pop\n        /* \"Contract Pools/NekoPools_flattened.sol\":17036:17475  function _calculateReward(address user) internal view returns (uint256) {... */\n    tag_314:\n      swap2\n      swap1\n      pop\n      jump\t// out\n        /* \"Contract Pools/NekoPools_flattened.sol\":6681:6868  function _transferOwnership(address newOwner) internal virtual {... */\n    tag_196:\n        /* \"Contract Pools/NekoPools_flattened.sol\":6754:6770  address oldOwner */\n      0x00\n        /* \"Contract Pools/NekoPools_flattened.sol\":6773:6779  _owner */\n      dup1\n      0x00\n      swap1\n      sload\n      swap1\n      0x0100\n      exp\n      swap1\n      div\n      0xffffffffffffffffffffffffffffffffffffffff\n      and\n        /* \"Contract Pools/NekoPools_flattened.sol\":6754:6779  address oldOwner = _owner */\n      swap1\n      pop\n        /* \"Contract Pools/NekoPools_flattened.sol\":6798:6806  newOwner */\n      dup2\n        /* \"Contract Pools/NekoPools_flattened.sol\":6789:6795  _owner */\n      0x00\n      dup1\n        /* \"Contract Pools/NekoPools_flattened.sol\":6789:6806  _owner = newOwner */\n      0x0100\n      exp\n      dup2\n      sload\n      dup2\n      0xffffffffffffffffffffffffffffffffffffffff\n      mul\n      not\n      and\n      swap1\n      dup4\n      0xffffffffffffffffffffffffffffffffffffffff\n      and\n      mul\n      or\n      swap1\n      sstore\n      pop\n        /* \"Contract Pools/NekoPools_flattened.sol\":6852:6860  newOwner */\n      dup2\n        /* \"Contract Pools/NekoPools_flattened.sol\":6821:6861  OwnershipTransferred(oldOwner, newOwner) */\n      0xffffffffffffffffffffffffffffffffffffffff\n      and\n        /* \"Contract Pools/NekoPools_flattened.sol\":6842:6850  oldOwner */\n      dup2\n        /* \"Contract Pools/NekoPools_flattened.sol\":6821:6861  OwnershipTransferred(oldOwner, newOwner) */\n      0xffffffffffffffffffffffffffffffffffffffff\n      and\n      0x8be0079c531659141344cd1fd0a4f28419497f9722a3daafe3b4186f6b6457e0\n      mload(0x40)\n      mload(0x40)\n      dup1\n      swap2\n      sub\n      swap1\n      log3\n        /* \"Contract Pools/NekoPools_flattened.sol\":6744:6868  {... */\n      pop\n        /* \"Contract Pools/NekoPools_flattened.sol\":6681:6868  function _transferOwnership(address newOwner) internal virtual {... */\n      pop\n      jump\t// out\n        /* \"Contract Pools/NekoPools_flattened.sol\":12212:12327  function _pause() internal virtual whenNotPaused {... */\n    tag_201:\n        /* \"Contract Pools/NekoPools_flattened.sol\":11265:11284  _requireNotPaused() */\n      tag_325\n        /* \"Contract Pools/NekoPools_flattened.sol\":11265:11282  _requireNotPaused */\n      tag_162\n        /* \"Contract Pools/NekoPools_flattened.sol\":11265:11284  _requireNotPaused() */\n      jump\t// in\n    tag_325:\n        /* \"Contract Pools/NekoPools_flattened.sol\":12281:12285  true */\n      0x01\n        /* \"Contract Pools/NekoPools_flattened.sol\":12271:12278  _paused */\n      0x02\n      0x00\n        /* \"Contract Pools/NekoPools_flattened.sol\":12271:12285  _paused = true */\n      0x0100\n      exp\n      dup2\n      sload\n      dup2\n      0xff\n      mul\n      not\n      and\n      swap1\n      dup4\n      iszero\n      iszero\n      mul\n      or\n      swap1\n      sstore\n      pop\n        /* \"Contract Pools/NekoPools_flattened.sol\":12300:12320  Paused(_msgSender()) */\n      0x62e78cea01bee320cd4e420270b5ea74000d11b0c9f74754ebdbfc544b05a258\n        /* \"Contract Pools/NekoPools_flattened.sol\":12307:12319  _msgSender() */\n      tag_327\n        /* \"Contract Pools/NekoPools_flattened.sol\":12307:12317  _msgSender */\n      tag_283\n        /* \"Contract Pools/NekoPools_flattened.sol\":12307:12319  _msgSender() */\n      jump\t// in\n    tag_327:\n        /* \"Contract Pools/NekoPools_flattened.sol\":12300:12320  Paused(_msgSender()) */\n      mload(0x40)\n      tag_328\n      swap2\n      swap1\n      tag_84\n      jump\t// in\n    tag_328:\n      mload(0x40)\n      dup1\n      swap2\n      sub\n      swap1\n      log1\n        /* \"Contract Pools/NekoPools_flattened.sol\":12212:12327  function _pause() internal virtual whenNotPaused {... */\n      jump\t// out\n        /* \"Contract Pools/NekoPools_flattened.sol\":3485:3581  function _msgSender() internal view virtual returns (address) {... */\n    tag_283:\n        /* \"Contract Pools/NekoPools_flattened.sol\":3538:3545  address */\n      0x00\n        /* \"Contract Pools/NekoPools_flattened.sol\":3564:3574  msg.sender */\n      caller\n        /* \"Contract Pools/NekoPools_flattened.sol\":3557:3574  return msg.sender */\n      swap1\n      pop\n        /* \"Contract Pools/NekoPools_flattened.sol\":3485:3581  function _msgSender() internal view virtual returns (address) {... */\n      swap1\n      jump\t// out\n        /* \"Contract Pools/NekoPools_flattened.sol\":11971:12077  function _requirePaused() internal view virtual {... */\n    tag_310:\n        /* \"Contract Pools/NekoPools_flattened.sol\":12037:12045  paused() */\n      tag_331\n        /* \"Contract Pools/NekoPools_flattened.sol\":12037:12043  paused */\n      tag_66\n        /* \"Contract Pools/NekoPools_flattened.sol\":12037:12045  paused() */\n      jump\t// in\n    tag_331:\n        /* \"Contract Pools/NekoPools_flattened.sol\":12029:12070  require(paused(), \"Pausable: not paused\") */\n      tag_332\n      jumpi\n      mload(0x40)\n      0x08c379a000000000000000000000000000000000000000000000000000000000\n      dup2\n      mstore\n      0x04\n      add\n      tag_333\n      swap1\n      tag_334\n      jump\t// in\n    tag_333:\n      mload(0x40)\n      dup1\n      swap2\n      sub\n      swap1\n      revert\n    tag_332:\n        /* \"Contract Pools/NekoPools_flattened.sol\":11971:12077  function _requirePaused() internal view virtual {... */\n      jump\t// out\n        /* \"#utility.yul\":88:205   */\n    tag_336:\n        /* \"#utility.yul\":197:198   */\n      0x00\n        /* \"#utility.yul\":194:195   */\n      dup1\n        /* \"#utility.yul\":187:199   */\n      revert\n        /* \"#utility.yul\":334:411   */\n    tag_338:\n        /* \"#utility.yul\":371:378   */\n      0x00\n        /* \"#utility.yul\":400:405   */\n      dup2\n        /* \"#utility.yul\":389:405   */\n      swap1\n      pop\n        /* \"#utility.yul\":334:411   */\n      swap2\n      swap1\n      pop\n      jump\t// out\n        /* \"#utility.yul\":417:539   */\n    tag_339:\n        /* \"#utility.yul\":490:514   */\n      tag_391\n        /* \"#utility.yul\":508:513   */\n      dup2\n        /* \"#utility.yul\":490:514   */\n      tag_338\n      jump\t// in\n    tag_391:\n        /* \"#utility.yul\":483:488   */\n      dup2\n        /* \"#utility.yul\":480:515   */\n      eq\n        /* \"#utility.yul\":470:533   */\n      tag_392\n      jumpi\n        /* \"#utility.yul\":529:530   */\n      0x00\n        /* \"#utility.yul\":526:527   */\n      dup1\n        /* \"#utility.yul\":519:531   */\n      revert\n        /* \"#utility.yul\":470:533   */\n    tag_392:\n        /* \"#utility.yul\":417:539   */\n      pop\n      jump\t// out\n        /* \"#utility.yul\":545:684   */\n    tag_340:\n        /* \"#utility.yul\":591:596   */\n      0x00\n        /* \"#utility.yul\":629:635   */\n      dup2\n        /* \"#utility.yul\":616:636   */\n      calldataload\n        /* \"#utility.yul\":607:636   */\n      swap1\n      pop\n        /* \"#utility.yul\":645:678   */\n      tag_394\n        /* \"#utility.yul\":672:677   */\n      dup2\n        /* \"#utility.yul\":645:678   */\n      tag_339\n      jump\t// in\n    tag_394:\n        /* \"#utility.yul\":545:684   */\n      swap3\n      swap2\n      pop\n      pop\n      jump\t// out\n        /* \"#utility.yul\":690:1164   */\n    tag_35:\n        /* \"#utility.yul\":758:764   */\n      0x00\n        /* \"#utility.yul\":766:772   */\n      dup1\n        /* \"#utility.yul\":815:817   */\n      0x40\n        /* \"#utility.yul\":803:812   */\n      dup4\n        /* \"#utility.yul\":794:801   */\n      dup6\n        /* \"#utility.yul\":790:813   */\n      sub\n        /* \"#utility.yul\":786:818   */\n      slt\n        /* \"#utility.yul\":783:902   */\n      iszero\n      tag_396\n      jumpi\n        /* \"#utility.yul\":821:900   */\n      tag_397\n      tag_336\n      jump\t// in\n    tag_397:\n        /* \"#utility.yul\":783:902   */\n    tag_396:\n        /* \"#utility.yul\":941:942   */\n      0x00\n        /* \"#utility.yul\":966:1019   */\n      tag_398\n        /* \"#utility.yul\":1011:1018   */\n      dup6\n        /* \"#utility.yul\":1002:1008   */\n      dup3\n        /* \"#utility.yul\":991:1000   */\n      dup7\n        /* \"#utility.yul\":987:1009   */\n      add\n        /* \"#utility.yul\":966:1019   */\n      tag_340\n      jump\t// in\n    tag_398:\n        /* \"#utility.yul\":956:1019   */\n      swap3\n      pop\n        /* \"#utility.yul\":912:1029   */\n      pop\n        /* \"#utility.yul\":1068:1070   */\n      0x20\n        /* \"#utility.yul\":1094:1147   */\n      tag_399\n        /* \"#utility.yul\":1139:1146   */\n      dup6\n        /* \"#utility.yul\":1130:1136   */\n      dup3\n        /* \"#utility.yul\":1119:1128   */\n      dup7\n        /* \"#utility.yul\":1115:1137   */\n      add\n        /* \"#utility.yul\":1094:1147   */\n      tag_340\n      jump\t// in\n    tag_399:\n        /* \"#utility.yul\":1084:1147   */\n      swap2\n      pop\n        /* \"#utility.yul\":1039:1157   */\n      pop\n        /* \"#utility.yul\":690:1164   */\n      swap3\n      pop\n      swap3\n      swap1\n      pop\n      jump\t// out\n        /* \"#utility.yul\":1170:1288   */\n    tag_341:\n        /* \"#utility.yul\":1257:1281   */\n      tag_401\n        /* \"#utility.yul\":1275:1280   */\n      dup2\n        /* \"#utility.yul\":1257:1281   */\n      tag_338\n      jump\t// in\n    tag_401:\n        /* \"#utility.yul\":1252:1255   */\n      dup3\n        /* \"#utility.yul\":1245:1282   */\n      mstore\n        /* \"#utility.yul\":1170:1288   */\n      pop\n      pop\n      jump\t// out\n        /* \"#utility.yul\":1294:1516   */\n    tag_41:\n        /* \"#utility.yul\":1387:1391   */\n      0x00\n        /* \"#utility.yul\":1425:1427   */\n      0x20\n        /* \"#utility.yul\":1414:1423   */\n      dup3\n        /* \"#utility.yul\":1410:1428   */\n      add\n        /* \"#utility.yul\":1402:1428   */\n      swap1\n      pop\n        /* \"#utility.yul\":1438:1509   */\n      tag_403\n        /* \"#utility.yul\":1506:1507   */\n      0x00\n        /* \"#utility.yul\":1495:1504   */\n      dup4\n        /* \"#utility.yul\":1491:1508   */\n      add\n        /* \"#utility.yul\":1482:1488   */\n      dup5\n        /* \"#utility.yul\":1438:1509   */\n      tag_341\n      jump\t// in\n    tag_403:\n        /* \"#utility.yul\":1294:1516   */\n      swap3\n      swap2\n      pop\n      pop\n      jump\t// out\n        /* \"#utility.yul\":1522:1851   */\n    tag_45:\n        /* \"#utility.yul\":1581:1587   */\n      0x00\n        /* \"#utility.yul\":1630:1632   */\n      0x20\n        /* \"#utility.yul\":1618:1627   */\n      dup3\n        /* \"#utility.yul\":1609:1616   */\n      dup5\n        /* \"#utility.yul\":1605:1628   */\n      sub\n        /* \"#utility.yul\":1601:1633   */\n      slt\n        /* \"#utility.yul\":1598:1717   */\n      iszero\n      tag_405\n      jumpi\n        /* \"#utility.yul\":1636:1715   */\n      tag_406\n      tag_336\n      jump\t// in\n    tag_406:\n        /* \"#utility.yul\":1598:1717   */\n    tag_405:\n        /* \"#utility.yul\":1756:1757   */\n      0x00\n        /* \"#utility.yul\":1781:1834   */\n      tag_407\n        /* \"#utility.yul\":1826:1833   */\n      dup5\n        /* \"#utility.yul\":1817:1823   */\n      dup3\n        /* \"#utility.yul\":1806:1815   */\n      dup6\n        /* \"#utility.yul\":1802:1824   */\n      add\n        /* \"#utility.yul\":1781:1834   */\n      tag_340\n      jump\t// in\n    tag_407:\n        /* \"#utility.yul\":1771:1834   */\n      swap2\n      pop\n        /* \"#utility.yul\":1727:1844   */\n      pop\n        /* \"#utility.yul\":1522:1851   */\n      swap3\n      swap2\n      pop\n      pop\n      jump\t// out\n        /* \"#utility.yul\":1857:1983   */\n    tag_342:\n        /* \"#utility.yul\":1894:1901   */\n      0x00\n        /* \"#utility.yul\":1934:1976   */\n      0xffffffffffffffffffffffffffffffffffffffff\n        /* \"#utility.yul\":1927:1932   */\n      dup3\n        /* \"#utility.yul\":1923:1977   */\n      and\n        /* \"#utility.yul\":1912:1977   */\n      swap1\n      pop\n        /* \"#utility.yul\":1857:1983   */\n      swap2\n      swap1\n      pop\n      jump\t// out\n        /* \"#utility.yul\":1989:2085   */\n    tag_343:\n        /* \"#utility.yul\":2026:2033   */\n      0x00\n        /* \"#utility.yul\":2055:2079   */\n      tag_410\n        /* \"#utility.yul\":2073:2078   */\n      dup3\n        /* \"#utility.yul\":2055:2079   */\n      tag_342\n      jump\t// in\n    tag_410:\n        /* \"#utility.yul\":2044:2079   */\n      swap1\n      pop\n        /* \"#utility.yul\":1989:2085   */\n      swap2\n      swap1\n      pop\n      jump\t// out\n        /* \"#utility.yul\":2091:2213   */\n    tag_344:\n        /* \"#utility.yul\":2164:2188   */\n      tag_412\n        /* \"#utility.yul\":2182:2187   */\n      dup2\n        /* \"#utility.yul\":2164:2188   */\n      tag_343\n      jump\t// in\n    tag_412:\n        /* \"#utility.yul\":2157:2162   */\n      dup2\n        /* \"#utility.yul\":2154:2189   */\n      eq\n        /* \"#utility.yul\":2144:2207   */\n      tag_413\n      jumpi\n        /* \"#utility.yul\":2203:2204   */\n      0x00\n        /* \"#utility.yul\":2200:2201   */\n      dup1\n        /* \"#utility.yul\":2193:2205   */\n      revert\n        /* \"#utility.yul\":2144:2207   */\n    tag_413:\n        /* \"#utility.yul\":2091:2213   */\n      pop\n      jump\t// out\n        /* \"#utility.yul\":2219:2358   */\n    tag_345:\n        /* \"#utility.yul\":2265:2270   */\n      0x00\n        /* \"#utility.yul\":2303:2309   */\n      dup2\n        /* \"#utility.yul\":2290:2310   */\n      calldataload\n        /* \"#utility.yul\":2281:2310   */\n      swap1\n      pop\n        /* \"#utility.yul\":2319:2352   */\n      tag_415\n        /* \"#utility.yul\":2346:2351   */\n      dup2\n        /* \"#utility.yul\":2319:2352   */\n      tag_344\n      jump\t// in\n    tag_415:\n        /* \"#utility.yul\":2219:2358   */\n      swap3\n      swap2\n      pop\n      pop\n      jump\t// out\n        /* \"#utility.yul\":2364:2693   */\n    tag_61:\n        /* \"#utility.yul\":2423:2429   */\n      0x00\n        /* \"#utility.yul\":2472:2474   */\n      0x20\n        /* \"#utility.yul\":2460:2469   */\n      dup3\n        /* \"#utility.yul\":2451:2458   */\n      dup5\n        /* \"#utility.yul\":2447:2470   */\n      sub\n        /* \"#utility.yul\":2443:2475   */\n      slt\n        /* \"#utility.yul\":2440:2559   */\n      iszero\n      tag_417\n      jumpi\n        /* \"#utility.yul\":2478:2557   */\n      tag_418\n      tag_336\n      jump\t// in\n    tag_418:\n        /* \"#utility.yul\":2440:2559   */\n    tag_417:\n        /* \"#utility.yul\":2598:2599   */\n      0x00\n        /* \"#utility.yul\":2623:2676   */\n      tag_419\n        /* \"#utility.yul\":2668:2675   */\n      dup5\n        /* \"#utility.yul\":2659:2665   */\n      dup3\n        /* \"#utility.yul\":2648:2657   */\n      dup6\n        /* \"#utility.yul\":2644:2666   */\n      add\n        /* \"#utility.yul\":2623:2676   */\n      tag_345\n      jump\t// in\n    tag_419:\n        /* \"#utility.yul\":2613:2676   */\n      swap2\n      pop\n        /* \"#utility.yul\":2569:2686   */\n      pop\n        /* \"#utility.yul\":2364:2693   */\n      swap3\n      swap2\n      pop\n      pop\n      jump\t// out\n        /* \"#utility.yul\":2699:2789   */\n    tag_346:\n        /* \"#utility.yul\":2733:2740   */\n      0x00\n        /* \"#utility.yul\":2776:2781   */\n      dup2\n        /* \"#utility.yul\":2769:2782   */\n      iszero\n        /* \"#utility.yul\":2762:2783   */\n      iszero\n        /* \"#utility.yul\":2751:2783   */\n      swap1\n      pop\n        /* \"#utility.yul\":2699:2789   */\n      swap2\n      swap1\n      pop\n      jump\t// out\n        /* \"#utility.yul\":2795:2904   */\n    tag_347:\n        /* \"#utility.yul\":2876:2897   */\n      tag_422\n        /* \"#utility.yul\":2891:2896   */\n      dup2\n        /* \"#utility.yul\":2876:2897   */\n      tag_346\n      jump\t// in\n    tag_422:\n        /* \"#utility.yul\":2871:2874   */\n      dup3\n        /* \"#utility.yul\":2864:2898   */\n      mstore\n        /* \"#utility.yul\":2795:2904   */\n      pop\n      pop\n      jump\t// out\n        /* \"#utility.yul\":2910:3120   */\n    tag_68:\n        /* \"#utility.yul\":2997:3001   */\n      0x00\n        /* \"#utility.yul\":3035:3037   */\n      0x20\n        /* \"#utility.yul\":3024:3033   */\n      dup3\n        /* \"#utility.yul\":3020:3038   */\n      add\n        /* \"#utility.yul\":3012:3038   */\n      swap1\n      pop\n        /* \"#utility.yul\":3048:3113   */\n      tag_424\n        /* \"#utility.yul\":3110:3111   */\n      0x00\n        /* \"#utility.yul\":3099:3108   */\n      dup4\n        /* \"#utility.yul\":3095:3112   */\n      add\n        /* \"#utility.yul\":3086:3092   */\n      dup5\n        /* \"#utility.yul\":3048:3113   */\n      tag_347\n      jump\t// in\n    tag_424:\n        /* \"#utility.yul\":2910:3120   */\n      swap3\n      swap2\n      pop\n      pop\n      jump\t// out\n        /* \"#utility.yul\":3126:3186   */\n    tag_348:\n        /* \"#utility.yul\":3154:3157   */\n      0x00\n        /* \"#utility.yul\":3175:3180   */\n      dup2\n        /* \"#utility.yul\":3168:3180   */\n      swap1\n      pop\n        /* \"#utility.yul\":3126:3186   */\n      swap2\n      swap1\n      pop\n      jump\t// out\n        /* \"#utility.yul\":3192:3334   */\n    tag_349:\n        /* \"#utility.yul\":3242:3251   */\n      0x00\n        /* \"#utility.yul\":3275:3328   */\n      tag_427\n        /* \"#utility.yul\":3293:3327   */\n      tag_428\n        /* \"#utility.yul\":3302:3326   */\n      tag_429\n        /* \"#utility.yul\":3320:3325   */\n      dup5\n        /* \"#utility.yul\":3302:3326   */\n      tag_342\n      jump\t// in\n    tag_429:\n        /* \"#utility.yul\":3293:3327   */\n      tag_348\n      jump\t// in\n    tag_428:\n        /* \"#utility.yul\":3275:3328   */\n      tag_342\n      jump\t// in\n    tag_427:\n        /* \"#utility.yul\":3262:3328   */\n      swap1\n      pop\n        /* \"#utility.yul\":3192:3334   */\n      swap2\n      swap1\n      pop\n      jump\t// out\n        /* \"#utility.yul\":3340:3466   */\n    tag_350:\n        /* \"#utility.yul\":3390:3399   */\n      0x00\n        /* \"#utility.yul\":3423:3460   */\n      tag_431\n        /* \"#utility.yul\":3454:3459   */\n      dup3\n        /* \"#utility.yul\":3423:3460   */\n      tag_349\n      jump\t// in\n    tag_431:\n        /* \"#utility.yul\":3410:3460   */\n      swap1\n      pop\n        /* \"#utility.yul\":3340:3466   */\n      swap2\n      swap1\n      pop\n      jump\t// out\n        /* \"#utility.yul\":3472:3611   */\n    tag_351:\n        /* \"#utility.yul\":3535:3544   */\n      0x00\n        /* \"#utility.yul\":3568:3605   */\n      tag_433\n        /* \"#utility.yul\":3599:3604   */\n      dup3\n        /* \"#utility.yul\":3568:3605   */\n      tag_350\n      jump\t// in\n    tag_433:\n        /* \"#utility.yul\":3555:3605   */\n      swap1\n      pop\n        /* \"#utility.yul\":3472:3611   */\n      swap2\n      swap1\n      pop\n      jump\t// out\n        /* \"#utility.yul\":3617:3774   */\n    tag_352:\n        /* \"#utility.yul\":3717:3767   */\n      tag_435\n        /* \"#utility.yul\":3761:3766   */\n      dup2\n        /* \"#utility.yul\":3717:3767   */\n      tag_351\n      jump\t// in\n    tag_435:\n        /* \"#utility.yul\":3712:3715   */\n      dup3\n        /* \"#utility.yul\":3705:3768   */\n      mstore\n        /* \"#utility.yul\":3617:3774   */\n      pop\n      pop\n      jump\t// out\n        /* \"#utility.yul\":3780:4028   */\n    tag_76:\n        /* \"#utility.yul\":3886:3890   */\n      0x00\n        /* \"#utility.yul\":3924:3926   */\n      0x20\n        /* \"#utility.yul\":3913:3922   */\n      dup3\n        /* \"#utility.yul\":3909:3927   */\n      add\n        /* \"#utility.yul\":3901:3927   */\n      swap1\n      pop\n        /* \"#utility.yul\":3937:4021   */\n      tag_437\n        /* \"#utility.yul\":4018:4019   */\n      0x00\n        /* \"#utility.yul\":4007:4016   */\n      dup4\n        /* \"#utility.yul\":4003:4020   */\n      add\n        /* \"#utility.yul\":3994:4000   */\n      dup5\n        /* \"#utility.yul\":3937:4021   */\n      tag_352\n      jump\t// in\n    tag_437:\n        /* \"#utility.yul\":3780:4028   */\n      swap3\n      swap2\n      pop\n      pop\n      jump\t// out\n        /* \"#utility.yul\":4034:4152   */\n    tag_353:\n        /* \"#utility.yul\":4121:4145   */\n      tag_439\n        /* \"#utility.yul\":4139:4144   */\n      dup2\n        /* \"#utility.yul\":4121:4145   */\n      tag_343\n      jump\t// in\n    tag_439:\n        /* \"#utility.yul\":4116:4119   */\n      dup3\n        /* \"#utility.yul\":4109:4146   */\n      mstore\n        /* \"#utility.yul\":4034:4152   */\n      pop\n      pop\n      jump\t// out\n        /* \"#utility.yul\":4158:4380   */\n    tag_84:\n        /* \"#utility.yul\":4251:4255   */\n      0x00\n        /* \"#utility.yul\":4289:4291   */\n      0x20\n        /* \"#utility.yul\":4278:4287   */\n      dup3\n        /* \"#utility.yul\":4274:4292   */\n      add\n        /* \"#utility.yul\":4266:4292   */\n      swap1\n      pop\n        /* \"#utility.yul\":4302:4373   */\n      tag_441\n        /* \"#utility.yul\":4370:4371   */\n      0x00\n        /* \"#utility.yul\":4359:4368   */\n      dup4\n        /* \"#utility.yul\":4355:4372   */\n      add\n        /* \"#utility.yul\":4346:4352   */\n      dup5\n        /* \"#utility.yul\":4302:4373   */\n      tag_353\n      jump\t// in\n    tag_441:\n        /* \"#utility.yul\":4158:4380   */\n      swap3\n      swap2\n      pop\n      pop\n      jump\t// out\n        /* \"#utility.yul\":4386:4828   */\n    tag_90:\n        /* \"#utility.yul\":4535:4539   */\n      0x00\n        /* \"#utility.yul\":4573:4575   */\n      0x60\n        /* \"#utility.yul\":4562:4571   */\n      dup3\n        /* \"#utility.yul\":4558:4576   */\n      add\n        /* \"#utility.yul\":4550:4576   */\n      swap1\n      pop\n        /* \"#utility.yul\":4586:4657   */\n      tag_443\n        /* \"#utility.yul\":4654:4655   */\n      0x00\n        /* \"#utility.yul\":4643:4652   */\n      dup4\n        /* \"#utility.yul\":4639:4656   */\n      add\n        /* \"#utility.yul\":4630:4636   */\n      dup7\n        /* \"#utility.yul\":4586:4657   */\n      tag_341\n      jump\t// in\n    tag_443:\n        /* \"#utility.yul\":4667:4739   */\n      tag_444\n        /* \"#utility.yul\":4735:4737   */\n      0x20\n        /* \"#utility.yul\":4724:4733   */\n      dup4\n        /* \"#utility.yul\":4720:4738   */\n      add\n        /* \"#utility.yul\":4711:4717   */\n      dup6\n        /* \"#utility.yul\":4667:4739   */\n      tag_341\n      jump\t// in\n    tag_444:\n        /* \"#utility.yul\":4749:4821   */\n      tag_445\n        /* \"#utility.yul\":4817:4819   */\n      0x40\n        /* \"#utility.yul\":4806:4815   */\n      dup4\n        /* \"#utility.yul\":4802:4820   */\n      add\n        /* \"#utility.yul\":4793:4799   */\n      dup5\n        /* \"#utility.yul\":4749:4821   */\n      tag_341\n      jump\t// in\n    tag_445:\n        /* \"#utility.yul\":4386:4828   */\n      swap5\n      swap4\n      pop\n      pop\n      pop\n      pop\n      jump\t// out\n        /* \"#utility.yul\":4834:5003   */\n    tag_354:\n        /* \"#utility.yul\":4918:4929   */\n      0x00\n        /* \"#utility.yul\":4952:4958   */\n      dup3\n        /* \"#utility.yul\":4947:4950   */\n      dup3\n        /* \"#utility.yul\":4940:4959   */\n      mstore\n        /* \"#utility.yul\":4992:4996   */\n      0x20\n        /* \"#utility.yul\":4987:4990   */\n      dup3\n        /* \"#utility.yul\":4983:4997   */\n      add\n        /* \"#utility.yul\":4968:4997   */\n      swap1\n      pop\n        /* \"#utility.yul\":4834:5003   */\n      swap3\n      swap2\n      pop\n      pop\n      jump\t// out\n        /* \"#utility.yul\":5009:5179   */\n    tag_355:\n        /* \"#utility.yul\":5149:5171   */\n      0x44656e6f6d696e61746f72206d757374203e2030000000000000000000000000\n        /* \"#utility.yul\":5145:5146   */\n      0x00\n        /* \"#utility.yul\":5137:5143   */\n      dup3\n        /* \"#utility.yul\":5133:5147   */\n      add\n        /* \"#utility.yul\":5126:5172   */\n      mstore\n        /* \"#utility.yul\":5009:5179   */\n      pop\n      jump\t// out\n        /* \"#utility.yul\":5185:5551   */\n    tag_356:\n        /* \"#utility.yul\":5327:5330   */\n      0x00\n        /* \"#utility.yul\":5348:5415   */\n      tag_449\n        /* \"#utility.yul\":5412:5414   */\n      0x14\n        /* \"#utility.yul\":5407:5410   */\n      dup4\n        /* \"#utility.yul\":5348:5415   */\n      tag_354\n      jump\t// in\n    tag_449:\n        /* \"#utility.yul\":5341:5415   */\n      swap2\n      pop\n        /* \"#utility.yul\":5424:5517   */\n      tag_450\n        /* \"#utility.yul\":5513:5516   */\n      dup3\n        /* \"#utility.yul\":5424:5517   */\n      tag_355\n      jump\t// in\n    tag_450:\n        /* \"#utility.yul\":5542:5544   */\n      0x20\n        /* \"#utility.yul\":5537:5540   */\n      dup3\n        /* \"#utility.yul\":5533:5545   */\n      add\n        /* \"#utility.yul\":5526:5545   */\n      swap1\n      pop\n        /* \"#utility.yul\":5185:5551   */\n      swap2\n      swap1\n      pop\n      jump\t// out\n        /* \"#utility.yul\":5557:5976   */\n    tag_140:\n        /* \"#utility.yul\":5723:5727   */\n      0x00\n        /* \"#utility.yul\":5761:5763   */\n      0x20\n        /* \"#utility.yul\":5750:5759   */\n      dup3\n        /* \"#utility.yul\":5746:5764   */\n      add\n        /* \"#utility.yul\":5738:5764   */\n      swap1\n      pop\n        /* \"#utility.yul\":5810:5819   */\n      dup2\n        /* \"#utility.yul\":5804:5808   */\n      dup2\n        /* \"#utility.yul\":5800:5820   */\n      sub\n        /* \"#utility.yul\":5796:5797   */\n      0x00\n        /* \"#utility.yul\":5785:5794   */\n      dup4\n        /* \"#utility.yul\":5781:5798   */\n      add\n        /* \"#utility.yul\":5774:5821   */\n      mstore\n        /* \"#utility.yul\":5838:5969   */\n      tag_452\n        /* \"#utility.yul\":5964:5968   */\n      dup2\n        /* \"#utility.yul\":5838:5969   */\n      tag_356\n      jump\t// in\n    tag_452:\n        /* \"#utility.yul\":5830:5969   */\n      swap1\n      pop\n        /* \"#utility.yul\":5557:5976   */\n      swap2\n      swap1\n      pop\n      jump\t// out\n        /* \"#utility.yul\":5982:6314   */\n    tag_142:\n        /* \"#utility.yul\":6103:6107   */\n      0x00\n        /* \"#utility.yul\":6141:6143   */\n      0x40\n        /* \"#utility.yul\":6130:6139   */\n      dup3\n        /* \"#utility.yul\":6126:6144   */\n      add\n        /* \"#utility.yul\":6118:6144   */\n      swap1\n      pop\n        /* \"#utility.yul\":6154:6225   */\n      tag_454\n        /* \"#utility.yul\":6222:6223   */\n      0x00\n        /* \"#utility.yul\":6211:6220   */\n      dup4\n        /* \"#utility.yul\":6207:6224   */\n      add\n        /* \"#utility.yul\":6198:6204   */\n      dup6\n        /* \"#utility.yul\":6154:6225   */\n      tag_341\n      jump\t// in\n    tag_454:\n        /* \"#utility.yul\":6235:6307   */\n      tag_455\n        /* \"#utility.yul\":6303:6305   */\n      0x20\n        /* \"#utility.yul\":6292:6301   */\n      dup4\n        /* \"#utility.yul\":6288:6306   */\n      add\n        /* \"#utility.yul\":6279:6285   */\n      dup5\n        /* \"#utility.yul\":6235:6307   */\n      tag_341\n      jump\t// in\n    tag_455:\n        /* \"#utility.yul\":5982:6314   */\n      swap4\n      swap3\n      pop\n      pop\n      pop\n      jump\t// out\n        /* \"#utility.yul\":6320:6762   */\n    tag_148:\n        /* \"#utility.yul\":6469:6473   */\n      0x00\n        /* \"#utility.yul\":6507:6509   */\n      0x60\n        /* \"#utility.yul\":6496:6505   */\n      dup3\n        /* \"#utility.yul\":6492:6510   */\n      add\n        /* \"#utility.yul\":6484:6510   */\n      swap1\n      pop\n        /* \"#utility.yul\":6520:6591   */\n      tag_457\n        /* \"#utility.yul\":6588:6589   */\n      0x00\n        /* \"#utility.yul\":6577:6586   */\n      dup4\n        /* \"#utility.yul\":6573:6590   */\n      add\n        /* \"#utility.yul\":6564:6570   */\n      dup7\n        /* \"#utility.yul\":6520:6591   */\n      tag_353\n      jump\t// in\n    tag_457:\n        /* \"#utility.yul\":6601:6673   */\n      tag_458\n        /* \"#utility.yul\":6669:6671   */\n      0x20\n        /* \"#utility.yul\":6658:6667   */\n      dup4\n        /* \"#utility.yul\":6654:6672   */\n      add\n        /* \"#utility.yul\":6645:6651   */\n      dup6\n        /* \"#utility.yul\":6601:6673   */\n      tag_353\n      jump\t// in\n    tag_458:\n        /* \"#utility.yul\":6683:6755   */\n      tag_459\n        /* \"#utility.yul\":6751:6753   */\n      0x40\n        /* \"#utility.yul\":6740:6749   */\n      dup4\n        /* \"#utility.yul\":6736:6754   */\n      add\n        /* \"#utility.yul\":6727:6733   */\n      dup5\n        /* \"#utility.yul\":6683:6755   */\n      tag_341\n      jump\t// in\n    tag_459:\n        /* \"#utility.yul\":6320:6762   */\n      swap5\n      swap4\n      pop\n      pop\n      pop\n      pop\n      jump\t// out\n        /* \"#utility.yul\":6768:6884   */\n    tag_357:\n        /* \"#utility.yul\":6838:6859   */\n      tag_461\n        /* \"#utility.yul\":6853:6858   */\n      dup2\n        /* \"#utility.yul\":6838:6859   */\n      tag_346\n      jump\t// in\n    tag_461:\n        /* \"#utility.yul\":6831:6836   */\n      dup2\n        /* \"#utility.yul\":6828:6860   */\n      eq\n        /* \"#utility.yul\":6818:6878   */\n      tag_462\n      jumpi\n        /* \"#utility.yul\":6874:6875   */\n      0x00\n        /* \"#utility.yul\":6871:6872   */\n      dup1\n        /* \"#utility.yul\":6864:6876   */\n      revert\n        /* \"#utility.yul\":6818:6878   */\n    tag_462:\n        /* \"#utility.yul\":6768:6884   */\n      pop\n      jump\t// out\n        /* \"#utility.yul\":6890:7027   */\n    tag_358:\n        /* \"#utility.yul\":6944:6949   */\n      0x00\n        /* \"#utility.yul\":6975:6981   */\n      dup2\n        /* \"#utility.yul\":6969:6982   */\n      mload\n        /* \"#utility.yul\":6960:6982   */\n      swap1\n      pop\n        /* \"#utility.yul\":6991:7021   */\n      tag_464\n        /* \"#utility.yul\":7015:7020   */\n      dup2\n        /* \"#utility.yul\":6991:7021   */\n      tag_357\n      jump\t// in\n    tag_464:\n        /* \"#utility.yul\":6890:7027   */\n      swap3\n      swap2\n      pop\n      pop\n      jump\t// out\n        /* \"#utility.yul\":7033:7378   */\n    tag_152:\n        /* \"#utility.yul\":7100:7106   */\n      0x00\n        /* \"#utility.yul\":7149:7151   */\n      0x20\n        /* \"#utility.yul\":7137:7146   */\n      dup3\n        /* \"#utility.yul\":7128:7135   */\n      dup5\n        /* \"#utility.yul\":7124:7147   */\n      sub\n        /* \"#utility.yul\":7120:7152   */\n      slt\n        /* \"#utility.yul\":7117:7236   */\n      iszero\n      tag_466\n      jumpi\n        /* \"#utility.yul\":7155:7234   */\n      tag_467\n      tag_336\n      jump\t// in\n    tag_467:\n        /* \"#utility.yul\":7117:7236   */\n    tag_466:\n        /* \"#utility.yul\":7275:7276   */\n      0x00\n        /* \"#utility.yul\":7300:7361   */\n      tag_468\n        /* \"#utility.yul\":7353:7360   */\n      dup5\n        /* \"#utility.yul\":7344:7350   */\n      dup3\n        /* \"#utility.yul\":7333:7342   */\n      dup6\n        /* \"#utility.yul\":7329:7351   */\n      add\n        /* \"#utility.yul\":7300:7361   */\n      tag_358\n      jump\t// in\n    tag_468:\n        /* \"#utility.yul\":7290:7361   */\n      swap2\n      pop\n        /* \"#utility.yul\":7246:7371   */\n      pop\n        /* \"#utility.yul\":7033:7378   */\n      swap3\n      swap2\n      pop\n      pop\n      jump\t// out\n        /* \"#utility.yul\":7384:7548   */\n    tag_359:\n        /* \"#utility.yul\":7524:7540   */\n      0x4465706f736974206661696c6564000000000000000000000000000000000000\n        /* \"#utility.yul\":7520:7521   */\n      0x00\n        /* \"#utility.yul\":7512:7518   */\n      dup3\n        /* \"#utility.yul\":7508:7522   */\n      add\n        /* \"#utility.yul\":7501:7541   */\n      mstore\n        /* \"#utility.yul\":7384:7548   */\n      pop\n      jump\t// out\n        /* \"#utility.yul\":7554:7920   */\n    tag_360:\n        /* \"#utility.yul\":7696:7699   */\n      0x00\n        /* \"#utility.yul\":7717:7784   */\n      tag_471\n        /* \"#utility.yul\":7781:7783   */\n      0x0e\n        /* \"#utility.yul\":7776:7779   */\n      dup4\n        /* \"#utility.yul\":7717:7784   */\n      tag_354\n      jump\t// in\n    tag_471:\n        /* \"#utility.yul\":7710:7784   */\n      swap2\n      pop\n        /* \"#utility.yul\":7793:7886   */\n      tag_472\n        /* \"#utility.yul\":7882:7885   */\n      dup3\n        /* \"#utility.yul\":7793:7886   */\n      tag_359\n      jump\t// in\n    tag_472:\n        /* \"#utility.yul\":7911:7913   */\n      0x20\n        /* \"#utility.yul\":7906:7909   */\n      dup3\n        /* \"#utility.yul\":7902:7914   */\n      add\n        /* \"#utility.yul\":7895:7914   */\n      swap1\n      pop\n        /* \"#utility.yul\":7554:7920   */\n      swap2\n      swap1\n      pop\n      jump\t// out\n        /* \"#utility.yul\":7926:8345   */\n    tag_155:\n        /* \"#utility.yul\":8092:8096   */\n      0x00\n        /* \"#utility.yul\":8130:8132   */\n      0x20\n        /* \"#utility.yul\":8119:8128   */\n      dup3\n        /* \"#utility.yul\":8115:8133   */\n      add\n        /* \"#utility.yul\":8107:8133   */\n      swap1\n      pop\n        /* \"#utility.yul\":8179:8188   */\n      dup2\n        /* \"#utility.yul\":8173:8177   */\n      dup2\n        /* \"#utility.yul\":8169:8189   */\n      sub\n        /* \"#utility.yul\":8165:8166   */\n      0x00\n        /* \"#utility.yul\":8154:8163   */\n      dup4\n        /* \"#utility.yul\":8150:8167   */\n      add\n        /* \"#utility.yul\":8143:8190   */\n      mstore\n        /* \"#utility.yul\":8207:8338   */\n      tag_474\n        /* \"#utility.yul\":8333:8337   */\n      dup2\n        /* \"#utility.yul\":8207:8338   */\n      tag_360\n      jump\t// in\n    tag_474:\n        /* \"#utility.yul\":8199:8338   */\n      swap1\n      pop\n        /* \"#utility.yul\":7926:8345   */\n      swap2\n      swap1\n      pop\n      jump\t// out\n        /* \"#utility.yul\":8351:8519   */\n    tag_361:\n        /* \"#utility.yul\":8491:8511   */\n      0x496e73756666696369656e74207374616b650000000000000000000000000000\n        /* \"#utility.yul\":8487:8488   */\n      0x00\n        /* \"#utility.yul\":8479:8485   */\n      dup3\n        /* \"#utility.yul\":8475:8489   */\n      add\n        /* \"#utility.yul\":8468:8512   */\n      mstore\n        /* \"#utility.yul\":8351:8519   */\n      pop\n      jump\t// out\n        /* \"#utility.yul\":8525:8891   */\n    tag_362:\n        /* \"#utility.yul\":8667:8670   */\n      0x00\n        /* \"#utility.yul\":8688:8755   */\n      tag_477\n        /* \"#utility.yul\":8752:8754   */\n      0x12\n        /* \"#utility.yul\":8747:8750   */\n      dup4\n        /* \"#utility.yul\":8688:8755   */\n      tag_354\n      jump\t// in\n    tag_477:\n        /* \"#utility.yul\":8681:8755   */\n      swap2\n      pop\n        /* \"#utility.yul\":8764:8857   */\n      tag_478\n        /* \"#utility.yul\":8853:8856   */\n      dup3\n        /* \"#utility.yul\":8764:8857   */\n      tag_361\n      jump\t// in\n    tag_478:\n        /* \"#utility.yul\":8882:8884   */\n      0x20\n        /* \"#utility.yul\":8877:8880   */\n      dup3\n        /* \"#utility.yul\":8873:8885   */\n      add\n        /* \"#utility.yul\":8866:8885   */\n      swap1\n      pop\n        /* \"#utility.yul\":8525:8891   */\n      swap2\n      swap1\n      pop\n      jump\t// out\n        /* \"#utility.yul\":8897:9316   */\n    tag_166:\n        /* \"#utility.yul\":9063:9067   */\n      0x00\n        /* \"#utility.yul\":9101:9103   */\n      0x20\n        /* \"#utility.yul\":9090:9099   */\n      dup3\n        /* \"#utility.yul\":9086:9104   */\n      add\n        /* \"#utility.yul\":9078:9104   */\n      swap1\n      pop\n        /* \"#utility.yul\":9150:9159   */\n      dup2\n        /* \"#utility.yul\":9144:9148   */\n      dup2\n        /* \"#utility.yul\":9140:9160   */\n      sub\n        /* \"#utility.yul\":9136:9137   */\n      0x00\n        /* \"#utility.yul\":9125:9134   */\n      dup4\n        /* \"#utility.yul\":9121:9138   */\n      add\n        /* \"#utility.yul\":9114:9161   */\n      mstore\n        /* \"#utility.yul\":9178:9309   */\n      tag_480\n        /* \"#utility.yul\":9304:9308   */\n      dup2\n        /* \"#utility.yul\":9178:9309   */\n      tag_362\n      jump\t// in\n    tag_480:\n        /* \"#utility.yul\":9170:9309   */\n      swap1\n      pop\n        /* \"#utility.yul\":8897:9316   */\n      swap2\n      swap1\n      pop\n      jump\t// out\n        /* \"#utility.yul\":9322:9502   */\n    tag_363:\n        /* \"#utility.yul\":9370:9447   */\n      0x4e487b7100000000000000000000000000000000000000000000000000000000\n        /* \"#utility.yul\":9367:9368   */\n      0x00\n        /* \"#utility.yul\":9360:9448   */\n      mstore\n        /* \"#utility.yul\":9467:9471   */\n      0x11\n        /* \"#utility.yul\":9464:9465   */\n      0x04\n        /* \"#utility.yul\":9457:9472   */\n      mstore\n        /* \"#utility.yul\":9491:9495   */\n      0x24\n        /* \"#utility.yul\":9488:9489   */\n      0x00\n        /* \"#utility.yul\":9481:9496   */\n      revert\n        /* \"#utility.yul\":9508:9702   */\n    tag_170:\n        /* \"#utility.yul\":9548:9552   */\n      0x00\n        /* \"#utility.yul\":9568:9588   */\n      tag_483\n        /* \"#utility.yul\":9586:9587   */\n      dup3\n        /* \"#utility.yul\":9568:9588   */\n      tag_338\n      jump\t// in\n    tag_483:\n        /* \"#utility.yul\":9563:9588   */\n      swap2\n      pop\n        /* \"#utility.yul\":9602:9622   */\n      tag_484\n        /* \"#utility.yul\":9620:9621   */\n      dup4\n        /* \"#utility.yul\":9602:9622   */\n      tag_338\n      jump\t// in\n    tag_484:\n        /* \"#utility.yul\":9597:9622   */\n      swap3\n      pop\n        /* \"#utility.yul\":9646:9647   */\n      dup3\n        /* \"#utility.yul\":9643:9644   */\n      dup3\n        /* \"#utility.yul\":9639:9648   */\n      sub\n        /* \"#utility.yul\":9631:9648   */\n      swap1\n      pop\n        /* \"#utility.yul\":9670:9671   */\n      dup2\n        /* \"#utility.yul\":9664:9668   */\n      dup2\n        /* \"#utility.yul\":9661:9672   */\n      gt\n        /* \"#utility.yul\":9658:9695   */\n      iszero\n      tag_485\n      jumpi\n        /* \"#utility.yul\":9675:9693   */\n      tag_486\n      tag_363\n      jump\t// in\n    tag_486:\n        /* \"#utility.yul\":9658:9695   */\n    tag_485:\n        /* \"#utility.yul\":9508:9702   */\n      swap3\n      swap2\n      pop\n      pop\n      jump\t// out\n        /* \"#utility.yul\":9708:10040   */\n    tag_173:\n        /* \"#utility.yul\":9829:9833   */\n      0x00\n        /* \"#utility.yul\":9867:9869   */\n      0x40\n        /* \"#utility.yul\":9856:9865   */\n      dup3\n        /* \"#utility.yul\":9852:9870   */\n      add\n        /* \"#utility.yul\":9844:9870   */\n      swap1\n      pop\n        /* \"#utility.yul\":9880:9951   */\n      tag_488\n        /* \"#utility.yul\":9948:9949   */\n      0x00\n        /* \"#utility.yul\":9937:9946   */\n      dup4\n        /* \"#utility.yul\":9933:9950   */\n      add\n        /* \"#utility.yul\":9924:9930   */\n      dup6\n        /* \"#utility.yul\":9880:9951   */\n      tag_353\n      jump\t// in\n    tag_488:\n        /* \"#utility.yul\":9961:10033   */\n      tag_489\n        /* \"#utility.yul\":10029:10031   */\n      0x20\n        /* \"#utility.yul\":10018:10027   */\n      dup4\n        /* \"#utility.yul\":10014:10032   */\n      add\n        /* \"#utility.yul\":10005:10011   */\n      dup5\n        /* \"#utility.yul\":9961:10033   */\n      tag_341\n      jump\t// in\n    tag_489:\n        /* \"#utility.yul\":9708:10040   */\n      swap4\n      swap3\n      pop\n      pop\n      pop\n      jump\t// out\n        /* \"#utility.yul\":10046:10225   */\n    tag_364:\n        /* \"#utility.yul\":10186:10217   */\n      0x556e7374616b6520746f6b656e207472616e73666572206661696c6564000000\n        /* \"#utility.yul\":10182:10183   */\n      0x00\n        /* \"#utility.yul\":10174:10180   */\n      dup3\n        /* \"#utility.yul\":10170:10184   */\n      add\n        /* \"#utility.yul\":10163:10218   */\n      mstore\n        /* \"#utility.yul\":10046:10225   */\n      pop\n      jump\t// out\n        /* \"#utility.yul\":10231:10597   */\n    tag_365:\n        /* \"#utility.yul\":10373:10376   */\n      0x00\n        /* \"#utility.yul\":10394:10461   */\n      tag_492\n        /* \"#utility.yul\":10458:10460   */\n      0x1d\n        /* \"#utility.yul\":10453:10456   */\n      dup4\n        /* \"#utility.yul\":10394:10461   */\n      tag_354\n      jump\t// in\n    tag_492:\n        /* \"#utility.yul\":10387:10461   */\n      swap2\n      pop\n        /* \"#utility.yul\":10470:10563   */\n      tag_493\n        /* \"#utility.yul\":10559:10562   */\n      dup3\n        /* \"#utility.yul\":10470:10563   */\n      tag_364\n      jump\t// in\n    tag_493:\n        /* \"#utility.yul\":10588:10590   */\n      0x20\n        /* \"#utility.yul\":10583:10586   */\n      dup3\n        /* \"#utility.yul\":10579:10591   */\n      add\n        /* \"#utility.yul\":10572:10591   */\n      swap1\n      pop\n        /* \"#utility.yul\":10231:10597   */\n      swap2\n      swap1\n      pop\n      jump\t// out\n        /* \"#utility.yul\":10603:11022   */\n    tag_179:\n        /* \"#utility.yul\":10769:10773   */\n      0x00\n        /* \"#utility.yul\":10807:10809   */\n      0x20\n        /* \"#utility.yul\":10796:10805   */\n      dup3\n        /* \"#utility.yul\":10792:10810   */\n      add\n        /* \"#utility.yul\":10784:10810   */\n      swap1\n      pop\n        /* \"#utility.yul\":10856:10865   */\n      dup2\n        /* \"#utility.yul\":10850:10854   */\n      dup2\n        /* \"#utility.yul\":10846:10866   */\n      sub\n        /* \"#utility.yul\":10842:10843   */\n      0x00\n        /* \"#utility.yul\":10831:10840   */\n      dup4\n        /* \"#utility.yul\":10827:10844   */\n      add\n        /* \"#utility.yul\":10820:10867   */\n      mstore\n        /* \"#utility.yul\":10884:11015   */\n      tag_495\n        /* \"#utility.yul\":11010:11014   */\n      dup2\n        /* \"#utility.yul\":10884:11015   */\n      tag_365\n      jump\t// in\n    tag_495:\n        /* \"#utility.yul\":10876:11015   */\n      swap1\n      pop\n        /* \"#utility.yul\":10603:11022   */\n      swap2\n      swap1\n      pop\n      jump\t// out\n        /* \"#utility.yul\":11028:11197   */\n    tag_366:\n        /* \"#utility.yul\":11168:11189   */\n      0x4d75737420706179206e61746976652066656500000000000000000000000000\n        /* \"#utility.yul\":11164:11165   */\n      0x00\n        /* \"#utility.yul\":11156:11162   */\n      dup3\n        /* \"#utility.yul\":11152:11166   */\n      add\n        /* \"#utility.yul\":11145:11190   */\n      mstore\n        /* \"#utility.yul\":11028:11197   */\n      pop\n      jump\t// out\n        /* \"#utility.yul\":11203:11569   */\n    tag_367:\n        /* \"#utility.yul\":11345:11348   */\n      0x00\n        /* \"#utility.yul\":11366:11433   */\n      tag_498\n        /* \"#utility.yul\":11430:11432   */\n      0x13\n        /* \"#utility.yul\":11425:11428   */\n      dup4\n        /* \"#utility.yul\":11366:11433   */\n      tag_354\n      jump\t// in\n    tag_498:\n        /* \"#utility.yul\":11359:11433   */\n      swap2\n      pop\n        /* \"#utility.yul\":11442:11535   */\n      tag_499\n        /* \"#utility.yul\":11531:11534   */\n      dup3\n        /* \"#utility.yul\":11442:11535   */\n      tag_366\n      jump\t// in\n    tag_499:\n        /* \"#utility.yul\":11560:11562   */\n      0x20\n        /* \"#utility.yul\":11555:11558   */\n      dup3\n        /* \"#utility.yul\":11551:11563   */\n      add\n        /* \"#utility.yul\":11544:11563   */\n      swap1\n      pop\n        /* \"#utility.yul\":11203:11569   */\n      swap2\n      swap1\n      pop\n      jump\t// out\n        /* \"#utility.yul\":11575:11994   */\n    tag_210:\n        /* \"#utility.yul\":11741:11745   */\n      0x00\n        /* \"#utility.yul\":11779:11781   */\n      0x20\n        /* \"#utility.yul\":11768:11777   */\n      dup3\n        /* \"#utility.yul\":11764:11782   */\n      add\n        /* \"#utility.yul\":11756:11782   */\n      swap1\n      pop\n        /* \"#utility.yul\":11828:11837   */\n      dup2\n        /* \"#utility.yul\":11822:11826   */\n      dup2\n        /* \"#utility.yul\":11818:11838   */\n      sub\n        /* \"#utility.yul\":11814:11815   */\n      0x00\n        /* \"#utility.yul\":11803:11812   */\n      dup4\n        /* \"#utility.yul\":11799:11816   */\n      add\n        /* \"#utility.yul\":11792:11839   */\n      mstore\n        /* \"#utility.yul\":11856:11987   */\n      tag_501\n        /* \"#utility.yul\":11982:11986   */\n      dup2\n        /* \"#utility.yul\":11856:11987   */\n      tag_367\n      jump\t// in\n    tag_501:\n        /* \"#utility.yul\":11848:11987   */\n      swap1\n      pop\n        /* \"#utility.yul\":11575:11994   */\n      swap2\n      swap1\n      pop\n      jump\t// out\n        /* \"#utility.yul\":12000:12165   */\n    tag_368:\n        /* \"#utility.yul\":12140:12157   */\n      0x416d6f756e74206d757374203e20300000000000000000000000000000000000\n        /* \"#utility.yul\":12136:12137   */\n      0x00\n        /* \"#utility.yul\":12128:12134   */\n      dup3\n        /* \"#utility.yul\":12124:12138   */\n      add\n        /* \"#utility.yul\":12117:12158   */\n      mstore\n        /* \"#utility.yul\":12000:12165   */\n      pop\n      jump\t// out\n        /* \"#utility.yul\":12171:12537   */\n    tag_369:\n        /* \"#utility.yul\":12313:12316   */\n      0x00\n        /* \"#utility.yul\":12334:12401   */\n      tag_504\n        /* \"#utility.yul\":12398:12400   */\n      0x0f\n        /* \"#utility.yul\":12393:12396   */\n      dup4\n        /* \"#utility.yul\":12334:12401   */\n      tag_354\n      jump\t// in\n    tag_504:\n        /* \"#utility.yul\":12327:12401   */\n      swap2\n      pop\n        /* \"#utility.yul\":12410:12503   */\n      tag_505\n        /* \"#utility.yul\":12499:12502   */\n      dup3\n        /* \"#utility.yul\":12410:12503   */\n      tag_368\n      jump\t// in\n    tag_505:\n        /* \"#utility.yul\":12528:12530   */\n      0x20\n        /* \"#utility.yul\":12523:12526   */\n      dup3\n        /* \"#utility.yul\":12519:12531   */\n      add\n        /* \"#utility.yul\":12512:12531   */\n      swap1\n      pop\n        /* \"#utility.yul\":12171:12537   */\n      swap2\n      swap1\n      pop\n      jump\t// out\n        /* \"#utility.yul\":12543:12962   */\n    tag_213:\n        /* \"#utility.yul\":12709:12713   */\n      0x00\n        /* \"#utility.yul\":12747:12749   */\n      0x20\n        /* \"#utility.yul\":12736:12745   */\n      dup3\n        /* \"#utility.yul\":12732:12750   */\n      add\n        /* \"#utility.yul\":12724:12750   */\n      swap1\n      pop\n        /* \"#utility.yul\":12796:12805   */\n      dup2\n        /* \"#utility.yul\":12790:12794   */\n      dup2\n        /* \"#utility.yul\":12786:12806   */\n      sub\n        /* \"#utility.yul\":12782:12783   */\n      0x00\n        /* \"#utility.yul\":12771:12780   */\n      dup4\n        /* \"#utility.yul\":12767:12784   */\n      add\n        /* \"#utility.yul\":12760:12807   */\n      mstore\n        /* \"#utility.yul\":12824:12955   */\n      tag_507\n        /* \"#utility.yul\":12950:12954   */\n      dup2\n        /* \"#utility.yul\":12824:12955   */\n      tag_369\n      jump\t// in\n    tag_507:\n        /* \"#utility.yul\":12816:12955   */\n      swap1\n      pop\n        /* \"#utility.yul\":12543:12962   */\n      swap2\n      swap1\n      pop\n      jump\t// out\n        /* \"#utility.yul\":12968:13145   */\n    tag_370:\n        /* \"#utility.yul\":13108:13137   */\n      0x5374616b6520746f6b656e207472616e73666572206661696c65640000000000\n        /* \"#utility.yul\":13104:13105   */\n      0x00\n        /* \"#utility.yul\":13096:13102   */\n      dup3\n        /* \"#utility.yul\":13092:13106   */\n      add\n        /* \"#utility.yul\":13085:13138   */\n      mstore\n        /* \"#utility.yul\":12968:13145   */\n      pop\n      jump\t// out\n        /* \"#utility.yul\":13151:13517   */\n    tag_371:\n        /* \"#utility.yul\":13293:13296   */\n      0x00\n        /* \"#utility.yul\":13314:13381   */\n      tag_510\n        /* \"#utility.yul\":13378:13380   */\n      0x1b\n        /* \"#utility.yul\":13373:13376   */\n      dup4\n        /* \"#utility.yul\":13314:13381   */\n      tag_354\n      jump\t// in\n    tag_510:\n        /* \"#utility.yul\":13307:13381   */\n      swap2\n      pop\n        /* \"#utility.yul\":13390:13483   */\n      tag_511\n        /* \"#utility.yul\":13479:13482   */\n      dup3\n        /* \"#utility.yul\":13390:13483   */\n      tag_370\n      jump\t// in\n    tag_511:\n        /* \"#utility.yul\":13508:13510   */\n      0x20\n        /* \"#utility.yul\":13503:13506   */\n      dup3\n        /* \"#utility.yul\":13499:13511   */\n      add\n        /* \"#utility.yul\":13492:13511   */\n      swap1\n      pop\n        /* \"#utility.yul\":13151:13517   */\n      swap2\n      swap1\n      pop\n      jump\t// out\n        /* \"#utility.yul\":13523:13942   */\n    tag_224:\n        /* \"#utility.yul\":13689:13693   */\n      0x00\n        /* \"#utility.yul\":13727:13729   */\n      0x20\n        /* \"#utility.yul\":13716:13725   */\n      dup3\n        /* \"#utility.yul\":13712:13730   */\n      add\n        /* \"#utility.yul\":13704:13730   */\n      swap1\n      pop\n        /* \"#utility.yul\":13776:13785   */\n      dup2\n        /* \"#utility.yul\":13770:13774   */\n      dup2\n        /* \"#utility.yul\":13766:13786   */\n      sub\n        /* \"#utility.yul\":13762:13763   */\n      0x00\n        /* \"#utility.yul\":13751:13760   */\n      dup4\n        /* \"#utility.yul\":13747:13764   */\n      add\n        /* \"#utility.yul\":13740:13787   */\n      mstore\n        /* \"#utility.yul\":13804:13935   */\n      tag_513\n        /* \"#utility.yul\":13930:13934   */\n      dup2\n        /* \"#utility.yul\":13804:13935   */\n      tag_371\n      jump\t// in\n    tag_513:\n        /* \"#utility.yul\":13796:13935   */\n      swap1\n      pop\n        /* \"#utility.yul\":13523:13942   */\n      swap2\n      swap1\n      pop\n      jump\t// out\n        /* \"#utility.yul\":13948:14139   */\n    tag_226:\n        /* \"#utility.yul\":13988:13991   */\n      0x00\n        /* \"#utility.yul\":14007:14027   */\n      tag_515\n        /* \"#utility.yul\":14025:14026   */\n      dup3\n        /* \"#utility.yul\":14007:14027   */\n      tag_338\n      jump\t// in\n    tag_515:\n        /* \"#utility.yul\":14002:14027   */\n      swap2\n      pop\n        /* \"#utility.yul\":14041:14061   */\n      tag_516\n        /* \"#utility.yul\":14059:14060   */\n      dup4\n        /* \"#utility.yul\":14041:14061   */\n      tag_338\n      jump\t// in\n    tag_516:\n        /* \"#utility.yul\":14036:14061   */\n      swap3\n      pop\n        /* \"#utility.yul\":14084:14085   */\n      dup3\n        /* \"#utility.yul\":14081:14082   */\n      dup3\n        /* \"#utility.yul\":14077:14086   */\n      add\n        /* \"#utility.yul\":14070:14086   */\n      swap1\n      pop\n        /* \"#utility.yul\":14105:14108   */\n      dup1\n        /* \"#utility.yul\":14102:14103   */\n      dup3\n        /* \"#utility.yul\":14099:14109   */\n      gt\n        /* \"#utility.yul\":14096:14132   */\n      iszero\n      tag_517\n      jumpi\n        /* \"#utility.yul\":14112:14130   */\n      tag_518\n      tag_363\n      jump\t// in\n    tag_518:\n        /* \"#utility.yul\":14096:14132   */\n    tag_517:\n        /* \"#utility.yul\":13948:14139   */\n      swap3\n      swap2\n      pop\n      pop\n      jump\t// out\n        /* \"#utility.yul\":14145:14304   */\n    tag_372:\n        /* \"#utility.yul\":14285:14296   */\n      0x4e6f207265776172640000000000000000000000000000000000000000000000\n        /* \"#utility.yul\":14281:14282   */\n      0x00\n        /* \"#utility.yul\":14273:14279   */\n      dup3\n        /* \"#utility.yul\":14269:14283   */\n      add\n        /* \"#utility.yul\":14262:14297   */\n      mstore\n        /* \"#utility.yul\":14145:14304   */\n      pop\n      jump\t// out\n        /* \"#utility.yul\":14310:14675   */\n    tag_373:\n        /* \"#utility.yul\":14452:14455   */\n      0x00\n        /* \"#utility.yul\":14473:14539   */\n      tag_521\n        /* \"#utility.yul\":14537:14538   */\n      0x09\n        /* \"#utility.yul\":14532:14535   */\n      dup4\n        /* \"#utility.yul\":14473:14539   */\n      tag_354\n      jump\t// in\n    tag_521:\n        /* \"#utility.yul\":14466:14539   */\n      swap2\n      pop\n        /* \"#utility.yul\":14548:14641   */\n      tag_522\n        /* \"#utility.yul\":14637:14640   */\n      dup3\n        /* \"#utility.yul\":14548:14641   */\n      tag_372\n      jump\t// in\n    tag_522:\n        /* \"#utility.yul\":14666:14668   */\n      0x20\n        /* \"#utility.yul\":14661:14664   */\n      dup3\n        /* \"#utility.yul\":14657:14669   */\n      add\n        /* \"#utility.yul\":14650:14669   */\n      swap1\n      pop\n        /* \"#utility.yul\":14310:14675   */\n      swap2\n      swap1\n      pop\n      jump\t// out\n        /* \"#utility.yul\":14681:15100   */\n    tag_238:\n        /* \"#utility.yul\":14847:14851   */\n      0x00\n        /* \"#utility.yul\":14885:14887   */\n      0x20\n        /* \"#utility.yul\":14874:14883   */\n      dup3\n        /* \"#utility.yul\":14870:14888   */\n      add\n        /* \"#utility.yul\":14862:14888   */\n      swap1\n      pop\n        /* \"#utility.yul\":14934:14943   */\n      dup2\n        /* \"#utility.yul\":14928:14932   */\n      dup2\n        /* \"#utility.yul\":14924:14944   */\n      sub\n        /* \"#utility.yul\":14920:14921   */\n      0x00\n        /* \"#utility.yul\":14909:14918   */\n      dup4\n        /* \"#utility.yul\":14905:14922   */\n      add\n        /* \"#utility.yul\":14898:14945   */\n      mstore\n        /* \"#utility.yul\":14962:15093   */\n      tag_524\n        /* \"#utility.yul\":15088:15092   */\n      dup2\n        /* \"#utility.yul\":14962:15093   */\n      tag_373\n      jump\t// in\n    tag_524:\n        /* \"#utility.yul\":14954:15093   */\n      swap1\n      pop\n        /* \"#utility.yul\":14681:15100   */\n      swap2\n      swap1\n      pop\n      jump\t// out\n        /* \"#utility.yul\":15106:15278   */\n    tag_374:\n        /* \"#utility.yul\":15246:15270   */\n      0x526577617264207472616e73666572206661696c656400000000000000000000\n        /* \"#utility.yul\":15242:15243   */\n      0x00\n        /* \"#utility.yul\":15234:15240   */\n      dup3\n        /* \"#utility.yul\":15230:15244   */\n      add\n        /* \"#utility.yul\":15223:15271   */\n      mstore\n        /* \"#utility.yul\":15106:15278   */\n      pop\n      jump\t// out\n        /* \"#utility.yul\":15284:15650   */\n    tag_375:\n        /* \"#utility.yul\":15426:15429   */\n      0x00\n        /* \"#utility.yul\":15447:15514   */\n      tag_527\n        /* \"#utility.yul\":15511:15513   */\n      0x16\n        /* \"#utility.yul\":15506:15509   */\n      dup4\n        /* \"#utility.yul\":15447:15514   */\n      tag_354\n      jump\t// in\n    tag_527:\n        /* \"#utility.yul\":15440:15514   */\n      swap2\n      pop\n        /* \"#utility.yul\":15523:15616   */\n      tag_528\n        /* \"#utility.yul\":15612:15615   */\n      dup3\n        /* \"#utility.yul\":15523:15616   */\n      tag_374\n      jump\t// in\n    tag_528:\n        /* \"#utility.yul\":15641:15643   */\n      0x20\n        /* \"#utility.yul\":15636:15639   */\n      dup3\n        /* \"#utility.yul\":15632:15644   */\n      add\n        /* \"#utility.yul\":15625:15644   */\n      swap1\n      pop\n        /* \"#utility.yul\":15284:15650   */\n      swap2\n      swap1\n      pop\n      jump\t// out\n        /* \"#utility.yul\":15656:16075   */\n    tag_245:\n        /* \"#utility.yul\":15822:15826   */\n      0x00\n        /* \"#utility.yul\":15860:15862   */\n      0x20\n        /* \"#utility.yul\":15849:15858   */\n      dup3\n        /* \"#utility.yul\":15845:15863   */\n      add\n        /* \"#utility.yul\":15837:15863   */\n      swap1\n      pop\n        /* \"#utility.yul\":15909:15918   */\n      dup2\n        /* \"#utility.yul\":15903:15907   */\n      dup2\n        /* \"#utility.yul\":15899:15919   */\n      sub\n        /* \"#utility.yul\":15895:15896   */\n      0x00\n        /* \"#utility.yul\":15884:15893   */\n      dup4\n        /* \"#utility.yul\":15880:15897   */\n      add\n        /* \"#utility.yul\":15873:15920   */\n      mstore\n        /* \"#utility.yul\":15937:16068   */\n      tag_530\n        /* \"#utility.yul\":16063:16067   */\n      dup2\n        /* \"#utility.yul\":15937:16068   */\n      tag_375\n      jump\t// in\n    tag_530:\n        /* \"#utility.yul\":15929:16068   */\n      swap1\n      pop\n        /* \"#utility.yul\":15656:16075   */\n      swap2\n      swap1\n      pop\n      jump\t// out\n        /* \"#utility.yul\":16081:16491   */\n    tag_255:\n        /* \"#utility.yul\":16121:16128   */\n      0x00\n        /* \"#utility.yul\":16144:16164   */\n      tag_532\n        /* \"#utility.yul\":16162:16163   */\n      dup3\n        /* \"#utility.yul\":16144:16164   */\n      tag_338\n      jump\t// in\n    tag_532:\n        /* \"#utility.yul\":16139:16164   */\n      swap2\n      pop\n        /* \"#utility.yul\":16178:16198   */\n      tag_533\n        /* \"#utility.yul\":16196:16197   */\n      dup4\n        /* \"#utility.yul\":16178:16198   */\n      tag_338\n      jump\t// in\n    tag_533:\n        /* \"#utility.yul\":16173:16198   */\n      swap3\n      pop\n        /* \"#utility.yul\":16233:16234   */\n      dup3\n        /* \"#utility.yul\":16230:16231   */\n      dup3\n        /* \"#utility.yul\":16226:16235   */\n      mul\n        /* \"#utility.yul\":16255:16285   */\n      tag_534\n        /* \"#utility.yul\":16273:16284   */\n      dup2\n        /* \"#utility.yul\":16255:16285   */\n      tag_338\n      jump\t// in\n    tag_534:\n        /* \"#utility.yul\":16244:16285   */\n      swap2\n      pop\n        /* \"#utility.yul\":16434:16435   */\n      dup3\n        /* \"#utility.yul\":16425:16432   */\n      dup3\n        /* \"#utility.yul\":16421:16436   */\n      div\n        /* \"#utility.yul\":16418:16419   */\n      dup5\n        /* \"#utility.yul\":16415:16437   */\n      eq\n        /* \"#utility.yul\":16395:16396   */\n      dup4\n        /* \"#utility.yul\":16388:16397   */\n      iszero\n        /* \"#utility.yul\":16368:16451   */\n      or\n        /* \"#utility.yul\":16345:16484   */\n      tag_535\n      jumpi\n        /* \"#utility.yul\":16464:16482   */\n      tag_536\n      tag_363\n      jump\t// in\n    tag_536:\n        /* \"#utility.yul\":16345:16484   */\n    tag_535:\n        /* \"#utility.yul\":16129:16491   */\n      pop\n        /* \"#utility.yul\":16081:16491   */\n      swap3\n      swap2\n      pop\n      pop\n      jump\t// out\n        /* \"#utility.yul\":16497:16677   */\n    tag_376:\n        /* \"#utility.yul\":16545:16622   */\n      0x4e487b7100000000000000000000000000000000000000000000000000000000\n        /* \"#utility.yul\":16542:16543   */\n      0x00\n        /* \"#utility.yul\":16535:16623   */\n      mstore\n        /* \"#utility.yul\":16642:16646   */\n      0x12\n        /* \"#utility.yul\":16639:16640   */\n      0x04\n        /* \"#utility.yul\":16632:16647   */\n      mstore\n        /* \"#utility.yul\":16666:16670   */\n      0x24\n        /* \"#utility.yul\":16663:16664   */\n      0x00\n        /* \"#utility.yul\":16656:16671   */\n      revert\n        /* \"#utility.yul\":16683:16868   */\n    tag_257:\n        /* \"#utility.yul\":16723:16724   */\n      0x00\n        /* \"#utility.yul\":16740:16760   */\n      tag_539\n        /* \"#utility.yul\":16758:16759   */\n      dup3\n        /* \"#utility.yul\":16740:16760   */\n      tag_338\n      jump\t// in\n    tag_539:\n        /* \"#utility.yul\":16735:16760   */\n      swap2\n      pop\n        /* \"#utility.yul\":16774:16794   */\n      tag_540\n        /* \"#utility.yul\":16792:16793   */\n      dup4\n        /* \"#utility.yul\":16774:16794   */\n      tag_338\n      jump\t// in\n    tag_540:\n        /* \"#utility.yul\":16769:16794   */\n      swap3\n      pop\n        /* \"#utility.yul\":16813:16814   */\n      dup3\n        /* \"#utility.yul\":16803:16838   */\n      tag_541\n      jumpi\n        /* \"#utility.yul\":16818:16836   */\n      tag_542\n      tag_376\n      jump\t// in\n    tag_542:\n        /* \"#utility.yul\":16803:16838   */\n    tag_541:\n        /* \"#utility.yul\":16860:16861   */\n      dup3\n        /* \"#utility.yul\":16857:16858   */\n      dup3\n        /* \"#utility.yul\":16853:16862   */\n      div\n        /* \"#utility.yul\":16848:16862   */\n      swap1\n      pop\n        /* \"#utility.yul\":16683:16868   */\n      swap3\n      swap2\n      pop\n      pop\n      jump\t// out\n        /* \"#utility.yul\":16874:17039   */\n    tag_377:\n        /* \"#utility.yul\":17014:17031   */\n      0x5769746864726177206661696c65640000000000000000000000000000000000\n        /* \"#utility.yul\":17010:17011   */\n      0x00\n        /* \"#utility.yul\":17002:17008   */\n      dup3\n        /* \"#utility.yul\":16998:17012   */\n      add\n        /* \"#utility.yul\":16991:17032   */\n      mstore\n        /* \"#utility.yul\":16874:17039   */\n      pop\n      jump\t// out\n        /* \"#utility.yul\":17045:17411   */\n    tag_378:\n        /* \"#utility.yul\":17187:17190   */\n      0x00\n        /* \"#utility.yul\":17208:17275   */\n      tag_545\n        /* \"#utility.yul\":17272:17274   */\n      0x0f\n        /* \"#utility.yul\":17267:17270   */\n      dup4\n        /* \"#utility.yul\":17208:17275   */\n      tag_354\n      jump\t// in\n    tag_545:\n        /* \"#utility.yul\":17201:17275   */\n      swap2\n      pop\n        /* \"#utility.yul\":17284:17377   */\n      tag_546\n        /* \"#utility.yul\":17373:17376   */\n      dup3\n        /* \"#utility.yul\":17284:17377   */\n      tag_377\n      jump\t// in\n    tag_546:\n        /* \"#utility.yul\":17402:17404   */\n      0x20\n        /* \"#utility.yul\":17397:17400   */\n      dup3\n        /* \"#utility.yul\":17393:17405   */\n      add\n        /* \"#utility.yul\":17386:17405   */\n      swap1\n      pop\n        /* \"#utility.yul\":17045:17411   */\n      swap2\n      swap1\n      pop\n      jump\t// out\n        /* \"#utility.yul\":17417:17836   */\n    tag_272:\n        /* \"#utility.yul\":17583:17587   */\n      0x00\n        /* \"#utility.yul\":17621:17623   */\n      0x20\n        /* \"#utility.yul\":17610:17619   */\n      dup3\n        /* \"#utility.yul\":17606:17624   */\n      add\n        /* \"#utility.yul\":17598:17624   */\n      swap1\n      pop\n        /* \"#utility.yul\":17670:17679   */\n      dup2\n        /* \"#utility.yul\":17664:17668   */\n      dup2\n        /* \"#utility.yul\":17660:17680   */\n      sub\n        /* \"#utility.yul\":17656:17657   */\n      0x00\n        /* \"#utility.yul\":17645:17654   */\n      dup4\n        /* \"#utility.yul\":17641:17658   */\n      add\n        /* \"#utility.yul\":17634:17681   */\n      mstore\n        /* \"#utility.yul\":17698:17829   */\n      tag_548\n        /* \"#utility.yul\":17824:17828   */\n      dup2\n        /* \"#utility.yul\":17698:17829   */\n      tag_378\n      jump\t// in\n    tag_548:\n        /* \"#utility.yul\":17690:17829   */\n      swap1\n      pop\n        /* \"#utility.yul\":17417:17836   */\n      swap2\n      swap1\n      pop\n      jump\t// out\n        /* \"#utility.yul\":17842:18023   */\n    tag_379:\n        /* \"#utility.yul\":17982:18015   */\n      0x5265656e7472616e637947756172643a207265656e7472616e742063616c6c00\n        /* \"#utility.yul\":17978:17979   */\n      0x00\n        /* \"#utility.yul\":17970:17976   */\n      dup3\n        /* \"#utility.yul\":17966:17980   */\n      add\n        /* \"#utility.yul\":17959:18016   */\n      mstore\n        /* \"#utility.yul\":17842:18023   */\n      pop\n      jump\t// out\n        /* \"#utility.yul\":18029:18395   */\n    tag_380:\n        /* \"#utility.yul\":18171:18174   */\n      0x00\n        /* \"#utility.yul\":18192:18259   */\n      tag_551\n        /* \"#utility.yul\":18256:18258   */\n      0x1f\n        /* \"#utility.yul\":18251:18254   */\n      dup4\n        /* \"#utility.yul\":18192:18259   */\n      tag_354\n      jump\t// in\n    tag_551:\n        /* \"#utility.yul\":18185:18259   */\n      swap2\n      pop\n        /* \"#utility.yul\":18268:18361   */\n      tag_552\n        /* \"#utility.yul\":18357:18360   */\n      dup3\n        /* \"#utility.yul\":18268:18361   */\n      tag_379\n      jump\t// in\n    tag_552:\n        /* \"#utility.yul\":18386:18388   */\n      0x20\n        /* \"#utility.yul\":18381:18384   */\n      dup3\n        /* \"#utility.yul\":18377:18389   */\n      add\n        /* \"#utility.yul\":18370:18389   */\n      swap1\n      pop\n        /* \"#utility.yul\":18029:18395   */\n      swap2\n      swap1\n      pop\n      jump\t// out\n        /* \"#utility.yul\":18401:18820   */\n    tag_291:\n        /* \"#utility.yul\":18567:18571   */\n      0x00\n        /* \"#utility.yul\":18605:18607   */\n      0x20\n        /* \"#utility.yul\":18594:18603   */\n      dup3\n        /* \"#utility.yul\":18590:18608   */\n      add\n        /* \"#utility.yul\":18582:18608   */\n      swap1\n      pop\n        /* \"#utility.yul\":18654:18663   */\n      dup2\n        /* \"#utility.yul\":18648:18652   */\n      dup2\n        /* \"#utility.yul\":18644:18664   */\n      sub\n        /* \"#utility.yul\":18640:18641   */\n      0x00\n        /* \"#utility.yul\":18629:18638   */\n      dup4\n        /* \"#utility.yul\":18625:18642   */\n      add\n        /* \"#utility.yul\":18618:18665   */\n      mstore\n        /* \"#utility.yul\":18682:18813   */\n      tag_554\n        /* \"#utility.yul\":18808:18812   */\n      dup2\n        /* \"#utility.yul\":18682:18813   */\n      tag_380\n      jump\t// in\n    tag_554:\n        /* \"#utility.yul\":18674:18813   */\n      swap1\n      pop\n        /* \"#utility.yul\":18401:18820   */\n      swap2\n      swap1\n      pop\n      jump\t// out\n        /* \"#utility.yul\":18826:18992   */\n    tag_381:\n        /* \"#utility.yul\":18966:18984   */\n      0x5061757361626c653a2070617573656400000000000000000000000000000000\n        /* \"#utility.yul\":18962:18963   */\n      0x00\n        /* \"#utility.yul\":18954:18960   */\n      dup3\n        /* \"#utility.yul\":18950:18964   */\n      add\n        /* \"#utility.yul\":18943:18985   */\n      mstore\n        /* \"#utility.yul\":18826:18992   */\n      pop\n      jump\t// out\n        /* \"#utility.yul\":18998:19364   */\n    tag_382:\n        /* \"#utility.yul\":19140:19143   */\n      0x00\n        /* \"#utility.yul\":19161:19228   */\n      tag_557\n        /* \"#utility.yul\":19225:19227   */\n      0x10\n        /* \"#utility.yul\":19220:19223   */\n      dup4\n        /* \"#utility.yul\":19161:19228   */\n      tag_354\n      jump\t// in\n    tag_557:\n        /* \"#utility.yul\":19154:19228   */\n      swap2\n      pop\n        /* \"#utility.yul\":19237:19330   */\n      tag_558\n        /* \"#utility.yul\":19326:19329   */\n      dup3\n        /* \"#utility.yul\":19237:19330   */\n      tag_381\n      jump\t// in\n    tag_558:\n        /* \"#utility.yul\":19355:19357   */\n      0x20\n        /* \"#utility.yul\":19350:19353   */\n      dup3\n        /* \"#utility.yul\":19346:19358   */\n      add\n        /* \"#utility.yul\":19339:19358   */\n      swap1\n      pop\n        /* \"#utility.yul\":18998:19364   */\n      swap2\n      swap1\n      pop\n      jump\t// out\n        /* \"#utility.yul\":19370:19789   */\n    tag_296:\n        /* \"#utility.yul\":19536:19540   */\n      0x00\n        /* \"#utility.yul\":19574:19576   */\n      0x20\n        /* \"#utility.yul\":19563:19572   */\n      dup3\n        /* \"#utility.yul\":19559:19577   */\n      add\n        /* \"#utility.yul\":19551:19577   */\n      swap1\n      pop\n        /* \"#utility.yul\":19623:19632   */\n      dup2\n        /* \"#utility.yul\":19617:19621   */\n      dup2\n        /* \"#utility.yul\":19613:19633   */\n      sub\n        /* \"#utility.yul\":19609:19610   */\n      0x00\n        /* \"#utility.yul\":19598:19607   */\n      dup4\n        /* \"#utility.yul\":19594:19611   */\n      add\n        /* \"#utility.yul\":19587:19634   */\n      mstore\n        /* \"#utility.yul\":19651:19782   */\n      tag_560\n        /* \"#utility.yul\":19777:19781   */\n      dup2\n        /* \"#utility.yul\":19651:19782   */\n      tag_382\n      jump\t// in\n    tag_560:\n        /* \"#utility.yul\":19643:19782   */\n      swap1\n      pop\n        /* \"#utility.yul\":19370:19789   */\n      swap2\n      swap1\n      pop\n      jump\t// out\n        /* \"#utility.yul\":19795:19965   */\n    tag_383:\n        /* \"#utility.yul\":19935:19957   */\n      0x5061757361626c653a206e6f7420706175736564000000000000000000000000\n        /* \"#utility.yul\":19931:19932   */\n      0x00\n        /* \"#utility.yul\":19923:19929   */\n      dup3\n        /* \"#utility.yul\":19919:19933   */\n      add\n        /* \"#utility.yul\":19912:19958   */\n      mstore\n        /* \"#utility.yul\":19795:19965   */\n      pop\n      jump\t// out\n        /* \"#utility.yul\":19971:20337   */\n    tag_384:\n        /* \"#utility.yul\":20113:20116   */\n      0x00\n        /* \"#utility.yul\":20134:20201   */\n      tag_563\n        /* \"#utility.yul\":20198:20200   */\n      0x14\n        /* \"#utility.yul\":20193:20196   */\n      dup4\n        /* \"#utility.yul\":20134:20201   */\n      tag_354\n      jump\t// in\n    tag_563:\n        /* \"#utility.yul\":20127:20201   */\n      swap2\n      pop\n        /* \"#utility.yul\":20210:20303   */\n      tag_564\n        /* \"#utility.yul\":20299:20302   */\n      dup3\n        /* \"#utility.yul\":20210:20303   */\n      tag_383\n      jump\t// in\n    tag_564:\n        /* \"#utility.yul\":20328:20330   */\n      0x20\n        /* \"#utility.yul\":20323:20326   */\n      dup3\n        /* \"#utility.yul\":20319:20331   */\n      add\n        /* \"#utility.yul\":20312:20331   */\n      swap1\n      pop\n        /* \"#utility.yul\":19971:20337   */\n      swap2\n      swap1\n      pop\n      jump\t// out\n        /* \"#utility.yul\":20343:20762   */\n    tag_334:\n        /* \"#utility.yul\":20509:20513   */\n      0x00\n        /* \"#utility.yul\":20547:20549   */\n      0x20\n        /* \"#utility.yul\":20536:20545   */\n      dup3\n        /* \"#utility.yul\":20532:20550   */\n      add\n        /* \"#utility.yul\":20524:20550   */\n      swap1\n      pop\n        /* \"#utility.yul\":20596:20605   */\n      dup2\n        /* \"#utility.yul\":20590:20594   */\n      dup2\n        /* \"#utility.yul\":20586:20606   */\n      sub\n        /* \"#utility.yul\":20582:20583   */\n      0x00\n        /* \"#utility.yul\":20571:20580   */\n      dup4\n        /* \"#utility.yul\":20567:20584   */\n      add\n        /* \"#utility.yul\":20560:20607   */\n      mstore\n        /* \"#utility.yul\":20624:20755   */\n      tag_566\n        /* \"#utility.yul\":20750:20754   */\n      dup2\n        /* \"#utility.yul\":20624:20755   */\n      tag_384\n      jump\t// in\n    tag_566:\n        /* \"#utility.yul\":20616:20755   */\n      swap1\n      pop\n        /* \"#utility.yul\":20343:20762   */\n      swap2\n      swap1\n      pop\n      jump\t// out\n\n    auxdata: 0xa2646970667358221220cfc136e04f9b5106ff31567432f57fe72e06df88178fbaabfef09fd6a42bc0d464736f6c63430008180033\n}\n",
				"bytecode": {
					"linkReferences": {},
					"object": "60c060405234801562000010575f80fd5b506040516200281938038062002819833981810160405281019062000036919062000436565b335f73ffffffffffffffffffffffffffffffffffffffff168173ffffffffffffffffffffffffffffffffffffffff1603620000aa575f6040517f1e4fbdf7000000000000000000000000000000000000000000000000000000008152600401620000a19190620004df565b60405180910390fd5b620000bb81620002d860201b60201c565b50600180819055505f60025f6101000a81548160ff0219169083151502179055505f73ffffffffffffffffffffffffffffffffffffffff168673ffffffffffffffffffffffffffffffffffffffff16036200014d576040517f08c379a0000000000000000000000000000000000000000000000000000000008152600401620001449062000558565b60405180910390fd5b5f73ffffffffffffffffffffffffffffffffffffffff168573ffffffffffffffffffffffffffffffffffffffff1603620001be576040517f08c379a0000000000000000000000000000000000000000000000000000000008152600401620001b590620005c6565b60405180910390fd5b5f841162000203576040517f08c379a0000000000000000000000000000000000000000000000000000000008152600401620001fa9062000634565b60405180910390fd5b5f821162000248576040517f08c379a00000000000000000000000000000000000000000000000000000000081526004016200023f90620006a2565b60405180910390fd5b8573ffffffffffffffffffffffffffffffffffffffff1660808173ffffffffffffffffffffffffffffffffffffffff16815250508473ffffffffffffffffffffffffffffffffffffffff1660a08173ffffffffffffffffffffffffffffffffffffffff168152505083600381905550826004819055508160058190555080600681905550505050505050620006c2565b5f805f9054906101000a900473ffffffffffffffffffffffffffffffffffffffff169050815f806101000a81548173ffffffffffffffffffffffffffffffffffffffff021916908373ffffffffffffffffffffffffffffffffffffffff1602179055508173ffffffffffffffffffffffffffffffffffffffff168173ffffffffffffffffffffffffffffffffffffffff167f8be0079c531659141344cd1fd0a4f28419497f9722a3daafe3b4186f6b6457e060405160405180910390a35050565b5f80fd5b5f73ffffffffffffffffffffffffffffffffffffffff82169050919050565b5f620003c8826200039d565b9050919050565b620003da81620003bc565b8114620003e5575f80fd5b50565b5f81519050620003f881620003cf565b92915050565b5f819050919050565b6200041281620003fe565b81146200041d575f80fd5b50565b5f81519050620004308162000407565b92915050565b5f805f805f8060c0878903121562000453576200045262000399565b5b5f6200046289828a01620003e8565b96505060206200047589828a01620003e8565b95505060406200048889828a0162000420565b94505060606200049b89828a0162000420565b9350506080620004ae89828a0162000420565b92505060a0620004c189828a0162000420565b9150509295509295509295565b620004d981620003bc565b82525050565b5f602082019050620004f45f830184620004ce565b92915050565b5f82825260208201905092915050565b7f5374616b696e6720746f6b656e207a65726f20616464726573730000000000005f82015250565b5f62000540601a83620004fa565b91506200054d826200050a565b602082019050919050565b5f6020820190508181035f830152620005718162000532565b9050919050565b7f52657761726420746f6b656e207a65726f2061646472657373000000000000005f82015250565b5f620005ae601983620004fa565b9150620005bb8262000578565b602082019050919050565b5f6020820190508181035f830152620005df81620005a0565b9050919050565b7f54696d6520756e6974206d757374203e203000000000000000000000000000005f82015250565b5f6200061c601283620004fa565b91506200062982620005e6565b602082019050919050565b5f6020820190508181035f8301526200064d816200060e565b9050919050565b7f44656e6f6d696e61746f72206d757374203e20300000000000000000000000005f82015250565b5f6200068a601483620004fa565b9150620006978262000654565b602082019050919050565b5f6020820190508181035f830152620006bb816200067c565b9050919050565b60805160a05161210b6200070e5f395f81816105be01528181610d5401528181610f720152818161116f015261135101525f81816107bb015281816109400152610af6015261210b5ff3fe60806040526004361061014d575f3560e01c80639168ae72116100b5578063c89d5b8b1161006e578063c89d5b8b1461040c578063cb43b2dd14610436578063cc317f311461045e578063dac3fc3f14610488578063f2fde38b146104c4578063f7c618c1146104ec57610154565b80639168ae7214610320578063996f79c01461035e578063a694fc3a14610388578063b5d90dc0146103a4578063b88a802f146103ce578063b91a1e8f146103e457610154565b80634df9d6ba116101075780634df9d6ba1461023a5780635c975abb14610276578063715018a6146102a057806372f702f3146102b65780638456cb59146102e05780638da5cb5b146102f657610154565b80621b7934146101585780630917e7761461018057806316c621e0146101aa5780632e17de78146101d25780633c6a7f9b146101fa5780633f4ba83a1461022457610154565b3661015457005b5f80fd5b348015610163575f80fd5b5061017e6004803603810190610179919061175a565b610516565b005b34801561018b575f80fd5b506101946105ab565b6040516101a191906117a7565b60405180910390f35b3480156101b5575f80fd5b506101d060048036038101906101cb91906117c0565b6105b4565b005b3480156101dd575f80fd5b506101f860048036038101906101f391906117c0565b6106e9565b005b348015610205575f80fd5b5061020e6108ed565b60405161021b91906117a7565b60405180910390f35b34801561022f575f80fd5b506102386108f3565b005b348015610245575f80fd5b50610260600480360381019061025b9190611845565b610905565b60405161026d91906117a7565b60405180910390f35b348015610281575f80fd5b5061028a610916565b604051610297919061188a565b60405180910390f35b3480156102ab575f80fd5b506102b461092b565b005b3480156102c1575f80fd5b506102ca61093e565b6040516102d791906118fe565b60405180910390f35b3480156102eb575f80fd5b506102f4610962565b005b348015610301575f80fd5b5061030a610974565b6040516103179190611926565b60405180910390f35b34801561032b575f80fd5b5061034660048036038101906103419190611845565b61099b565b6040516103559392919061193f565b60405180910390f35b348015610369575f80fd5b506103726109c1565b60405161037f91906117a7565b60405180910390f35b6103a2600480360381019061039d91906117c0565b6109c7565b005b3480156103af575f80fd5b506103b8610c64565b6040516103c591906117a7565b60405180910390f35b3480156103d9575f80fd5b506103e2610c6a565b005b3480156103ef575f80fd5b5061040a600480360381019061040591906117c0565b610e85565b005b348015610417575f80fd5b50610420610ece565b60405161042d91906117a7565b60405180910390f35b348015610441575f80fd5b5061045c600480360381019061045791906117c0565b610f68565b005b348015610469575f80fd5b5061047261109b565b60405161047f91906117a7565b60405180910390f35b348015610493575f80fd5b506104ae60048036038101906104a99190611845565b6110a1565b6040516104bb91906117a7565b60405180910390f35b3480156104cf575f80fd5b506104ea60048036038101906104e59190611845565b6110e9565b005b3480156104f7575f80fd5b5061050061116d565b60405161050d91906118fe565b60405180910390f35b61051e611191565b5f8111610560576040517f08c379a0000000000000000000000000000000000000000000000000000000008152600401610557906119ce565b60405180910390fd5b81600481905550806005819055507f2cda5f90308a6ed0aad400f6ddc7575e31b5f1428c50c054ae54e1939ff164b8828260405161059f9291906119ec565b60405180910390a15050565b5f600754905090565b6105bc611191565b7f000000000000000000000000000000000000000000000000000000000000000073ffffffffffffffffffffffffffffffffffffffff166323b872dd3330846040518463ffffffff1660e01b815260040161061993929190611a13565b6020604051808303815f875af1158015610635573d5f803e3d5ffd5b505050506040513d601f19601f820116820180604052508101906106599190611a72565b610698576040517f08c379a000000000000000000000000000000000000000000000000000000000815260040161068f90611ae7565b60405180910390fd5b3373ffffffffffffffffffffffffffffffffffffffff167fac1f5f240b57fc014c4875ec0fa399f96ca891f85156ba195e6512ccd4ada548826040516106de91906117a7565b60405180910390a250565b6106f1611218565b6106f9611267565b5f60085f3373ffffffffffffffffffffffffffffffffffffffff1673ffffffffffffffffffffffffffffffffffffffff1681526020019081526020015f20905081815f0154101561077f576040517f08c379a000000000000000000000000000000000000000000000000000000000815260040161077690611b4f565b60405180910390fd5b610788336112b1565b81815f015f82825461079a9190611b9a565b925050819055508160075f8282546107b29190611b9a565b925050819055507f000000000000000000000000000000000000000000000000000000000000000073ffffffffffffffffffffffffffffffffffffffff1663a9059cbb33846040518363ffffffff1660e01b8152600401610814929190611bcd565b6020604051808303815f875af1158015610830573d5f803e3d5ffd5b505050506040513d601f19601f820116820180604052508101906108549190611a72565b610893576040517f08c379a000000000000000000000000000000000000000000000000000000000815260040161088a90611c3e565b60405180910390fd5b3373ffffffffffffffffffffffffffffffffffffffff167f0f5bb82176feb1b5e747e28471aa92156a04d9f3ab9f45f28e2d704232b93f75836040516108d991906117a7565b60405180910390a2506108ea61147c565b50565b60035481565b6108fb611191565b610903611485565b565b5f61090f826114e6565b9050919050565b5f60025f9054906101000a900460ff16905090565b610933611191565b61093c5f6115b0565b565b7f000000000000000000000000000000000000000000000000000000000000000081565b61096a611191565b610972611671565b565b5f805f9054906101000a900473ffffffffffffffffffffffffffffffffffffffff16905090565b6008602052805f5260405f205f91509050805f0154908060010154908060020154905083565b60065481565b6109cf611218565b6109d7611267565b600654341015610a1c576040517f08c379a0000000000000000000000000000000000000000000000000000000008152600401610a1390611ca6565b60405180910390fd5b5f8111610a5e576040517f08c379a0000000000000000000000000000000000000000000000000000000008152600401610a5590611d0e565b60405180910390fd5b610a66610974565b73ffffffffffffffffffffffffffffffffffffffff166108fc60065490811502906040515f60405180830381858888f19350505050158015610aaa573d5f803e3d5ffd5b505f60085f3373ffffffffffffffffffffffffffffffffffffffff1673ffffffffffffffffffffffffffffffffffffffff1681526020019081526020015f209050610af4336112b1565b7f000000000000000000000000000000000000000000000000000000000000000073ffffffffffffffffffffffffffffffffffffffff166323b872dd3330856040518463ffffffff1660e01b8152600401610b5193929190611a13565b6020604051808303815f875af1158015610b6d573d5f803e3d5ffd5b505050506040513d601f19601f82011682018060405250810190610b919190611a72565b610bd0576040517f08c379a0000000000000000000000000000000000000000000000000000000008152600401610bc790611d76565b60405180910390fd5b81815f015f828254610be29190611d94565b925050819055504281600101819055508160075f828254610c039190611d94565b925050819055503373ffffffffffffffffffffffffffffffffffffffff167f9e71bc8eea02a63969f509818f2dafb9254532904319f9dbda79b67bd34a5f3d83604051610c5091906117a7565b60405180910390a250610c6161147c565b50565b60055481565b610c72611218565b610c7a611267565b5f610c84336114e6565b90505f8111610cc8576040517f08c379a0000000000000000000000000000000000000000000000000000000008152600401610cbf90611e11565b60405180910390fd5b4260085f3373ffffffffffffffffffffffffffffffffffffffff1673ffffffffffffffffffffffffffffffffffffffff1681526020019081526020015f20600101819055505f60085f3373ffffffffffffffffffffffffffffffffffffffff1673ffffffffffffffffffffffffffffffffffffffff1681526020019081526020015f20600201819055507f000000000000000000000000000000000000000000000000000000000000000073ffffffffffffffffffffffffffffffffffffffff1663a9059cbb33836040518363ffffffff1660e01b8152600401610dad929190611bcd565b6020604051808303815f875af1158015610dc9573d5f803e3d5ffd5b505050506040513d601f19601f82011682018060405250810190610ded9190611a72565b610e2c576040517f08c379a0000000000000000000000000000000000000000000000000000000008152600401610e2390611e79565b60405180910390fd5b3373ffffffffffffffffffffffffffffffffffffffff167f106f923f993c2149d49b4255ff723acafa1f2d94393f561d3eda32ae348f724182604051610e7291906117a7565b60405180910390a250610e8361147c565b565b610e8d611191565b806006819055507f8b58a69c09c2dff0e67bea4782c73a9ff3c4bba6dc50dbe66643372b8ce9035d81604051610ec391906117a7565b60405180910390a150565b5f8060075403610f0257600554670de0b6b3a7640000600454610ef19190611e97565b610efb9190611f05565b9050610f65565b5f600554670de0b6b3a7640000600454610f1c9190611e97565b610f269190611f05565b90505f670de0b6b3a7640000600754610f3f9190611d94565b670de0b6b3a764000083610f539190611e97565b610f5d9190611f05565b905080925050505b90565b610f70611191565b7f000000000000000000000000000000000000000000000000000000000000000073ffffffffffffffffffffffffffffffffffffffff1663a9059cbb33836040518363ffffffff1660e01b8152600401610fcb929190611bcd565b6020604051808303815f875af1158015610fe7573d5f803e3d5ffd5b505050506040513d601f19601f8201168201806040525081019061100b9190611a72565b61104a576040517f08c379a000000000000000000000000000000000000000000000000000000000815260040161104190611f7f565b60405180910390fd5b3373ffffffffffffffffffffffffffffffffffffffff167f5991a08bb51d1fc3f552255ed446f040dca378ad3ff91763507b63b185eb5d2e8260405161109091906117a7565b60405180910390a250565b60045481565b5f60085f8373ffffffffffffffffffffffffffffffffffffffff1673ffffffffffffffffffffffffffffffffffffffff1681526020019081526020015f205f01549050919050565b6110f1611191565b5f73ffffffffffffffffffffffffffffffffffffffff168173ffffffffffffffffffffffffffffffffffffffff1603611161575f6040517f1e4fbdf70000000000000000000000000000000000000000000000000000000081526004016111589190611926565b60405180910390fd5b61116a816115b0565b50565b7f000000000000000000000000000000000000000000000000000000000000000081565b6111996116d3565b73ffffffffffffffffffffffffffffffffffffffff166111b7610974565b73ffffffffffffffffffffffffffffffffffffffff1614611216576111da6116d3565b6040517f118cdaa700000000000000000000000000000000000000000000000000000000815260040161120d9190611926565b60405180910390fd5b565b60026001540361125d576040517f08c379a000000000000000000000000000000000000000000000000000000000815260040161125490611fe7565b60405180910390fd5b6002600181905550565b61126f610916565b156112af576040517f08c379a00000000000000000000000000000000000000000000000000000000081526004016112a69061204f565b60405180910390fd5b565b5f6112bb826114e6565b90505f811115611478574260085f8473ffffffffffffffffffffffffffffffffffffffff1673ffffffffffffffffffffffffffffffffffffffff1681526020019081526020015f20600101819055505f60085f8473ffffffffffffffffffffffffffffffffffffffff1673ffffffffffffffffffffffffffffffffffffffff1681526020019081526020015f20600201819055507f000000000000000000000000000000000000000000000000000000000000000073ffffffffffffffffffffffffffffffffffffffff1663a9059cbb83836040518363ffffffff1660e01b81526004016113aa929190611bcd565b6020604051808303815f875af11580156113c6573d5f803e3d5ffd5b505050506040513d601f19601f820116820180604052508101906113ea9190611a72565b611429576040517f08c379a000000000000000000000000000000000000000000000000000000000815260040161142090611e79565b60405180910390fd5b8173ffffffffffffffffffffffffffffffffffffffff167f106f923f993c2149d49b4255ff723acafa1f2d94393f561d3eda32ae348f72418260405161146f91906117a7565b60405180910390a25b5050565b60018081905550565b61148d6116da565b5f60025f6101000a81548160ff0219169083151502179055507f5db9ee0a495bf2e6ff9c91a7834c1ba4fdd244a5e8aa4e537bd38aeae4b073aa6114cf6116d3565b6040516114dc9190611926565b60405180910390a1565b5f8060085f8473ffffffffffffffffffffffffffffffffffffffff1673ffffffffffffffffffffffffffffffffffffffff1681526020019081526020015f2090505f815f0154148061153b57505f8160010154145b15611549575f9150506115ab565b5f81600101544261155a9190611b9a565b90505f60055460035461156d9190611e97565b82600454855f015461157f9190611e97565b6115899190611e97565b6115939190611f05565b90508260020154816115a59190611d94565b93505050505b919050565b5f805f9054906101000a900473ffffffffffffffffffffffffffffffffffffffff169050815f806101000a81548173ffffffffffffffffffffffffffffffffffffffff021916908373ffffffffffffffffffffffffffffffffffffffff1602179055508173ffffffffffffffffffffffffffffffffffffffff168173ffffffffffffffffffffffffffffffffffffffff167f8be0079c531659141344cd1fd0a4f28419497f9722a3daafe3b4186f6b6457e060405160405180910390a35050565b611679611267565b600160025f6101000a81548160ff0219169083151502179055507f62e78cea01bee320cd4e420270b5ea74000d11b0c9f74754ebdbfc544b05a2586116bc6116d3565b6040516116c99190611926565b60405180910390a1565b5f33905090565b6116e2610916565b611721576040517f08c379a0000000000000000000000000000000000000000000000000000000008152600401611718906120b7565b60405180910390fd5b565b5f80fd5b5f819050919050565b61173981611727565b8114611743575f80fd5b50565b5f8135905061175481611730565b92915050565b5f80604083850312156117705761176f611723565b5b5f61177d85828601611746565b925050602061178e85828601611746565b9150509250929050565b6117a181611727565b82525050565b5f6020820190506117ba5f830184611798565b92915050565b5f602082840312156117d5576117d4611723565b5b5f6117e284828501611746565b91505092915050565b5f73ffffffffffffffffffffffffffffffffffffffff82169050919050565b5f611814826117eb565b9050919050565b6118248161180a565b811461182e575f80fd5b50565b5f8135905061183f8161181b565b92915050565b5f6020828403121561185a57611859611723565b5b5f61186784828501611831565b91505092915050565b5f8115159050919050565b61188481611870565b82525050565b5f60208201905061189d5f83018461187b565b92915050565b5f819050919050565b5f6118c66118c16118bc846117eb565b6118a3565b6117eb565b9050919050565b5f6118d7826118ac565b9050919050565b5f6118e8826118cd565b9050919050565b6118f8816118de565b82525050565b5f6020820190506119115f8301846118ef565b92915050565b6119208161180a565b82525050565b5f6020820190506119395f830184611917565b92915050565b5f6060820190506119525f830186611798565b61195f6020830185611798565b61196c6040830184611798565b949350505050565b5f82825260208201905092915050565b7f44656e6f6d696e61746f72206d757374203e20300000000000000000000000005f82015250565b5f6119b8601483611974565b91506119c382611984565b602082019050919050565b5f6020820190508181035f8301526119e5816119ac565b9050919050565b5f6040820190506119ff5f830185611798565b611a0c6020830184611798565b9392505050565b5f606082019050611a265f830186611917565b611a336020830185611917565b611a406040830184611798565b949350505050565b611a5181611870565b8114611a5b575f80fd5b50565b5f81519050611a6c81611a48565b92915050565b5f60208284031215611a8757611a86611723565b5b5f611a9484828501611a5e565b91505092915050565b7f4465706f736974206661696c65640000000000000000000000000000000000005f82015250565b5f611ad1600e83611974565b9150611adc82611a9d565b602082019050919050565b5f6020820190508181035f830152611afe81611ac5565b9050919050565b7f496e73756666696369656e74207374616b6500000000000000000000000000005f82015250565b5f611b39601283611974565b9150611b4482611b05565b602082019050919050565b5f6020820190508181035f830152611b6681611b2d565b9050919050565b7f4e487b71000000000000000000000000000000000000000000000000000000005f52601160045260245ffd5b5f611ba482611727565b9150611baf83611727565b9250828203905081811115611bc757611bc6611b6d565b5b92915050565b5f604082019050611be05f830185611917565b611bed6020830184611798565b9392505050565b7f556e7374616b6520746f6b656e207472616e73666572206661696c65640000005f82015250565b5f611c28601d83611974565b9150611c3382611bf4565b602082019050919050565b5f6020820190508181035f830152611c5581611c1c565b9050919050565b7f4d75737420706179206e617469766520666565000000000000000000000000005f82015250565b5f611c90601383611974565b9150611c9b82611c5c565b602082019050919050565b5f6020820190508181035f830152611cbd81611c84565b9050919050565b7f416d6f756e74206d757374203e203000000000000000000000000000000000005f82015250565b5f611cf8600f83611974565b9150611d0382611cc4565b602082019050919050565b5f6020820190508181035f830152611d2581611cec565b9050919050565b7f5374616b6520746f6b656e207472616e73666572206661696c656400000000005f82015250565b5f611d60601b83611974565b9150611d6b82611d2c565b602082019050919050565b5f6020820190508181035f830152611d8d81611d54565b9050919050565b5f611d9e82611727565b9150611da983611727565b9250828201905080821115611dc157611dc0611b6d565b5b92915050565b7f4e6f2072657761726400000000000000000000000000000000000000000000005f82015250565b5f611dfb600983611974565b9150611e0682611dc7565b602082019050919050565b5f6020820190508181035f830152611e2881611def565b9050919050565b7f526577617264207472616e73666572206661696c6564000000000000000000005f82015250565b5f611e63601683611974565b9150611e6e82611e2f565b602082019050919050565b5f6020820190508181035f830152611e9081611e57565b9050919050565b5f611ea182611727565b9150611eac83611727565b9250828202611eba81611727565b91508282048414831517611ed157611ed0611b6d565b5b5092915050565b7f4e487b71000000000000000000000000000000000000000000000000000000005f52601260045260245ffd5b5f611f0f82611727565b9150611f1a83611727565b925082611f2a57611f29611ed8565b5b828204905092915050565b7f5769746864726177206661696c656400000000000000000000000000000000005f82015250565b5f611f69600f83611974565b9150611f7482611f35565b602082019050919050565b5f6020820190508181035f830152611f9681611f5d565b9050919050565b7f5265656e7472616e637947756172643a207265656e7472616e742063616c6c005f82015250565b5f611fd1601f83611974565b9150611fdc82611f9d565b602082019050919050565b5f6020820190508181035f830152611ffe81611fc5565b9050919050565b7f5061757361626c653a20706175736564000000000000000000000000000000005f82015250565b5f612039601083611974565b915061204482612005565b602082019050919050565b5f6020820190508181035f8301526120668161202d565b9050919050565b7f5061757361626c653a206e6f74207061757365640000000000000000000000005f82015250565b5f6120a1601483611974565b91506120ac8261206d565b602082019050919050565b5f6020820190508181035f8301526120ce81612095565b905091905056fea2646970667358221220cfc136e04f9b5106ff31567432f57fe72e06df88178fbaabfef09fd6a42bc0d464736f6c63430008180033",
					"opcodes": "PUSH1 0xC0 PUSH1 0x40 MSTORE CALLVALUE DUP1 ISZERO PUSH3 0x10 JUMPI PUSH0 DUP1 REVERT JUMPDEST POP PUSH1 0x40 MLOAD PUSH3 0x2819 CODESIZE SUB DUP1 PUSH3 0x2819 DUP4 CODECOPY DUP2 DUP2 ADD PUSH1 0x40 MSTORE DUP2 ADD SWAP1 PUSH3 0x36 SWAP2 SWAP1 PUSH3 0x436 JUMP JUMPDEST CALLER PUSH0 PUSH20 0xFFFFFFFFFFFFFFFFFFFFFFFFFFFFFFFFFFFFFFFF AND DUP2 PUSH20 0xFFFFFFFFFFFFFFFFFFFFFFFFFFFFFFFFFFFFFFFF AND SUB PUSH3 0xAA JUMPI PUSH0 PUSH1 0x40 MLOAD PUSH32 0x1E4FBDF700000000000000000000000000000000000000000000000000000000 DUP2 MSTORE PUSH1 0x4 ADD PUSH3 0xA1 SWAP2 SWAP1 PUSH3 0x4DF JUMP JUMPDEST PUSH1 0x40 MLOAD DUP1 SWAP2 SUB SWAP1 REVERT JUMPDEST PUSH3 0xBB DUP2 PUSH3 0x2D8 PUSH1 0x20 SHL PUSH1 0x20 SHR JUMP JUMPDEST POP PUSH1 0x1 DUP1 DUP2 SWAP1 SSTORE POP PUSH0 PUSH1 0x2 PUSH0 PUSH2 0x100 EXP DUP2 SLOAD DUP2 PUSH1 0xFF MUL NOT AND SWAP1 DUP4 ISZERO ISZERO MUL OR SWAP1 SSTORE POP PUSH0 PUSH20 0xFFFFFFFFFFFFFFFFFFFFFFFFFFFFFFFFFFFFFFFF AND DUP7 PUSH20 0xFFFFFFFFFFFFFFFFFFFFFFFFFFFFFFFFFFFFFFFF AND SUB PUSH3 0x14D JUMPI PUSH1 0x40 MLOAD PUSH32 0x8C379A000000000000000000000000000000000000000000000000000000000 DUP2 MSTORE PUSH1 0x4 ADD PUSH3 0x144 SWAP1 PUSH3 0x558 JUMP JUMPDEST PUSH1 0x40 MLOAD DUP1 SWAP2 SUB SWAP1 REVERT JUMPDEST PUSH0 PUSH20 0xFFFFFFFFFFFFFFFFFFFFFFFFFFFFFFFFFFFFFFFF AND DUP6 PUSH20 0xFFFFFFFFFFFFFFFFFFFFFFFFFFFFFFFFFFFFFFFF AND SUB PUSH3 0x1BE JUMPI PUSH1 0x40 MLOAD PUSH32 0x8C379A000000000000000000000000000000000000000000000000000000000 DUP2 MSTORE PUSH1 0x4 ADD PUSH3 0x1B5 SWAP1 PUSH3 0x5C6 JUMP JUMPDEST PUSH1 0x40 MLOAD DUP1 SWAP2 SUB SWAP1 REVERT JUMPDEST PUSH0 DUP5 GT PUSH3 0x203 JUMPI PUSH1 0x40 MLOAD PUSH32 0x8C379A000000000000000000000000000000000000000000000000000000000 DUP2 MSTORE PUSH1 0x4 ADD PUSH3 0x1FA SWAP1 PUSH3 0x634 JUMP JUMPDEST PUSH1 0x40 MLOAD DUP1 SWAP2 SUB SWAP1 REVERT JUMPDEST PUSH0 DUP3 GT PUSH3 0x248 JUMPI PUSH1 0x40 MLOAD PUSH32 0x8C379A000000000000000000000000000000000000000000000000000000000 DUP2 MSTORE PUSH1 0x4 ADD PUSH3 0x23F SWAP1 PUSH3 0x6A2 JUMP JUMPDEST PUSH1 0x40 MLOAD DUP1 SWAP2 SUB SWAP1 REVERT JUMPDEST DUP6 PUSH20 0xFFFFFFFFFFFFFFFFFFFFFFFFFFFFFFFFFFFFFFFF AND PUSH1 0x80 DUP2 PUSH20 0xFFFFFFFFFFFFFFFFFFFFFFFFFFFFFFFFFFFFFFFF AND DUP2 MSTORE POP POP DUP5 PUSH20 0xFFFFFFFFFFFFFFFFFFFFFFFFFFFFFFFFFFFFFFFF AND PUSH1 0xA0 DUP2 PUSH20 0xFFFFFFFFFFFFFFFFFFFFFFFFFFFFFFFFFFFFFFFF AND DUP2 MSTORE POP POP DUP4 PUSH1 0x3 DUP2 SWAP1 SSTORE POP DUP3 PUSH1 0x4 DUP2 SWAP1 SSTORE POP DUP2 PUSH1 0x5 DUP2 SWAP1 SSTORE POP DUP1 PUSH1 0x6 DUP2 SWAP1 SSTORE POP POP POP POP POP POP POP PUSH3 0x6C2 JUMP JUMPDEST PUSH0 DUP1 PUSH0 SWAP1 SLOAD SWAP1 PUSH2 0x100 EXP SWAP1 DIV PUSH20 0xFFFFFFFFFFFFFFFFFFFFFFFFFFFFFFFFFFFFFFFF AND SWAP1 POP DUP2 PUSH0 DUP1 PUSH2 0x100 EXP DUP2 SLOAD DUP2 PUSH20 0xFFFFFFFFFFFFFFFFFFFFFFFFFFFFFFFFFFFFFFFF MUL NOT AND SWAP1 DUP4 PUSH20 0xFFFFFFFFFFFFFFFFFFFFFFFFFFFFFFFFFFFFFFFF AND MUL OR SWAP1 SSTORE POP DUP2 PUSH20 0xFFFFFFFFFFFFFFFFFFFFFFFFFFFFFFFFFFFFFFFF AND DUP2 PUSH20 0xFFFFFFFFFFFFFFFFFFFFFFFFFFFFFFFFFFFFFFFF AND PUSH32 0x8BE0079C531659141344CD1FD0A4F28419497F9722A3DAAFE3B4186F6B6457E0 PUSH1 0x40 MLOAD PUSH1 0x40 MLOAD DUP1 SWAP2 SUB SWAP1 LOG3 POP POP JUMP JUMPDEST PUSH0 DUP1 REVERT JUMPDEST PUSH0 PUSH20 0xFFFFFFFFFFFFFFFFFFFFFFFFFFFFFFFFFFFFFFFF DUP3 AND SWAP1 POP SWAP2 SWAP1 POP JUMP JUMPDEST PUSH0 PUSH3 0x3C8 DUP3 PUSH3 0x39D JUMP JUMPDEST SWAP1 POP SWAP2 SWAP1 POP JUMP JUMPDEST PUSH3 0x3DA DUP2 PUSH3 0x3BC JUMP JUMPDEST DUP2 EQ PUSH3 0x3E5 JUMPI PUSH0 DUP1 REVERT JUMPDEST POP JUMP JUMPDEST PUSH0 DUP2 MLOAD SWAP1 POP PUSH3 0x3F8 DUP2 PUSH3 0x3CF JUMP JUMPDEST SWAP3 SWAP2 POP POP JUMP JUMPDEST PUSH0 DUP2 SWAP1 POP SWAP2 SWAP1 POP JUMP JUMPDEST PUSH3 0x412 DUP2 PUSH3 0x3FE JUMP JUMPDEST DUP2 EQ PUSH3 0x41D JUMPI PUSH0 DUP1 REVERT JUMPDEST POP JUMP JUMPDEST PUSH0 DUP2 MLOAD SWAP1 POP PUSH3 0x430 DUP2 PUSH3 0x407 JUMP JUMPDEST SWAP3 SWAP2 POP POP JUMP JUMPDEST PUSH0 DUP1 PUSH0 DUP1 PUSH0 DUP1 PUSH1 0xC0 DUP8 DUP10 SUB SLT ISZERO PUSH3 0x453 JUMPI PUSH3 0x452 PUSH3 0x399 JUMP JUMPDEST JUMPDEST PUSH0 PUSH3 0x462 DUP10 DUP3 DUP11 ADD PUSH3 0x3E8 JUMP JUMPDEST SWAP7 POP POP PUSH1 0x20 PUSH3 0x475 DUP10 DUP3 DUP11 ADD PUSH3 0x3E8 JUMP JUMPDEST SWAP6 POP POP PUSH1 0x40 PUSH3 0x488 DUP10 DUP3 DUP11 ADD PUSH3 0x420 JUMP JUMPDEST SWAP5 POP POP PUSH1 0x60 PUSH3 0x49B DUP10 DUP3 DUP11 ADD PUSH3 0x420 JUMP JUMPDEST SWAP4 POP POP PUSH1 0x80 PUSH3 0x4AE DUP10 DUP3 DUP11 ADD PUSH3 0x420 JUMP JUMPDEST SWAP3 POP POP PUSH1 0xA0 PUSH3 0x4C1 DUP10 DUP3 DUP11 ADD PUSH3 0x420 JUMP JUMPDEST SWAP2 POP POP SWAP3 SWAP6 POP SWAP3 SWAP6 POP SWAP3 SWAP6 JUMP JUMPDEST PUSH3 0x4D9 DUP2 PUSH3 0x3BC JUMP JUMPDEST DUP3 MSTORE POP POP JUMP JUMPDEST PUSH0 PUSH1 0x20 DUP3 ADD SWAP1 POP PUSH3 0x4F4 PUSH0 DUP4 ADD DUP5 PUSH3 0x4CE JUMP JUMPDEST SWAP3 SWAP2 POP POP JUMP JUMPDEST PUSH0 DUP3 DUP3 MSTORE PUSH1 0x20 DUP3 ADD SWAP1 POP SWAP3 SWAP2 POP POP JUMP JUMPDEST PUSH32 0x5374616B696E6720746F6B656E207A65726F2061646472657373000000000000 PUSH0 DUP3 ADD MSTORE POP JUMP JUMPDEST PUSH0 PUSH3 0x540 PUSH1 0x1A DUP4 PUSH3 0x4FA JUMP JUMPDEST SWAP2 POP PUSH3 0x54D DUP3 PUSH3 0x50A JUMP JUMPDEST PUSH1 0x20 DUP3 ADD SWAP1 POP SWAP2 SWAP1 POP JUMP JUMPDEST PUSH0 PUSH1 0x20 DUP3 ADD SWAP1 POP DUP2 DUP2 SUB PUSH0 DUP4 ADD MSTORE PUSH3 0x571 DUP2 PUSH3 0x532 JUMP JUMPDEST SWAP1 POP SWAP2 SWAP1 POP JUMP JUMPDEST PUSH32 0x52657761726420746F6B656E207A65726F206164647265737300000000000000 PUSH0 DUP3 ADD MSTORE POP JUMP JUMPDEST PUSH0 PUSH3 0x5AE PUSH1 0x19 DUP4 PUSH3 0x4FA JUMP JUMPDEST SWAP2 POP PUSH3 0x5BB DUP3 PUSH3 0x578 JUMP JUMPDEST PUSH1 0x20 DUP3 ADD SWAP1 POP SWAP2 SWAP1 POP JUMP JUMPDEST PUSH0 PUSH1 0x20 DUP3 ADD SWAP1 POP DUP2 DUP2 SUB PUSH0 DUP4 ADD MSTORE PUSH3 0x5DF DUP2 PUSH3 0x5A0 JUMP JUMPDEST SWAP1 POP SWAP2 SWAP1 POP JUMP JUMPDEST PUSH32 0x54696D6520756E6974206D757374203E20300000000000000000000000000000 PUSH0 DUP3 ADD MSTORE POP JUMP JUMPDEST PUSH0 PUSH3 0x61C PUSH1 0x12 DUP4 PUSH3 0x4FA JUMP JUMPDEST SWAP2 POP PUSH3 0x629 DUP3 PUSH3 0x5E6 JUMP JUMPDEST PUSH1 0x20 DUP3 ADD SWAP1 POP SWAP2 SWAP1 POP JUMP JUMPDEST PUSH0 PUSH1 0x20 DUP3 ADD SWAP1 POP DUP2 DUP2 SUB PUSH0 DUP4 ADD MSTORE PUSH3 0x64D DUP2 PUSH3 0x60E JUMP JUMPDEST SWAP1 POP SWAP2 SWAP1 POP JUMP JUMPDEST PUSH32 0x44656E6F6D696E61746F72206D757374203E2030000000000000000000000000 PUSH0 DUP3 ADD MSTORE POP JUMP JUMPDEST PUSH0 PUSH3 0x68A PUSH1 0x14 DUP4 PUSH3 0x4FA JUMP JUMPDEST SWAP2 POP PUSH3 0x697 DUP3 PUSH3 0x654 JUMP JUMPDEST PUSH1 0x20 DUP3 ADD SWAP1 POP SWAP2 SWAP1 POP JUMP JUMPDEST PUSH0 PUSH1 0x20 DUP3 ADD SWAP1 POP DUP2 DUP2 SUB PUSH0 DUP4 ADD MSTORE PUSH3 0x6BB DUP2 PUSH3 0x67C JUMP JUMPDEST SWAP1 POP SWAP2 SWAP1 POP JUMP JUMPDEST PUSH1 0x80 MLOAD PUSH1 0xA0 MLOAD PUSH2 0x210B PUSH3 0x70E PUSH0 CODECOPY PUSH0 DUP2 DUP2 PUSH2 0x5BE ADD MSTORE DUP2 DUP2 PUSH2 0xD54 ADD MSTORE DUP2 DUP2 PUSH2 0xF72 ADD MSTORE DUP2 DUP2 PUSH2 0x116F ADD MSTORE PUSH2 0x1351 ADD MSTORE PUSH0 DUP2 DUP2 PUSH2 0x7BB ADD MSTORE DUP2 DUP2 PUSH2 0x940 ADD MSTORE PUSH2 0xAF6 ADD MSTORE PUSH2 0x210B PUSH0 RETURN INVALID PUSH1 0x80 PUSH1 0x40 MSTORE PUSH1 0x4 CALLDATASIZE LT PUSH2 0x14D JUMPI PUSH0 CALLDATALOAD PUSH1 0xE0 SHR DUP1 PUSH4 0x9168AE72 GT PUSH2 0xB5 JUMPI DUP1 PUSH4 0xC89D5B8B GT PUSH2 0x6E JUMPI DUP1 PUSH4 0xC89D5B8B EQ PUSH2 0x40C JUMPI DUP1 PUSH4 0xCB43B2DD EQ PUSH2 0x436 JUMPI DUP1 PUSH4 0xCC317F31 EQ PUSH2 0x45E JUMPI DUP1 PUSH4 0xDAC3FC3F EQ PUSH2 0x488 JUMPI DUP1 PUSH4 0xF2FDE38B EQ PUSH2 0x4C4 JUMPI DUP1 PUSH4 0xF7C618C1 EQ PUSH2 0x4EC JUMPI PUSH2 0x154 JUMP JUMPDEST DUP1 PUSH4 0x9168AE72 EQ PUSH2 0x320 JUMPI DUP1 PUSH4 0x996F79C0 EQ PUSH2 0x35E JUMPI DUP1 PUSH4 0xA694FC3A EQ PUSH2 0x388 JUMPI DUP1 PUSH4 0xB5D90DC0 EQ PUSH2 0x3A4 JUMPI DUP1 PUSH4 0xB88A802F EQ PUSH2 0x3CE JUMPI DUP1 PUSH4 0xB91A1E8F EQ PUSH2 0x3E4 JUMPI PUSH2 0x154 JUMP JUMPDEST DUP1 PUSH4 0x4DF9D6BA GT PUSH2 0x107 JUMPI DUP1 PUSH4 0x4DF9D6BA EQ PUSH2 0x23A JUMPI DUP1 PUSH4 0x5C975ABB EQ PUSH2 0x276 JUMPI DUP1 PUSH4 0x715018A6 EQ PUSH2 0x2A0 JUMPI DUP1 PUSH4 0x72F702F3 EQ PUSH2 0x2B6 JUMPI DUP1 PUSH4 0x8456CB59 EQ PUSH2 0x2E0 JUMPI DUP1 PUSH4 0x8DA5CB5B EQ PUSH2 0x2F6 JUMPI PUSH2 0x154 JUMP JUMPDEST DUP1 PUSH3 0x1B7934 EQ PUSH2 0x158 JUMPI DUP1 PUSH4 0x917E776 EQ PUSH2 0x180 JUMPI DUP1 PUSH4 0x16C621E0 EQ PUSH2 0x1AA JUMPI DUP1 PUSH4 0x2E17DE78 EQ PUSH2 0x1D2 JUMPI DUP1 PUSH4 0x3C6A7F9B EQ PUSH2 0x1FA JUMPI DUP1 PUSH4 0x3F4BA83A EQ PUSH2 0x224 JUMPI PUSH2 0x154 JUMP JUMPDEST CALLDATASIZE PUSH2 0x154 JUMPI STOP JUMPDEST PUSH0 DUP1 REVERT JUMPDEST CALLVALUE DUP1 ISZERO PUSH2 0x163 JUMPI PUSH0 DUP1 REVERT JUMPDEST POP PUSH2 0x17E PUSH1 0x4 DUP1 CALLDATASIZE SUB DUP2 ADD SWAP1 PUSH2 0x179 SWAP2 SWAP1 PUSH2 0x175A JUMP JUMPDEST PUSH2 0x516 JUMP JUMPDEST STOP JUMPDEST CALLVALUE DUP1 ISZERO PUSH2 0x18B JUMPI PUSH0 DUP1 REVERT JUMPDEST POP PUSH2 0x194 PUSH2 0x5AB JUMP JUMPDEST PUSH1 0x40 MLOAD PUSH2 0x1A1 SWAP2 SWAP1 PUSH2 0x17A7 JUMP JUMPDEST PUSH1 0x40 MLOAD DUP1 SWAP2 SUB SWAP1 RETURN JUMPDEST CALLVALUE DUP1 ISZERO PUSH2 0x1B5 JUMPI PUSH0 DUP1 REVERT JUMPDEST POP PUSH2 0x1D0 PUSH1 0x4 DUP1 CALLDATASIZE SUB DUP2 ADD SWAP1 PUSH2 0x1CB SWAP2 SWAP1 PUSH2 0x17C0 JUMP JUMPDEST PUSH2 0x5B4 JUMP JUMPDEST STOP JUMPDEST CALLVALUE DUP1 ISZERO PUSH2 0x1DD JUMPI PUSH0 DUP1 REVERT JUMPDEST POP PUSH2 0x1F8 PUSH1 0x4 DUP1 CALLDATASIZE SUB DUP2 ADD SWAP1 PUSH2 0x1F3 SWAP2 SWAP1 PUSH2 0x17C0 JUMP JUMPDEST PUSH2 0x6E9 JUMP JUMPDEST STOP JUMPDEST CALLVALUE DUP1 ISZERO PUSH2 0x205 JUMPI PUSH0 DUP1 REVERT JUMPDEST POP PUSH2 0x20E PUSH2 0x8ED JUMP JUMPDEST PUSH1 0x40 MLOAD PUSH2 0x21B SWAP2 SWAP1 PUSH2 0x17A7 JUMP JUMPDEST PUSH1 0x40 MLOAD DUP1 SWAP2 SUB SWAP1 RETURN JUMPDEST CALLVALUE DUP1 ISZERO PUSH2 0x22F JUMPI PUSH0 DUP1 REVERT JUMPDEST POP PUSH2 0x238 PUSH2 0x8F3 JUMP JUMPDEST STOP JUMPDEST CALLVALUE DUP1 ISZERO PUSH2 0x245 JUMPI PUSH0 DUP1 REVERT JUMPDEST POP PUSH2 0x260 PUSH1 0x4 DUP1 CALLDATASIZE SUB DUP2 ADD SWAP1 PUSH2 0x25B SWAP2 SWAP1 PUSH2 0x1845 JUMP JUMPDEST PUSH2 0x905 JUMP JUMPDEST PUSH1 0x40 MLOAD PUSH2 0x26D SWAP2 SWAP1 PUSH2 0x17A7 JUMP JUMPDEST PUSH1 0x40 MLOAD DUP1 SWAP2 SUB SWAP1 RETURN JUMPDEST CALLVALUE DUP1 ISZERO PUSH2 0x281 JUMPI PUSH0 DUP1 REVERT JUMPDEST POP PUSH2 0x28A PUSH2 0x916 JUMP JUMPDEST PUSH1 0x40 MLOAD PUSH2 0x297 SWAP2 SWAP1 PUSH2 0x188A JUMP JUMPDEST PUSH1 0x40 MLOAD DUP1 SWAP2 SUB SWAP1 RETURN JUMPDEST CALLVALUE DUP1 ISZERO PUSH2 0x2AB JUMPI PUSH0 DUP1 REVERT JUMPDEST POP PUSH2 0x2B4 PUSH2 0x92B JUMP JUMPDEST STOP JUMPDEST CALLVALUE DUP1 ISZERO PUSH2 0x2C1 JUMPI PUSH0 DUP1 REVERT JUMPDEST POP PUSH2 0x2CA PUSH2 0x93E JUMP JUMPDEST PUSH1 0x40 MLOAD PUSH2 0x2D7 SWAP2 SWAP1 PUSH2 0x18FE JUMP JUMPDEST PUSH1 0x40 MLOAD DUP1 SWAP2 SUB SWAP1 RETURN JUMPDEST CALLVALUE DUP1 ISZERO PUSH2 0x2EB JUMPI PUSH0 DUP1 REVERT JUMPDEST POP PUSH2 0x2F4 PUSH2 0x962 JUMP JUMPDEST STOP JUMPDEST CALLVALUE DUP1 ISZERO PUSH2 0x301 JUMPI PUSH0 DUP1 REVERT JUMPDEST POP PUSH2 0x30A PUSH2 0x974 JUMP JUMPDEST PUSH1 0x40 MLOAD PUSH2 0x317 SWAP2 SWAP1 PUSH2 0x1926 JUMP JUMPDEST PUSH1 0x40 MLOAD DUP1 SWAP2 SUB SWAP1 RETURN JUMPDEST CALLVALUE DUP1 ISZERO PUSH2 0x32B JUMPI PUSH0 DUP1 REVERT JUMPDEST POP PUSH2 0x346 PUSH1 0x4 DUP1 CALLDATASIZE SUB DUP2 ADD SWAP1 PUSH2 0x341 SWAP2 SWAP1 PUSH2 0x1845 JUMP JUMPDEST PUSH2 0x99B JUMP JUMPDEST PUSH1 0x40 MLOAD PUSH2 0x355 SWAP4 SWAP3 SWAP2 SWAP1 PUSH2 0x193F JUMP JUMPDEST PUSH1 0x40 MLOAD DUP1 SWAP2 SUB SWAP1 RETURN JUMPDEST CALLVALUE DUP1 ISZERO PUSH2 0x369 JUMPI PUSH0 DUP1 REVERT JUMPDEST POP PUSH2 0x372 PUSH2 0x9C1 JUMP JUMPDEST PUSH1 0x40 MLOAD PUSH2 0x37F SWAP2 SWAP1 PUSH2 0x17A7 JUMP JUMPDEST PUSH1 0x40 MLOAD DUP1 SWAP2 SUB SWAP1 RETURN JUMPDEST PUSH2 0x3A2 PUSH1 0x4 DUP1 CALLDATASIZE SUB DUP2 ADD SWAP1 PUSH2 0x39D SWAP2 SWAP1 PUSH2 0x17C0 JUMP JUMPDEST PUSH2 0x9C7 JUMP JUMPDEST STOP JUMPDEST CALLVALUE DUP1 ISZERO PUSH2 0x3AF JUMPI PUSH0 DUP1 REVERT JUMPDEST POP PUSH2 0x3B8 PUSH2 0xC64 JUMP JUMPDEST PUSH1 0x40 MLOAD PUSH2 0x3C5 SWAP2 SWAP1 PUSH2 0x17A7 JUMP JUMPDEST PUSH1 0x40 MLOAD DUP1 SWAP2 SUB SWAP1 RETURN JUMPDEST CALLVALUE DUP1 ISZERO PUSH2 0x3D9 JUMPI PUSH0 DUP1 REVERT JUMPDEST POP PUSH2 0x3E2 PUSH2 0xC6A JUMP JUMPDEST STOP JUMPDEST CALLVALUE DUP1 ISZERO PUSH2 0x3EF JUMPI PUSH0 DUP1 REVERT JUMPDEST POP PUSH2 0x40A PUSH1 0x4 DUP1 CALLDATASIZE SUB DUP2 ADD SWAP1 PUSH2 0x405 SWAP2 SWAP1 PUSH2 0x17C0 JUMP JUMPDEST PUSH2 0xE85 JUMP JUMPDEST STOP JUMPDEST CALLVALUE DUP1 ISZERO PUSH2 0x417 JUMPI PUSH0 DUP1 REVERT JUMPDEST POP PUSH2 0x420 PUSH2 0xECE JUMP JUMPDEST PUSH1 0x40 MLOAD PUSH2 0x42D SWAP2 SWAP1 PUSH2 0x17A7 JUMP JUMPDEST PUSH1 0x40 MLOAD DUP1 SWAP2 SUB SWAP1 RETURN JUMPDEST CALLVALUE DUP1 ISZERO PUSH2 0x441 JUMPI PUSH0 DUP1 REVERT JUMPDEST POP PUSH2 0x45C PUSH1 0x4 DUP1 CALLDATASIZE SUB DUP2 ADD SWAP1 PUSH2 0x457 SWAP2 SWAP1 PUSH2 0x17C0 JUMP JUMPDEST PUSH2 0xF68 JUMP JUMPDEST STOP JUMPDEST CALLVALUE DUP1 ISZERO PUSH2 0x469 JUMPI PUSH0 DUP1 REVERT JUMPDEST POP PUSH2 0x472 PUSH2 0x109B JUMP JUMPDEST PUSH1 0x40 MLOAD PUSH2 0x47F SWAP2 SWAP1 PUSH2 0x17A7 JUMP JUMPDEST PUSH1 0x40 MLOAD DUP1 SWAP2 SUB SWAP1 RETURN JUMPDEST CALLVALUE DUP1 ISZERO PUSH2 0x493 JUMPI PUSH0 DUP1 REVERT JUMPDEST POP PUSH2 0x4AE PUSH1 0x4 DUP1 CALLDATASIZE SUB DUP2 ADD SWAP1 PUSH2 0x4A9 SWAP2 SWAP1 PUSH2 0x1845 JUMP JUMPDEST PUSH2 0x10A1 JUMP JUMPDEST PUSH1 0x40 MLOAD PUSH2 0x4BB SWAP2 SWAP1 PUSH2 0x17A7 JUMP JUMPDEST PUSH1 0x40 MLOAD DUP1 SWAP2 SUB SWAP1 RETURN JUMPDEST CALLVALUE DUP1 ISZERO PUSH2 0x4CF JUMPI PUSH0 DUP1 REVERT JUMPDEST POP PUSH2 0x4EA PUSH1 0x4 DUP1 CALLDATASIZE SUB DUP2 ADD SWAP1 PUSH2 0x4E5 SWAP2 SWAP1 PUSH2 0x1845 JUMP JUMPDEST PUSH2 0x10E9 JUMP JUMPDEST STOP JUMPDEST CALLVALUE DUP1 ISZERO PUSH2 0x4F7 JUMPI PUSH0 DUP1 REVERT JUMPDEST POP PUSH2 0x500 PUSH2 0x116D JUMP JUMPDEST PUSH1 0x40 MLOAD PUSH2 0x50D SWAP2 SWAP1 PUSH2 0x18FE JUMP JUMPDEST PUSH1 0x40 MLOAD DUP1 SWAP2 SUB SWAP1 RETURN JUMPDEST PUSH2 0x51E PUSH2 0x1191 JUMP JUMPDEST PUSH0 DUP2 GT PUSH2 0x560 JUMPI PUSH1 0x40 MLOAD PUSH32 0x8C379A000000000000000000000000000000000000000000000000000000000 DUP2 MSTORE PUSH1 0x4 ADD PUSH2 0x557 SWAP1 PUSH2 0x19CE JUMP JUMPDEST PUSH1 0x40 MLOAD DUP1 SWAP2 SUB SWAP1 REVERT JUMPDEST DUP2 PUSH1 0x4 DUP2 SWAP1 SSTORE POP DUP1 PUSH1 0x5 DUP2 SWAP1 SSTORE POP PUSH32 0x2CDA5F90308A6ED0AAD400F6DDC7575E31B5F1428C50C054AE54E1939FF164B8 DUP3 DUP3 PUSH1 0x40 MLOAD PUSH2 0x59F SWAP3 SWAP2 SWAP1 PUSH2 0x19EC JUMP JUMPDEST PUSH1 0x40 MLOAD DUP1 SWAP2 SUB SWAP1 LOG1 POP POP JUMP JUMPDEST PUSH0 PUSH1 0x7 SLOAD SWAP1 POP SWAP1 JUMP JUMPDEST PUSH2 0x5BC PUSH2 0x1191 JUMP JUMPDEST PUSH32 0x0 PUSH20 0xFFFFFFFFFFFFFFFFFFFFFFFFFFFFFFFFFFFFFFFF AND PUSH4 0x23B872DD CALLER ADDRESS DUP5 PUSH1 0x40 MLOAD DUP5 PUSH4 0xFFFFFFFF AND PUSH1 0xE0 SHL DUP2 MSTORE PUSH1 0x4 ADD PUSH2 0x619 SWAP4 SWAP3 SWAP2 SWAP1 PUSH2 0x1A13 JUMP JUMPDEST PUSH1 0x20 PUSH1 0x40 MLOAD DUP1 DUP4 SUB DUP2 PUSH0 DUP8 GAS CALL ISZERO DUP1 ISZERO PUSH2 0x635 JUMPI RETURNDATASIZE PUSH0 DUP1 RETURNDATACOPY RETURNDATASIZE PUSH0 REVERT JUMPDEST POP POP POP POP PUSH1 0x40 MLOAD RETURNDATASIZE PUSH1 0x1F NOT PUSH1 0x1F DUP3 ADD AND DUP3 ADD DUP1 PUSH1 0x40 MSTORE POP DUP2 ADD SWAP1 PUSH2 0x659 SWAP2 SWAP1 PUSH2 0x1A72 JUMP JUMPDEST PUSH2 0x698 JUMPI PUSH1 0x40 MLOAD PUSH32 0x8C379A000000000000000000000000000000000000000000000000000000000 DUP2 MSTORE PUSH1 0x4 ADD PUSH2 0x68F SWAP1 PUSH2 0x1AE7 JUMP JUMPDEST PUSH1 0x40 MLOAD DUP1 SWAP2 SUB SWAP1 REVERT JUMPDEST CALLER PUSH20 0xFFFFFFFFFFFFFFFFFFFFFFFFFFFFFFFFFFFFFFFF AND PUSH32 0xAC1F5F240B57FC014C4875EC0FA399F96CA891F85156BA195E6512CCD4ADA548 DUP3 PUSH1 0x40 MLOAD PUSH2 0x6DE SWAP2 SWAP1 PUSH2 0x17A7 JUMP JUMPDEST PUSH1 0x40 MLOAD DUP1 SWAP2 SUB SWAP1 LOG2 POP JUMP JUMPDEST PUSH2 0x6F1 PUSH2 0x1218 JUMP JUMPDEST PUSH2 0x6F9 PUSH2 0x1267 JUMP JUMPDEST PUSH0 PUSH1 0x8 PUSH0 CALLER PUSH20 0xFFFFFFFFFFFFFFFFFFFFFFFFFFFFFFFFFFFFFFFF AND PUSH20 0xFFFFFFFFFFFFFFFFFFFFFFFFFFFFFFFFFFFFFFFF AND DUP2 MSTORE PUSH1 0x20 ADD SWAP1 DUP2 MSTORE PUSH1 0x20 ADD PUSH0 KECCAK256 SWAP1 POP DUP2 DUP2 PUSH0 ADD SLOAD LT ISZERO PUSH2 0x77F JUMPI PUSH1 0x40 MLOAD PUSH32 0x8C379A000000000000000000000000000000000000000000000000000000000 DUP2 MSTORE PUSH1 0x4 ADD PUSH2 0x776 SWAP1 PUSH2 0x1B4F JUMP JUMPDEST PUSH1 0x40 MLOAD DUP1 SWAP2 SUB SWAP1 REVERT JUMPDEST PUSH2 0x788 CALLER PUSH2 0x12B1 JUMP JUMPDEST DUP2 DUP2 PUSH0 ADD PUSH0 DUP3 DUP3 SLOAD PUSH2 0x79A SWAP2 SWAP1 PUSH2 0x1B9A JUMP JUMPDEST SWAP3 POP POP DUP2 SWAP1 SSTORE POP DUP2 PUSH1 0x7 PUSH0 DUP3 DUP3 SLOAD PUSH2 0x7B2 SWAP2 SWAP1 PUSH2 0x1B9A JUMP JUMPDEST SWAP3 POP POP DUP2 SWAP1 SSTORE POP PUSH32 0x0 PUSH20 0xFFFFFFFFFFFFFFFFFFFFFFFFFFFFFFFFFFFFFFFF AND PUSH4 0xA9059CBB CALLER DUP5 PUSH1 0x40 MLOAD DUP4 PUSH4 0xFFFFFFFF AND PUSH1 0xE0 SHL DUP2 MSTORE PUSH1 0x4 ADD PUSH2 0x814 SWAP3 SWAP2 SWAP1 PUSH2 0x1BCD JUMP JUMPDEST PUSH1 0x20 PUSH1 0x40 MLOAD DUP1 DUP4 SUB DUP2 PUSH0 DUP8 GAS CALL ISZERO DUP1 ISZERO PUSH2 0x830 JUMPI RETURNDATASIZE PUSH0 DUP1 RETURNDATACOPY RETURNDATASIZE PUSH0 REVERT JUMPDEST POP POP POP POP PUSH1 0x40 MLOAD RETURNDATASIZE PUSH1 0x1F NOT PUSH1 0x1F DUP3 ADD AND DUP3 ADD DUP1 PUSH1 0x40 MSTORE POP DUP2 ADD SWAP1 PUSH2 0x854 SWAP2 SWAP1 PUSH2 0x1A72 JUMP JUMPDEST PUSH2 0x893 JUMPI PUSH1 0x40 MLOAD PUSH32 0x8C379A000000000000000000000000000000000000000000000000000000000 DUP2 MSTORE PUSH1 0x4 ADD PUSH2 0x88A SWAP1 PUSH2 0x1C3E JUMP JUMPDEST PUSH1 0x40 MLOAD DUP1 SWAP2 SUB SWAP1 REVERT JUMPDEST CALLER PUSH20 0xFFFFFFFFFFFFFFFFFFFFFFFFFFFFFFFFFFFFFFFF AND PUSH32 0xF5BB82176FEB1B5E747E28471AA92156A04D9F3AB9F45F28E2D704232B93F75 DUP4 PUSH1 0x40 MLOAD PUSH2 0x8D9 SWAP2 SWAP1 PUSH2 0x17A7 JUMP JUMPDEST PUSH1 0x40 MLOAD DUP1 SWAP2 SUB SWAP1 LOG2 POP PUSH2 0x8EA PUSH2 0x147C JUMP JUMPDEST POP JUMP JUMPDEST PUSH1 0x3 SLOAD DUP2 JUMP JUMPDEST PUSH2 0x8FB PUSH2 0x1191 JUMP JUMPDEST PUSH2 0x903 PUSH2 0x1485 JUMP JUMPDEST JUMP JUMPDEST PUSH0 PUSH2 0x90F DUP3 PUSH2 0x14E6 JUMP JUMPDEST SWAP1 POP SWAP2 SWAP1 POP JUMP JUMPDEST PUSH0 PUSH1 0x2 PUSH0 SWAP1 SLOAD SWAP1 PUSH2 0x100 EXP SWAP1 DIV PUSH1 0xFF AND SWAP1 POP SWAP1 JUMP JUMPDEST PUSH2 0x933 PUSH2 0x1191 JUMP JUMPDEST PUSH2 0x93C PUSH0 PUSH2 0x15B0 JUMP JUMPDEST JUMP JUMPDEST PUSH32 0x0 DUP2 JUMP JUMPDEST PUSH2 0x96A PUSH2 0x1191 JUMP JUMPDEST PUSH2 0x972 PUSH2 0x1671 JUMP JUMPDEST JUMP JUMPDEST PUSH0 DUP1 PUSH0 SWAP1 SLOAD SWAP1 PUSH2 0x100 EXP SWAP1 DIV PUSH20 0xFFFFFFFFFFFFFFFFFFFFFFFFFFFFFFFFFFFFFFFF AND SWAP1 POP SWAP1 JUMP JUMPDEST PUSH1 0x8 PUSH1 0x20 MSTORE DUP1 PUSH0 MSTORE PUSH1 0x40 PUSH0 KECCAK256 PUSH0 SWAP2 POP SWAP1 POP DUP1 PUSH0 ADD SLOAD SWAP1 DUP1 PUSH1 0x1 ADD SLOAD SWAP1 DUP1 PUSH1 0x2 ADD SLOAD SWAP1 POP DUP4 JUMP JUMPDEST PUSH1 0x6 SLOAD DUP2 JUMP JUMPDEST PUSH2 0x9CF PUSH2 0x1218 JUMP JUMPDEST PUSH2 0x9D7 PUSH2 0x1267 JUMP JUMPDEST PUSH1 0x6 SLOAD CALLVALUE LT ISZERO PUSH2 0xA1C JUMPI PUSH1 0x40 MLOAD PUSH32 0x8C379A000000000000000000000000000000000000000000000000000000000 DUP2 MSTORE PUSH1 0x4 ADD PUSH2 0xA13 SWAP1 PUSH2 0x1CA6 JUMP JUMPDEST PUSH1 0x40 MLOAD DUP1 SWAP2 SUB SWAP1 REVERT JUMPDEST PUSH0 DUP2 GT PUSH2 0xA5E JUMPI PUSH1 0x40 MLOAD PUSH32 0x8C379A000000000000000000000000000000000000000000000000000000000 DUP2 MSTORE PUSH1 0x4 ADD PUSH2 0xA55 SWAP1 PUSH2 0x1D0E JUMP JUMPDEST PUSH1 0x40 MLOAD DUP1 SWAP2 SUB SWAP1 REVERT JUMPDEST PUSH2 0xA66 PUSH2 0x974 JUMP JUMPDEST PUSH20 0xFFFFFFFFFFFFFFFFFFFFFFFFFFFFFFFFFFFFFFFF AND PUSH2 0x8FC PUSH1 0x6 SLOAD SWAP1 DUP2 ISZERO MUL SWAP1 PUSH1 0x40 MLOAD PUSH0 PUSH1 0x40 MLOAD DUP1 DUP4 SUB DUP2 DUP6 DUP9 DUP9 CALL SWAP4 POP POP POP POP ISZERO DUP1 ISZERO PUSH2 0xAAA JUMPI RETURNDATASIZE PUSH0 DUP1 RETURNDATACOPY RETURNDATASIZE PUSH0 REVERT JUMPDEST POP PUSH0 PUSH1 0x8 PUSH0 CALLER PUSH20 0xFFFFFFFFFFFFFFFFFFFFFFFFFFFFFFFFFFFFFFFF AND PUSH20 0xFFFFFFFFFFFFFFFFFFFFFFFFFFFFFFFFFFFFFFFF AND DUP2 MSTORE PUSH1 0x20 ADD SWAP1 DUP2 MSTORE PUSH1 0x20 ADD PUSH0 KECCAK256 SWAP1 POP PUSH2 0xAF4 CALLER PUSH2 0x12B1 JUMP JUMPDEST PUSH32 0x0 PUSH20 0xFFFFFFFFFFFFFFFFFFFFFFFFFFFFFFFFFFFFFFFF AND PUSH4 0x23B872DD CALLER ADDRESS DUP6 PUSH1 0x40 MLOAD DUP5 PUSH4 0xFFFFFFFF AND PUSH1 0xE0 SHL DUP2 MSTORE PUSH1 0x4 ADD PUSH2 0xB51 SWAP4 SWAP3 SWAP2 SWAP1 PUSH2 0x1A13 JUMP JUMPDEST PUSH1 0x20 PUSH1 0x40 MLOAD DUP1 DUP4 SUB DUP2 PUSH0 DUP8 GAS CALL ISZERO DUP1 ISZERO PUSH2 0xB6D JUMPI RETURNDATASIZE PUSH0 DUP1 RETURNDATACOPY RETURNDATASIZE PUSH0 REVERT JUMPDEST POP POP POP POP PUSH1 0x40 MLOAD RETURNDATASIZE PUSH1 0x1F NOT PUSH1 0x1F DUP3 ADD AND DUP3 ADD DUP1 PUSH1 0x40 MSTORE POP DUP2 ADD SWAP1 PUSH2 0xB91 SWAP2 SWAP1 PUSH2 0x1A72 JUMP JUMPDEST PUSH2 0xBD0 JUMPI PUSH1 0x40 MLOAD PUSH32 0x8C379A000000000000000000000000000000000000000000000000000000000 DUP2 MSTORE PUSH1 0x4 ADD PUSH2 0xBC7 SWAP1 PUSH2 0x1D76 JUMP JUMPDEST PUSH1 0x40 MLOAD DUP1 SWAP2 SUB SWAP1 REVERT JUMPDEST DUP2 DUP2 PUSH0 ADD PUSH0 DUP3 DUP3 SLOAD PUSH2 0xBE2 SWAP2 SWAP1 PUSH2 0x1D94 JUMP JUMPDEST SWAP3 POP POP DUP2 SWAP1 SSTORE POP TIMESTAMP DUP2 PUSH1 0x1 ADD DUP2 SWAP1 SSTORE POP DUP2 PUSH1 0x7 PUSH0 DUP3 DUP3 SLOAD PUSH2 0xC03 SWAP2 SWAP1 PUSH2 0x1D94 JUMP JUMPDEST SWAP3 POP POP DUP2 SWAP1 SSTORE POP CALLER PUSH20 0xFFFFFFFFFFFFFFFFFFFFFFFFFFFFFFFFFFFFFFFF AND PUSH32 0x9E71BC8EEA02A63969F509818F2DAFB9254532904319F9DBDA79B67BD34A5F3D DUP4 PUSH1 0x40 MLOAD PUSH2 0xC50 SWAP2 SWAP1 PUSH2 0x17A7 JUMP JUMPDEST PUSH1 0x40 MLOAD DUP1 SWAP2 SUB SWAP1 LOG2 POP PUSH2 0xC61 PUSH2 0x147C JUMP JUMPDEST POP JUMP JUMPDEST PUSH1 0x5 SLOAD DUP2 JUMP JUMPDEST PUSH2 0xC72 PUSH2 0x1218 JUMP JUMPDEST PUSH2 0xC7A PUSH2 0x1267 JUMP JUMPDEST PUSH0 PUSH2 0xC84 CALLER PUSH2 0x14E6 JUMP JUMPDEST SWAP1 POP PUSH0 DUP2 GT PUSH2 0xCC8 JUMPI PUSH1 0x40 MLOAD PUSH32 0x8C379A000000000000000000000000000000000000000000000000000000000 DUP2 MSTORE PUSH1 0x4 ADD PUSH2 0xCBF SWAP1 PUSH2 0x1E11 JUMP JUMPDEST PUSH1 0x40 MLOAD DUP1 SWAP2 SUB SWAP1 REVERT JUMPDEST TIMESTAMP PUSH1 0x8 PUSH0 CALLER PUSH20 0xFFFFFFFFFFFFFFFFFFFFFFFFFFFFFFFFFFFFFFFF AND PUSH20 0xFFFFFFFFFFFFFFFFFFFFFFFFFFFFFFFFFFFFFFFF AND DUP2 MSTORE PUSH1 0x20 ADD SWAP1 DUP2 MSTORE PUSH1 0x20 ADD PUSH0 KECCAK256 PUSH1 0x1 ADD DUP2 SWAP1 SSTORE POP PUSH0 PUSH1 0x8 PUSH0 CALLER PUSH20 0xFFFFFFFFFFFFFFFFFFFFFFFFFFFFFFFFFFFFFFFF AND PUSH20 0xFFFFFFFFFFFFFFFFFFFFFFFFFFFFFFFFFFFFFFFF AND DUP2 MSTORE PUSH1 0x20 ADD SWAP1 DUP2 MSTORE PUSH1 0x20 ADD PUSH0 KECCAK256 PUSH1 0x2 ADD DUP2 SWAP1 SSTORE POP PUSH32 0x0 PUSH20 0xFFFFFFFFFFFFFFFFFFFFFFFFFFFFFFFFFFFFFFFF AND PUSH4 0xA9059CBB CALLER DUP4 PUSH1 0x40 MLOAD DUP4 PUSH4 0xFFFFFFFF AND PUSH1 0xE0 SHL DUP2 MSTORE PUSH1 0x4 ADD PUSH2 0xDAD SWAP3 SWAP2 SWAP1 PUSH2 0x1BCD JUMP JUMPDEST PUSH1 0x20 PUSH1 0x40 MLOAD DUP1 DUP4 SUB DUP2 PUSH0 DUP8 GAS CALL ISZERO DUP1 ISZERO PUSH2 0xDC9 JUMPI RETURNDATASIZE PUSH0 DUP1 RETURNDATACOPY RETURNDATASIZE PUSH0 REVERT JUMPDEST POP POP POP POP PUSH1 0x40 MLOAD RETURNDATASIZE PUSH1 0x1F NOT PUSH1 0x1F DUP3 ADD AND DUP3 ADD DUP1 PUSH1 0x40 MSTORE POP DUP2 ADD SWAP1 PUSH2 0xDED SWAP2 SWAP1 PUSH2 0x1A72 JUMP JUMPDEST PUSH2 0xE2C JUMPI PUSH1 0x40 MLOAD PUSH32 0x8C379A000000000000000000000000000000000000000000000000000000000 DUP2 MSTORE PUSH1 0x4 ADD PUSH2 0xE23 SWAP1 PUSH2 0x1E79 JUMP JUMPDEST PUSH1 0x40 MLOAD DUP1 SWAP2 SUB SWAP1 REVERT JUMPDEST CALLER PUSH20 0xFFFFFFFFFFFFFFFFFFFFFFFFFFFFFFFFFFFFFFFF AND PUSH32 0x106F923F993C2149D49B4255FF723ACAFA1F2D94393F561D3EDA32AE348F7241 DUP3 PUSH1 0x40 MLOAD PUSH2 0xE72 SWAP2 SWAP1 PUSH2 0x17A7 JUMP JUMPDEST PUSH1 0x40 MLOAD DUP1 SWAP2 SUB SWAP1 LOG2 POP PUSH2 0xE83 PUSH2 0x147C JUMP JUMPDEST JUMP JUMPDEST PUSH2 0xE8D PUSH2 0x1191 JUMP JUMPDEST DUP1 PUSH1 0x6 DUP2 SWAP1 SSTORE POP PUSH32 0x8B58A69C09C2DFF0E67BEA4782C73A9FF3C4BBA6DC50DBE66643372B8CE9035D DUP2 PUSH1 0x40 MLOAD PUSH2 0xEC3 SWAP2 SWAP1 PUSH2 0x17A7 JUMP JUMPDEST PUSH1 0x40 MLOAD DUP1 SWAP2 SUB SWAP1 LOG1 POP JUMP JUMPDEST PUSH0 DUP1 PUSH1 0x7 SLOAD SUB PUSH2 0xF02 JUMPI PUSH1 0x5 SLOAD PUSH8 0xDE0B6B3A7640000 PUSH1 0x4 SLOAD PUSH2 0xEF1 SWAP2 SWAP1 PUSH2 0x1E97 JUMP JUMPDEST PUSH2 0xEFB SWAP2 SWAP1 PUSH2 0x1F05 JUMP JUMPDEST SWAP1 POP PUSH2 0xF65 JUMP JUMPDEST PUSH0 PUSH1 0x5 SLOAD PUSH8 0xDE0B6B3A7640000 PUSH1 0x4 SLOAD PUSH2 0xF1C SWAP2 SWAP1 PUSH2 0x1E97 JUMP JUMPDEST PUSH2 0xF26 SWAP2 SWAP1 PUSH2 0x1F05 JUMP JUMPDEST SWAP1 POP PUSH0 PUSH8 0xDE0B6B3A7640000 PUSH1 0x7 SLOAD PUSH2 0xF3F SWAP2 SWAP1 PUSH2 0x1D94 JUMP JUMPDEST PUSH8 0xDE0B6B3A7640000 DUP4 PUSH2 0xF53 SWAP2 SWAP1 PUSH2 0x1E97 JUMP JUMPDEST PUSH2 0xF5D SWAP2 SWAP1 PUSH2 0x1F05 JUMP JUMPDEST SWAP1 POP DUP1 SWAP3 POP POP POP JUMPDEST SWAP1 JUMP JUMPDEST PUSH2 0xF70 PUSH2 0x1191 JUMP JUMPDEST PUSH32 0x0 PUSH20 0xFFFFFFFFFFFFFFFFFFFFFFFFFFFFFFFFFFFFFFFF AND PUSH4 0xA9059CBB CALLER DUP4 PUSH1 0x40 MLOAD DUP4 PUSH4 0xFFFFFFFF AND PUSH1 0xE0 SHL DUP2 MSTORE PUSH1 0x4 ADD PUSH2 0xFCB SWAP3 SWAP2 SWAP1 PUSH2 0x1BCD JUMP JUMPDEST PUSH1 0x20 PUSH1 0x40 MLOAD DUP1 DUP4 SUB DUP2 PUSH0 DUP8 GAS CALL ISZERO DUP1 ISZERO PUSH2 0xFE7 JUMPI RETURNDATASIZE PUSH0 DUP1 RETURNDATACOPY RETURNDATASIZE PUSH0 REVERT JUMPDEST POP POP POP POP PUSH1 0x40 MLOAD RETURNDATASIZE PUSH1 0x1F NOT PUSH1 0x1F DUP3 ADD AND DUP3 ADD DUP1 PUSH1 0x40 MSTORE POP DUP2 ADD SWAP1 PUSH2 0x100B SWAP2 SWAP1 PUSH2 0x1A72 JUMP JUMPDEST PUSH2 0x104A JUMPI PUSH1 0x40 MLOAD PUSH32 0x8C379A000000000000000000000000000000000000000000000000000000000 DUP2 MSTORE PUSH1 0x4 ADD PUSH2 0x1041 SWAP1 PUSH2 0x1F7F JUMP JUMPDEST PUSH1 0x40 MLOAD DUP1 SWAP2 SUB SWAP1 REVERT JUMPDEST CALLER PUSH20 0xFFFFFFFFFFFFFFFFFFFFFFFFFFFFFFFFFFFFFFFF AND PUSH32 0x5991A08BB51D1FC3F552255ED446F040DCA378AD3FF91763507B63B185EB5D2E DUP3 PUSH1 0x40 MLOAD PUSH2 0x1090 SWAP2 SWAP1 PUSH2 0x17A7 JUMP JUMPDEST PUSH1 0x40 MLOAD DUP1 SWAP2 SUB SWAP1 LOG2 POP JUMP JUMPDEST PUSH1 0x4 SLOAD DUP2 JUMP JUMPDEST PUSH0 PUSH1 0x8 PUSH0 DUP4 PUSH20 0xFFFFFFFFFFFFFFFFFFFFFFFFFFFFFFFFFFFFFFFF AND PUSH20 0xFFFFFFFFFFFFFFFFFFFFFFFFFFFFFFFFFFFFFFFF AND DUP2 MSTORE PUSH1 0x20 ADD SWAP1 DUP2 MSTORE PUSH1 0x20 ADD PUSH0 KECCAK256 PUSH0 ADD SLOAD SWAP1 POP SWAP2 SWAP1 POP JUMP JUMPDEST PUSH2 0x10F1 PUSH2 0x1191 JUMP JUMPDEST PUSH0 PUSH20 0xFFFFFFFFFFFFFFFFFFFFFFFFFFFFFFFFFFFFFFFF AND DUP2 PUSH20 0xFFFFFFFFFFFFFFFFFFFFFFFFFFFFFFFFFFFFFFFF AND SUB PUSH2 0x1161 JUMPI PUSH0 PUSH1 0x40 MLOAD PUSH32 0x1E4FBDF700000000000000000000000000000000000000000000000000000000 DUP2 MSTORE PUSH1 0x4 ADD PUSH2 0x1158 SWAP2 SWAP1 PUSH2 0x1926 JUMP JUMPDEST PUSH1 0x40 MLOAD DUP1 SWAP2 SUB SWAP1 REVERT JUMPDEST PUSH2 0x116A DUP2 PUSH2 0x15B0 JUMP JUMPDEST POP JUMP JUMPDEST PUSH32 0x0 DUP2 JUMP JUMPDEST PUSH2 0x1199 PUSH2 0x16D3 JUMP JUMPDEST PUSH20 0xFFFFFFFFFFFFFFFFFFFFFFFFFFFFFFFFFFFFFFFF AND PUSH2 0x11B7 PUSH2 0x974 JUMP JUMPDEST PUSH20 0xFFFFFFFFFFFFFFFFFFFFFFFFFFFFFFFFFFFFFFFF AND EQ PUSH2 0x1216 JUMPI PUSH2 0x11DA PUSH2 0x16D3 JUMP JUMPDEST PUSH1 0x40 MLOAD PUSH32 0x118CDAA700000000000000000000000000000000000000000000000000000000 DUP2 MSTORE PUSH1 0x4 ADD PUSH2 0x120D SWAP2 SWAP1 PUSH2 0x1926 JUMP JUMPDEST PUSH1 0x40 MLOAD DUP1 SWAP2 SUB SWAP1 REVERT JUMPDEST JUMP JUMPDEST PUSH1 0x2 PUSH1 0x1 SLOAD SUB PUSH2 0x125D JUMPI PUSH1 0x40 MLOAD PUSH32 0x8C379A000000000000000000000000000000000000000000000000000000000 DUP2 MSTORE PUSH1 0x4 ADD PUSH2 0x1254 SWAP1 PUSH2 0x1FE7 JUMP JUMPDEST PUSH1 0x40 MLOAD DUP1 SWAP2 SUB SWAP1 REVERT JUMPDEST PUSH1 0x2 PUSH1 0x1 DUP2 SWAP1 SSTORE POP JUMP JUMPDEST PUSH2 0x126F PUSH2 0x916 JUMP JUMPDEST ISZERO PUSH2 0x12AF JUMPI PUSH1 0x40 MLOAD PUSH32 0x8C379A000000000000000000000000000000000000000000000000000000000 DUP2 MSTORE PUSH1 0x4 ADD PUSH2 0x12A6 SWAP1 PUSH2 0x204F JUMP JUMPDEST PUSH1 0x40 MLOAD DUP1 SWAP2 SUB SWAP1 REVERT JUMPDEST JUMP JUMPDEST PUSH0 PUSH2 0x12BB DUP3 PUSH2 0x14E6 JUMP JUMPDEST SWAP1 POP PUSH0 DUP2 GT ISZERO PUSH2 0x1478 JUMPI TIMESTAMP PUSH1 0x8 PUSH0 DUP5 PUSH20 0xFFFFFFFFFFFFFFFFFFFFFFFFFFFFFFFFFFFFFFFF AND PUSH20 0xFFFFFFFFFFFFFFFFFFFFFFFFFFFFFFFFFFFFFFFF AND DUP2 MSTORE PUSH1 0x20 ADD SWAP1 DUP2 MSTORE PUSH1 0x20 ADD PUSH0 KECCAK256 PUSH1 0x1 ADD DUP2 SWAP1 SSTORE POP PUSH0 PUSH1 0x8 PUSH0 DUP5 PUSH20 0xFFFFFFFFFFFFFFFFFFFFFFFFFFFFFFFFFFFFFFFF AND PUSH20 0xFFFFFFFFFFFFFFFFFFFFFFFFFFFFFFFFFFFFFFFF AND DUP2 MSTORE PUSH1 0x20 ADD SWAP1 DUP2 MSTORE PUSH1 0x20 ADD PUSH0 KECCAK256 PUSH1 0x2 ADD DUP2 SWAP1 SSTORE POP PUSH32 0x0 PUSH20 0xFFFFFFFFFFFFFFFFFFFFFFFFFFFFFFFFFFFFFFFF AND PUSH4 0xA9059CBB DUP4 DUP4 PUSH1 0x40 MLOAD DUP4 PUSH4 0xFFFFFFFF AND PUSH1 0xE0 SHL DUP2 MSTORE PUSH1 0x4 ADD PUSH2 0x13AA SWAP3 SWAP2 SWAP1 PUSH2 0x1BCD JUMP JUMPDEST PUSH1 0x20 PUSH1 0x40 MLOAD DUP1 DUP4 SUB DUP2 PUSH0 DUP8 GAS CALL ISZERO DUP1 ISZERO PUSH2 0x13C6 JUMPI RETURNDATASIZE PUSH0 DUP1 RETURNDATACOPY RETURNDATASIZE PUSH0 REVERT JUMPDEST POP POP POP POP PUSH1 0x40 MLOAD RETURNDATASIZE PUSH1 0x1F NOT PUSH1 0x1F DUP3 ADD AND DUP3 ADD DUP1 PUSH1 0x40 MSTORE POP DUP2 ADD SWAP1 PUSH2 0x13EA SWAP2 SWAP1 PUSH2 0x1A72 JUMP JUMPDEST PUSH2 0x1429 JUMPI PUSH1 0x40 MLOAD PUSH32 0x8C379A000000000000000000000000000000000000000000000000000000000 DUP2 MSTORE PUSH1 0x4 ADD PUSH2 0x1420 SWAP1 PUSH2 0x1E79 JUMP JUMPDEST PUSH1 0x40 MLOAD DUP1 SWAP2 SUB SWAP1 REVERT JUMPDEST DUP2 PUSH20 0xFFFFFFFFFFFFFFFFFFFFFFFFFFFFFFFFFFFFFFFF AND PUSH32 0x106F923F993C2149D49B4255FF723ACAFA1F2D94393F561D3EDA32AE348F7241 DUP3 PUSH1 0x40 MLOAD PUSH2 0x146F SWAP2 SWAP1 PUSH2 0x17A7 JUMP JUMPDEST PUSH1 0x40 MLOAD DUP1 SWAP2 SUB SWAP1 LOG2 JUMPDEST POP POP JUMP JUMPDEST PUSH1 0x1 DUP1 DUP2 SWAP1 SSTORE POP JUMP JUMPDEST PUSH2 0x148D PUSH2 0x16DA JUMP JUMPDEST PUSH0 PUSH1 0x2 PUSH0 PUSH2 0x100 EXP DUP2 SLOAD DUP2 PUSH1 0xFF MUL NOT AND SWAP1 DUP4 ISZERO ISZERO MUL OR SWAP1 SSTORE POP PUSH32 0x5DB9EE0A495BF2E6FF9C91A7834C1BA4FDD244A5E8AA4E537BD38AEAE4B073AA PUSH2 0x14CF PUSH2 0x16D3 JUMP JUMPDEST PUSH1 0x40 MLOAD PUSH2 0x14DC SWAP2 SWAP1 PUSH2 0x1926 JUMP JUMPDEST PUSH1 0x40 MLOAD DUP1 SWAP2 SUB SWAP1 LOG1 JUMP JUMPDEST PUSH0 DUP1 PUSH1 0x8 PUSH0 DUP5 PUSH20 0xFFFFFFFFFFFFFFFFFFFFFFFFFFFFFFFFFFFFFFFF AND PUSH20 0xFFFFFFFFFFFFFFFFFFFFFFFFFFFFFFFFFFFFFFFF AND DUP2 MSTORE PUSH1 0x20 ADD SWAP1 DUP2 MSTORE PUSH1 0x20 ADD PUSH0 KECCAK256 SWAP1 POP PUSH0 DUP2 PUSH0 ADD SLOAD EQ DUP1 PUSH2 0x153B JUMPI POP PUSH0 DUP2 PUSH1 0x1 ADD SLOAD EQ JUMPDEST ISZERO PUSH2 0x1549 JUMPI PUSH0 SWAP2 POP POP PUSH2 0x15AB JUMP JUMPDEST PUSH0 DUP2 PUSH1 0x1 ADD SLOAD TIMESTAMP PUSH2 0x155A SWAP2 SWAP1 PUSH2 0x1B9A JUMP JUMPDEST SWAP1 POP PUSH0 PUSH1 0x5 SLOAD PUSH1 0x3 SLOAD PUSH2 0x156D SWAP2 SWAP1 PUSH2 0x1E97 JUMP JUMPDEST DUP3 PUSH1 0x4 SLOAD DUP6 PUSH0 ADD SLOAD PUSH2 0x157F SWAP2 SWAP1 PUSH2 0x1E97 JUMP JUMPDEST PUSH2 0x1589 SWAP2 SWAP1 PUSH2 0x1E97 JUMP JUMPDEST PUSH2 0x1593 SWAP2 SWAP1 PUSH2 0x1F05 JUMP JUMPDEST SWAP1 POP DUP3 PUSH1 0x2 ADD SLOAD DUP2 PUSH2 0x15A5 SWAP2 SWAP1 PUSH2 0x1D94 JUMP JUMPDEST SWAP4 POP POP POP POP JUMPDEST SWAP2 SWAP1 POP JUMP JUMPDEST PUSH0 DUP1 PUSH0 SWAP1 SLOAD SWAP1 PUSH2 0x100 EXP SWAP1 DIV PUSH20 0xFFFFFFFFFFFFFFFFFFFFFFFFFFFFFFFFFFFFFFFF AND SWAP1 POP DUP2 PUSH0 DUP1 PUSH2 0x100 EXP DUP2 SLOAD DUP2 PUSH20 0xFFFFFFFFFFFFFFFFFFFFFFFFFFFFFFFFFFFFFFFF MUL NOT AND SWAP1 DUP4 PUSH20 0xFFFFFFFFFFFFFFFFFFFFFFFFFFFFFFFFFFFFFFFF AND MUL OR SWAP1 SSTORE POP DUP2 PUSH20 0xFFFFFFFFFFFFFFFFFFFFFFFFFFFFFFFFFFFFFFFF AND DUP2 PUSH20 0xFFFFFFFFFFFFFFFFFFFFFFFFFFFFFFFFFFFFFFFF AND PUSH32 0x8BE0079C531659141344CD1FD0A4F28419497F9722A3DAAFE3B4186F6B6457E0 PUSH1 0x40 MLOAD PUSH1 0x40 MLOAD DUP1 SWAP2 SUB SWAP1 LOG3 POP POP JUMP JUMPDEST PUSH2 0x1679 PUSH2 0x1267 JUMP JUMPDEST PUSH1 0x1 PUSH1 0x2 PUSH0 PUSH2 0x100 EXP DUP2 SLOAD DUP2 PUSH1 0xFF MUL NOT AND SWAP1 DUP4 ISZERO ISZERO MUL OR SWAP1 SSTORE POP PUSH32 0x62E78CEA01BEE320CD4E420270B5EA74000D11B0C9F74754EBDBFC544B05A258 PUSH2 0x16BC PUSH2 0x16D3 JUMP JUMPDEST PUSH1 0x40 MLOAD PUSH2 0x16C9 SWAP2 SWAP1 PUSH2 0x1926 JUMP JUMPDEST PUSH1 0x40 MLOAD DUP1 SWAP2 SUB SWAP1 LOG1 JUMP JUMPDEST PUSH0 CALLER SWAP1 POP SWAP1 JUMP JUMPDEST PUSH2 0x16E2 PUSH2 0x916 JUMP JUMPDEST PUSH2 0x1721 JUMPI PUSH1 0x40 MLOAD PUSH32 0x8C379A000000000000000000000000000000000000000000000000000000000 DUP2 MSTORE PUSH1 0x4 ADD PUSH2 0x1718 SWAP1 PUSH2 0x20B7 JUMP JUMPDEST PUSH1 0x40 MLOAD DUP1 SWAP2 SUB SWAP1 REVERT JUMPDEST JUMP JUMPDEST PUSH0 DUP1 REVERT JUMPDEST PUSH0 DUP2 SWAP1 POP SWAP2 SWAP1 POP JUMP JUMPDEST PUSH2 0x1739 DUP2 PUSH2 0x1727 JUMP JUMPDEST DUP2 EQ PUSH2 0x1743 JUMPI PUSH0 DUP1 REVERT JUMPDEST POP JUMP JUMPDEST PUSH0 DUP2 CALLDATALOAD SWAP1 POP PUSH2 0x1754 DUP2 PUSH2 0x1730 JUMP JUMPDEST SWAP3 SWAP2 POP POP JUMP JUMPDEST PUSH0 DUP1 PUSH1 0x40 DUP4 DUP6 SUB SLT ISZERO PUSH2 0x1770 JUMPI PUSH2 0x176F PUSH2 0x1723 JUMP JUMPDEST JUMPDEST PUSH0 PUSH2 0x177D DUP6 DUP3 DUP7 ADD PUSH2 0x1746 JUMP JUMPDEST SWAP3 POP POP PUSH1 0x20 PUSH2 0x178E DUP6 DUP3 DUP7 ADD PUSH2 0x1746 JUMP JUMPDEST SWAP2 POP POP SWAP3 POP SWAP3 SWAP1 POP JUMP JUMPDEST PUSH2 0x17A1 DUP2 PUSH2 0x1727 JUMP JUMPDEST DUP3 MSTORE POP POP JUMP JUMPDEST PUSH0 PUSH1 0x20 DUP3 ADD SWAP1 POP PUSH2 0x17BA PUSH0 DUP4 ADD DUP5 PUSH2 0x1798 JUMP JUMPDEST SWAP3 SWAP2 POP POP JUMP JUMPDEST PUSH0 PUSH1 0x20 DUP3 DUP5 SUB SLT ISZERO PUSH2 0x17D5 JUMPI PUSH2 0x17D4 PUSH2 0x1723 JUMP JUMPDEST JUMPDEST PUSH0 PUSH2 0x17E2 DUP5 DUP3 DUP6 ADD PUSH2 0x1746 JUMP JUMPDEST SWAP2 POP POP SWAP3 SWAP2 POP POP JUMP JUMPDEST PUSH0 PUSH20 0xFFFFFFFFFFFFFFFFFFFFFFFFFFFFFFFFFFFFFFFF DUP3 AND SWAP1 POP SWAP2 SWAP1 POP JUMP JUMPDEST PUSH0 PUSH2 0x1814 DUP3 PUSH2 0x17EB JUMP JUMPDEST SWAP1 POP SWAP2 SWAP1 POP JUMP JUMPDEST PUSH2 0x1824 DUP2 PUSH2 0x180A JUMP JUMPDEST DUP2 EQ PUSH2 0x182E JUMPI PUSH0 DUP1 REVERT JUMPDEST POP JUMP JUMPDEST PUSH0 DUP2 CALLDATALOAD SWAP1 POP PUSH2 0x183F DUP2 PUSH2 0x181B JUMP JUMPDEST SWAP3 SWAP2 POP POP JUMP JUMPDEST PUSH0 PUSH1 0x20 DUP3 DUP5 SUB SLT ISZERO PUSH2 0x185A JUMPI PUSH2 0x1859 PUSH2 0x1723 JUMP JUMPDEST JUMPDEST PUSH0 PUSH2 0x1867 DUP5 DUP3 DUP6 ADD PUSH2 0x1831 JUMP JUMPDEST SWAP2 POP POP SWAP3 SWAP2 POP POP JUMP JUMPDEST PUSH0 DUP2 ISZERO ISZERO SWAP1 POP SWAP2 SWAP1 POP JUMP JUMPDEST PUSH2 0x1884 DUP2 PUSH2 0x1870 JUMP JUMPDEST DUP3 MSTORE POP POP JUMP JUMPDEST PUSH0 PUSH1 0x20 DUP3 ADD SWAP1 POP PUSH2 0x189D PUSH0 DUP4 ADD DUP5 PUSH2 0x187B JUMP JUMPDEST SWAP3 SWAP2 POP POP JUMP JUMPDEST PUSH0 DUP2 SWAP1 POP SWAP2 SWAP1 POP JUMP JUMPDEST PUSH0 PUSH2 0x18C6 PUSH2 0x18C1 PUSH2 0x18BC DUP5 PUSH2 0x17EB JUMP JUMPDEST PUSH2 0x18A3 JUMP JUMPDEST PUSH2 0x17EB JUMP JUMPDEST SWAP1 POP SWAP2 SWAP1 POP JUMP JUMPDEST PUSH0 PUSH2 0x18D7 DUP3 PUSH2 0x18AC JUMP JUMPDEST SWAP1 POP SWAP2 SWAP1 POP JUMP JUMPDEST PUSH0 PUSH2 0x18E8 DUP3 PUSH2 0x18CD JUMP JUMPDEST SWAP1 POP SWAP2 SWAP1 POP JUMP JUMPDEST PUSH2 0x18F8 DUP2 PUSH2 0x18DE JUMP JUMPDEST DUP3 MSTORE POP POP JUMP JUMPDEST PUSH0 PUSH1 0x20 DUP3 ADD SWAP1 POP PUSH2 0x1911 PUSH0 DUP4 ADD DUP5 PUSH2 0x18EF JUMP JUMPDEST SWAP3 SWAP2 POP POP JUMP JUMPDEST PUSH2 0x1920 DUP2 PUSH2 0x180A JUMP JUMPDEST DUP3 MSTORE POP POP JUMP JUMPDEST PUSH0 PUSH1 0x20 DUP3 ADD SWAP1 POP PUSH2 0x1939 PUSH0 DUP4 ADD DUP5 PUSH2 0x1917 JUMP JUMPDEST SWAP3 SWAP2 POP POP JUMP JUMPDEST PUSH0 PUSH1 0x60 DUP3 ADD SWAP1 POP PUSH2 0x1952 PUSH0 DUP4 ADD DUP7 PUSH2 0x1798 JUMP JUMPDEST PUSH2 0x195F PUSH1 0x20 DUP4 ADD DUP6 PUSH2 0x1798 JUMP JUMPDEST PUSH2 0x196C PUSH1 0x40 DUP4 ADD DUP5 PUSH2 0x1798 JUMP JUMPDEST SWAP5 SWAP4 POP POP POP POP JUMP JUMPDEST PUSH0 DUP3 DUP3 MSTORE PUSH1 0x20 DUP3 ADD SWAP1 POP SWAP3 SWAP2 POP POP JUMP JUMPDEST PUSH32 0x44656E6F6D696E61746F72206D757374203E2030000000000000000000000000 PUSH0 DUP3 ADD MSTORE POP JUMP JUMPDEST PUSH0 PUSH2 0x19B8 PUSH1 0x14 DUP4 PUSH2 0x1974 JUMP JUMPDEST SWAP2 POP PUSH2 0x19C3 DUP3 PUSH2 0x1984 JUMP JUMPDEST PUSH1 0x20 DUP3 ADD SWAP1 POP SWAP2 SWAP1 POP JUMP JUMPDEST PUSH0 PUSH1 0x20 DUP3 ADD SWAP1 POP DUP2 DUP2 SUB PUSH0 DUP4 ADD MSTORE PUSH2 0x19E5 DUP2 PUSH2 0x19AC JUMP JUMPDEST SWAP1 POP SWAP2 SWAP1 POP JUMP JUMPDEST PUSH0 PUSH1 0x40 DUP3 ADD SWAP1 POP PUSH2 0x19FF PUSH0 DUP4 ADD DUP6 PUSH2 0x1798 JUMP JUMPDEST PUSH2 0x1A0C PUSH1 0x20 DUP4 ADD DUP5 PUSH2 0x1798 JUMP JUMPDEST SWAP4 SWAP3 POP POP POP JUMP JUMPDEST PUSH0 PUSH1 0x60 DUP3 ADD SWAP1 POP PUSH2 0x1A26 PUSH0 DUP4 ADD DUP7 PUSH2 0x1917 JUMP JUMPDEST PUSH2 0x1A33 PUSH1 0x20 DUP4 ADD DUP6 PUSH2 0x1917 JUMP JUMPDEST PUSH2 0x1A40 PUSH1 0x40 DUP4 ADD DUP5 PUSH2 0x1798 JUMP JUMPDEST SWAP5 SWAP4 POP POP POP POP JUMP JUMPDEST PUSH2 0x1A51 DUP2 PUSH2 0x1870 JUMP JUMPDEST DUP2 EQ PUSH2 0x1A5B JUMPI PUSH0 DUP1 REVERT JUMPDEST POP JUMP JUMPDEST PUSH0 DUP2 MLOAD SWAP1 POP PUSH2 0x1A6C DUP2 PUSH2 0x1A48 JUMP JUMPDEST SWAP3 SWAP2 POP POP JUMP JUMPDEST PUSH0 PUSH1 0x20 DUP3 DUP5 SUB SLT ISZERO PUSH2 0x1A87 JUMPI PUSH2 0x1A86 PUSH2 0x1723 JUMP JUMPDEST JUMPDEST PUSH0 PUSH2 0x1A94 DUP5 DUP3 DUP6 ADD PUSH2 0x1A5E JUMP JUMPDEST SWAP2 POP POP SWAP3 SWAP2 POP POP JUMP JUMPDEST PUSH32 0x4465706F736974206661696C6564000000000000000000000000000000000000 PUSH0 DUP3 ADD MSTORE POP JUMP JUMPDEST PUSH0 PUSH2 0x1AD1 PUSH1 0xE DUP4 PUSH2 0x1974 JUMP JUMPDEST SWAP2 POP PUSH2 0x1ADC DUP3 PUSH2 0x1A9D JUMP JUMPDEST PUSH1 0x20 DUP3 ADD SWAP1 POP SWAP2 SWAP1 POP JUMP JUMPDEST PUSH0 PUSH1 0x20 DUP3 ADD SWAP1 POP DUP2 DUP2 SUB PUSH0 DUP4 ADD MSTORE PUSH2 0x1AFE DUP2 PUSH2 0x1AC5 JUMP JUMPDEST SWAP1 POP SWAP2 SWAP1 POP JUMP JUMPDEST PUSH32 0x496E73756666696369656E74207374616B650000000000000000000000000000 PUSH0 DUP3 ADD MSTORE POP JUMP JUMPDEST PUSH0 PUSH2 0x1B39 PUSH1 0x12 DUP4 PUSH2 0x1974 JUMP JUMPDEST SWAP2 POP PUSH2 0x1B44 DUP3 PUSH2 0x1B05 JUMP JUMPDEST PUSH1 0x20 DUP3 ADD SWAP1 POP SWAP2 SWAP1 POP JUMP JUMPDEST PUSH0 PUSH1 0x20 DUP3 ADD SWAP1 POP DUP2 DUP2 SUB PUSH0 DUP4 ADD MSTORE PUSH2 0x1B66 DUP2 PUSH2 0x1B2D JUMP JUMPDEST SWAP1 POP SWAP2 SWAP1 POP JUMP JUMPDEST PUSH32 0x4E487B7100000000000000000000000000000000000000000000000000000000 PUSH0 MSTORE PUSH1 0x11 PUSH1 0x4 MSTORE PUSH1 0x24 PUSH0 REVERT JUMPDEST PUSH0 PUSH2 0x1BA4 DUP3 PUSH2 0x1727 JUMP JUMPDEST SWAP2 POP PUSH2 0x1BAF DUP4 PUSH2 0x1727 JUMP JUMPDEST SWAP3 POP DUP3 DUP3 SUB SWAP1 POP DUP2 DUP2 GT ISZERO PUSH2 0x1BC7 JUMPI PUSH2 0x1BC6 PUSH2 0x1B6D JUMP JUMPDEST JUMPDEST SWAP3 SWAP2 POP POP JUMP JUMPDEST PUSH0 PUSH1 0x40 DUP3 ADD SWAP1 POP PUSH2 0x1BE0 PUSH0 DUP4 ADD DUP6 PUSH2 0x1917 JUMP JUMPDEST PUSH2 0x1BED PUSH1 0x20 DUP4 ADD DUP5 PUSH2 0x1798 JUMP JUMPDEST SWAP4 SWAP3 POP POP POP JUMP JUMPDEST PUSH32 0x556E7374616B6520746F6B656E207472616E73666572206661696C6564000000 PUSH0 DUP3 ADD MSTORE POP JUMP JUMPDEST PUSH0 PUSH2 0x1C28 PUSH1 0x1D DUP4 PUSH2 0x1974 JUMP JUMPDEST SWAP2 POP PUSH2 0x1C33 DUP3 PUSH2 0x1BF4 JUMP JUMPDEST PUSH1 0x20 DUP3 ADD SWAP1 POP SWAP2 SWAP1 POP JUMP JUMPDEST PUSH0 PUSH1 0x20 DUP3 ADD SWAP1 POP DUP2 DUP2 SUB PUSH0 DUP4 ADD MSTORE PUSH2 0x1C55 DUP2 PUSH2 0x1C1C JUMP JUMPDEST SWAP1 POP SWAP2 SWAP1 POP JUMP JUMPDEST PUSH32 0x4D75737420706179206E61746976652066656500000000000000000000000000 PUSH0 DUP3 ADD MSTORE POP JUMP JUMPDEST PUSH0 PUSH2 0x1C90 PUSH1 0x13 DUP4 PUSH2 0x1974 JUMP JUMPDEST SWAP2 POP PUSH2 0x1C9B DUP3 PUSH2 0x1C5C JUMP JUMPDEST PUSH1 0x20 DUP3 ADD SWAP1 POP SWAP2 SWAP1 POP JUMP JUMPDEST PUSH0 PUSH1 0x20 DUP3 ADD SWAP1 POP DUP2 DUP2 SUB PUSH0 DUP4 ADD MSTORE PUSH2 0x1CBD DUP2 PUSH2 0x1C84 JUMP JUMPDEST SWAP1 POP SWAP2 SWAP1 POP JUMP JUMPDEST PUSH32 0x416D6F756E74206D757374203E20300000000000000000000000000000000000 PUSH0 DUP3 ADD MSTORE POP JUMP JUMPDEST PUSH0 PUSH2 0x1CF8 PUSH1 0xF DUP4 PUSH2 0x1974 JUMP JUMPDEST SWAP2 POP PUSH2 0x1D03 DUP3 PUSH2 0x1CC4 JUMP JUMPDEST PUSH1 0x20 DUP3 ADD SWAP1 POP SWAP2 SWAP1 POP JUMP JUMPDEST PUSH0 PUSH1 0x20 DUP3 ADD SWAP1 POP DUP2 DUP2 SUB PUSH0 DUP4 ADD MSTORE PUSH2 0x1D25 DUP2 PUSH2 0x1CEC JUMP JUMPDEST SWAP1 POP SWAP2 SWAP1 POP JUMP JUMPDEST PUSH32 0x5374616B6520746F6B656E207472616E73666572206661696C65640000000000 PUSH0 DUP3 ADD MSTORE POP JUMP JUMPDEST PUSH0 PUSH2 0x1D60 PUSH1 0x1B DUP4 PUSH2 0x1974 JUMP JUMPDEST SWAP2 POP PUSH2 0x1D6B DUP3 PUSH2 0x1D2C JUMP JUMPDEST PUSH1 0x20 DUP3 ADD SWAP1 POP SWAP2 SWAP1 POP JUMP JUMPDEST PUSH0 PUSH1 0x20 DUP3 ADD SWAP1 POP DUP2 DUP2 SUB PUSH0 DUP4 ADD MSTORE PUSH2 0x1D8D DUP2 PUSH2 0x1D54 JUMP JUMPDEST SWAP1 POP SWAP2 SWAP1 POP JUMP JUMPDEST PUSH0 PUSH2 0x1D9E DUP3 PUSH2 0x1727 JUMP JUMPDEST SWAP2 POP PUSH2 0x1DA9 DUP4 PUSH2 0x1727 JUMP JUMPDEST SWAP3 POP DUP3 DUP3 ADD SWAP1 POP DUP1 DUP3 GT ISZERO PUSH2 0x1DC1 JUMPI PUSH2 0x1DC0 PUSH2 0x1B6D JUMP JUMPDEST JUMPDEST SWAP3 SWAP2 POP POP JUMP JUMPDEST PUSH32 0x4E6F207265776172640000000000000000000000000000000000000000000000 PUSH0 DUP3 ADD MSTORE POP JUMP JUMPDEST PUSH0 PUSH2 0x1DFB PUSH1 0x9 DUP4 PUSH2 0x1974 JUMP JUMPDEST SWAP2 POP PUSH2 0x1E06 DUP3 PUSH2 0x1DC7 JUMP JUMPDEST PUSH1 0x20 DUP3 ADD SWAP1 POP SWAP2 SWAP1 POP JUMP JUMPDEST PUSH0 PUSH1 0x20 DUP3 ADD SWAP1 POP DUP2 DUP2 SUB PUSH0 DUP4 ADD MSTORE PUSH2 0x1E28 DUP2 PUSH2 0x1DEF JUMP JUMPDEST SWAP1 POP SWAP2 SWAP1 POP JUMP JUMPDEST PUSH32 0x526577617264207472616E73666572206661696C656400000000000000000000 PUSH0 DUP3 ADD MSTORE POP JUMP JUMPDEST PUSH0 PUSH2 0x1E63 PUSH1 0x16 DUP4 PUSH2 0x1974 JUMP JUMPDEST SWAP2 POP PUSH2 0x1E6E DUP3 PUSH2 0x1E2F JUMP JUMPDEST PUSH1 0x20 DUP3 ADD SWAP1 POP SWAP2 SWAP1 POP JUMP JUMPDEST PUSH0 PUSH1 0x20 DUP3 ADD SWAP1 POP DUP2 DUP2 SUB PUSH0 DUP4 ADD MSTORE PUSH2 0x1E90 DUP2 PUSH2 0x1E57 JUMP JUMPDEST SWAP1 POP SWAP2 SWAP1 POP JUMP JUMPDEST PUSH0 PUSH2 0x1EA1 DUP3 PUSH2 0x1727 JUMP JUMPDEST SWAP2 POP PUSH2 0x1EAC DUP4 PUSH2 0x1727 JUMP JUMPDEST SWAP3 POP DUP3 DUP3 MUL PUSH2 0x1EBA DUP2 PUSH2 0x1727 JUMP JUMPDEST SWAP2 POP DUP3 DUP3 DIV DUP5 EQ DUP4 ISZERO OR PUSH2 0x1ED1 JUMPI PUSH2 0x1ED0 PUSH2 0x1B6D JUMP JUMPDEST JUMPDEST POP SWAP3 SWAP2 POP POP JUMP JUMPDEST PUSH32 0x4E487B7100000000000000000000000000000000000000000000000000000000 PUSH0 MSTORE PUSH1 0x12 PUSH1 0x4 MSTORE PUSH1 0x24 PUSH0 REVERT JUMPDEST PUSH0 PUSH2 0x1F0F DUP3 PUSH2 0x1727 JUMP JUMPDEST SWAP2 POP PUSH2 0x1F1A DUP4 PUSH2 0x1727 JUMP JUMPDEST SWAP3 POP DUP3 PUSH2 0x1F2A JUMPI PUSH2 0x1F29 PUSH2 0x1ED8 JUMP JUMPDEST JUMPDEST DUP3 DUP3 DIV SWAP1 POP SWAP3 SWAP2 POP POP JUMP JUMPDEST PUSH32 0x5769746864726177206661696C65640000000000000000000000000000000000 PUSH0 DUP3 ADD MSTORE POP JUMP JUMPDEST PUSH0 PUSH2 0x1F69 PUSH1 0xF DUP4 PUSH2 0x1974 JUMP JUMPDEST SWAP2 POP PUSH2 0x1F74 DUP3 PUSH2 0x1F35 JUMP JUMPDEST PUSH1 0x20 DUP3 ADD SWAP1 POP SWAP2 SWAP1 POP JUMP JUMPDEST PUSH0 PUSH1 0x20 DUP3 ADD SWAP1 POP DUP2 DUP2 SUB PUSH0 DUP4 ADD MSTORE PUSH2 0x1F96 DUP2 PUSH2 0x1F5D JUMP JUMPDEST SWAP1 POP SWAP2 SWAP1 POP JUMP JUMPDEST PUSH32 0x5265656E7472616E637947756172643A207265656E7472616E742063616C6C00 PUSH0 DUP3 ADD MSTORE POP JUMP JUMPDEST PUSH0 PUSH2 0x1FD1 PUSH1 0x1F DUP4 PUSH2 0x1974 JUMP JUMPDEST SWAP2 POP PUSH2 0x1FDC DUP3 PUSH2 0x1F9D JUMP JUMPDEST PUSH1 0x20 DUP3 ADD SWAP1 POP SWAP2 SWAP1 POP JUMP JUMPDEST PUSH0 PUSH1 0x20 DUP3 ADD SWAP1 POP DUP2 DUP2 SUB PUSH0 DUP4 ADD MSTORE PUSH2 0x1FFE DUP2 PUSH2 0x1FC5 JUMP JUMPDEST SWAP1 POP SWAP2 SWAP1 POP JUMP JUMPDEST PUSH32 0x5061757361626C653A2070617573656400000000000000000000000000000000 PUSH0 DUP3 ADD MSTORE POP JUMP JUMPDEST PUSH0 PUSH2 0x2039 PUSH1 0x10 DUP4 PUSH2 0x1974 JUMP JUMPDEST SWAP2 POP PUSH2 0x2044 DUP3 PUSH2 0x2005 JUMP JUMPDEST PUSH1 0x20 DUP3 ADD SWAP1 POP SWAP2 SWAP1 POP JUMP JUMPDEST PUSH0 PUSH1 0x20 DUP3 ADD SWAP1 POP DUP2 DUP2 SUB PUSH0 DUP4 ADD MSTORE PUSH2 0x2066 DUP2 PUSH2 0x202D JUMP JUMPDEST SWAP1 POP SWAP2 SWAP1 POP JUMP JUMPDEST PUSH32 0x5061757361626C653A206E6F7420706175736564000000000000000000000000 PUSH0 DUP3 ADD MSTORE POP JUMP JUMPDEST PUSH0 PUSH2 0x20A1 PUSH1 0x14 DUP4 PUSH2 0x1974 JUMP JUMPDEST SWAP2 POP PUSH2 0x20AC DUP3 PUSH2 0x206D JUMP JUMPDEST PUSH1 0x20 DUP3 ADD SWAP1 POP SWAP2 SWAP1 POP JUMP JUMPDEST PUSH0 PUSH1 0x20 DUP3 ADD SWAP1 POP DUP2 DUP2 SUB PUSH0 DUP4 ADD MSTORE PUSH2 0x20CE DUP2 PUSH2 0x2095 JUMP JUMPDEST SWAP1 POP SWAP2 SWAP1 POP JUMP INVALID LOG2 PUSH5 0x6970667358 0x22 SLT KECCAK256 0xCF 0xC1 CALLDATASIZE 0xE0 0x4F SWAP12 MLOAD MOD SELFDESTRUCT BALANCE JUMP PUSH21 0x32F57FE72E06DF88178FBAABFEF09FD6A42BC0D464 PUSH20 0x6F6C634300081800330000000000000000000000 "
				},
				"gasEstimates": {
					"creation": {
						"codeDepositCost": "1691800",
						"executionCost": "infinite",
						"totalCost": "infinite"
					},
					"external": {
						"claimReward()": "infinite",
						"depositRewardTokens(uint256)": "infinite",
						"getAPR()": "infinite",
						"getPendingReward(address)": "infinite",
						"getTotalStaked()": "2478",
						"getUserStaked(address)": "2922",
						"nativeFee()": "2470",
						"owner()": "2648",
						"pause()": "infinite",
						"paused()": "2518",
						"renounceOwnership()": "infinite",
						"rewardRatioDenominator()": "2514",
						"rewardRatioNumerator()": "2491",
						"rewardToken()": "infinite",
						"setNativeFee(uint256)": "infinite",
						"setRewardRatio(uint256,uint256)": "infinite",
						"stake(uint256)": "infinite",
						"stakers(address)": "infinite",
						"stakingToken()": "infinite",
						"timeUnit()": "2537",
						"transferOwnership(address)": "infinite",
						"unpause()": "infinite",
						"unstake(uint256)": "infinite",
						"withdrawRewardTokens(uint256)": "infinite"
					},
					"internal": {
						"_calculateReward(address)": "infinite",
						"_claimReward(address)": "infinite"
					}
				},
				"methodIdentifiers": {
					"claimReward()": "b88a802f",
					"depositRewardTokens(uint256)": "16c621e0",
					"getAPR()": "c89d5b8b",
					"getPendingReward(address)": "4df9d6ba",
					"getTotalStaked()": "0917e776",
					"getUserStaked(address)": "dac3fc3f",
					"nativeFee()": "996f79c0",
					"owner()": "8da5cb5b",
					"pause()": "8456cb59",
					"paused()": "5c975abb",
					"renounceOwnership()": "715018a6",
					"rewardRatioDenominator()": "b5d90dc0",
					"rewardRatioNumerator()": "cc317f31",
					"rewardToken()": "f7c618c1",
					"setNativeFee(uint256)": "b91a1e8f",
					"setRewardRatio(uint256,uint256)": "001b7934",
					"stake(uint256)": "a694fc3a",
					"stakers(address)": "9168ae72",
					"stakingToken()": "72f702f3",
					"timeUnit()": "3c6a7f9b",
					"transferOwnership(address)": "f2fde38b",
					"unpause()": "3f4ba83a",
					"unstake(uint256)": "2e17de78",
					"withdrawRewardTokens(uint256)": "cb43b2dd"
				}
			},
			"storageLayout": {
				"storage": [
					{
						"astId": 112,
						"contract": "Contract Pools/NekoPools_flattened.sol:NekoPools",
						"label": "_owner",
						"offset": 0,
						"slot": "0",
						"type": "t_address"
					},
					{
						"astId": 261,
						"contract": "Contract Pools/NekoPools_flattened.sol:NekoPools",
						"label": "_status",
						"offset": 0,
						"slot": "1",
						"type": "t_uint256"
					},
					{
						"astId": 331,
						"contract": "Contract Pools/NekoPools_flattened.sol:NekoPools",
						"label": "_paused",
						"offset": 0,
						"slot": "2",
						"type": "t_bool"
					},
					{
						"astId": 436,
						"contract": "Contract Pools/NekoPools_flattened.sol:NekoPools",
						"label": "timeUnit",
						"offset": 0,
						"slot": "3",
						"type": "t_uint256"
					},
					{
						"astId": 438,
						"contract": "Contract Pools/NekoPools_flattened.sol:NekoPools",
						"label": "rewardRatioNumerator",
						"offset": 0,
						"slot": "4",
						"type": "t_uint256"
					},
					{
						"astId": 440,
						"contract": "Contract Pools/NekoPools_flattened.sol:NekoPools",
						"label": "rewardRatioDenominator",
						"offset": 0,
						"slot": "5",
						"type": "t_uint256"
					},
					{
						"astId": 442,
						"contract": "Contract Pools/NekoPools_flattened.sol:NekoPools",
						"label": "nativeFee",
						"offset": 0,
						"slot": "6",
						"type": "t_uint256"
					},
					{
						"astId": 444,
						"contract": "Contract Pools/NekoPools_flattened.sol:NekoPools",
						"label": "totalStaked",
						"offset": 0,
						"slot": "7",
						"type": "t_uint256"
					},
					{
						"astId": 456,
						"contract": "Contract Pools/NekoPools_flattened.sol:NekoPools",
						"label": "stakers",
						"offset": 0,
						"slot": "8",
						"type": "t_mapping(t_address,t_struct(Staker)451_storage)"
					}
				],
				"types": {
					"t_address": {
						"encoding": "inplace",
						"label": "address",
						"numberOfBytes": "20"
					},
					"t_bool": {
						"encoding": "inplace",
						"label": "bool",
						"numberOfBytes": "1"
					},
					"t_mapping(t_address,t_struct(Staker)451_storage)": {
						"encoding": "mapping",
						"key": "t_address",
						"label": "mapping(address => struct NekoPools.Staker)",
						"numberOfBytes": "32",
						"value": "t_struct(Staker)451_storage"
					},
					"t_struct(Staker)451_storage": {
						"encoding": "inplace",
						"label": "struct NekoPools.Staker",
						"members": [
							{
								"astId": 446,
								"contract": "Contract Pools/NekoPools_flattened.sol:NekoPools",
								"label": "amountStaked",
								"offset": 0,
								"slot": "0",
								"type": "t_uint256"
							},
							{
								"astId": 448,
								"contract": "Contract Pools/NekoPools_flattened.sol:NekoPools",
								"label": "lastClaimedTime",
								"offset": 0,
								"slot": "1",
								"type": "t_uint256"
							},
							{
								"astId": 450,
								"contract": "Contract Pools/NekoPools_flattened.sol:NekoPools",
								"label": "rewardDebt",
								"offset": 0,
								"slot": "2",
								"type": "t_uint256"
							}
						],
						"numberOfBytes": "96"
					},
					"t_uint256": {
						"encoding": "inplace",
						"label": "uint256",
						"numberOfBytes": "32"
					}
				}
			},
			"userdoc": {
				"kind": "user",
				"methods": {},
				"version": 1
			}
		}
	}
}