{
	"Contract Pools/NekoPools.sol": {
		"NekoPools": {
			"abi": [
				{
					"inputs": [
						{
							"internalType": "address",
							"name": "_stakingToken",
							"type": "address"
						},
						{
							"internalType": "address",
							"name": "_rewardToken",
							"type": "address"
						},
						{
							"internalType": "uint256",
							"name": "_timeUnit",
							"type": "uint256"
						},
						{
							"internalType": "uint256",
							"name": "_rewardRatioNumerator",
							"type": "uint256"
						},
						{
							"internalType": "uint256",
							"name": "_rewardRatioDenominator",
							"type": "uint256"
						},
						{
							"internalType": "uint256",
							"name": "_nativeFee",
							"type": "uint256"
						},
						{
							"internalType": "address",
							"name": "_owner",
							"type": "address"
						}
					],
					"stateMutability": "nonpayable",
					"type": "constructor"
				},
				{
					"inputs": [
						{
							"internalType": "address",
							"name": "owner",
							"type": "address"
						}
					],
					"name": "OwnableInvalidOwner",
					"type": "error"
				},
				{
					"inputs": [
						{
							"internalType": "address",
							"name": "account",
							"type": "address"
						}
					],
					"name": "OwnableUnauthorizedAccount",
					"type": "error"
				},
				{
					"anonymous": false,
					"inputs": [
						{
							"indexed": false,
							"internalType": "uint256",
							"name": "newFee",
							"type": "uint256"
						}
					],
					"name": "NativeFeeUpdated",
					"type": "event"
				},
				{
					"anonymous": false,
					"inputs": [
						{
							"indexed": true,
							"internalType": "address",
							"name": "previousOwner",
							"type": "address"
						},
						{
							"indexed": true,
							"internalType": "address",
							"name": "newOwner",
							"type": "address"
						}
					],
					"name": "OwnershipTransferred",
					"type": "event"
				},
				{
					"anonymous": false,
					"inputs": [
						{
							"indexed": false,
							"internalType": "address",
							"name": "account",
							"type": "address"
						}
					],
					"name": "Paused",
					"type": "event"
				},
				{
					"anonymous": false,
					"inputs": [
						{
							"indexed": true,
							"internalType": "address",
							"name": "user",
							"type": "address"
						},
						{
							"indexed": false,
							"internalType": "uint256",
							"name": "reward",
							"type": "uint256"
						}
					],
					"name": "RewardClaimed",
					"type": "event"
				},
				{
					"anonymous": false,
					"inputs": [
						{
							"indexed": false,
							"internalType": "uint256",
							"name": "numerator",
							"type": "uint256"
						},
						{
							"indexed": false,
							"internalType": "uint256",
							"name": "denominator",
							"type": "uint256"
						}
					],
					"name": "RewardRatioUpdated",
					"type": "event"
				},
				{
					"anonymous": false,
					"inputs": [
						{
							"indexed": true,
							"internalType": "address",
							"name": "owner",
							"type": "address"
						},
						{
							"indexed": false,
							"internalType": "uint256",
							"name": "amount",
							"type": "uint256"
						}
					],
					"name": "RewardTokenDeposited",
					"type": "event"
				},
				{
					"anonymous": false,
					"inputs": [
						{
							"indexed": true,
							"internalType": "address",
							"name": "owner",
							"type": "address"
						},
						{
							"indexed": false,
							"internalType": "uint256",
							"name": "amount",
							"type": "uint256"
						}
					],
					"name": "RewardTokenWithdrawn",
					"type": "event"
				},
				{
					"anonymous": false,
					"inputs": [
						{
							"indexed": true,
							"internalType": "address",
							"name": "user",
							"type": "address"
						},
						{
							"indexed": false,
							"internalType": "uint256",
							"name": "amount",
							"type": "uint256"
						}
					],
					"name": "Staked",
					"type": "event"
				},
				{
					"anonymous": false,
					"inputs": [
						{
							"indexed": false,
							"internalType": "address",
							"name": "account",
							"type": "address"
						}
					],
					"name": "Unpaused",
					"type": "event"
				},
				{
					"anonymous": false,
					"inputs": [
						{
							"indexed": true,
							"internalType": "address",
							"name": "user",
							"type": "address"
						},
						{
							"indexed": false,
							"internalType": "uint256",
							"name": "amount",
							"type": "uint256"
						}
					],
					"name": "Unstaked",
					"type": "event"
				},
				{
					"inputs": [],
					"name": "claimReward",
					"outputs": [],
					"stateMutability": "nonpayable",
					"type": "function"
				},
				{
					"inputs": [
						{
							"internalType": "uint256",
							"name": "amount",
							"type": "uint256"
						}
					],
					"name": "depositRewardTokens",
					"outputs": [],
					"stateMutability": "nonpayable",
					"type": "function"
				},
				{
					"inputs": [],
					"name": "getAPR",
					"outputs": [
						{
							"internalType": "uint256",
							"name": "",
							"type": "uint256"
						}
					],
					"stateMutability": "view",
					"type": "function"
				},
				{
					"inputs": [
						{
							"internalType": "address",
							"name": "user",
							"type": "address"
						}
					],
					"name": "getPendingReward",
					"outputs": [
						{
							"internalType": "uint256",
							"name": "",
							"type": "uint256"
						}
					],
					"stateMutability": "view",
					"type": "function"
				},
				{
					"inputs": [],
					"name": "getTotalStaked",
					"outputs": [
						{
							"internalType": "uint256",
							"name": "",
							"type": "uint256"
						}
					],
					"stateMutability": "view",
					"type": "function"
				},
				{
					"inputs": [
						{
							"internalType": "address",
							"name": "user",
							"type": "address"
						}
					],
					"name": "getUserStaked",
					"outputs": [
						{
							"internalType": "uint256",
							"name": "",
							"type": "uint256"
						}
					],
					"stateMutability": "view",
					"type": "function"
				},
				{
					"inputs": [],
					"name": "nativeFee",
					"outputs": [
						{
							"internalType": "uint256",
							"name": "",
							"type": "uint256"
						}
					],
					"stateMutability": "view",
					"type": "function"
				},
				{
					"inputs": [],
					"name": "owner",
					"outputs": [
						{
							"internalType": "address",
							"name": "",
							"type": "address"
						}
					],
					"stateMutability": "view",
					"type": "function"
				},
				{
					"inputs": [],
					"name": "pause",
					"outputs": [],
					"stateMutability": "nonpayable",
					"type": "function"
				},
				{
					"inputs": [],
					"name": "paused",
					"outputs": [
						{
							"internalType": "bool",
							"name": "",
							"type": "bool"
						}
					],
					"stateMutability": "view",
					"type": "function"
				},
				{
					"inputs": [],
					"name": "renounceOwnership",
					"outputs": [],
					"stateMutability": "nonpayable",
					"type": "function"
				},
				{
					"inputs": [],
					"name": "rewardRatioDenominator",
					"outputs": [
						{
							"internalType": "uint256",
							"name": "",
							"type": "uint256"
						}
					],
					"stateMutability": "view",
					"type": "function"
				},
				{
					"inputs": [],
					"name": "rewardRatioNumerator",
					"outputs": [
						{
							"internalType": "uint256",
							"name": "",
							"type": "uint256"
						}
					],
					"stateMutability": "view",
					"type": "function"
				},
				{
					"inputs": [],
					"name": "rewardToken",
					"outputs": [
						{
							"internalType": "contract IERC20",
							"name": "",
							"type": "address"
						}
					],
					"stateMutability": "view",
					"type": "function"
				},
				{
					"inputs": [
						{
							"internalType": "uint256",
							"name": "_nativeFee",
							"type": "uint256"
						}
					],
					"name": "setNativeFee",
					"outputs": [],
					"stateMutability": "nonpayable",
					"type": "function"
				},
				{
					"inputs": [
						{
							"internalType": "uint256",
							"name": "_numerator",
							"type": "uint256"
						},
						{
							"internalType": "uint256",
							"name": "_denominator",
							"type": "uint256"
						}
					],
					"name": "setRewardRatio",
					"outputs": [],
					"stateMutability": "nonpayable",
					"type": "function"
				},
				{
					"inputs": [
						{
							"internalType": "uint256",
							"name": "amount",
							"type": "uint256"
						}
					],
					"name": "stake",
					"outputs": [],
					"stateMutability": "payable",
					"type": "function"
				},
				{
					"inputs": [
						{
							"internalType": "address",
							"name": "",
							"type": "address"
						}
					],
					"name": "stakers",
					"outputs": [
						{
							"internalType": "uint256",
							"name": "amountStaked",
							"type": "uint256"
						},
						{
							"internalType": "uint256",
							"name": "lastClaimedTime",
							"type": "uint256"
						},
						{
							"internalType": "uint256",
							"name": "rewardDebt",
							"type": "uint256"
						}
					],
					"stateMutability": "view",
					"type": "function"
				},
				{
					"inputs": [],
					"name": "stakingToken",
					"outputs": [
						{
							"internalType": "contract IERC20",
							"name": "",
							"type": "address"
						}
					],
					"stateMutability": "view",
					"type": "function"
				},
				{
					"inputs": [],
					"name": "timeUnit",
					"outputs": [
						{
							"internalType": "uint256",
							"name": "",
							"type": "uint256"
						}
					],
					"stateMutability": "view",
					"type": "function"
				},
				{
					"inputs": [
						{
							"internalType": "address",
							"name": "newOwner",
							"type": "address"
						}
					],
					"name": "transferOwnership",
					"outputs": [],
					"stateMutability": "nonpayable",
					"type": "function"
				},
				{
					"inputs": [],
					"name": "unpause",
					"outputs": [],
					"stateMutability": "nonpayable",
					"type": "function"
				},
				{
					"inputs": [
						{
							"internalType": "uint256",
							"name": "amount",
							"type": "uint256"
						}
					],
					"name": "unstake",
					"outputs": [],
					"stateMutability": "nonpayable",
					"type": "function"
				},
				{
					"inputs": [
						{
							"internalType": "uint256",
							"name": "amount",
							"type": "uint256"
						}
					],
					"name": "withdrawRewardTokens",
					"outputs": [],
					"stateMutability": "nonpayable",
					"type": "function"
				},
				{
					"stateMutability": "payable",
					"type": "receive"
				}
			],
			"devdoc": {
				"errors": {
					"OwnableInvalidOwner(address)": [
						{
							"details": "The owner is not a valid owner account. (eg. `address(0)`)"
						}
					],
					"OwnableUnauthorizedAccount(address)": [
						{
							"details": "The caller account is not authorized to perform an operation."
						}
					]
				},
				"events": {
					"Paused(address)": {
						"details": "Emitted when the pause is triggered by `account`."
					},
					"Unpaused(address)": {
						"details": "Emitted when the pause is lifted by `account`."
					}
				},
				"kind": "dev",
				"methods": {
					"owner()": {
						"details": "Returns the address of the current owner."
					},
					"paused()": {
						"details": "Returns true if the contract is paused, and false otherwise."
					},
					"renounceOwnership()": {
						"details": "Leaves the contract without owner. It will not be possible to call `onlyOwner` functions. Can only be called by the current owner. NOTE: Renouncing ownership will leave the contract without an owner, thereby disabling any functionality that is only available to the owner."
					},
					"transferOwnership(address)": {
						"details": "Transfers ownership of the contract to a new account (`newOwner`). Can only be called by the current owner."
					}
				},
				"version": 1
			},
			"evm": {
				"assembly": "    /* \"Contract Pools/NekoPools.sol\":296:6248  contract NekoPools is Ownable, ReentrancyGuard, Pausable {... */\n  mstore(0x40, 0xc0)\n    /* \"Contract Pools/NekoPools.sol\":1250:2074  constructor(... */\n  callvalue\n  dup1\n  iszero\n  tag_1\n  jumpi\n  revert(0x00, 0x00)\ntag_1:\n  pop\n  mload(0x40)\n  sub(codesize, bytecodeSize)\n  dup1\n  bytecodeSize\n  dup4\n  codecopy\n  dup2\n  dup2\n  add\n  0x40\n  mstore\n  dup2\n  add\n  swap1\n  tag_2\n  swap2\n  swap1\n  tag_3\n  jump\t// in\ntag_2:\n    /* \"Contract Pools/NekoPools.sol\":1504:1510  _owner */\n  dup1\n    /* \"@openzeppelin/contracts/access/Ownable.sol\":1297:1298  0 */\n  0x00\n    /* \"@openzeppelin/contracts/access/Ownable.sol\":1273:1299  initialOwner == address(0) */\n  0xffffffffffffffffffffffffffffffffffffffff\n  and\n    /* \"@openzeppelin/contracts/access/Ownable.sol\":1273:1285  initialOwner */\n  dup2\n    /* \"@openzeppelin/contracts/access/Ownable.sol\":1273:1299  initialOwner == address(0) */\n  0xffffffffffffffffffffffffffffffffffffffff\n  and\n  sub\n    /* \"@openzeppelin/contracts/access/Ownable.sol\":1269:1364  if (initialOwner == address(0)) {... */\n  tag_9\n  jumpi\n    /* \"@openzeppelin/contracts/access/Ownable.sol\":1350:1351  0 */\n  0x00\n    /* \"@openzeppelin/contracts/access/Ownable.sol\":1322:1353  OwnableInvalidOwner(address(0)) */\n  mload(0x40)\n  0x1e4fbdf700000000000000000000000000000000000000000000000000000000\n  dup2\n  mstore\n  0x04\n  add\n  tag_10\n  swap2\n  swap1\n  tag_11\n  jump\t// in\ntag_10:\n  mload(0x40)\n  dup1\n  swap2\n  sub\n  swap1\n  revert\n    /* \"@openzeppelin/contracts/access/Ownable.sol\":1269:1364  if (initialOwner == address(0)) {... */\ntag_9:\n    /* \"@openzeppelin/contracts/access/Ownable.sol\":1373:1405  _transferOwnership(initialOwner) */\n  tag_12\n    /* \"@openzeppelin/contracts/access/Ownable.sol\":1392:1404  initialOwner */\n  dup2\n    /* \"@openzeppelin/contracts/access/Ownable.sol\":1373:1391  _transferOwnership */\n  shl(0x20, tag_13)\n    /* \"@openzeppelin/contracts/access/Ownable.sol\":1373:1405  _transferOwnership(initialOwner) */\n  0x20\n  shr\n  jump\t// in\ntag_12:\n    /* \"@openzeppelin/contracts/access/Ownable.sol\":1225:1412  constructor(address initialOwner) {... */\n  pop\n    /* \"@openzeppelin/contracts/security/ReentrancyGuard.sol\":1716:1717  1 */\n  0x01\n    /* \"@openzeppelin/contracts/security/ReentrancyGuard.sol\":1821:1828  _status */\n  dup1\n    /* \"@openzeppelin/contracts/security/ReentrancyGuard.sol\":1821:1843  _status = _NOT_ENTERED */\n  dup2\n  swap1\n  sstore\n  pop\n    /* \"@openzeppelin/contracts/security/Pausable.sol\":1006:1011  false */\n  0x00\n    /* \"@openzeppelin/contracts/security/Pausable.sol\":996:1003  _paused */\n  0x02\n  0x00\n    /* \"@openzeppelin/contracts/security/Pausable.sol\":996:1011  _paused = false */\n  0x0100\n  exp\n  dup2\n  sload\n  dup2\n  0xff\n  mul\n  not\n  and\n  swap1\n  dup4\n  iszero\n  iszero\n  mul\n  or\n  swap1\n  sstore\n  pop\n    /* \"Contract Pools/NekoPools.sol\":1556:1557  0 */\n  0x00\n    /* \"Contract Pools/NekoPools.sol\":1531:1558  _stakingToken != address(0) */\n  0xffffffffffffffffffffffffffffffffffffffff\n  and\n    /* \"Contract Pools/NekoPools.sol\":1531:1544  _stakingToken */\n  dup8\n    /* \"Contract Pools/NekoPools.sol\":1531:1558  _stakingToken != address(0) */\n  0xffffffffffffffffffffffffffffffffffffffff\n  and\n  sub\n    /* \"Contract Pools/NekoPools.sol\":1523:1589  require(_stakingToken != address(0), \"Staking token zero address\") */\n  tag_17\n  jumpi\n  mload(0x40)\n  0x08c379a000000000000000000000000000000000000000000000000000000000\n  dup2\n  mstore\n  0x04\n  add\n  tag_18\n  swap1\n  tag_19\n  jump\t// in\ntag_18:\n  mload(0x40)\n  dup1\n  swap2\n  sub\n  swap1\n  revert\ntag_17:\n    /* \"Contract Pools/NekoPools.sol\":1632:1633  0 */\n  0x00\n    /* \"Contract Pools/NekoPools.sol\":1608:1634  _rewardToken != address(0) */\n  0xffffffffffffffffffffffffffffffffffffffff\n  and\n    /* \"Contract Pools/NekoPools.sol\":1608:1620  _rewardToken */\n  dup7\n    /* \"Contract Pools/NekoPools.sol\":1608:1634  _rewardToken != address(0) */\n  0xffffffffffffffffffffffffffffffffffffffff\n  and\n  sub\n    /* \"Contract Pools/NekoPools.sol\":1600:1664  require(_rewardToken != address(0), \"Reward token zero address\") */\n  tag_20\n  jumpi\n  mload(0x40)\n  0x08c379a000000000000000000000000000000000000000000000000000000000\n  dup2\n  mstore\n  0x04\n  add\n  tag_21\n  swap1\n  tag_22\n  jump\t// in\ntag_21:\n  mload(0x40)\n  dup1\n  swap2\n  sub\n  swap1\n  revert\ntag_20:\n    /* \"Contract Pools/NekoPools.sol\":1695:1696  0 */\n  0x00\n    /* \"Contract Pools/NekoPools.sol\":1683:1692  _timeUnit */\n  dup6\n    /* \"Contract Pools/NekoPools.sol\":1683:1696  _timeUnit > 0 */\n  gt\n    /* \"Contract Pools/NekoPools.sol\":1675:1719  require(_timeUnit > 0, \"Time unit must > 0\") */\n  tag_23\n  jumpi\n  mload(0x40)\n  0x08c379a000000000000000000000000000000000000000000000000000000000\n  dup2\n  mstore\n  0x04\n  add\n  tag_24\n  swap1\n  tag_25\n  jump\t// in\ntag_24:\n  mload(0x40)\n  dup1\n  swap2\n  sub\n  swap1\n  revert\ntag_23:\n    /* \"Contract Pools/NekoPools.sol\":1764:1765  0 */\n  0x00\n    /* \"Contract Pools/NekoPools.sol\":1738:1761  _rewardRatioDenominator */\n  dup4\n    /* \"Contract Pools/NekoPools.sol\":1738:1765  _rewardRatioDenominator > 0 */\n  gt\n    /* \"Contract Pools/NekoPools.sol\":1730:1790  require(_rewardRatioDenominator > 0, \"Denominator must > 0\") */\n  tag_26\n  jumpi\n  mload(0x40)\n  0x08c379a000000000000000000000000000000000000000000000000000000000\n  dup2\n  mstore\n  0x04\n  add\n  tag_27\n  swap1\n  tag_28\n  jump\t// in\ntag_27:\n  mload(0x40)\n  dup1\n  swap2\n  sub\n  swap1\n  revert\ntag_26:\n    /* \"Contract Pools/NekoPools.sol\":1825:1838  _stakingToken */\n  dup7\n    /* \"Contract Pools/NekoPools.sol\":1803:1839  stakingToken = IERC20(_stakingToken) */\n  0xffffffffffffffffffffffffffffffffffffffff\n  and\n  0x80\n  dup2\n  0xffffffffffffffffffffffffffffffffffffffff\n  and\n  dup2\n  mstore\n  pop\n  pop\n    /* \"Contract Pools/NekoPools.sol\":1871:1883  _rewardToken */\n  dup6\n    /* \"Contract Pools/NekoPools.sol\":1850:1884  rewardToken = IERC20(_rewardToken) */\n  0xffffffffffffffffffffffffffffffffffffffff\n  and\n  0xa0\n  dup2\n  0xffffffffffffffffffffffffffffffffffffffff\n  and\n  dup2\n  mstore\n  pop\n  pop\n    /* \"Contract Pools/NekoPools.sol\":1908:1917  _timeUnit */\n  dup5\n    /* \"Contract Pools/NekoPools.sol\":1897:1905  timeUnit */\n  0x03\n    /* \"Contract Pools/NekoPools.sol\":1897:1917  timeUnit = _timeUnit */\n  dup2\n  swap1\n  sstore\n  pop\n    /* \"Contract Pools/NekoPools.sol\":1951:1972  _rewardRatioNumerator */\n  dup4\n    /* \"Contract Pools/NekoPools.sol\":1928:1948  rewardRatioNumerator */\n  0x04\n    /* \"Contract Pools/NekoPools.sol\":1928:1972  rewardRatioNumerator = _rewardRatioNumerator */\n  dup2\n  swap1\n  sstore\n  pop\n    /* \"Contract Pools/NekoPools.sol\":2008:2031  _rewardRatioDenominator */\n  dup3\n    /* \"Contract Pools/NekoPools.sol\":1983:2005  rewardRatioDenominator */\n  0x05\n    /* \"Contract Pools/NekoPools.sol\":1983:2031  rewardRatioDenominator = _rewardRatioDenominator */\n  dup2\n  swap1\n  sstore\n  pop\n    /* \"Contract Pools/NekoPools.sol\":2056:2066  _nativeFee */\n  dup2\n    /* \"Contract Pools/NekoPools.sol\":2044:2053  nativeFee */\n  0x06\n    /* \"Contract Pools/NekoPools.sol\":2044:2066  nativeFee = _nativeFee */\n  dup2\n  swap1\n  sstore\n  pop\n    /* \"Contract Pools/NekoPools.sol\":1250:2074  constructor(... */\n  pop\n  pop\n  pop\n  pop\n  pop\n  pop\n  pop\n    /* \"Contract Pools/NekoPools.sol\":296:6248  contract NekoPools is Ownable, ReentrancyGuard, Pausable {... */\n  jump(tag_29)\n    /* \"@openzeppelin/contracts/access/Ownable.sol\":2912:3099  function _transferOwnership(address newOwner) internal virtual {... */\ntag_13:\n    /* \"@openzeppelin/contracts/access/Ownable.sol\":2985:3001  address oldOwner */\n  0x00\n    /* \"@openzeppelin/contracts/access/Ownable.sol\":3004:3010  _owner */\n  0x00\n  0x00\n  swap1\n  sload\n  swap1\n  0x0100\n  exp\n  swap1\n  div\n  0xffffffffffffffffffffffffffffffffffffffff\n  and\n    /* \"@openzeppelin/contracts/access/Ownable.sol\":2985:3010  address oldOwner = _owner */\n  swap1\n  pop\n    /* \"@openzeppelin/contracts/access/Ownable.sol\":3029:3037  newOwner */\n  dup2\n    /* \"@openzeppelin/contracts/access/Ownable.sol\":3020:3026  _owner */\n  0x00\n  0x00\n    /* \"@openzeppelin/contracts/access/Ownable.sol\":3020:3037  _owner = newOwner */\n  0x0100\n  exp\n  dup2\n  sload\n  dup2\n  0xffffffffffffffffffffffffffffffffffffffff\n  mul\n  not\n  and\n  swap1\n  dup4\n  0xffffffffffffffffffffffffffffffffffffffff\n  and\n  mul\n  or\n  swap1\n  sstore\n  pop\n    /* \"@openzeppelin/contracts/access/Ownable.sol\":3083:3091  newOwner */\n  dup2\n    /* \"@openzeppelin/contracts/access/Ownable.sol\":3052:3092  OwnershipTransferred(oldOwner, newOwner) */\n  0xffffffffffffffffffffffffffffffffffffffff\n  and\n    /* \"@openzeppelin/contracts/access/Ownable.sol\":3073:3081  oldOwner */\n  dup2\n    /* \"@openzeppelin/contracts/access/Ownable.sol\":3052:3092  OwnershipTransferred(oldOwner, newOwner) */\n  0xffffffffffffffffffffffffffffffffffffffff\n  and\n  0x8be0079c531659141344cd1fd0a4f28419497f9722a3daafe3b4186f6b6457e0\n  mload(0x40)\n  mload(0x40)\n  dup1\n  swap2\n  sub\n  swap1\n  log3\n    /* \"@openzeppelin/contracts/access/Ownable.sol\":2975:3099  {... */\n  pop\n    /* \"@openzeppelin/contracts/access/Ownable.sol\":2912:3099  function _transferOwnership(address newOwner) internal virtual {... */\n  pop\n  jump\t// out\n    /* \"#utility.yul\":88:205   */\ntag_32:\n    /* \"#utility.yul\":197:198   */\n  0x00\n    /* \"#utility.yul\":194:195   */\n  0x00\n    /* \"#utility.yul\":187:199   */\n  revert\n    /* \"#utility.yul\":334:460   */\ntag_34:\n    /* \"#utility.yul\":371:378   */\n  0x00\n    /* \"#utility.yul\":411:453   */\n  0xffffffffffffffffffffffffffffffffffffffff\n    /* \"#utility.yul\":404:409   */\n  dup3\n    /* \"#utility.yul\":400:454   */\n  and\n    /* \"#utility.yul\":389:454   */\n  swap1\n  pop\n    /* \"#utility.yul\":334:460   */\n  swap2\n  swap1\n  pop\n  jump\t// out\n    /* \"#utility.yul\":466:562   */\ntag_35:\n    /* \"#utility.yul\":503:510   */\n  0x00\n    /* \"#utility.yul\":532:556   */\n  tag_57\n    /* \"#utility.yul\":550:555   */\n  dup3\n    /* \"#utility.yul\":532:556   */\n  tag_34\n  jump\t// in\ntag_57:\n    /* \"#utility.yul\":521:556   */\n  swap1\n  pop\n    /* \"#utility.yul\":466:562   */\n  swap2\n  swap1\n  pop\n  jump\t// out\n    /* \"#utility.yul\":568:690   */\ntag_36:\n    /* \"#utility.yul\":641:665   */\n  tag_59\n    /* \"#utility.yul\":659:664   */\n  dup2\n    /* \"#utility.yul\":641:665   */\n  tag_35\n  jump\t// in\ntag_59:\n    /* \"#utility.yul\":634:639   */\n  dup2\n    /* \"#utility.yul\":631:666   */\n  eq\n    /* \"#utility.yul\":621:684   */\n  tag_60\n  jumpi\n    /* \"#utility.yul\":680:681   */\n  0x00\n    /* \"#utility.yul\":677:678   */\n  0x00\n    /* \"#utility.yul\":670:682   */\n  revert\n    /* \"#utility.yul\":621:684   */\ntag_60:\n    /* \"#utility.yul\":568:690   */\n  pop\n  jump\t// out\n    /* \"#utility.yul\":696:839   */\ntag_37:\n    /* \"#utility.yul\":753:758   */\n  0x00\n    /* \"#utility.yul\":784:790   */\n  dup2\n    /* \"#utility.yul\":778:791   */\n  mload\n    /* \"#utility.yul\":769:791   */\n  swap1\n  pop\n    /* \"#utility.yul\":800:833   */\n  tag_62\n    /* \"#utility.yul\":827:832   */\n  dup2\n    /* \"#utility.yul\":800:833   */\n  tag_36\n  jump\t// in\ntag_62:\n    /* \"#utility.yul\":696:839   */\n  swap3\n  swap2\n  pop\n  pop\n  jump\t// out\n    /* \"#utility.yul\":845:922   */\ntag_38:\n    /* \"#utility.yul\":882:889   */\n  0x00\n    /* \"#utility.yul\":911:916   */\n  dup2\n    /* \"#utility.yul\":900:916   */\n  swap1\n  pop\n    /* \"#utility.yul\":845:922   */\n  swap2\n  swap1\n  pop\n  jump\t// out\n    /* \"#utility.yul\":928:1050   */\ntag_39:\n    /* \"#utility.yul\":1001:1025   */\n  tag_65\n    /* \"#utility.yul\":1019:1024   */\n  dup2\n    /* \"#utility.yul\":1001:1025   */\n  tag_38\n  jump\t// in\ntag_65:\n    /* \"#utility.yul\":994:999   */\n  dup2\n    /* \"#utility.yul\":991:1026   */\n  eq\n    /* \"#utility.yul\":981:1044   */\n  tag_66\n  jumpi\n    /* \"#utility.yul\":1040:1041   */\n  0x00\n    /* \"#utility.yul\":1037:1038   */\n  0x00\n    /* \"#utility.yul\":1030:1042   */\n  revert\n    /* \"#utility.yul\":981:1044   */\ntag_66:\n    /* \"#utility.yul\":928:1050   */\n  pop\n  jump\t// out\n    /* \"#utility.yul\":1056:1199   */\ntag_40:\n    /* \"#utility.yul\":1113:1118   */\n  0x00\n    /* \"#utility.yul\":1144:1150   */\n  dup2\n    /* \"#utility.yul\":1138:1151   */\n  mload\n    /* \"#utility.yul\":1129:1151   */\n  swap1\n  pop\n    /* \"#utility.yul\":1160:1193   */\n  tag_68\n    /* \"#utility.yul\":1187:1192   */\n  dup2\n    /* \"#utility.yul\":1160:1193   */\n  tag_39\n  jump\t// in\ntag_68:\n    /* \"#utility.yul\":1056:1199   */\n  swap3\n  swap2\n  pop\n  pop\n  jump\t// out\n    /* \"#utility.yul\":1205:2496   */\ntag_3:\n    /* \"#utility.yul\":1329:1335   */\n  0x00\n    /* \"#utility.yul\":1337:1343   */\n  0x00\n    /* \"#utility.yul\":1345:1351   */\n  0x00\n    /* \"#utility.yul\":1353:1359   */\n  0x00\n    /* \"#utility.yul\":1361:1367   */\n  0x00\n    /* \"#utility.yul\":1369:1375   */\n  0x00\n    /* \"#utility.yul\":1377:1383   */\n  0x00\n    /* \"#utility.yul\":1426:1429   */\n  0xe0\n    /* \"#utility.yul\":1414:1423   */\n  dup9\n    /* \"#utility.yul\":1405:1412   */\n  dup11\n    /* \"#utility.yul\":1401:1424   */\n  sub\n    /* \"#utility.yul\":1397:1430   */\n  slt\n    /* \"#utility.yul\":1394:1514   */\n  iszero\n  tag_70\n  jumpi\n    /* \"#utility.yul\":1433:1512   */\n  tag_71\n  tag_32\n  jump\t// in\ntag_71:\n    /* \"#utility.yul\":1394:1514   */\ntag_70:\n    /* \"#utility.yul\":1553:1554   */\n  0x00\n    /* \"#utility.yul\":1578:1642   */\n  tag_72\n    /* \"#utility.yul\":1634:1641   */\n  dup11\n    /* \"#utility.yul\":1625:1631   */\n  dup3\n    /* \"#utility.yul\":1614:1623   */\n  dup12\n    /* \"#utility.yul\":1610:1632   */\n  add\n    /* \"#utility.yul\":1578:1642   */\n  tag_37\n  jump\t// in\ntag_72:\n    /* \"#utility.yul\":1568:1642   */\n  swap8\n  pop\n    /* \"#utility.yul\":1524:1652   */\n  pop\n    /* \"#utility.yul\":1691:1693   */\n  0x20\n    /* \"#utility.yul\":1717:1781   */\n  tag_73\n    /* \"#utility.yul\":1773:1780   */\n  dup11\n    /* \"#utility.yul\":1764:1770   */\n  dup3\n    /* \"#utility.yul\":1753:1762   */\n  dup12\n    /* \"#utility.yul\":1749:1771   */\n  add\n    /* \"#utility.yul\":1717:1781   */\n  tag_37\n  jump\t// in\ntag_73:\n    /* \"#utility.yul\":1707:1781   */\n  swap7\n  pop\n    /* \"#utility.yul\":1662:1791   */\n  pop\n    /* \"#utility.yul\":1830:1832   */\n  0x40\n    /* \"#utility.yul\":1856:1920   */\n  tag_74\n    /* \"#utility.yul\":1912:1919   */\n  dup11\n    /* \"#utility.yul\":1903:1909   */\n  dup3\n    /* \"#utility.yul\":1892:1901   */\n  dup12\n    /* \"#utility.yul\":1888:1910   */\n  add\n    /* \"#utility.yul\":1856:1920   */\n  tag_40\n  jump\t// in\ntag_74:\n    /* \"#utility.yul\":1846:1920   */\n  swap6\n  pop\n    /* \"#utility.yul\":1801:1930   */\n  pop\n    /* \"#utility.yul\":1969:1971   */\n  0x60\n    /* \"#utility.yul\":1995:2059   */\n  tag_75\n    /* \"#utility.yul\":2051:2058   */\n  dup11\n    /* \"#utility.yul\":2042:2048   */\n  dup3\n    /* \"#utility.yul\":2031:2040   */\n  dup12\n    /* \"#utility.yul\":2027:2049   */\n  add\n    /* \"#utility.yul\":1995:2059   */\n  tag_40\n  jump\t// in\ntag_75:\n    /* \"#utility.yul\":1985:2059   */\n  swap5\n  pop\n    /* \"#utility.yul\":1940:2069   */\n  pop\n    /* \"#utility.yul\":2108:2111   */\n  0x80\n    /* \"#utility.yul\":2135:2199   */\n  tag_76\n    /* \"#utility.yul\":2191:2198   */\n  dup11\n    /* \"#utility.yul\":2182:2188   */\n  dup3\n    /* \"#utility.yul\":2171:2180   */\n  dup12\n    /* \"#utility.yul\":2167:2189   */\n  add\n    /* \"#utility.yul\":2135:2199   */\n  tag_40\n  jump\t// in\ntag_76:\n    /* \"#utility.yul\":2125:2199   */\n  swap4\n  pop\n    /* \"#utility.yul\":2079:2209   */\n  pop\n    /* \"#utility.yul\":2248:2251   */\n  0xa0\n    /* \"#utility.yul\":2275:2339   */\n  tag_77\n    /* \"#utility.yul\":2331:2338   */\n  dup11\n    /* \"#utility.yul\":2322:2328   */\n  dup3\n    /* \"#utility.yul\":2311:2320   */\n  dup12\n    /* \"#utility.yul\":2307:2329   */\n  add\n    /* \"#utility.yul\":2275:2339   */\n  tag_40\n  jump\t// in\ntag_77:\n    /* \"#utility.yul\":2265:2339   */\n  swap3\n  pop\n    /* \"#utility.yul\":2219:2349   */\n  pop\n    /* \"#utility.yul\":2388:2391   */\n  0xc0\n    /* \"#utility.yul\":2415:2479   */\n  tag_78\n    /* \"#utility.yul\":2471:2478   */\n  dup11\n    /* \"#utility.yul\":2462:2468   */\n  dup3\n    /* \"#utility.yul\":2451:2460   */\n  dup12\n    /* \"#utility.yul\":2447:2469   */\n  add\n    /* \"#utility.yul\":2415:2479   */\n  tag_37\n  jump\t// in\ntag_78:\n    /* \"#utility.yul\":2405:2479   */\n  swap2\n  pop\n    /* \"#utility.yul\":2359:2489   */\n  pop\n    /* \"#utility.yul\":1205:2496   */\n  swap3\n  swap6\n  swap9\n  swap2\n  swap5\n  swap8\n  pop\n  swap3\n  swap6\n  pop\n  jump\t// out\n    /* \"#utility.yul\":2502:2620   */\ntag_41:\n    /* \"#utility.yul\":2589:2613   */\n  tag_80\n    /* \"#utility.yul\":2607:2612   */\n  dup2\n    /* \"#utility.yul\":2589:2613   */\n  tag_35\n  jump\t// in\ntag_80:\n    /* \"#utility.yul\":2584:2587   */\n  dup3\n    /* \"#utility.yul\":2577:2614   */\n  mstore\n    /* \"#utility.yul\":2502:2620   */\n  pop\n  pop\n  jump\t// out\n    /* \"#utility.yul\":2626:2848   */\ntag_11:\n    /* \"#utility.yul\":2719:2723   */\n  0x00\n    /* \"#utility.yul\":2757:2759   */\n  0x20\n    /* \"#utility.yul\":2746:2755   */\n  dup3\n    /* \"#utility.yul\":2742:2760   */\n  add\n    /* \"#utility.yul\":2734:2760   */\n  swap1\n  pop\n    /* \"#utility.yul\":2770:2841   */\n  tag_82\n    /* \"#utility.yul\":2838:2839   */\n  0x00\n    /* \"#utility.yul\":2827:2836   */\n  dup4\n    /* \"#utility.yul\":2823:2840   */\n  add\n    /* \"#utility.yul\":2814:2820   */\n  dup5\n    /* \"#utility.yul\":2770:2841   */\n  tag_41\n  jump\t// in\ntag_82:\n    /* \"#utility.yul\":2626:2848   */\n  swap3\n  swap2\n  pop\n  pop\n  jump\t// out\n    /* \"#utility.yul\":2854:3023   */\ntag_42:\n    /* \"#utility.yul\":2938:2949   */\n  0x00\n    /* \"#utility.yul\":2972:2978   */\n  dup3\n    /* \"#utility.yul\":2967:2970   */\n  dup3\n    /* \"#utility.yul\":2960:2979   */\n  mstore\n    /* \"#utility.yul\":3012:3016   */\n  0x20\n    /* \"#utility.yul\":3007:3010   */\n  dup3\n    /* \"#utility.yul\":3003:3017   */\n  add\n    /* \"#utility.yul\":2988:3017   */\n  swap1\n  pop\n    /* \"#utility.yul\":2854:3023   */\n  swap3\n  swap2\n  pop\n  pop\n  jump\t// out\n    /* \"#utility.yul\":3029:3205   */\ntag_43:\n    /* \"#utility.yul\":3169:3197   */\n  0x5374616b696e6720746f6b656e207a65726f2061646472657373000000000000\n    /* \"#utility.yul\":3165:3166   */\n  0x00\n    /* \"#utility.yul\":3157:3163   */\n  dup3\n    /* \"#utility.yul\":3153:3167   */\n  add\n    /* \"#utility.yul\":3146:3198   */\n  mstore\n    /* \"#utility.yul\":3029:3205   */\n  pop\n  jump\t// out\n    /* \"#utility.yul\":3211:3577   */\ntag_44:\n    /* \"#utility.yul\":3353:3356   */\n  0x00\n    /* \"#utility.yul\":3374:3441   */\n  tag_86\n    /* \"#utility.yul\":3438:3440   */\n  0x1a\n    /* \"#utility.yul\":3433:3436   */\n  dup4\n    /* \"#utility.yul\":3374:3441   */\n  tag_42\n  jump\t// in\ntag_86:\n    /* \"#utility.yul\":3367:3441   */\n  swap2\n  pop\n    /* \"#utility.yul\":3450:3543   */\n  tag_87\n    /* \"#utility.yul\":3539:3542   */\n  dup3\n    /* \"#utility.yul\":3450:3543   */\n  tag_43\n  jump\t// in\ntag_87:\n    /* \"#utility.yul\":3568:3570   */\n  0x20\n    /* \"#utility.yul\":3563:3566   */\n  dup3\n    /* \"#utility.yul\":3559:3571   */\n  add\n    /* \"#utility.yul\":3552:3571   */\n  swap1\n  pop\n    /* \"#utility.yul\":3211:3577   */\n  swap2\n  swap1\n  pop\n  jump\t// out\n    /* \"#utility.yul\":3583:4002   */\ntag_19:\n    /* \"#utility.yul\":3749:3753   */\n  0x00\n    /* \"#utility.yul\":3787:3789   */\n  0x20\n    /* \"#utility.yul\":3776:3785   */\n  dup3\n    /* \"#utility.yul\":3772:3790   */\n  add\n    /* \"#utility.yul\":3764:3790   */\n  swap1\n  pop\n    /* \"#utility.yul\":3836:3845   */\n  dup2\n    /* \"#utility.yul\":3830:3834   */\n  dup2\n    /* \"#utility.yul\":3826:3846   */\n  sub\n    /* \"#utility.yul\":3822:3823   */\n  0x00\n    /* \"#utility.yul\":3811:3820   */\n  dup4\n    /* \"#utility.yul\":3807:3824   */\n  add\n    /* \"#utility.yul\":3800:3847   */\n  mstore\n    /* \"#utility.yul\":3864:3995   */\n  tag_89\n    /* \"#utility.yul\":3990:3994   */\n  dup2\n    /* \"#utility.yul\":3864:3995   */\n  tag_44\n  jump\t// in\ntag_89:\n    /* \"#utility.yul\":3856:3995   */\n  swap1\n  pop\n    /* \"#utility.yul\":3583:4002   */\n  swap2\n  swap1\n  pop\n  jump\t// out\n    /* \"#utility.yul\":4008:4183   */\ntag_45:\n    /* \"#utility.yul\":4148:4175   */\n  0x52657761726420746f6b656e207a65726f206164647265737300000000000000\n    /* \"#utility.yul\":4144:4145   */\n  0x00\n    /* \"#utility.yul\":4136:4142   */\n  dup3\n    /* \"#utility.yul\":4132:4146   */\n  add\n    /* \"#utility.yul\":4125:4176   */\n  mstore\n    /* \"#utility.yul\":4008:4183   */\n  pop\n  jump\t// out\n    /* \"#utility.yul\":4189:4555   */\ntag_46:\n    /* \"#utility.yul\":4331:4334   */\n  0x00\n    /* \"#utility.yul\":4352:4419   */\n  tag_92\n    /* \"#utility.yul\":4416:4418   */\n  0x19\n    /* \"#utility.yul\":4411:4414   */\n  dup4\n    /* \"#utility.yul\":4352:4419   */\n  tag_42\n  jump\t// in\ntag_92:\n    /* \"#utility.yul\":4345:4419   */\n  swap2\n  pop\n    /* \"#utility.yul\":4428:4521   */\n  tag_93\n    /* \"#utility.yul\":4517:4520   */\n  dup3\n    /* \"#utility.yul\":4428:4521   */\n  tag_45\n  jump\t// in\ntag_93:\n    /* \"#utility.yul\":4546:4548   */\n  0x20\n    /* \"#utility.yul\":4541:4544   */\n  dup3\n    /* \"#utility.yul\":4537:4549   */\n  add\n    /* \"#utility.yul\":4530:4549   */\n  swap1\n  pop\n    /* \"#utility.yul\":4189:4555   */\n  swap2\n  swap1\n  pop\n  jump\t// out\n    /* \"#utility.yul\":4561:4980   */\ntag_22:\n    /* \"#utility.yul\":4727:4731   */\n  0x00\n    /* \"#utility.yul\":4765:4767   */\n  0x20\n    /* \"#utility.yul\":4754:4763   */\n  dup3\n    /* \"#utility.yul\":4750:4768   */\n  add\n    /* \"#utility.yul\":4742:4768   */\n  swap1\n  pop\n    /* \"#utility.yul\":4814:4823   */\n  dup2\n    /* \"#utility.yul\":4808:4812   */\n  dup2\n    /* \"#utility.yul\":4804:4824   */\n  sub\n    /* \"#utility.yul\":4800:4801   */\n  0x00\n    /* \"#utility.yul\":4789:4798   */\n  dup4\n    /* \"#utility.yul\":4785:4802   */\n  add\n    /* \"#utility.yul\":4778:4825   */\n  mstore\n    /* \"#utility.yul\":4842:4973   */\n  tag_95\n    /* \"#utility.yul\":4968:4972   */\n  dup2\n    /* \"#utility.yul\":4842:4973   */\n  tag_46\n  jump\t// in\ntag_95:\n    /* \"#utility.yul\":4834:4973   */\n  swap1\n  pop\n    /* \"#utility.yul\":4561:4980   */\n  swap2\n  swap1\n  pop\n  jump\t// out\n    /* \"#utility.yul\":4986:5154   */\ntag_47:\n    /* \"#utility.yul\":5126:5146   */\n  0x54696d6520756e6974206d757374203e20300000000000000000000000000000\n    /* \"#utility.yul\":5122:5123   */\n  0x00\n    /* \"#utility.yul\":5114:5120   */\n  dup3\n    /* \"#utility.yul\":5110:5124   */\n  add\n    /* \"#utility.yul\":5103:5147   */\n  mstore\n    /* \"#utility.yul\":4986:5154   */\n  pop\n  jump\t// out\n    /* \"#utility.yul\":5160:5526   */\ntag_48:\n    /* \"#utility.yul\":5302:5305   */\n  0x00\n    /* \"#utility.yul\":5323:5390   */\n  tag_98\n    /* \"#utility.yul\":5387:5389   */\n  0x12\n    /* \"#utility.yul\":5382:5385   */\n  dup4\n    /* \"#utility.yul\":5323:5390   */\n  tag_42\n  jump\t// in\ntag_98:\n    /* \"#utility.yul\":5316:5390   */\n  swap2\n  pop\n    /* \"#utility.yul\":5399:5492   */\n  tag_99\n    /* \"#utility.yul\":5488:5491   */\n  dup3\n    /* \"#utility.yul\":5399:5492   */\n  tag_47\n  jump\t// in\ntag_99:\n    /* \"#utility.yul\":5517:5519   */\n  0x20\n    /* \"#utility.yul\":5512:5515   */\n  dup3\n    /* \"#utility.yul\":5508:5520   */\n  add\n    /* \"#utility.yul\":5501:5520   */\n  swap1\n  pop\n    /* \"#utility.yul\":5160:5526   */\n  swap2\n  swap1\n  pop\n  jump\t// out\n    /* \"#utility.yul\":5532:5951   */\ntag_25:\n    /* \"#utility.yul\":5698:5702   */\n  0x00\n    /* \"#utility.yul\":5736:5738   */\n  0x20\n    /* \"#utility.yul\":5725:5734   */\n  dup3\n    /* \"#utility.yul\":5721:5739   */\n  add\n    /* \"#utility.yul\":5713:5739   */\n  swap1\n  pop\n    /* \"#utility.yul\":5785:5794   */\n  dup2\n    /* \"#utility.yul\":5779:5783   */\n  dup2\n    /* \"#utility.yul\":5775:5795   */\n  sub\n    /* \"#utility.yul\":5771:5772   */\n  0x00\n    /* \"#utility.yul\":5760:5769   */\n  dup4\n    /* \"#utility.yul\":5756:5773   */\n  add\n    /* \"#utility.yul\":5749:5796   */\n  mstore\n    /* \"#utility.yul\":5813:5944   */\n  tag_101\n    /* \"#utility.yul\":5939:5943   */\n  dup2\n    /* \"#utility.yul\":5813:5944   */\n  tag_48\n  jump\t// in\ntag_101:\n    /* \"#utility.yul\":5805:5944   */\n  swap1\n  pop\n    /* \"#utility.yul\":5532:5951   */\n  swap2\n  swap1\n  pop\n  jump\t// out\n    /* \"#utility.yul\":5957:6127   */\ntag_49:\n    /* \"#utility.yul\":6097:6119   */\n  0x44656e6f6d696e61746f72206d757374203e2030000000000000000000000000\n    /* \"#utility.yul\":6093:6094   */\n  0x00\n    /* \"#utility.yul\":6085:6091   */\n  dup3\n    /* \"#utility.yul\":6081:6095   */\n  add\n    /* \"#utility.yul\":6074:6120   */\n  mstore\n    /* \"#utility.yul\":5957:6127   */\n  pop\n  jump\t// out\n    /* \"#utility.yul\":6133:6499   */\ntag_50:\n    /* \"#utility.yul\":6275:6278   */\n  0x00\n    /* \"#utility.yul\":6296:6363   */\n  tag_104\n    /* \"#utility.yul\":6360:6362   */\n  0x14\n    /* \"#utility.yul\":6355:6358   */\n  dup4\n    /* \"#utility.yul\":6296:6363   */\n  tag_42\n  jump\t// in\ntag_104:\n    /* \"#utility.yul\":6289:6363   */\n  swap2\n  pop\n    /* \"#utility.yul\":6372:6465   */\n  tag_105\n    /* \"#utility.yul\":6461:6464   */\n  dup3\n    /* \"#utility.yul\":6372:6465   */\n  tag_49\n  jump\t// in\ntag_105:\n    /* \"#utility.yul\":6490:6492   */\n  0x20\n    /* \"#utility.yul\":6485:6488   */\n  dup3\n    /* \"#utility.yul\":6481:6493   */\n  add\n    /* \"#utility.yul\":6474:6493   */\n  swap1\n  pop\n    /* \"#utility.yul\":6133:6499   */\n  swap2\n  swap1\n  pop\n  jump\t// out\n    /* \"#utility.yul\":6505:6924   */\ntag_28:\n    /* \"#utility.yul\":6671:6675   */\n  0x00\n    /* \"#utility.yul\":6709:6711   */\n  0x20\n    /* \"#utility.yul\":6698:6707   */\n  dup3\n    /* \"#utility.yul\":6694:6712   */\n  add\n    /* \"#utility.yul\":6686:6712   */\n  swap1\n  pop\n    /* \"#utility.yul\":6758:6767   */\n  dup2\n    /* \"#utility.yul\":6752:6756   */\n  dup2\n    /* \"#utility.yul\":6748:6768   */\n  sub\n    /* \"#utility.yul\":6744:6745   */\n  0x00\n    /* \"#utility.yul\":6733:6742   */\n  dup4\n    /* \"#utility.yul\":6729:6746   */\n  add\n    /* \"#utility.yul\":6722:6769   */\n  mstore\n    /* \"#utility.yul\":6786:6917   */\n  tag_107\n    /* \"#utility.yul\":6912:6916   */\n  dup2\n    /* \"#utility.yul\":6786:6917   */\n  tag_50\n  jump\t// in\ntag_107:\n    /* \"#utility.yul\":6778:6917   */\n  swap1\n  pop\n    /* \"#utility.yul\":6505:6924   */\n  swap2\n  swap1\n  pop\n  jump\t// out\n    /* \"Contract Pools/NekoPools.sol\":296:6248  contract NekoPools is Ownable, ReentrancyGuard, Pausable {... */\ntag_29:\n  mload(0x80)\n  mload(0xa0)\n  codecopy(0x00, dataOffset(sub_0), dataSize(sub_0))\n  0x00\n  assignImmutable(\"0x642f9650044f1ad0662a9bf5ce2162e5b9a42a081691e4a3ca3c4d4c08f161e6\")\n  0x00\n  assignImmutable(\"0x8ed60e0c3e3b3e9abdfc6ae2b228925817a38fb679d33ca0b7e5ad7dbf903343\")\n  return(0x00, dataSize(sub_0))\nstop\n\nsub_0: assembly {\n        /* \"Contract Pools/NekoPools.sol\":296:6248  contract NekoPools is Ownable, ReentrancyGuard, Pausable {... */\n      mstore(0x40, 0x80)\n      jumpi(tag_1, lt(calldatasize, 0x04))\n      shr(0xe0, calldataload(0x00))\n      dup1\n      0x9168ae72\n      gt\n      tag_27\n      jumpi\n      dup1\n      0xc89d5b8b\n      gt\n      tag_28\n      jumpi\n      dup1\n      0xc89d5b8b\n      eq\n      tag_21\n      jumpi\n      dup1\n      0xcb43b2dd\n      eq\n      tag_22\n      jumpi\n      dup1\n      0xcc317f31\n      eq\n      tag_23\n      jumpi\n      dup1\n      0xdac3fc3f\n      eq\n      tag_24\n      jumpi\n      dup1\n      0xf2fde38b\n      eq\n      tag_25\n      jumpi\n      dup1\n      0xf7c618c1\n      eq\n      tag_26\n      jumpi\n      jump(tag_2)\n    tag_28:\n      dup1\n      0x9168ae72\n      eq\n      tag_15\n      jumpi\n      dup1\n      0x996f79c0\n      eq\n      tag_16\n      jumpi\n      dup1\n      0xa694fc3a\n      eq\n      tag_17\n      jumpi\n      dup1\n      0xb5d90dc0\n      eq\n      tag_18\n      jumpi\n      dup1\n      0xb88a802f\n      eq\n      tag_19\n      jumpi\n      dup1\n      0xb91a1e8f\n      eq\n      tag_20\n      jumpi\n      jump(tag_2)\n    tag_27:\n      dup1\n      0x4df9d6ba\n      gt\n      tag_29\n      jumpi\n      dup1\n      0x4df9d6ba\n      eq\n      tag_9\n      jumpi\n      dup1\n      0x5c975abb\n      eq\n      tag_10\n      jumpi\n      dup1\n      0x715018a6\n      eq\n      tag_11\n      jumpi\n      dup1\n      0x72f702f3\n      eq\n      tag_12\n      jumpi\n      dup1\n      0x8456cb59\n      eq\n      tag_13\n      jumpi\n      dup1\n      0x8da5cb5b\n      eq\n      tag_14\n      jumpi\n      jump(tag_2)\n    tag_29:\n      dup1\n      0x1b7934\n      eq\n      tag_3\n      jumpi\n      dup1\n      0x0917e776\n      eq\n      tag_4\n      jumpi\n      dup1\n      0x16c621e0\n      eq\n      tag_5\n      jumpi\n      dup1\n      0x2e17de78\n      eq\n      tag_6\n      jumpi\n      dup1\n      0x3c6a7f9b\n      eq\n      tag_7\n      jumpi\n      dup1\n      0x3f4ba83a\n      eq\n      tag_8\n      jumpi\n      jump(tag_2)\n    tag_1:\n      jumpi(tag_2, calldatasize)\n      stop\n    tag_2:\n      revert(0x00, 0x00)\n        /* \"Contract Pools/NekoPools.sol\":2082:2387  function setRewardRatio(uint256 _numerator, uint256 _denominator) external onlyOwner {... */\n    tag_3:\n      callvalue\n      dup1\n      iszero\n      tag_32\n      jumpi\n      revert(0x00, 0x00)\n    tag_32:\n      pop\n      tag_33\n      0x04\n      dup1\n      calldatasize\n      sub\n      dup2\n      add\n      swap1\n      tag_34\n      swap2\n      swap1\n      tag_35\n      jump\t// in\n    tag_34:\n      tag_36\n      jump\t// in\n    tag_33:\n      stop\n        /* \"Contract Pools/NekoPools.sol\":5761:5856  function getTotalStaked() external view returns (uint256) {... */\n    tag_4:\n      callvalue\n      dup1\n      iszero\n      tag_37\n      jumpi\n      revert(0x00, 0x00)\n    tag_37:\n      pop\n      tag_38\n      tag_39\n      jump\t// in\n    tag_38:\n      mload(0x40)\n      tag_40\n      swap2\n      swap1\n      tag_41\n      jump\t// in\n    tag_40:\n      mload(0x40)\n      dup1\n      swap2\n      sub\n      swap1\n      return\n        /* \"Contract Pools/NekoPools.sol\":5055:5280  function depositRewardTokens(uint256 amount) external onlyOwner {... */\n    tag_5:\n      callvalue\n      dup1\n      iszero\n      tag_42\n      jumpi\n      revert(0x00, 0x00)\n    tag_42:\n      pop\n      tag_43\n      0x04\n      dup1\n      calldatasize\n      sub\n      dup2\n      add\n      swap1\n      tag_44\n      swap2\n      swap1\n      tag_45\n      jump\t// in\n    tag_44:\n      tag_46\n      jump\t// in\n    tag_43:\n      stop\n        /* \"Contract Pools/NekoPools.sol\":3324:3779  function unstake(uint256 amount) external nonReentrant whenNotPaused {... */\n    tag_6:\n      callvalue\n      dup1\n      iszero\n      tag_47\n      jumpi\n      revert(0x00, 0x00)\n    tag_47:\n      pop\n      tag_48\n      0x04\n      dup1\n      calldatasize\n      sub\n      dup2\n      add\n      swap1\n      tag_49\n      swap2\n      swap1\n      tag_45\n      jump\t// in\n    tag_49:\n      tag_50\n      jump\t// in\n    tag_48:\n      stop\n        /* \"Contract Pools/NekoPools.sol\":447:470  uint256 public timeUnit */\n    tag_7:\n      callvalue\n      dup1\n      iszero\n      tag_51\n      jumpi\n      revert(0x00, 0x00)\n    tag_51:\n      pop\n      tag_52\n      tag_53\n      jump\t// in\n    tag_52:\n      mload(0x40)\n      tag_54\n      swap2\n      swap1\n      tag_41\n      jump\t// in\n    tag_54:\n      mload(0x40)\n      dup1\n      swap2\n      sub\n      swap1\n      return\n        /* \"Contract Pools/NekoPools.sol\":2620:2687  function unpause() external onlyOwner {... */\n    tag_8:\n      callvalue\n      dup1\n      iszero\n      tag_55\n      jumpi\n      revert(0x00, 0x00)\n    tag_55:\n      pop\n      tag_56\n      tag_57\n      jump\t// in\n    tag_56:\n      stop\n        /* \"Contract Pools/NekoPools.sol\":5504:5624  function getPendingReward(address user) external view returns (uint256) {... */\n    tag_9:\n      callvalue\n      dup1\n      iszero\n      tag_58\n      jumpi\n      revert(0x00, 0x00)\n    tag_58:\n      pop\n      tag_59\n      0x04\n      dup1\n      calldatasize\n      sub\n      dup2\n      add\n      swap1\n      tag_60\n      swap2\n      swap1\n      tag_61\n      jump\t// in\n    tag_60:\n      tag_62\n      jump\t// in\n    tag_59:\n      mload(0x40)\n      tag_63\n      swap2\n      swap1\n      tag_41\n      jump\t// in\n    tag_63:\n      mload(0x40)\n      dup1\n      swap2\n      sub\n      swap1\n      return\n        /* \"@openzeppelin/contracts/security/Pausable.sol\":1615:1699  function paused() public view virtual returns (bool) {... */\n    tag_10:\n      callvalue\n      dup1\n      iszero\n      tag_64\n      jumpi\n      revert(0x00, 0x00)\n    tag_64:\n      pop\n      tag_65\n      tag_66\n      jump\t// in\n    tag_65:\n      mload(0x40)\n      tag_67\n      swap2\n      swap1\n      tag_68\n      jump\t// in\n    tag_67:\n      mload(0x40)\n      dup1\n      swap2\n      sub\n      swap1\n      return\n        /* \"@openzeppelin/contracts/access/Ownable.sol\":2293:2394  function renounceOwnership() public virtual onlyOwner {... */\n    tag_11:\n      callvalue\n      dup1\n      iszero\n      tag_69\n      jumpi\n      revert(0x00, 0x00)\n    tag_69:\n      pop\n      tag_70\n      tag_71\n      jump\t// in\n    tag_70:\n      stop\n        /* \"Contract Pools/NekoPools.sol\":360:396  IERC20 public immutable stakingToken */\n    tag_12:\n      callvalue\n      dup1\n      iszero\n      tag_72\n      jumpi\n      revert(0x00, 0x00)\n    tag_72:\n      pop\n      tag_73\n      tag_74\n      jump\t// in\n    tag_73:\n      mload(0x40)\n      tag_75\n      swap2\n      swap1\n      tag_76\n      jump\t// in\n    tag_75:\n      mload(0x40)\n      dup1\n      swap2\n      sub\n      swap1\n      return\n        /* \"Contract Pools/NekoPools.sol\":2549:2612  function pause() external onlyOwner {... */\n    tag_13:\n      callvalue\n      dup1\n      iszero\n      tag_77\n      jumpi\n      revert(0x00, 0x00)\n    tag_77:\n      pop\n      tag_78\n      tag_79\n      jump\t// in\n    tag_78:\n      stop\n        /* \"@openzeppelin/contracts/access/Ownable.sol\":1638:1723  function owner() public view virtual returns (address) {... */\n    tag_14:\n      callvalue\n      dup1\n      iszero\n      tag_80\n      jumpi\n      revert(0x00, 0x00)\n    tag_80:\n      pop\n      tag_81\n      tag_82\n      jump\t// in\n    tag_81:\n      mload(0x40)\n      tag_83\n      swap2\n      swap1\n      tag_84\n      jump\t// in\n    tag_83:\n      mload(0x40)\n      dup1\n      swap2\n      sub\n      swap1\n      return\n        /* \"Contract Pools/NekoPools.sol\":758:799  mapping(address => Staker) public stakers */\n    tag_15:\n      callvalue\n      dup1\n      iszero\n      tag_85\n      jumpi\n      revert(0x00, 0x00)\n    tag_85:\n      pop\n      tag_86\n      0x04\n      dup1\n      calldatasize\n      sub\n      dup2\n      add\n      swap1\n      tag_87\n      swap2\n      swap1\n      tag_61\n      jump\t// in\n    tag_87:\n      tag_88\n      jump\t// in\n    tag_86:\n      mload(0x40)\n      tag_89\n      swap4\n      swap3\n      swap2\n      swap1\n      tag_90\n      jump\t// in\n    tag_89:\n      mload(0x40)\n      dup1\n      swap2\n      sub\n      swap1\n      return\n        /* \"Contract Pools/NekoPools.sol\":565:589  uint256 public nativeFee */\n    tag_16:\n      callvalue\n      dup1\n      iszero\n      tag_91\n      jumpi\n      revert(0x00, 0x00)\n    tag_91:\n      pop\n      tag_92\n      tag_93\n      jump\t// in\n    tag_92:\n      mload(0x40)\n      tag_94\n      swap2\n      swap1\n      tag_41\n      jump\t// in\n    tag_94:\n      mload(0x40)\n      dup1\n      swap2\n      sub\n      swap1\n      return\n        /* \"Contract Pools/NekoPools.sol\":2695:3316  function stake(uint256 amount) external payable nonReentrant whenNotPaused {... */\n    tag_17:\n      tag_95\n      0x04\n      dup1\n      calldatasize\n      sub\n      dup2\n      add\n      swap1\n      tag_96\n      swap2\n      swap1\n      tag_45\n      jump\t// in\n    tag_96:\n      tag_97\n      jump\t// in\n    tag_95:\n      stop\n        /* \"Contract Pools/NekoPools.sol\":519:556  uint256 public rewardRatioDenominator */\n    tag_18:\n      callvalue\n      dup1\n      iszero\n      tag_98\n      jumpi\n      revert(0x00, 0x00)\n    tag_98:\n      pop\n      tag_99\n      tag_100\n      jump\t// in\n    tag_99:\n      mload(0x40)\n      tag_101\n      swap2\n      swap1\n      tag_41\n      jump\t// in\n    tag_101:\n      mload(0x40)\n      dup1\n      swap2\n      sub\n      swap1\n      return\n        /* \"Contract Pools/NekoPools.sol\":3787:4203  function claimReward() external nonReentrant whenNotPaused {... */\n    tag_19:\n      callvalue\n      dup1\n      iszero\n      tag_102\n      jumpi\n      revert(0x00, 0x00)\n    tag_102:\n      pop\n      tag_103\n      tag_104\n      jump\t// in\n    tag_103:\n      stop\n        /* \"Contract Pools/NekoPools.sol\":2395:2541  function setNativeFee(uint256 _nativeFee) external onlyOwner {... */\n    tag_20:\n      callvalue\n      dup1\n      iszero\n      tag_105\n      jumpi\n      revert(0x00, 0x00)\n    tag_105:\n      pop\n      tag_106\n      0x04\n      dup1\n      calldatasize\n      sub\n      dup2\n      add\n      swap1\n      tag_107\n      swap2\n      swap1\n      tag_45\n      jump\t// in\n    tag_107:\n      tag_108\n      jump\t// in\n    tag_106:\n      stop\n        /* \"Contract Pools/NekoPools.sol\":5864:6208  function getAPR() external view returns (uint256) {... */\n    tag_21:\n      callvalue\n      dup1\n      iszero\n      tag_109\n      jumpi\n      revert(0x00, 0x00)\n    tag_109:\n      pop\n      tag_110\n      tag_111\n      jump\t// in\n    tag_110:\n      mload(0x40)\n      tag_112\n      swap2\n      swap1\n      tag_41\n      jump\t// in\n    tag_112:\n      mload(0x40)\n      dup1\n      swap2\n      sub\n      swap1\n      return\n        /* \"Contract Pools/NekoPools.sol\":5288:5496  function withdrawRewardTokens(uint256 amount) external onlyOwner {... */\n    tag_22:\n      callvalue\n      dup1\n      iszero\n      tag_113\n      jumpi\n      revert(0x00, 0x00)\n    tag_113:\n      pop\n      tag_114\n      0x04\n      dup1\n      calldatasize\n      sub\n      dup2\n      add\n      swap1\n      tag_115\n      swap2\n      swap1\n      tag_45\n      jump\t// in\n    tag_115:\n      tag_116\n      jump\t// in\n    tag_114:\n      stop\n        /* \"Contract Pools/NekoPools.sol\":477:512  uint256 public rewardRatioNumerator */\n    tag_23:\n      callvalue\n      dup1\n      iszero\n      tag_117\n      jumpi\n      revert(0x00, 0x00)\n    tag_117:\n      pop\n      tag_118\n      tag_119\n      jump\t// in\n    tag_118:\n      mload(0x40)\n      tag_120\n      swap2\n      swap1\n      tag_41\n      jump\t// in\n    tag_120:\n      mload(0x40)\n      dup1\n      swap2\n      sub\n      swap1\n      return\n        /* \"Contract Pools/NekoPools.sol\":5632:5753  function getUserStaked(address user) external view returns (uint256) {... */\n    tag_24:\n      callvalue\n      dup1\n      iszero\n      tag_121\n      jumpi\n      revert(0x00, 0x00)\n    tag_121:\n      pop\n      tag_122\n      0x04\n      dup1\n      calldatasize\n      sub\n      dup2\n      add\n      swap1\n      tag_123\n      swap2\n      swap1\n      tag_61\n      jump\t// in\n    tag_123:\n      tag_124\n      jump\t// in\n    tag_122:\n      mload(0x40)\n      tag_125\n      swap2\n      swap1\n      tag_41\n      jump\t// in\n    tag_125:\n      mload(0x40)\n      dup1\n      swap2\n      sub\n      swap1\n      return\n        /* \"@openzeppelin/contracts/access/Ownable.sol\":2543:2758  function transferOwnership(address newOwner) public virtual onlyOwner {... */\n    tag_25:\n      callvalue\n      dup1\n      iszero\n      tag_126\n      jumpi\n      revert(0x00, 0x00)\n    tag_126:\n      pop\n      tag_127\n      0x04\n      dup1\n      calldatasize\n      sub\n      dup2\n      add\n      swap1\n      tag_128\n      swap2\n      swap1\n      tag_61\n      jump\t// in\n    tag_128:\n      tag_129\n      jump\t// in\n    tag_127:\n      stop\n        /* \"Contract Pools/NekoPools.sol\":403:438  IERC20 public immutable rewardToken */\n    tag_26:\n      callvalue\n      dup1\n      iszero\n      tag_130\n      jumpi\n      revert(0x00, 0x00)\n    tag_130:\n      pop\n      tag_131\n      tag_132\n      jump\t// in\n    tag_131:\n      mload(0x40)\n      tag_133\n      swap2\n      swap1\n      tag_76\n      jump\t// in\n    tag_133:\n      mload(0x40)\n      dup1\n      swap2\n      sub\n      swap1\n      return\n        /* \"Contract Pools/NekoPools.sol\":2082:2387  function setRewardRatio(uint256 _numerator, uint256 _denominator) external onlyOwner {... */\n    tag_36:\n        /* \"@openzeppelin/contracts/access/Ownable.sol\":1531:1544  _checkOwner() */\n      tag_135\n        /* \"@openzeppelin/contracts/access/Ownable.sol\":1531:1542  _checkOwner */\n      tag_136\n        /* \"@openzeppelin/contracts/access/Ownable.sol\":1531:1544  _checkOwner() */\n      jump\t// in\n    tag_135:\n        /* \"Contract Pools/NekoPools.sol\":2201:2202  0 */\n      0x00\n        /* \"Contract Pools/NekoPools.sol\":2186:2198  _denominator */\n      dup2\n        /* \"Contract Pools/NekoPools.sol\":2186:2202  _denominator > 0 */\n      gt\n        /* \"Contract Pools/NekoPools.sol\":2178:2227  require(_denominator > 0, \"Denominator must > 0\") */\n      tag_138\n      jumpi\n      mload(0x40)\n      0x08c379a000000000000000000000000000000000000000000000000000000000\n      dup2\n      mstore\n      0x04\n      add\n      tag_139\n      swap1\n      tag_140\n      jump\t// in\n    tag_139:\n      mload(0x40)\n      dup1\n      swap2\n      sub\n      swap1\n      revert\n    tag_138:\n        /* \"Contract Pools/NekoPools.sol\":2261:2271  _numerator */\n      dup2\n        /* \"Contract Pools/NekoPools.sol\":2238:2258  rewardRatioNumerator */\n      0x04\n        /* \"Contract Pools/NekoPools.sol\":2238:2271  rewardRatioNumerator = _numerator */\n      dup2\n      swap1\n      sstore\n      pop\n        /* \"Contract Pools/NekoPools.sol\":2307:2319  _denominator */\n      dup1\n        /* \"Contract Pools/NekoPools.sol\":2282:2304  rewardRatioDenominator */\n      0x05\n        /* \"Contract Pools/NekoPools.sol\":2282:2319  rewardRatioDenominator = _denominator */\n      dup2\n      swap1\n      sstore\n      pop\n        /* \"Contract Pools/NekoPools.sol\":2335:2379  RewardRatioUpdated(_numerator, _denominator) */\n      0x2cda5f90308a6ed0aad400f6ddc7575e31b5f1428c50c054ae54e1939ff164b8\n        /* \"Contract Pools/NekoPools.sol\":2354:2364  _numerator */\n      dup3\n        /* \"Contract Pools/NekoPools.sol\":2366:2378  _denominator */\n      dup3\n        /* \"Contract Pools/NekoPools.sol\":2335:2379  RewardRatioUpdated(_numerator, _denominator) */\n      mload(0x40)\n      tag_141\n      swap3\n      swap2\n      swap1\n      tag_142\n      jump\t// in\n    tag_141:\n      mload(0x40)\n      dup1\n      swap2\n      sub\n      swap1\n      log1\n        /* \"Contract Pools/NekoPools.sol\":2082:2387  function setRewardRatio(uint256 _numerator, uint256 _denominator) external onlyOwner {... */\n      pop\n      pop\n      jump\t// out\n        /* \"Contract Pools/NekoPools.sol\":5761:5856  function getTotalStaked() external view returns (uint256) {... */\n    tag_39:\n        /* \"Contract Pools/NekoPools.sol\":5810:5817  uint256 */\n      0x00\n        /* \"Contract Pools/NekoPools.sol\":5837:5848  totalStaked */\n      sload(0x07)\n        /* \"Contract Pools/NekoPools.sol\":5830:5848  return totalStaked */\n      swap1\n      pop\n        /* \"Contract Pools/NekoPools.sol\":5761:5856  function getTotalStaked() external view returns (uint256) {... */\n      swap1\n      jump\t// out\n        /* \"Contract Pools/NekoPools.sol\":5055:5280  function depositRewardTokens(uint256 amount) external onlyOwner {... */\n    tag_46:\n        /* \"@openzeppelin/contracts/access/Ownable.sol\":1531:1544  _checkOwner() */\n      tag_145\n        /* \"@openzeppelin/contracts/access/Ownable.sol\":1531:1542  _checkOwner */\n      tag_136\n        /* \"@openzeppelin/contracts/access/Ownable.sol\":1531:1544  _checkOwner() */\n      jump\t// in\n    tag_145:\n        /* \"Contract Pools/NekoPools.sol\":5138:5149  rewardToken */\n      immutable(\"0x642f9650044f1ad0662a9bf5ce2162e5b9a42a081691e4a3ca3c4d4c08f161e6\")\n        /* \"Contract Pools/NekoPools.sol\":5138:5162  rewardToken.transferFrom */\n      0xffffffffffffffffffffffffffffffffffffffff\n      and\n      0x23b872dd\n        /* \"Contract Pools/NekoPools.sol\":5163:5173  msg.sender */\n      caller\n        /* \"Contract Pools/NekoPools.sol\":5183:5187  this */\n      address\n        /* \"Contract Pools/NekoPools.sol\":5190:5196  amount */\n      dup5\n        /* \"Contract Pools/NekoPools.sol\":5138:5197  rewardToken.transferFrom(msg.sender, address(this), amount) */\n      mload(0x40)\n      dup5\n      0xffffffff\n      and\n      0xe0\n      shl\n      dup2\n      mstore\n      0x04\n      add\n      tag_147\n      swap4\n      swap3\n      swap2\n      swap1\n      tag_148\n      jump\t// in\n    tag_147:\n      0x20\n      mload(0x40)\n      dup1\n      dup4\n      sub\n      dup2\n      0x00\n      dup8\n      gas\n      call\n      iszero\n      dup1\n      iszero\n      tag_150\n      jumpi\n      returndatacopy(0x00, 0x00, returndatasize)\n      revert(0x00, returndatasize)\n    tag_150:\n      pop\n      pop\n      pop\n      pop\n      mload(0x40)\n      returndatasize\n      not(0x1f)\n      0x1f\n      dup3\n      add\n      and\n      dup3\n      add\n      dup1\n      0x40\n      mstore\n      pop\n      dup2\n      add\n      swap1\n      tag_151\n      swap2\n      swap1\n      tag_152\n      jump\t// in\n    tag_151:\n        /* \"Contract Pools/NekoPools.sol\":5130:5216  require(rewardToken.transferFrom(msg.sender, address(this), amount), \"Deposit failed\") */\n      tag_153\n      jumpi\n      mload(0x40)\n      0x08c379a000000000000000000000000000000000000000000000000000000000\n      dup2\n      mstore\n      0x04\n      add\n      tag_154\n      swap1\n      tag_155\n      jump\t// in\n    tag_154:\n      mload(0x40)\n      dup1\n      swap2\n      sub\n      swap1\n      revert\n    tag_153:\n        /* \"Contract Pools/NekoPools.sol\":5253:5263  msg.sender */\n      caller\n        /* \"Contract Pools/NekoPools.sol\":5232:5272  RewardTokenDeposited(msg.sender, amount) */\n      0xffffffffffffffffffffffffffffffffffffffff\n      and\n      0xac1f5f240b57fc014c4875ec0fa399f96ca891f85156ba195e6512ccd4ada548\n        /* \"Contract Pools/NekoPools.sol\":5265:5271  amount */\n      dup3\n        /* \"Contract Pools/NekoPools.sol\":5232:5272  RewardTokenDeposited(msg.sender, amount) */\n      mload(0x40)\n      tag_156\n      swap2\n      swap1\n      tag_41\n      jump\t// in\n    tag_156:\n      mload(0x40)\n      dup1\n      swap2\n      sub\n      swap1\n      log2\n        /* \"Contract Pools/NekoPools.sol\":5055:5280  function depositRewardTokens(uint256 amount) external onlyOwner {... */\n      pop\n      jump\t// out\n        /* \"Contract Pools/NekoPools.sol\":3324:3779  function unstake(uint256 amount) external nonReentrant whenNotPaused {... */\n    tag_50:\n        /* \"@openzeppelin/contracts/security/ReentrancyGuard.sol\":2261:2282  _nonReentrantBefore() */\n      tag_158\n        /* \"@openzeppelin/contracts/security/ReentrancyGuard.sol\":2261:2280  _nonReentrantBefore */\n      tag_159\n        /* \"@openzeppelin/contracts/security/ReentrancyGuard.sol\":2261:2282  _nonReentrantBefore() */\n      jump\t// in\n    tag_158:\n        /* \"@openzeppelin/contracts/security/Pausable.sol\":1239:1258  _requireNotPaused() */\n      tag_161\n        /* \"@openzeppelin/contracts/security/Pausable.sol\":1239:1256  _requireNotPaused */\n      tag_162\n        /* \"@openzeppelin/contracts/security/Pausable.sol\":1239:1258  _requireNotPaused() */\n      jump\t// in\n    tag_161:\n        /* \"Contract Pools/NekoPools.sol\":3404:3425  Staker storage staker */\n      0x00\n        /* \"Contract Pools/NekoPools.sol\":3428:3435  stakers */\n      0x08\n        /* \"Contract Pools/NekoPools.sol\":3428:3447  stakers[msg.sender] */\n      0x00\n        /* \"Contract Pools/NekoPools.sol\":3436:3446  msg.sender */\n      caller\n        /* \"Contract Pools/NekoPools.sol\":3428:3447  stakers[msg.sender] */\n      0xffffffffffffffffffffffffffffffffffffffff\n      and\n      0xffffffffffffffffffffffffffffffffffffffff\n      and\n      dup2\n      mstore\n      0x20\n      add\n      swap1\n      dup2\n      mstore\n      0x20\n      add\n      0x00\n      keccak256\n        /* \"Contract Pools/NekoPools.sol\":3404:3447  Staker storage staker = stakers[msg.sender] */\n      swap1\n      pop\n        /* \"Contract Pools/NekoPools.sol\":3489:3495  amount */\n      dup2\n        /* \"Contract Pools/NekoPools.sol\":3466:3472  staker */\n      dup2\n        /* \"Contract Pools/NekoPools.sol\":3466:3485  staker.amountStaked */\n      0x00\n      add\n      sload\n        /* \"Contract Pools/NekoPools.sol\":3466:3495  staker.amountStaked >= amount */\n      lt\n      iszero\n        /* \"Contract Pools/NekoPools.sol\":3458:3518  require(staker.amountStaked >= amount, \"Insufficient stake\") */\n      tag_164\n      jumpi\n      mload(0x40)\n      0x08c379a000000000000000000000000000000000000000000000000000000000\n      dup2\n      mstore\n      0x04\n      add\n      tag_165\n      swap1\n      tag_166\n      jump\t// in\n    tag_165:\n      mload(0x40)\n      dup1\n      swap2\n      sub\n      swap1\n      revert\n    tag_164:\n        /* \"Contract Pools/NekoPools.sol\":3531:3555  _claimReward(msg.sender) */\n      tag_167\n        /* \"Contract Pools/NekoPools.sol\":3544:3554  msg.sender */\n      caller\n        /* \"Contract Pools/NekoPools.sol\":3531:3543  _claimReward */\n      tag_168\n        /* \"Contract Pools/NekoPools.sol\":3531:3555  _claimReward(msg.sender) */\n      jump\t// in\n    tag_167:\n        /* \"Contract Pools/NekoPools.sol\":3591:3597  amount */\n      dup2\n        /* \"Contract Pools/NekoPools.sol\":3568:3574  staker */\n      dup2\n        /* \"Contract Pools/NekoPools.sol\":3568:3587  staker.amountStaked */\n      0x00\n      add\n      0x00\n        /* \"Contract Pools/NekoPools.sol\":3568:3597  staker.amountStaked -= amount */\n      dup3\n      dup3\n      sload\n      tag_169\n      swap2\n      swap1\n      tag_170\n      jump\t// in\n    tag_169:\n      swap3\n      pop\n      pop\n      dup2\n      swap1\n      sstore\n      pop\n        /* \"Contract Pools/NekoPools.sol\":3623:3629  amount */\n      dup2\n        /* \"Contract Pools/NekoPools.sol\":3608:3619  totalStaked */\n      0x07\n      0x00\n        /* \"Contract Pools/NekoPools.sol\":3608:3629  totalStaked -= amount */\n      dup3\n      dup3\n      sload\n      tag_171\n      swap2\n      swap1\n      tag_170\n      jump\t// in\n    tag_171:\n      swap3\n      pop\n      pop\n      dup2\n      swap1\n      sstore\n      pop\n        /* \"Contract Pools/NekoPools.sol\":3650:3662  stakingToken */\n      immutable(\"0x8ed60e0c3e3b3e9abdfc6ae2b228925817a38fb679d33ca0b7e5ad7dbf903343\")\n        /* \"Contract Pools/NekoPools.sol\":3650:3671  stakingToken.transfer */\n      0xffffffffffffffffffffffffffffffffffffffff\n      and\n      0xa9059cbb\n        /* \"Contract Pools/NekoPools.sol\":3672:3682  msg.sender */\n      caller\n        /* \"Contract Pools/NekoPools.sol\":3684:3690  amount */\n      dup5\n        /* \"Contract Pools/NekoPools.sol\":3650:3691  stakingToken.transfer(msg.sender, amount) */\n      mload(0x40)\n      dup4\n      0xffffffff\n      and\n      0xe0\n      shl\n      dup2\n      mstore\n      0x04\n      add\n      tag_172\n      swap3\n      swap2\n      swap1\n      tag_173\n      jump\t// in\n    tag_172:\n      0x20\n      mload(0x40)\n      dup1\n      dup4\n      sub\n      dup2\n      0x00\n      dup8\n      gas\n      call\n      iszero\n      dup1\n      iszero\n      tag_175\n      jumpi\n      returndatacopy(0x00, 0x00, returndatasize)\n      revert(0x00, returndatasize)\n    tag_175:\n      pop\n      pop\n      pop\n      pop\n      mload(0x40)\n      returndatasize\n      not(0x1f)\n      0x1f\n      dup3\n      add\n      and\n      dup3\n      add\n      dup1\n      0x40\n      mstore\n      pop\n      dup2\n      add\n      swap1\n      tag_176\n      swap2\n      swap1\n      tag_152\n      jump\t// in\n    tag_176:\n        /* \"Contract Pools/NekoPools.sol\":3642:3725  require(stakingToken.transfer(msg.sender, amount), \"Unstake token transfer failed\") */\n      tag_177\n      jumpi\n      mload(0x40)\n      0x08c379a000000000000000000000000000000000000000000000000000000000\n      dup2\n      mstore\n      0x04\n      add\n      tag_178\n      swap1\n      tag_179\n      jump\t// in\n    tag_178:\n      mload(0x40)\n      dup1\n      swap2\n      sub\n      swap1\n      revert\n    tag_177:\n        /* \"Contract Pools/NekoPools.sol\":3752:3762  msg.sender */\n      caller\n        /* \"Contract Pools/NekoPools.sol\":3743:3771  Unstaked(msg.sender, amount) */\n      0xffffffffffffffffffffffffffffffffffffffff\n      and\n      0x0f5bb82176feb1b5e747e28471aa92156a04d9f3ab9f45f28e2d704232b93f75\n        /* \"Contract Pools/NekoPools.sol\":3764:3770  amount */\n      dup4\n        /* \"Contract Pools/NekoPools.sol\":3743:3771  Unstaked(msg.sender, amount) */\n      mload(0x40)\n      tag_180\n      swap2\n      swap1\n      tag_41\n      jump\t// in\n    tag_180:\n      mload(0x40)\n      dup1\n      swap2\n      sub\n      swap1\n      log2\n        /* \"Contract Pools/NekoPools.sol\":3393:3779  {... */\n      pop\n        /* \"@openzeppelin/contracts/security/ReentrancyGuard.sol\":2303:2323  _nonReentrantAfter() */\n      tag_181\n        /* \"@openzeppelin/contracts/security/ReentrancyGuard.sol\":2303:2321  _nonReentrantAfter */\n      tag_182\n        /* \"@openzeppelin/contracts/security/ReentrancyGuard.sol\":2303:2323  _nonReentrantAfter() */\n      jump\t// in\n    tag_181:\n        /* \"Contract Pools/NekoPools.sol\":3324:3779  function unstake(uint256 amount) external nonReentrant whenNotPaused {... */\n      pop\n      jump\t// out\n        /* \"Contract Pools/NekoPools.sol\":447:470  uint256 public timeUnit */\n    tag_53:\n      sload(0x03)\n      dup2\n      jump\t// out\n        /* \"Contract Pools/NekoPools.sol\":2620:2687  function unpause() external onlyOwner {... */\n    tag_57:\n        /* \"@openzeppelin/contracts/access/Ownable.sol\":1531:1544  _checkOwner() */\n      tag_184\n        /* \"@openzeppelin/contracts/access/Ownable.sol\":1531:1542  _checkOwner */\n      tag_136\n        /* \"@openzeppelin/contracts/access/Ownable.sol\":1531:1544  _checkOwner() */\n      jump\t// in\n    tag_184:\n        /* \"Contract Pools/NekoPools.sol\":2669:2679  _unpause() */\n      tag_186\n        /* \"Contract Pools/NekoPools.sol\":2669:2677  _unpause */\n      tag_187\n        /* \"Contract Pools/NekoPools.sol\":2669:2679  _unpause() */\n      jump\t// in\n    tag_186:\n        /* \"Contract Pools/NekoPools.sol\":2620:2687  function unpause() external onlyOwner {... */\n      jump\t// out\n        /* \"Contract Pools/NekoPools.sol\":5504:5624  function getPendingReward(address user) external view returns (uint256) {... */\n    tag_62:\n        /* \"Contract Pools/NekoPools.sol\":5567:5574  uint256 */\n      0x00\n        /* \"Contract Pools/NekoPools.sol\":5594:5616  _calculateReward(user) */\n      tag_189\n        /* \"Contract Pools/NekoPools.sol\":5611:5615  user */\n      dup3\n        /* \"Contract Pools/NekoPools.sol\":5594:5610  _calculateReward */\n      tag_190\n        /* \"Contract Pools/NekoPools.sol\":5594:5616  _calculateReward(user) */\n      jump\t// in\n    tag_189:\n        /* \"Contract Pools/NekoPools.sol\":5587:5616  return _calculateReward(user) */\n      swap1\n      pop\n        /* \"Contract Pools/NekoPools.sol\":5504:5624  function getPendingReward(address user) external view returns (uint256) {... */\n      swap2\n      swap1\n      pop\n      jump\t// out\n        /* \"@openzeppelin/contracts/security/Pausable.sol\":1615:1699  function paused() public view virtual returns (bool) {... */\n    tag_66:\n        /* \"@openzeppelin/contracts/security/Pausable.sol\":1662:1666  bool */\n      0x00\n        /* \"@openzeppelin/contracts/security/Pausable.sol\":1685:1692  _paused */\n      0x02\n      0x00\n      swap1\n      sload\n      swap1\n      0x0100\n      exp\n      swap1\n      div\n      0xff\n      and\n        /* \"@openzeppelin/contracts/security/Pausable.sol\":1678:1692  return _paused */\n      swap1\n      pop\n        /* \"@openzeppelin/contracts/security/Pausable.sol\":1615:1699  function paused() public view virtual returns (bool) {... */\n      swap1\n      jump\t// out\n        /* \"@openzeppelin/contracts/access/Ownable.sol\":2293:2394  function renounceOwnership() public virtual onlyOwner {... */\n    tag_71:\n        /* \"@openzeppelin/contracts/access/Ownable.sol\":1531:1544  _checkOwner() */\n      tag_193\n        /* \"@openzeppelin/contracts/access/Ownable.sol\":1531:1542  _checkOwner */\n      tag_136\n        /* \"@openzeppelin/contracts/access/Ownable.sol\":1531:1544  _checkOwner() */\n      jump\t// in\n    tag_193:\n        /* \"@openzeppelin/contracts/access/Ownable.sol\":2357:2387  _transferOwnership(address(0)) */\n      tag_195\n        /* \"@openzeppelin/contracts/access/Ownable.sol\":2384:2385  0 */\n      0x00\n        /* \"@openzeppelin/contracts/access/Ownable.sol\":2357:2375  _transferOwnership */\n      tag_196\n        /* \"@openzeppelin/contracts/access/Ownable.sol\":2357:2387  _transferOwnership(address(0)) */\n      jump\t// in\n    tag_195:\n        /* \"@openzeppelin/contracts/access/Ownable.sol\":2293:2394  function renounceOwnership() public virtual onlyOwner {... */\n      jump\t// out\n        /* \"Contract Pools/NekoPools.sol\":360:396  IERC20 public immutable stakingToken */\n    tag_74:\n      immutable(\"0x8ed60e0c3e3b3e9abdfc6ae2b228925817a38fb679d33ca0b7e5ad7dbf903343\")\n      dup2\n      jump\t// out\n        /* \"Contract Pools/NekoPools.sol\":2549:2612  function pause() external onlyOwner {... */\n    tag_79:\n        /* \"@openzeppelin/contracts/access/Ownable.sol\":1531:1544  _checkOwner() */\n      tag_198\n        /* \"@openzeppelin/contracts/access/Ownable.sol\":1531:1542  _checkOwner */\n      tag_136\n        /* \"@openzeppelin/contracts/access/Ownable.sol\":1531:1544  _checkOwner() */\n      jump\t// in\n    tag_198:\n        /* \"Contract Pools/NekoPools.sol\":2596:2604  _pause() */\n      tag_200\n        /* \"Contract Pools/NekoPools.sol\":2596:2602  _pause */\n      tag_201\n        /* \"Contract Pools/NekoPools.sol\":2596:2604  _pause() */\n      jump\t// in\n    tag_200:\n        /* \"Contract Pools/NekoPools.sol\":2549:2612  function pause() external onlyOwner {... */\n      jump\t// out\n        /* \"@openzeppelin/contracts/access/Ownable.sol\":1638:1723  function owner() public view virtual returns (address) {... */\n    tag_82:\n        /* \"@openzeppelin/contracts/access/Ownable.sol\":1684:1691  address */\n      0x00\n        /* \"@openzeppelin/contracts/access/Ownable.sol\":1710:1716  _owner */\n      0x00\n      0x00\n      swap1\n      sload\n      swap1\n      0x0100\n      exp\n      swap1\n      div\n      0xffffffffffffffffffffffffffffffffffffffff\n      and\n        /* \"@openzeppelin/contracts/access/Ownable.sol\":1703:1716  return _owner */\n      swap1\n      pop\n        /* \"@openzeppelin/contracts/access/Ownable.sol\":1638:1723  function owner() public view virtual returns (address) {... */\n      swap1\n      jump\t// out\n        /* \"Contract Pools/NekoPools.sol\":758:799  mapping(address => Staker) public stakers */\n    tag_88:\n      mstore(0x20, 0x08)\n      dup1\n      0x00\n      mstore\n      keccak256(0x00, 0x40)\n      0x00\n      swap2\n      pop\n      swap1\n      pop\n      dup1\n      0x00\n      add\n      sload\n      swap1\n      dup1\n      0x01\n      add\n      sload\n      swap1\n      dup1\n      0x02\n      add\n      sload\n      swap1\n      pop\n      dup4\n      jump\t// out\n        /* \"Contract Pools/NekoPools.sol\":565:589  uint256 public nativeFee */\n    tag_93:\n      sload(0x06)\n      dup2\n      jump\t// out\n        /* \"Contract Pools/NekoPools.sol\":2695:3316  function stake(uint256 amount) external payable nonReentrant whenNotPaused {... */\n    tag_97:\n        /* \"@openzeppelin/contracts/security/ReentrancyGuard.sol\":2261:2282  _nonReentrantBefore() */\n      tag_204\n        /* \"@openzeppelin/contracts/security/ReentrancyGuard.sol\":2261:2280  _nonReentrantBefore */\n      tag_159\n        /* \"@openzeppelin/contracts/security/ReentrancyGuard.sol\":2261:2282  _nonReentrantBefore() */\n      jump\t// in\n    tag_204:\n        /* \"@openzeppelin/contracts/security/Pausable.sol\":1239:1258  _requireNotPaused() */\n      tag_206\n        /* \"@openzeppelin/contracts/security/Pausable.sol\":1239:1256  _requireNotPaused */\n      tag_162\n        /* \"@openzeppelin/contracts/security/Pausable.sol\":1239:1258  _requireNotPaused() */\n      jump\t// in\n    tag_206:\n        /* \"Contract Pools/NekoPools.sol\":2802:2811  nativeFee */\n      sload(0x06)\n        /* \"Contract Pools/NekoPools.sol\":2789:2798  msg.value */\n      callvalue\n        /* \"Contract Pools/NekoPools.sol\":2789:2811  msg.value >= nativeFee */\n      lt\n      iszero\n        /* \"Contract Pools/NekoPools.sol\":2781:2835  require(msg.value >= nativeFee, \"Must pay native fee\") */\n      tag_208\n      jumpi\n      mload(0x40)\n      0x08c379a000000000000000000000000000000000000000000000000000000000\n      dup2\n      mstore\n      0x04\n      add\n      tag_209\n      swap1\n      tag_210\n      jump\t// in\n    tag_209:\n      mload(0x40)\n      dup1\n      swap2\n      sub\n      swap1\n      revert\n    tag_208:\n        /* \"Contract Pools/NekoPools.sol\":2863:2864  0 */\n      0x00\n        /* \"Contract Pools/NekoPools.sol\":2854:2860  amount */\n      dup2\n        /* \"Contract Pools/NekoPools.sol\":2854:2864  amount > 0 */\n      gt\n        /* \"Contract Pools/NekoPools.sol\":2846:2884  require(amount > 0, \"Amount must > 0\") */\n      tag_211\n      jumpi\n      mload(0x40)\n      0x08c379a000000000000000000000000000000000000000000000000000000000\n      dup2\n      mstore\n      0x04\n      add\n      tag_212\n      swap1\n      tag_213\n      jump\t// in\n    tag_212:\n      mload(0x40)\n      dup1\n      swap2\n      sub\n      swap1\n      revert\n    tag_211:\n        /* \"Contract Pools/NekoPools.sol\":2905:2912  owner() */\n      tag_214\n        /* \"Contract Pools/NekoPools.sol\":2905:2910  owner */\n      tag_82\n        /* \"Contract Pools/NekoPools.sol\":2905:2912  owner() */\n      jump\t// in\n    tag_214:\n        /* \"Contract Pools/NekoPools.sol\":2897:2922  payable(owner()).transfer */\n      0xffffffffffffffffffffffffffffffffffffffff\n      and\n        /* \"Contract Pools/NekoPools.sol\":2897:2933  payable(owner()).transfer(nativeFee) */\n      0x08fc\n        /* \"Contract Pools/NekoPools.sol\":2923:2932  nativeFee */\n      sload(0x06)\n        /* \"Contract Pools/NekoPools.sol\":2897:2933  payable(owner()).transfer(nativeFee) */\n      swap1\n      dup2\n      iszero\n      mul\n      swap1\n      mload(0x40)\n      0x00\n      mload(0x40)\n      dup1\n      dup4\n      sub\n      dup2\n      dup6\n      dup9\n      dup9\n      call\n      swap4\n      pop\n      pop\n      pop\n      pop\n      iszero\n      dup1\n      iszero\n      tag_216\n      jumpi\n      returndatacopy(0x00, 0x00, returndatasize)\n      revert(0x00, returndatasize)\n    tag_216:\n      pop\n        /* \"Contract Pools/NekoPools.sol\":2946:2967  Staker storage staker */\n      0x00\n        /* \"Contract Pools/NekoPools.sol\":2970:2977  stakers */\n      0x08\n        /* \"Contract Pools/NekoPools.sol\":2970:2989  stakers[msg.sender] */\n      0x00\n        /* \"Contract Pools/NekoPools.sol\":2978:2988  msg.sender */\n      caller\n        /* \"Contract Pools/NekoPools.sol\":2970:2989  stakers[msg.sender] */\n      0xffffffffffffffffffffffffffffffffffffffff\n      and\n      0xffffffffffffffffffffffffffffffffffffffff\n      and\n      dup2\n      mstore\n      0x20\n      add\n      swap1\n      dup2\n      mstore\n      0x20\n      add\n      0x00\n      keccak256\n        /* \"Contract Pools/NekoPools.sol\":2946:2989  Staker storage staker = stakers[msg.sender] */\n      swap1\n      pop\n        /* \"Contract Pools/NekoPools.sol\":3000:3024  _claimReward(msg.sender) */\n      tag_217\n        /* \"Contract Pools/NekoPools.sol\":3013:3023  msg.sender */\n      caller\n        /* \"Contract Pools/NekoPools.sol\":3000:3012  _claimReward */\n      tag_168\n        /* \"Contract Pools/NekoPools.sol\":3000:3024  _claimReward(msg.sender) */\n      jump\t// in\n    tag_217:\n        /* \"Contract Pools/NekoPools.sol\":3045:3057  stakingToken */\n      immutable(\"0x8ed60e0c3e3b3e9abdfc6ae2b228925817a38fb679d33ca0b7e5ad7dbf903343\")\n        /* \"Contract Pools/NekoPools.sol\":3045:3070  stakingToken.transferFrom */\n      0xffffffffffffffffffffffffffffffffffffffff\n      and\n      0x23b872dd\n        /* \"Contract Pools/NekoPools.sol\":3071:3081  msg.sender */\n      caller\n        /* \"Contract Pools/NekoPools.sol\":3091:3095  this */\n      address\n        /* \"Contract Pools/NekoPools.sol\":3098:3104  amount */\n      dup6\n        /* \"Contract Pools/NekoPools.sol\":3045:3105  stakingToken.transferFrom(msg.sender, address(this), amount) */\n      mload(0x40)\n      dup5\n      0xffffffff\n      and\n      0xe0\n      shl\n      dup2\n      mstore\n      0x04\n      add\n      tag_218\n      swap4\n      swap3\n      swap2\n      swap1\n      tag_148\n      jump\t// in\n    tag_218:\n      0x20\n      mload(0x40)\n      dup1\n      dup4\n      sub\n      dup2\n      0x00\n      dup8\n      gas\n      call\n      iszero\n      dup1\n      iszero\n      tag_220\n      jumpi\n      returndatacopy(0x00, 0x00, returndatasize)\n      revert(0x00, returndatasize)\n    tag_220:\n      pop\n      pop\n      pop\n      pop\n      mload(0x40)\n      returndatasize\n      not(0x1f)\n      0x1f\n      dup3\n      add\n      and\n      dup3\n      add\n      dup1\n      0x40\n      mstore\n      pop\n      dup2\n      add\n      swap1\n      tag_221\n      swap2\n      swap1\n      tag_152\n      jump\t// in\n    tag_221:\n        /* \"Contract Pools/NekoPools.sol\":3037:3137  require(stakingToken.transferFrom(msg.sender, address(this), amount), \"Stake token transfer failed\") */\n      tag_222\n      jumpi\n      mload(0x40)\n      0x08c379a000000000000000000000000000000000000000000000000000000000\n      dup2\n      mstore\n      0x04\n      add\n      tag_223\n      swap1\n      tag_224\n      jump\t// in\n    tag_223:\n      mload(0x40)\n      dup1\n      swap2\n      sub\n      swap1\n      revert\n    tag_222:\n        /* \"Contract Pools/NekoPools.sol\":3173:3179  amount */\n      dup2\n        /* \"Contract Pools/NekoPools.sol\":3150:3156  staker */\n      dup2\n        /* \"Contract Pools/NekoPools.sol\":3150:3169  staker.amountStaked */\n      0x00\n      add\n      0x00\n        /* \"Contract Pools/NekoPools.sol\":3150:3179  staker.amountStaked += amount */\n      dup3\n      dup3\n      sload\n      tag_225\n      swap2\n      swap1\n      tag_226\n      jump\t// in\n    tag_225:\n      swap3\n      pop\n      pop\n      dup2\n      swap1\n      sstore\n      pop\n        /* \"Contract Pools/NekoPools.sol\":3215:3230  block.timestamp */\n      timestamp\n        /* \"Contract Pools/NekoPools.sol\":3190:3196  staker */\n      dup2\n        /* \"Contract Pools/NekoPools.sol\":3190:3212  staker.lastClaimedTime */\n      0x01\n      add\n        /* \"Contract Pools/NekoPools.sol\":3190:3230  staker.lastClaimedTime = block.timestamp */\n      dup2\n      swap1\n      sstore\n      pop\n        /* \"Contract Pools/NekoPools.sol\":3258:3264  amount */\n      dup2\n        /* \"Contract Pools/NekoPools.sol\":3243:3254  totalStaked */\n      0x07\n      0x00\n        /* \"Contract Pools/NekoPools.sol\":3243:3264  totalStaked += amount */\n      dup3\n      dup3\n      sload\n      tag_227\n      swap2\n      swap1\n      tag_226\n      jump\t// in\n    tag_227:\n      swap3\n      pop\n      pop\n      dup2\n      swap1\n      sstore\n      pop\n        /* \"Contract Pools/NekoPools.sol\":3289:3299  msg.sender */\n      caller\n        /* \"Contract Pools/NekoPools.sol\":3282:3308  Staked(msg.sender, amount) */\n      0xffffffffffffffffffffffffffffffffffffffff\n      and\n      0x9e71bc8eea02a63969f509818f2dafb9254532904319f9dbda79b67bd34a5f3d\n        /* \"Contract Pools/NekoPools.sol\":3301:3307  amount */\n      dup4\n        /* \"Contract Pools/NekoPools.sol\":3282:3308  Staked(msg.sender, amount) */\n      mload(0x40)\n      tag_228\n      swap2\n      swap1\n      tag_41\n      jump\t// in\n    tag_228:\n      mload(0x40)\n      dup1\n      swap2\n      sub\n      swap1\n      log2\n        /* \"Contract Pools/NekoPools.sol\":2770:3316  {... */\n      pop\n        /* \"@openzeppelin/contracts/security/ReentrancyGuard.sol\":2303:2323  _nonReentrantAfter() */\n      tag_229\n        /* \"@openzeppelin/contracts/security/ReentrancyGuard.sol\":2303:2321  _nonReentrantAfter */\n      tag_182\n        /* \"@openzeppelin/contracts/security/ReentrancyGuard.sol\":2303:2323  _nonReentrantAfter() */\n      jump\t// in\n    tag_229:\n        /* \"Contract Pools/NekoPools.sol\":2695:3316  function stake(uint256 amount) external payable nonReentrant whenNotPaused {... */\n      pop\n      jump\t// out\n        /* \"Contract Pools/NekoPools.sol\":519:556  uint256 public rewardRatioDenominator */\n    tag_100:\n      sload(0x05)\n      dup2\n      jump\t// out\n        /* \"Contract Pools/NekoPools.sol\":3787:4203  function claimReward() external nonReentrant whenNotPaused {... */\n    tag_104:\n        /* \"@openzeppelin/contracts/security/ReentrancyGuard.sol\":2261:2282  _nonReentrantBefore() */\n      tag_231\n        /* \"@openzeppelin/contracts/security/ReentrancyGuard.sol\":2261:2280  _nonReentrantBefore */\n      tag_159\n        /* \"@openzeppelin/contracts/security/ReentrancyGuard.sol\":2261:2282  _nonReentrantBefore() */\n      jump\t// in\n    tag_231:\n        /* \"@openzeppelin/contracts/security/Pausable.sol\":1239:1258  _requireNotPaused() */\n      tag_233\n        /* \"@openzeppelin/contracts/security/Pausable.sol\":1239:1256  _requireNotPaused */\n      tag_162\n        /* \"@openzeppelin/contracts/security/Pausable.sol\":1239:1258  _requireNotPaused() */\n      jump\t// in\n    tag_233:\n        /* \"Contract Pools/NekoPools.sol\":3857:3871  uint256 reward */\n      0x00\n        /* \"Contract Pools/NekoPools.sol\":3874:3902  _calculateReward(msg.sender) */\n      tag_235\n        /* \"Contract Pools/NekoPools.sol\":3891:3901  msg.sender */\n      caller\n        /* \"Contract Pools/NekoPools.sol\":3874:3890  _calculateReward */\n      tag_190\n        /* \"Contract Pools/NekoPools.sol\":3874:3902  _calculateReward(msg.sender) */\n      jump\t// in\n    tag_235:\n        /* \"Contract Pools/NekoPools.sol\":3857:3902  uint256 reward = _calculateReward(msg.sender) */\n      swap1\n      pop\n        /* \"Contract Pools/NekoPools.sol\":3930:3931  0 */\n      0x00\n        /* \"Contract Pools/NekoPools.sol\":3921:3927  reward */\n      dup2\n        /* \"Contract Pools/NekoPools.sol\":3921:3931  reward > 0 */\n      gt\n        /* \"Contract Pools/NekoPools.sol\":3913:3945  require(reward > 0, \"No reward\") */\n      tag_236\n      jumpi\n      mload(0x40)\n      0x08c379a000000000000000000000000000000000000000000000000000000000\n      dup2\n      mstore\n      0x04\n      add\n      tag_237\n      swap1\n      tag_238\n      jump\t// in\n    tag_237:\n      mload(0x40)\n      dup1\n      swap2\n      sub\n      swap1\n      revert\n    tag_236:\n        /* \"Contract Pools/NekoPools.sol\":3996:4011  block.timestamp */\n      timestamp\n        /* \"Contract Pools/NekoPools.sol\":3958:3965  stakers */\n      0x08\n        /* \"Contract Pools/NekoPools.sol\":3958:3977  stakers[msg.sender] */\n      0x00\n        /* \"Contract Pools/NekoPools.sol\":3966:3976  msg.sender */\n      caller\n        /* \"Contract Pools/NekoPools.sol\":3958:3977  stakers[msg.sender] */\n      0xffffffffffffffffffffffffffffffffffffffff\n      and\n      0xffffffffffffffffffffffffffffffffffffffff\n      and\n      dup2\n      mstore\n      0x20\n      add\n      swap1\n      dup2\n      mstore\n      0x20\n      add\n      0x00\n      keccak256\n        /* \"Contract Pools/NekoPools.sol\":3958:3993  stakers[msg.sender].lastClaimedTime */\n      0x01\n      add\n        /* \"Contract Pools/NekoPools.sol\":3958:4011  stakers[msg.sender].lastClaimedTime = block.timestamp */\n      dup2\n      swap1\n      sstore\n      pop\n        /* \"Contract Pools/NekoPools.sol\":4055:4056  0 */\n      0x00\n        /* \"Contract Pools/NekoPools.sol\":4022:4029  stakers */\n      0x08\n        /* \"Contract Pools/NekoPools.sol\":4022:4041  stakers[msg.sender] */\n      0x00\n        /* \"Contract Pools/NekoPools.sol\":4030:4040  msg.sender */\n      caller\n        /* \"Contract Pools/NekoPools.sol\":4022:4041  stakers[msg.sender] */\n      0xffffffffffffffffffffffffffffffffffffffff\n      and\n      0xffffffffffffffffffffffffffffffffffffffff\n      and\n      dup2\n      mstore\n      0x20\n      add\n      swap1\n      dup2\n      mstore\n      0x20\n      add\n      0x00\n      keccak256\n        /* \"Contract Pools/NekoPools.sol\":4022:4052  stakers[msg.sender].rewardDebt */\n      0x02\n      add\n        /* \"Contract Pools/NekoPools.sol\":4022:4056  stakers[msg.sender].rewardDebt = 0 */\n      dup2\n      swap1\n      sstore\n      pop\n        /* \"Contract Pools/NekoPools.sol\":4077:4088  rewardToken */\n      immutable(\"0x642f9650044f1ad0662a9bf5ce2162e5b9a42a081691e4a3ca3c4d4c08f161e6\")\n        /* \"Contract Pools/NekoPools.sol\":4077:4097  rewardToken.transfer */\n      0xffffffffffffffffffffffffffffffffffffffff\n      and\n      0xa9059cbb\n        /* \"Contract Pools/NekoPools.sol\":4098:4108  msg.sender */\n      caller\n        /* \"Contract Pools/NekoPools.sol\":4110:4116  reward */\n      dup4\n        /* \"Contract Pools/NekoPools.sol\":4077:4117  rewardToken.transfer(msg.sender, reward) */\n      mload(0x40)\n      dup4\n      0xffffffff\n      and\n      0xe0\n      shl\n      dup2\n      mstore\n      0x04\n      add\n      tag_239\n      swap3\n      swap2\n      swap1\n      tag_173\n      jump\t// in\n    tag_239:\n      0x20\n      mload(0x40)\n      dup1\n      dup4\n      sub\n      dup2\n      0x00\n      dup8\n      gas\n      call\n      iszero\n      dup1\n      iszero\n      tag_241\n      jumpi\n      returndatacopy(0x00, 0x00, returndatasize)\n      revert(0x00, returndatasize)\n    tag_241:\n      pop\n      pop\n      pop\n      pop\n      mload(0x40)\n      returndatasize\n      not(0x1f)\n      0x1f\n      dup3\n      add\n      and\n      dup3\n      add\n      dup1\n      0x40\n      mstore\n      pop\n      dup2\n      add\n      swap1\n      tag_242\n      swap2\n      swap1\n      tag_152\n      jump\t// in\n    tag_242:\n        /* \"Contract Pools/NekoPools.sol\":4069:4144  require(rewardToken.transfer(msg.sender, reward), \"Reward transfer failed\") */\n      tag_243\n      jumpi\n      mload(0x40)\n      0x08c379a000000000000000000000000000000000000000000000000000000000\n      dup2\n      mstore\n      0x04\n      add\n      tag_244\n      swap1\n      tag_245\n      jump\t// in\n    tag_244:\n      mload(0x40)\n      dup1\n      swap2\n      sub\n      swap1\n      revert\n    tag_243:\n        /* \"Contract Pools/NekoPools.sol\":4176:4186  msg.sender */\n      caller\n        /* \"Contract Pools/NekoPools.sol\":4162:4195  RewardClaimed(msg.sender, reward) */\n      0xffffffffffffffffffffffffffffffffffffffff\n      and\n      0x106f923f993c2149d49b4255ff723acafa1f2d94393f561d3eda32ae348f7241\n        /* \"Contract Pools/NekoPools.sol\":4188:4194  reward */\n      dup3\n        /* \"Contract Pools/NekoPools.sol\":4162:4195  RewardClaimed(msg.sender, reward) */\n      mload(0x40)\n      tag_246\n      swap2\n      swap1\n      tag_41\n      jump\t// in\n    tag_246:\n      mload(0x40)\n      dup1\n      swap2\n      sub\n      swap1\n      log2\n        /* \"Contract Pools/NekoPools.sol\":3846:4203  {... */\n      pop\n        /* \"@openzeppelin/contracts/security/ReentrancyGuard.sol\":2303:2323  _nonReentrantAfter() */\n      tag_247\n        /* \"@openzeppelin/contracts/security/ReentrancyGuard.sol\":2303:2321  _nonReentrantAfter */\n      tag_182\n        /* \"@openzeppelin/contracts/security/ReentrancyGuard.sol\":2303:2323  _nonReentrantAfter() */\n      jump\t// in\n    tag_247:\n        /* \"Contract Pools/NekoPools.sol\":3787:4203  function claimReward() external nonReentrant whenNotPaused {... */\n      jump\t// out\n        /* \"Contract Pools/NekoPools.sol\":2395:2541  function setNativeFee(uint256 _nativeFee) external onlyOwner {... */\n    tag_108:\n        /* \"@openzeppelin/contracts/access/Ownable.sol\":1531:1544  _checkOwner() */\n      tag_249\n        /* \"@openzeppelin/contracts/access/Ownable.sol\":1531:1542  _checkOwner */\n      tag_136\n        /* \"@openzeppelin/contracts/access/Ownable.sol\":1531:1544  _checkOwner() */\n      jump\t// in\n    tag_249:\n        /* \"Contract Pools/NekoPools.sol\":2479:2489  _nativeFee */\n      dup1\n        /* \"Contract Pools/NekoPools.sol\":2467:2476  nativeFee */\n      0x06\n        /* \"Contract Pools/NekoPools.sol\":2467:2489  nativeFee = _nativeFee */\n      dup2\n      swap1\n      sstore\n      pop\n        /* \"Contract Pools/NekoPools.sol\":2505:2533  NativeFeeUpdated(_nativeFee) */\n      0x8b58a69c09c2dff0e67bea4782c73a9ff3c4bba6dc50dbe66643372b8ce9035d\n        /* \"Contract Pools/NekoPools.sol\":2522:2532  _nativeFee */\n      dup2\n        /* \"Contract Pools/NekoPools.sol\":2505:2533  NativeFeeUpdated(_nativeFee) */\n      mload(0x40)\n      tag_251\n      swap2\n      swap1\n      tag_41\n      jump\t// in\n    tag_251:\n      mload(0x40)\n      dup1\n      swap2\n      sub\n      swap1\n      log1\n        /* \"Contract Pools/NekoPools.sol\":2395:2541  function setNativeFee(uint256 _nativeFee) external onlyOwner {... */\n      pop\n      jump\t// out\n        /* \"Contract Pools/NekoPools.sol\":5864:6208  function getAPR() external view returns (uint256) {... */\n    tag_111:\n        /* \"Contract Pools/NekoPools.sol\":5905:5912  uint256 */\n      0x00\n        /* \"Contract Pools/NekoPools.sol\":5944:5945  0 */\n      0x00\n        /* \"Contract Pools/NekoPools.sol\":5929:5940  totalStaked */\n      sload(0x07)\n        /* \"Contract Pools/NekoPools.sol\":5929:5945  totalStaked == 0 */\n      sub\n        /* \"Contract Pools/NekoPools.sol\":5925:6035  if (totalStaked == 0) {... */\n      tag_253\n      jumpi\n        /* \"Contract Pools/NekoPools.sol\":6001:6023  rewardRatioDenominator */\n      sload(0x05)\n        /* \"Contract Pools/NekoPools.sol\":5993:5997  1e18 */\n      0x0de0b6b3a7640000\n        /* \"Contract Pools/NekoPools.sol\":5970:5990  rewardRatioNumerator */\n      sload(0x04)\n        /* \"Contract Pools/NekoPools.sol\":5970:5997  rewardRatioNumerator * 1e18 */\n      tag_254\n      swap2\n      swap1\n      tag_255\n      jump\t// in\n    tag_254:\n        /* \"Contract Pools/NekoPools.sol\":5969:6023  (rewardRatioNumerator * 1e18) / rewardRatioDenominator */\n      tag_256\n      swap2\n      swap1\n      tag_257\n      jump\t// in\n    tag_256:\n        /* \"Contract Pools/NekoPools.sol\":5962:6023  return (rewardRatioNumerator * 1e18) / rewardRatioDenominator */\n      swap1\n      pop\n      jump(tag_252)\n        /* \"Contract Pools/NekoPools.sol\":5925:6035  if (totalStaked == 0) {... */\n    tag_253:\n        /* \"Contract Pools/NekoPools.sol\":6045:6060  uint256 baseAPR */\n      0x00\n        /* \"Contract Pools/NekoPools.sol\":6095:6117  rewardRatioDenominator */\n      sload(0x05)\n        /* \"Contract Pools/NekoPools.sol\":6087:6091  1e18 */\n      0x0de0b6b3a7640000\n        /* \"Contract Pools/NekoPools.sol\":6064:6084  rewardRatioNumerator */\n      sload(0x04)\n        /* \"Contract Pools/NekoPools.sol\":6064:6091  rewardRatioNumerator * 1e18 */\n      tag_258\n      swap2\n      swap1\n      tag_255\n      jump\t// in\n    tag_258:\n        /* \"Contract Pools/NekoPools.sol\":6063:6117  (rewardRatioNumerator * 1e18) / rewardRatioDenominator */\n      tag_259\n      swap2\n      swap1\n      tag_257\n      jump\t// in\n    tag_259:\n        /* \"Contract Pools/NekoPools.sol\":6045:6117  uint256 baseAPR = (rewardRatioNumerator * 1e18) / rewardRatioDenominator */\n      swap1\n      pop\n        /* \"Contract Pools/NekoPools.sol\":6128:6139  uint256 apr */\n      0x00\n        /* \"Contract Pools/NekoPools.sol\":6174:6178  1e18 */\n      0x0de0b6b3a7640000\n        /* \"Contract Pools/NekoPools.sol\":6160:6171  totalStaked */\n      sload(0x07)\n        /* \"Contract Pools/NekoPools.sol\":6160:6178  totalStaked + 1e18 */\n      tag_260\n      swap2\n      swap1\n      tag_226\n      jump\t// in\n    tag_260:\n        /* \"Contract Pools/NekoPools.sol\":6152:6156  1e18 */\n      0x0de0b6b3a7640000\n        /* \"Contract Pools/NekoPools.sol\":6142:6149  baseAPR */\n      dup4\n        /* \"Contract Pools/NekoPools.sol\":6142:6156  baseAPR * 1e18 */\n      tag_261\n      swap2\n      swap1\n      tag_255\n      jump\t// in\n    tag_261:\n        /* \"Contract Pools/NekoPools.sol\":6142:6179  baseAPR * 1e18 / (totalStaked + 1e18) */\n      tag_262\n      swap2\n      swap1\n      tag_257\n      jump\t// in\n    tag_262:\n        /* \"Contract Pools/NekoPools.sol\":6128:6179  uint256 apr = baseAPR * 1e18 / (totalStaked + 1e18) */\n      swap1\n      pop\n        /* \"Contract Pools/NekoPools.sol\":6197:6200  apr */\n      dup1\n        /* \"Contract Pools/NekoPools.sol\":6190:6200  return apr */\n      swap3\n      pop\n      pop\n      pop\n        /* \"Contract Pools/NekoPools.sol\":5864:6208  function getAPR() external view returns (uint256) {... */\n    tag_252:\n      swap1\n      jump\t// out\n        /* \"Contract Pools/NekoPools.sol\":5288:5496  function withdrawRewardTokens(uint256 amount) external onlyOwner {... */\n    tag_116:\n        /* \"@openzeppelin/contracts/access/Ownable.sol\":1531:1544  _checkOwner() */\n      tag_264\n        /* \"@openzeppelin/contracts/access/Ownable.sol\":1531:1542  _checkOwner */\n      tag_136\n        /* \"@openzeppelin/contracts/access/Ownable.sol\":1531:1544  _checkOwner() */\n      jump\t// in\n    tag_264:\n        /* \"Contract Pools/NekoPools.sol\":5372:5383  rewardToken */\n      immutable(\"0x642f9650044f1ad0662a9bf5ce2162e5b9a42a081691e4a3ca3c4d4c08f161e6\")\n        /* \"Contract Pools/NekoPools.sol\":5372:5392  rewardToken.transfer */\n      0xffffffffffffffffffffffffffffffffffffffff\n      and\n      0xa9059cbb\n        /* \"Contract Pools/NekoPools.sol\":5393:5403  msg.sender */\n      caller\n        /* \"Contract Pools/NekoPools.sol\":5405:5411  amount */\n      dup4\n        /* \"Contract Pools/NekoPools.sol\":5372:5412  rewardToken.transfer(msg.sender, amount) */\n      mload(0x40)\n      dup4\n      0xffffffff\n      and\n      0xe0\n      shl\n      dup2\n      mstore\n      0x04\n      add\n      tag_266\n      swap3\n      swap2\n      swap1\n      tag_173\n      jump\t// in\n    tag_266:\n      0x20\n      mload(0x40)\n      dup1\n      dup4\n      sub\n      dup2\n      0x00\n      dup8\n      gas\n      call\n      iszero\n      dup1\n      iszero\n      tag_268\n      jumpi\n      returndatacopy(0x00, 0x00, returndatasize)\n      revert(0x00, returndatasize)\n    tag_268:\n      pop\n      pop\n      pop\n      pop\n      mload(0x40)\n      returndatasize\n      not(0x1f)\n      0x1f\n      dup3\n      add\n      and\n      dup3\n      add\n      dup1\n      0x40\n      mstore\n      pop\n      dup2\n      add\n      swap1\n      tag_269\n      swap2\n      swap1\n      tag_152\n      jump\t// in\n    tag_269:\n        /* \"Contract Pools/NekoPools.sol\":5364:5432  require(rewardToken.transfer(msg.sender, amount), \"Withdraw failed\") */\n      tag_270\n      jumpi\n      mload(0x40)\n      0x08c379a000000000000000000000000000000000000000000000000000000000\n      dup2\n      mstore\n      0x04\n      add\n      tag_271\n      swap1\n      tag_272\n      jump\t// in\n    tag_271:\n      mload(0x40)\n      dup1\n      swap2\n      sub\n      swap1\n      revert\n    tag_270:\n        /* \"Contract Pools/NekoPools.sol\":5469:5479  msg.sender */\n      caller\n        /* \"Contract Pools/NekoPools.sol\":5448:5488  RewardTokenWithdrawn(msg.sender, amount) */\n      0xffffffffffffffffffffffffffffffffffffffff\n      and\n      0x5991a08bb51d1fc3f552255ed446f040dca378ad3ff91763507b63b185eb5d2e\n        /* \"Contract Pools/NekoPools.sol\":5481:5487  amount */\n      dup3\n        /* \"Contract Pools/NekoPools.sol\":5448:5488  RewardTokenWithdrawn(msg.sender, amount) */\n      mload(0x40)\n      tag_273\n      swap2\n      swap1\n      tag_41\n      jump\t// in\n    tag_273:\n      mload(0x40)\n      dup1\n      swap2\n      sub\n      swap1\n      log2\n        /* \"Contract Pools/NekoPools.sol\":5288:5496  function withdrawRewardTokens(uint256 amount) external onlyOwner {... */\n      pop\n      jump\t// out\n        /* \"Contract Pools/NekoPools.sol\":477:512  uint256 public rewardRatioNumerator */\n    tag_119:\n      sload(0x04)\n      dup2\n      jump\t// out\n        /* \"Contract Pools/NekoPools.sol\":5632:5753  function getUserStaked(address user) external view returns (uint256) {... */\n    tag_124:\n        /* \"Contract Pools/NekoPools.sol\":5692:5699  uint256 */\n      0x00\n        /* \"Contract Pools/NekoPools.sol\":5719:5726  stakers */\n      0x08\n        /* \"Contract Pools/NekoPools.sol\":5719:5732  stakers[user] */\n      0x00\n        /* \"Contract Pools/NekoPools.sol\":5727:5731  user */\n      dup4\n        /* \"Contract Pools/NekoPools.sol\":5719:5732  stakers[user] */\n      0xffffffffffffffffffffffffffffffffffffffff\n      and\n      0xffffffffffffffffffffffffffffffffffffffff\n      and\n      dup2\n      mstore\n      0x20\n      add\n      swap1\n      dup2\n      mstore\n      0x20\n      add\n      0x00\n      keccak256\n        /* \"Contract Pools/NekoPools.sol\":5719:5745  stakers[user].amountStaked */\n      0x00\n      add\n      sload\n        /* \"Contract Pools/NekoPools.sol\":5712:5745  return stakers[user].amountStaked */\n      swap1\n      pop\n        /* \"Contract Pools/NekoPools.sol\":5632:5753  function getUserStaked(address user) external view returns (uint256) {... */\n      swap2\n      swap1\n      pop\n      jump\t// out\n        /* \"@openzeppelin/contracts/access/Ownable.sol\":2543:2758  function transferOwnership(address newOwner) public virtual onlyOwner {... */\n    tag_129:\n        /* \"@openzeppelin/contracts/access/Ownable.sol\":1531:1544  _checkOwner() */\n      tag_276\n        /* \"@openzeppelin/contracts/access/Ownable.sol\":1531:1542  _checkOwner */\n      tag_136\n        /* \"@openzeppelin/contracts/access/Ownable.sol\":1531:1544  _checkOwner() */\n      jump\t// in\n    tag_276:\n        /* \"@openzeppelin/contracts/access/Ownable.sol\":2647:2648  0 */\n      0x00\n        /* \"@openzeppelin/contracts/access/Ownable.sol\":2627:2649  newOwner == address(0) */\n      0xffffffffffffffffffffffffffffffffffffffff\n      and\n        /* \"@openzeppelin/contracts/access/Ownable.sol\":2627:2635  newOwner */\n      dup2\n        /* \"@openzeppelin/contracts/access/Ownable.sol\":2627:2649  newOwner == address(0) */\n      0xffffffffffffffffffffffffffffffffffffffff\n      and\n      sub\n        /* \"@openzeppelin/contracts/access/Ownable.sol\":2623:2714  if (newOwner == address(0)) {... */\n      tag_278\n      jumpi\n        /* \"@openzeppelin/contracts/access/Ownable.sol\":2700:2701  0 */\n      0x00\n        /* \"@openzeppelin/contracts/access/Ownable.sol\":2672:2703  OwnableInvalidOwner(address(0)) */\n      mload(0x40)\n      0x1e4fbdf700000000000000000000000000000000000000000000000000000000\n      dup2\n      mstore\n      0x04\n      add\n      tag_279\n      swap2\n      swap1\n      tag_84\n      jump\t// in\n    tag_279:\n      mload(0x40)\n      dup1\n      swap2\n      sub\n      swap1\n      revert\n        /* \"@openzeppelin/contracts/access/Ownable.sol\":2623:2714  if (newOwner == address(0)) {... */\n    tag_278:\n        /* \"@openzeppelin/contracts/access/Ownable.sol\":2723:2751  _transferOwnership(newOwner) */\n      tag_280\n        /* \"@openzeppelin/contracts/access/Ownable.sol\":2742:2750  newOwner */\n      dup2\n        /* \"@openzeppelin/contracts/access/Ownable.sol\":2723:2741  _transferOwnership */\n      tag_196\n        /* \"@openzeppelin/contracts/access/Ownable.sol\":2723:2751  _transferOwnership(newOwner) */\n      jump\t// in\n    tag_280:\n        /* \"@openzeppelin/contracts/access/Ownable.sol\":2543:2758  function transferOwnership(address newOwner) public virtual onlyOwner {... */\n      pop\n      jump\t// out\n        /* \"Contract Pools/NekoPools.sol\":403:438  IERC20 public immutable rewardToken */\n    tag_132:\n      immutable(\"0x642f9650044f1ad0662a9bf5ce2162e5b9a42a081691e4a3ca3c4d4c08f161e6\")\n      dup2\n      jump\t// out\n        /* \"@openzeppelin/contracts/access/Ownable.sol\":1796:1958  function _checkOwner() internal view virtual {... */\n    tag_136:\n        /* \"@openzeppelin/contracts/access/Ownable.sol\":1866:1878  _msgSender() */\n      tag_282\n        /* \"@openzeppelin/contracts/access/Ownable.sol\":1866:1876  _msgSender */\n      tag_283\n        /* \"@openzeppelin/contracts/access/Ownable.sol\":1866:1878  _msgSender() */\n      jump\t// in\n    tag_282:\n        /* \"@openzeppelin/contracts/access/Ownable.sol\":1855:1878  owner() != _msgSender() */\n      0xffffffffffffffffffffffffffffffffffffffff\n      and\n        /* \"@openzeppelin/contracts/access/Ownable.sol\":1855:1862  owner() */\n      tag_284\n        /* \"@openzeppelin/contracts/access/Ownable.sol\":1855:1860  owner */\n      tag_82\n        /* \"@openzeppelin/contracts/access/Ownable.sol\":1855:1862  owner() */\n      jump\t// in\n    tag_284:\n        /* \"@openzeppelin/contracts/access/Ownable.sol\":1855:1878  owner() != _msgSender() */\n      0xffffffffffffffffffffffffffffffffffffffff\n      and\n      eq\n        /* \"@openzeppelin/contracts/access/Ownable.sol\":1851:1952  if (owner() != _msgSender()) {... */\n      tag_285\n      jumpi\n        /* \"@openzeppelin/contracts/access/Ownable.sol\":1928:1940  _msgSender() */\n      tag_286\n        /* \"@openzeppelin/contracts/access/Ownable.sol\":1928:1938  _msgSender */\n      tag_283\n        /* \"@openzeppelin/contracts/access/Ownable.sol\":1928:1940  _msgSender() */\n      jump\t// in\n    tag_286:\n        /* \"@openzeppelin/contracts/access/Ownable.sol\":1901:1941  OwnableUnauthorizedAccount(_msgSender()) */\n      mload(0x40)\n      0x118cdaa700000000000000000000000000000000000000000000000000000000\n      dup2\n      mstore\n      0x04\n      add\n      tag_287\n      swap2\n      swap1\n      tag_84\n      jump\t// in\n    tag_287:\n      mload(0x40)\n      dup1\n      swap2\n      sub\n      swap1\n      revert\n        /* \"@openzeppelin/contracts/access/Ownable.sol\":1851:1952  if (owner() != _msgSender()) {... */\n    tag_285:\n        /* \"@openzeppelin/contracts/access/Ownable.sol\":1796:1958  function _checkOwner() internal view virtual {... */\n      jump\t// out\n        /* \"@openzeppelin/contracts/security/ReentrancyGuard.sol\":2336:2623  function _nonReentrantBefore() private {... */\n    tag_159:\n        /* \"@openzeppelin/contracts/security/ReentrancyGuard.sol\":1759:1760  2 */\n      0x02\n        /* \"@openzeppelin/contracts/security/ReentrancyGuard.sol\":2468:2475  _status */\n      sload(0x01)\n        /* \"@openzeppelin/contracts/security/ReentrancyGuard.sol\":2468:2487  _status != _ENTERED */\n      sub\n        /* \"@openzeppelin/contracts/security/ReentrancyGuard.sol\":2460:2523  require(_status != _ENTERED, \"ReentrancyGuard: reentrant call\") */\n      tag_289\n      jumpi\n      mload(0x40)\n      0x08c379a000000000000000000000000000000000000000000000000000000000\n      dup2\n      mstore\n      0x04\n      add\n      tag_290\n      swap1\n      tag_291\n      jump\t// in\n    tag_290:\n      mload(0x40)\n      dup1\n      swap2\n      sub\n      swap1\n      revert\n    tag_289:\n        /* \"@openzeppelin/contracts/security/ReentrancyGuard.sol\":1759:1760  2 */\n      0x02\n        /* \"@openzeppelin/contracts/security/ReentrancyGuard.sol\":2598:2605  _status */\n      0x01\n        /* \"@openzeppelin/contracts/security/ReentrancyGuard.sol\":2598:2616  _status = _ENTERED */\n      dup2\n      swap1\n      sstore\n      pop\n        /* \"@openzeppelin/contracts/security/ReentrancyGuard.sol\":2336:2623  function _nonReentrantBefore() private {... */\n      jump\t// out\n        /* \"@openzeppelin/contracts/security/Pausable.sol\":1767:1873  function _requireNotPaused() internal view virtual {... */\n    tag_162:\n        /* \"@openzeppelin/contracts/security/Pausable.sol\":1837:1845  paused() */\n      tag_293\n        /* \"@openzeppelin/contracts/security/Pausable.sol\":1837:1843  paused */\n      tag_66\n        /* \"@openzeppelin/contracts/security/Pausable.sol\":1837:1845  paused() */\n      jump\t// in\n    tag_293:\n        /* \"@openzeppelin/contracts/security/Pausable.sol\":1836:1845  !paused() */\n      iszero\n        /* \"@openzeppelin/contracts/security/Pausable.sol\":1828:1866  require(!paused(), \"Pausable: paused\") */\n      tag_294\n      jumpi\n      mload(0x40)\n      0x08c379a000000000000000000000000000000000000000000000000000000000\n      dup2\n      mstore\n      0x04\n      add\n      tag_295\n      swap1\n      tag_296\n      jump\t// in\n    tag_295:\n      mload(0x40)\n      dup1\n      swap2\n      sub\n      swap1\n      revert\n    tag_294:\n        /* \"@openzeppelin/contracts/security/Pausable.sol\":1767:1873  function _requireNotPaused() internal view virtual {... */\n      jump\t// out\n        /* \"Contract Pools/NekoPools.sol\":4211:4592  function _claimReward(address user) internal {... */\n    tag_168:\n        /* \"Contract Pools/NekoPools.sol\":4267:4281  uint256 reward */\n      0x00\n        /* \"Contract Pools/NekoPools.sol\":4284:4306  _calculateReward(user) */\n      tag_298\n        /* \"Contract Pools/NekoPools.sol\":4301:4305  user */\n      dup3\n        /* \"Contract Pools/NekoPools.sol\":4284:4300  _calculateReward */\n      tag_190\n        /* \"Contract Pools/NekoPools.sol\":4284:4306  _calculateReward(user) */\n      jump\t// in\n    tag_298:\n        /* \"Contract Pools/NekoPools.sol\":4267:4306  uint256 reward = _calculateReward(user) */\n      swap1\n      pop\n        /* \"Contract Pools/NekoPools.sol\":4330:4331  0 */\n      0x00\n        /* \"Contract Pools/NekoPools.sol\":4321:4327  reward */\n      dup2\n        /* \"Contract Pools/NekoPools.sol\":4321:4331  reward > 0 */\n      gt\n        /* \"Contract Pools/NekoPools.sol\":4317:4585  if (reward > 0) {... */\n      iszero\n      tag_299\n      jumpi\n        /* \"Contract Pools/NekoPools.sol\":4380:4395  block.timestamp */\n      timestamp\n        /* \"Contract Pools/NekoPools.sol\":4348:4355  stakers */\n      0x08\n        /* \"Contract Pools/NekoPools.sol\":4348:4361  stakers[user] */\n      0x00\n        /* \"Contract Pools/NekoPools.sol\":4356:4360  user */\n      dup5\n        /* \"Contract Pools/NekoPools.sol\":4348:4361  stakers[user] */\n      0xffffffffffffffffffffffffffffffffffffffff\n      and\n      0xffffffffffffffffffffffffffffffffffffffff\n      and\n      dup2\n      mstore\n      0x20\n      add\n      swap1\n      dup2\n      mstore\n      0x20\n      add\n      0x00\n      keccak256\n        /* \"Contract Pools/NekoPools.sol\":4348:4377  stakers[user].lastClaimedTime */\n      0x01\n      add\n        /* \"Contract Pools/NekoPools.sol\":4348:4395  stakers[user].lastClaimedTime = block.timestamp */\n      dup2\n      swap1\n      sstore\n      pop\n        /* \"Contract Pools/NekoPools.sol\":4437:4438  0 */\n      0x00\n        /* \"Contract Pools/NekoPools.sol\":4410:4417  stakers */\n      0x08\n        /* \"Contract Pools/NekoPools.sol\":4410:4423  stakers[user] */\n      0x00\n        /* \"Contract Pools/NekoPools.sol\":4418:4422  user */\n      dup5\n        /* \"Contract Pools/NekoPools.sol\":4410:4423  stakers[user] */\n      0xffffffffffffffffffffffffffffffffffffffff\n      and\n      0xffffffffffffffffffffffffffffffffffffffff\n      and\n      dup2\n      mstore\n      0x20\n      add\n      swap1\n      dup2\n      mstore\n      0x20\n      add\n      0x00\n      keccak256\n        /* \"Contract Pools/NekoPools.sol\":4410:4434  stakers[user].rewardDebt */\n      0x02\n      add\n        /* \"Contract Pools/NekoPools.sol\":4410:4438  stakers[user].rewardDebt = 0 */\n      dup2\n      swap1\n      sstore\n      pop\n        /* \"Contract Pools/NekoPools.sol\":4463:4474  rewardToken */\n      immutable(\"0x642f9650044f1ad0662a9bf5ce2162e5b9a42a081691e4a3ca3c4d4c08f161e6\")\n        /* \"Contract Pools/NekoPools.sol\":4463:4483  rewardToken.transfer */\n      0xffffffffffffffffffffffffffffffffffffffff\n      and\n      0xa9059cbb\n        /* \"Contract Pools/NekoPools.sol\":4484:4488  user */\n      dup4\n        /* \"Contract Pools/NekoPools.sol\":4490:4496  reward */\n      dup4\n        /* \"Contract Pools/NekoPools.sol\":4463:4497  rewardToken.transfer(user, reward) */\n      mload(0x40)\n      dup4\n      0xffffffff\n      and\n      0xe0\n      shl\n      dup2\n      mstore\n      0x04\n      add\n      tag_300\n      swap3\n      swap2\n      swap1\n      tag_173\n      jump\t// in\n    tag_300:\n      0x20\n      mload(0x40)\n      dup1\n      dup4\n      sub\n      dup2\n      0x00\n      dup8\n      gas\n      call\n      iszero\n      dup1\n      iszero\n      tag_302\n      jumpi\n      returndatacopy(0x00, 0x00, returndatasize)\n      revert(0x00, returndatasize)\n    tag_302:\n      pop\n      pop\n      pop\n      pop\n      mload(0x40)\n      returndatasize\n      not(0x1f)\n      0x1f\n      dup3\n      add\n      and\n      dup3\n      add\n      dup1\n      0x40\n      mstore\n      pop\n      dup2\n      add\n      swap1\n      tag_303\n      swap2\n      swap1\n      tag_152\n      jump\t// in\n    tag_303:\n        /* \"Contract Pools/NekoPools.sol\":4455:4524  require(rewardToken.transfer(user, reward), \"Reward transfer failed\") */\n      tag_304\n      jumpi\n      mload(0x40)\n      0x08c379a000000000000000000000000000000000000000000000000000000000\n      dup2\n      mstore\n      0x04\n      add\n      tag_305\n      swap1\n      tag_245\n      jump\t// in\n    tag_305:\n      mload(0x40)\n      dup1\n      swap2\n      sub\n      swap1\n      revert\n    tag_304:\n        /* \"Contract Pools/NekoPools.sol\":4560:4564  user */\n      dup2\n        /* \"Contract Pools/NekoPools.sol\":4546:4573  RewardClaimed(user, reward) */\n      0xffffffffffffffffffffffffffffffffffffffff\n      and\n      0x106f923f993c2149d49b4255ff723acafa1f2d94393f561d3eda32ae348f7241\n        /* \"Contract Pools/NekoPools.sol\":4566:4572  reward */\n      dup3\n        /* \"Contract Pools/NekoPools.sol\":4546:4573  RewardClaimed(user, reward) */\n      mload(0x40)\n      tag_306\n      swap2\n      swap1\n      tag_41\n      jump\t// in\n    tag_306:\n      mload(0x40)\n      dup1\n      swap2\n      sub\n      swap1\n      log2\n        /* \"Contract Pools/NekoPools.sol\":4317:4585  if (reward > 0) {... */\n    tag_299:\n        /* \"Contract Pools/NekoPools.sol\":4256:4592  {... */\n      pop\n        /* \"Contract Pools/NekoPools.sol\":4211:4592  function _claimReward(address user) internal {... */\n      pop\n      jump\t// out\n        /* \"@openzeppelin/contracts/security/ReentrancyGuard.sol\":2629:2838  function _nonReentrantAfter() private {... */\n    tag_182:\n        /* \"@openzeppelin/contracts/security/ReentrancyGuard.sol\":1716:1717  1 */\n      0x01\n        /* \"@openzeppelin/contracts/security/ReentrancyGuard.sol\":2809:2816  _status */\n      dup1\n        /* \"@openzeppelin/contracts/security/ReentrancyGuard.sol\":2809:2831  _status = _NOT_ENTERED */\n      dup2\n      swap1\n      sstore\n      pop\n        /* \"@openzeppelin/contracts/security/ReentrancyGuard.sol\":2629:2838  function _nonReentrantAfter() private {... */\n      jump\t// out\n        /* \"@openzeppelin/contracts/security/Pausable.sol\":2433:2550  function _unpause() internal virtual whenPaused {... */\n    tag_187:\n        /* \"@openzeppelin/contracts/security/Pausable.sol\":1486:1502  _requirePaused() */\n      tag_309\n        /* \"@openzeppelin/contracts/security/Pausable.sol\":1486:1500  _requirePaused */\n      tag_310\n        /* \"@openzeppelin/contracts/security/Pausable.sol\":1486:1502  _requirePaused() */\n      jump\t// in\n    tag_309:\n        /* \"@openzeppelin/contracts/security/Pausable.sol\":2501:2506  false */\n      0x00\n        /* \"@openzeppelin/contracts/security/Pausable.sol\":2491:2498  _paused */\n      0x02\n      0x00\n        /* \"@openzeppelin/contracts/security/Pausable.sol\":2491:2506  _paused = false */\n      0x0100\n      exp\n      dup2\n      sload\n      dup2\n      0xff\n      mul\n      not\n      and\n      swap1\n      dup4\n      iszero\n      iszero\n      mul\n      or\n      swap1\n      sstore\n      pop\n        /* \"@openzeppelin/contracts/security/Pausable.sol\":2521:2543  Unpaused(_msgSender()) */\n      0x5db9ee0a495bf2e6ff9c91a7834c1ba4fdd244a5e8aa4e537bd38aeae4b073aa\n        /* \"@openzeppelin/contracts/security/Pausable.sol\":2530:2542  _msgSender() */\n      tag_312\n        /* \"@openzeppelin/contracts/security/Pausable.sol\":2530:2540  _msgSender */\n      tag_283\n        /* \"@openzeppelin/contracts/security/Pausable.sol\":2530:2542  _msgSender() */\n      jump\t// in\n    tag_312:\n        /* \"@openzeppelin/contracts/security/Pausable.sol\":2521:2543  Unpaused(_msgSender()) */\n      mload(0x40)\n      tag_313\n      swap2\n      swap1\n      tag_84\n      jump\t// in\n    tag_313:\n      mload(0x40)\n      dup1\n      swap2\n      sub\n      swap1\n      log1\n        /* \"@openzeppelin/contracts/security/Pausable.sol\":2433:2550  function _unpause() internal virtual whenPaused {... */\n      jump\t// out\n        /* \"Contract Pools/NekoPools.sol\":4600:5047  function _calculateReward(address user) internal view returns (uint256) {... */\n    tag_190:\n        /* \"Contract Pools/NekoPools.sol\":4663:4670  uint256 */\n      0x00\n        /* \"Contract Pools/NekoPools.sol\":4683:4704  Staker storage staker */\n      0x00\n        /* \"Contract Pools/NekoPools.sol\":4707:4714  stakers */\n      0x08\n        /* \"Contract Pools/NekoPools.sol\":4707:4720  stakers[user] */\n      0x00\n        /* \"Contract Pools/NekoPools.sol\":4715:4719  user */\n      dup5\n        /* \"Contract Pools/NekoPools.sol\":4707:4720  stakers[user] */\n      0xffffffffffffffffffffffffffffffffffffffff\n      and\n      0xffffffffffffffffffffffffffffffffffffffff\n      and\n      dup2\n      mstore\n      0x20\n      add\n      swap1\n      dup2\n      mstore\n      0x20\n      add\n      0x00\n      keccak256\n        /* \"Contract Pools/NekoPools.sol\":4683:4720  Staker storage staker = stakers[user] */\n      swap1\n      pop\n        /* \"Contract Pools/NekoPools.sol\":4758:4759  0 */\n      0x00\n        /* \"Contract Pools/NekoPools.sol\":4735:4741  staker */\n      dup2\n        /* \"Contract Pools/NekoPools.sol\":4735:4754  staker.amountStaked */\n      0x00\n      add\n      sload\n        /* \"Contract Pools/NekoPools.sol\":4735:4759  staker.amountStaked == 0 */\n      eq\n        /* \"Contract Pools/NekoPools.sol\":4735:4790  staker.amountStaked == 0 || staker.lastClaimedTime == 0 */\n      dup1\n      tag_315\n      jumpi\n      pop\n        /* \"Contract Pools/NekoPools.sol\":4789:4790  0 */\n      0x00\n        /* \"Contract Pools/NekoPools.sol\":4763:4769  staker */\n      dup2\n        /* \"Contract Pools/NekoPools.sol\":4763:4785  staker.lastClaimedTime */\n      0x01\n      add\n      sload\n        /* \"Contract Pools/NekoPools.sol\":4763:4790  staker.lastClaimedTime == 0 */\n      eq\n        /* \"Contract Pools/NekoPools.sol\":4735:4790  staker.amountStaked == 0 || staker.lastClaimedTime == 0 */\n    tag_315:\n        /* \"Contract Pools/NekoPools.sol\":4731:4800  if (staker.amountStaked == 0 || staker.lastClaimedTime == 0) return 0 */\n      iszero\n      tag_316\n      jumpi\n        /* \"Contract Pools/NekoPools.sol\":4799:4800  0 */\n      0x00\n        /* \"Contract Pools/NekoPools.sol\":4792:4800  return 0 */\n      swap2\n      pop\n      pop\n      jump(tag_314)\n        /* \"Contract Pools/NekoPools.sol\":4731:4800  if (staker.amountStaked == 0 || staker.lastClaimedTime == 0) return 0 */\n    tag_316:\n        /* \"Contract Pools/NekoPools.sol\":4813:4829  uint256 timeDiff */\n      0x00\n        /* \"Contract Pools/NekoPools.sol\":4850:4856  staker */\n      dup2\n        /* \"Contract Pools/NekoPools.sol\":4850:4872  staker.lastClaimedTime */\n      0x01\n      add\n      sload\n        /* \"Contract Pools/NekoPools.sol\":4832:4847  block.timestamp */\n      timestamp\n        /* \"Contract Pools/NekoPools.sol\":4832:4872  block.timestamp - staker.lastClaimedTime */\n      tag_317\n      swap2\n      swap1\n      tag_170\n      jump\t// in\n    tag_317:\n        /* \"Contract Pools/NekoPools.sol\":4813:4872  uint256 timeDiff = block.timestamp - staker.lastClaimedTime */\n      swap1\n      pop\n        /* \"Contract Pools/NekoPools.sol\":4883:4897  uint256 reward */\n      0x00\n        /* \"Contract Pools/NekoPools.sol\":4970:4992  rewardRatioDenominator */\n      sload(0x05)\n        /* \"Contract Pools/NekoPools.sol\":4959:4967  timeUnit */\n      sload(0x03)\n        /* \"Contract Pools/NekoPools.sol\":4959:4992  timeUnit * rewardRatioDenominator */\n      tag_318\n      swap2\n      swap1\n      tag_255\n      jump\t// in\n    tag_318:\n        /* \"Contract Pools/NekoPools.sol\":4946:4954  timeDiff */\n      dup3\n        /* \"Contract Pools/NekoPools.sol\":4923:4943  rewardRatioNumerator */\n      sload(0x04)\n        /* \"Contract Pools/NekoPools.sol\":4901:4907  staker */\n      dup6\n        /* \"Contract Pools/NekoPools.sol\":4901:4920  staker.amountStaked */\n      0x00\n      add\n      sload\n        /* \"Contract Pools/NekoPools.sol\":4901:4943  staker.amountStaked * rewardRatioNumerator */\n      tag_319\n      swap2\n      swap1\n      tag_255\n      jump\t// in\n    tag_319:\n        /* \"Contract Pools/NekoPools.sol\":4901:4954  staker.amountStaked * rewardRatioNumerator * timeDiff */\n      tag_320\n      swap2\n      swap1\n      tag_255\n      jump\t// in\n    tag_320:\n        /* \"Contract Pools/NekoPools.sol\":4900:4993  (staker.amountStaked * rewardRatioNumerator * timeDiff) / (timeUnit * rewardRatioDenominator) */\n      tag_321\n      swap2\n      swap1\n      tag_257\n      jump\t// in\n    tag_321:\n        /* \"Contract Pools/NekoPools.sol\":4883:4993  uint256 reward = (staker.amountStaked * rewardRatioNumerator * timeDiff) / (timeUnit * rewardRatioDenominator) */\n      swap1\n      pop\n        /* \"Contract Pools/NekoPools.sol\":5022:5028  staker */\n      dup3\n        /* \"Contract Pools/NekoPools.sol\":5022:5039  staker.rewardDebt */\n      0x02\n      add\n      sload\n        /* \"Contract Pools/NekoPools.sol\":5013:5019  reward */\n      dup2\n        /* \"Contract Pools/NekoPools.sol\":5013:5039  reward + staker.rewardDebt */\n      tag_322\n      swap2\n      swap1\n      tag_226\n      jump\t// in\n    tag_322:\n        /* \"Contract Pools/NekoPools.sol\":5006:5039  return reward + staker.rewardDebt */\n      swap4\n      pop\n      pop\n      pop\n      pop\n        /* \"Contract Pools/NekoPools.sol\":4600:5047  function _calculateReward(address user) internal view returns (uint256) {... */\n    tag_314:\n      swap2\n      swap1\n      pop\n      jump\t// out\n        /* \"@openzeppelin/contracts/access/Ownable.sol\":2912:3099  function _transferOwnership(address newOwner) internal virtual {... */\n    tag_196:\n        /* \"@openzeppelin/contracts/access/Ownable.sol\":2985:3001  address oldOwner */\n      0x00\n        /* \"@openzeppelin/contracts/access/Ownable.sol\":3004:3010  _owner */\n      0x00\n      0x00\n      swap1\n      sload\n      swap1\n      0x0100\n      exp\n      swap1\n      div\n      0xffffffffffffffffffffffffffffffffffffffff\n      and\n        /* \"@openzeppelin/contracts/access/Ownable.sol\":2985:3010  address oldOwner = _owner */\n      swap1\n      pop\n        /* \"@openzeppelin/contracts/access/Ownable.sol\":3029:3037  newOwner */\n      dup2\n        /* \"@openzeppelin/contracts/access/Ownable.sol\":3020:3026  _owner */\n      0x00\n      0x00\n        /* \"@openzeppelin/contracts/access/Ownable.sol\":3020:3037  _owner = newOwner */\n      0x0100\n      exp\n      dup2\n      sload\n      dup2\n      0xffffffffffffffffffffffffffffffffffffffff\n      mul\n      not\n      and\n      swap1\n      dup4\n      0xffffffffffffffffffffffffffffffffffffffff\n      and\n      mul\n      or\n      swap1\n      sstore\n      pop\n        /* \"@openzeppelin/contracts/access/Ownable.sol\":3083:3091  newOwner */\n      dup2\n        /* \"@openzeppelin/contracts/access/Ownable.sol\":3052:3092  OwnershipTransferred(oldOwner, newOwner) */\n      0xffffffffffffffffffffffffffffffffffffffff\n      and\n        /* \"@openzeppelin/contracts/access/Ownable.sol\":3073:3081  oldOwner */\n      dup2\n        /* \"@openzeppelin/contracts/access/Ownable.sol\":3052:3092  OwnershipTransferred(oldOwner, newOwner) */\n      0xffffffffffffffffffffffffffffffffffffffff\n      and\n      0x8be0079c531659141344cd1fd0a4f28419497f9722a3daafe3b4186f6b6457e0\n      mload(0x40)\n      mload(0x40)\n      dup1\n      swap2\n      sub\n      swap1\n      log3\n        /* \"@openzeppelin/contracts/access/Ownable.sol\":2975:3099  {... */\n      pop\n        /* \"@openzeppelin/contracts/access/Ownable.sol\":2912:3099  function _transferOwnership(address newOwner) internal virtual {... */\n      pop\n      jump\t// out\n        /* \"@openzeppelin/contracts/security/Pausable.sol\":2186:2301  function _pause() internal virtual whenNotPaused {... */\n    tag_201:\n        /* \"@openzeppelin/contracts/security/Pausable.sol\":1239:1258  _requireNotPaused() */\n      tag_325\n        /* \"@openzeppelin/contracts/security/Pausable.sol\":1239:1256  _requireNotPaused */\n      tag_162\n        /* \"@openzeppelin/contracts/security/Pausable.sol\":1239:1258  _requireNotPaused() */\n      jump\t// in\n    tag_325:\n        /* \"@openzeppelin/contracts/security/Pausable.sol\":2255:2259  true */\n      0x01\n        /* \"@openzeppelin/contracts/security/Pausable.sol\":2245:2252  _paused */\n      0x02\n      0x00\n        /* \"@openzeppelin/contracts/security/Pausable.sol\":2245:2259  _paused = true */\n      0x0100\n      exp\n      dup2\n      sload\n      dup2\n      0xff\n      mul\n      not\n      and\n      swap1\n      dup4\n      iszero\n      iszero\n      mul\n      or\n      swap1\n      sstore\n      pop\n        /* \"@openzeppelin/contracts/security/Pausable.sol\":2274:2294  Paused(_msgSender()) */\n      0x62e78cea01bee320cd4e420270b5ea74000d11b0c9f74754ebdbfc544b05a258\n        /* \"@openzeppelin/contracts/security/Pausable.sol\":2281:2293  _msgSender() */\n      tag_327\n        /* \"@openzeppelin/contracts/security/Pausable.sol\":2281:2291  _msgSender */\n      tag_283\n        /* \"@openzeppelin/contracts/security/Pausable.sol\":2281:2293  _msgSender() */\n      jump\t// in\n    tag_327:\n        /* \"@openzeppelin/contracts/security/Pausable.sol\":2274:2294  Paused(_msgSender()) */\n      mload(0x40)\n      tag_328\n      swap2\n      swap1\n      tag_84\n      jump\t// in\n    tag_328:\n      mload(0x40)\n      dup1\n      swap2\n      sub\n      swap1\n      log1\n        /* \"@openzeppelin/contracts/security/Pausable.sol\":2186:2301  function _pause() internal virtual whenNotPaused {... */\n      jump\t// out\n        /* \"@openzeppelin/contracts/utils/Context.sol\":656:752  function _msgSender() internal view virtual returns (address) {... */\n    tag_283:\n        /* \"@openzeppelin/contracts/utils/Context.sol\":709:716  address */\n      0x00\n        /* \"@openzeppelin/contracts/utils/Context.sol\":735:745  msg.sender */\n      caller\n        /* \"@openzeppelin/contracts/utils/Context.sol\":728:745  return msg.sender */\n      swap1\n      pop\n        /* \"@openzeppelin/contracts/utils/Context.sol\":656:752  function _msgSender() internal view virtual returns (address) {... */\n      swap1\n      jump\t// out\n        /* \"@openzeppelin/contracts/security/Pausable.sol\":1945:2051  function _requirePaused() internal view virtual {... */\n    tag_310:\n        /* \"@openzeppelin/contracts/security/Pausable.sol\":2011:2019  paused() */\n      tag_331\n        /* \"@openzeppelin/contracts/security/Pausable.sol\":2011:2017  paused */\n      tag_66\n        /* \"@openzeppelin/contracts/security/Pausable.sol\":2011:2019  paused() */\n      jump\t// in\n    tag_331:\n        /* \"@openzeppelin/contracts/security/Pausable.sol\":2003:2044  require(paused(), \"Pausable: not paused\") */\n      tag_332\n      jumpi\n      mload(0x40)\n      0x08c379a000000000000000000000000000000000000000000000000000000000\n      dup2\n      mstore\n      0x04\n      add\n      tag_333\n      swap1\n      tag_334\n      jump\t// in\n    tag_333:\n      mload(0x40)\n      dup1\n      swap2\n      sub\n      swap1\n      revert\n    tag_332:\n        /* \"@openzeppelin/contracts/security/Pausable.sol\":1945:2051  function _requirePaused() internal view virtual {... */\n      jump\t// out\n        /* \"#utility.yul\":88:205   */\n    tag_336:\n        /* \"#utility.yul\":197:198   */\n      0x00\n        /* \"#utility.yul\":194:195   */\n      0x00\n        /* \"#utility.yul\":187:199   */\n      revert\n        /* \"#utility.yul\":334:411   */\n    tag_338:\n        /* \"#utility.yul\":371:378   */\n      0x00\n        /* \"#utility.yul\":400:405   */\n      dup2\n        /* \"#utility.yul\":389:405   */\n      swap1\n      pop\n        /* \"#utility.yul\":334:411   */\n      swap2\n      swap1\n      pop\n      jump\t// out\n        /* \"#utility.yul\":417:539   */\n    tag_339:\n        /* \"#utility.yul\":490:514   */\n      tag_391\n        /* \"#utility.yul\":508:513   */\n      dup2\n        /* \"#utility.yul\":490:514   */\n      tag_338\n      jump\t// in\n    tag_391:\n        /* \"#utility.yul\":483:488   */\n      dup2\n        /* \"#utility.yul\":480:515   */\n      eq\n        /* \"#utility.yul\":470:533   */\n      tag_392\n      jumpi\n        /* \"#utility.yul\":529:530   */\n      0x00\n        /* \"#utility.yul\":526:527   */\n      0x00\n        /* \"#utility.yul\":519:531   */\n      revert\n        /* \"#utility.yul\":470:533   */\n    tag_392:\n        /* \"#utility.yul\":417:539   */\n      pop\n      jump\t// out\n        /* \"#utility.yul\":545:684   */\n    tag_340:\n        /* \"#utility.yul\":591:596   */\n      0x00\n        /* \"#utility.yul\":629:635   */\n      dup2\n        /* \"#utility.yul\":616:636   */\n      calldataload\n        /* \"#utility.yul\":607:636   */\n      swap1\n      pop\n        /* \"#utility.yul\":645:678   */\n      tag_394\n        /* \"#utility.yul\":672:677   */\n      dup2\n        /* \"#utility.yul\":645:678   */\n      tag_339\n      jump\t// in\n    tag_394:\n        /* \"#utility.yul\":545:684   */\n      swap3\n      swap2\n      pop\n      pop\n      jump\t// out\n        /* \"#utility.yul\":690:1164   */\n    tag_35:\n        /* \"#utility.yul\":758:764   */\n      0x00\n        /* \"#utility.yul\":766:772   */\n      0x00\n        /* \"#utility.yul\":815:817   */\n      0x40\n        /* \"#utility.yul\":803:812   */\n      dup4\n        /* \"#utility.yul\":794:801   */\n      dup6\n        /* \"#utility.yul\":790:813   */\n      sub\n        /* \"#utility.yul\":786:818   */\n      slt\n        /* \"#utility.yul\":783:902   */\n      iszero\n      tag_396\n      jumpi\n        /* \"#utility.yul\":821:900   */\n      tag_397\n      tag_336\n      jump\t// in\n    tag_397:\n        /* \"#utility.yul\":783:902   */\n    tag_396:\n        /* \"#utility.yul\":941:942   */\n      0x00\n        /* \"#utility.yul\":966:1019   */\n      tag_398\n        /* \"#utility.yul\":1011:1018   */\n      dup6\n        /* \"#utility.yul\":1002:1008   */\n      dup3\n        /* \"#utility.yul\":991:1000   */\n      dup7\n        /* \"#utility.yul\":987:1009   */\n      add\n        /* \"#utility.yul\":966:1019   */\n      tag_340\n      jump\t// in\n    tag_398:\n        /* \"#utility.yul\":956:1019   */\n      swap3\n      pop\n        /* \"#utility.yul\":912:1029   */\n      pop\n        /* \"#utility.yul\":1068:1070   */\n      0x20\n        /* \"#utility.yul\":1094:1147   */\n      tag_399\n        /* \"#utility.yul\":1139:1146   */\n      dup6\n        /* \"#utility.yul\":1130:1136   */\n      dup3\n        /* \"#utility.yul\":1119:1128   */\n      dup7\n        /* \"#utility.yul\":1115:1137   */\n      add\n        /* \"#utility.yul\":1094:1147   */\n      tag_340\n      jump\t// in\n    tag_399:\n        /* \"#utility.yul\":1084:1147   */\n      swap2\n      pop\n        /* \"#utility.yul\":1039:1157   */\n      pop\n        /* \"#utility.yul\":690:1164   */\n      swap3\n      pop\n      swap3\n      swap1\n      pop\n      jump\t// out\n        /* \"#utility.yul\":1170:1288   */\n    tag_341:\n        /* \"#utility.yul\":1257:1281   */\n      tag_401\n        /* \"#utility.yul\":1275:1280   */\n      dup2\n        /* \"#utility.yul\":1257:1281   */\n      tag_338\n      jump\t// in\n    tag_401:\n        /* \"#utility.yul\":1252:1255   */\n      dup3\n        /* \"#utility.yul\":1245:1282   */\n      mstore\n        /* \"#utility.yul\":1170:1288   */\n      pop\n      pop\n      jump\t// out\n        /* \"#utility.yul\":1294:1516   */\n    tag_41:\n        /* \"#utility.yul\":1387:1391   */\n      0x00\n        /* \"#utility.yul\":1425:1427   */\n      0x20\n        /* \"#utility.yul\":1414:1423   */\n      dup3\n        /* \"#utility.yul\":1410:1428   */\n      add\n        /* \"#utility.yul\":1402:1428   */\n      swap1\n      pop\n        /* \"#utility.yul\":1438:1509   */\n      tag_403\n        /* \"#utility.yul\":1506:1507   */\n      0x00\n        /* \"#utility.yul\":1495:1504   */\n      dup4\n        /* \"#utility.yul\":1491:1508   */\n      add\n        /* \"#utility.yul\":1482:1488   */\n      dup5\n        /* \"#utility.yul\":1438:1509   */\n      tag_341\n      jump\t// in\n    tag_403:\n        /* \"#utility.yul\":1294:1516   */\n      swap3\n      swap2\n      pop\n      pop\n      jump\t// out\n        /* \"#utility.yul\":1522:1851   */\n    tag_45:\n        /* \"#utility.yul\":1581:1587   */\n      0x00\n        /* \"#utility.yul\":1630:1632   */\n      0x20\n        /* \"#utility.yul\":1618:1627   */\n      dup3\n        /* \"#utility.yul\":1609:1616   */\n      dup5\n        /* \"#utility.yul\":1605:1628   */\n      sub\n        /* \"#utility.yul\":1601:1633   */\n      slt\n        /* \"#utility.yul\":1598:1717   */\n      iszero\n      tag_405\n      jumpi\n        /* \"#utility.yul\":1636:1715   */\n      tag_406\n      tag_336\n      jump\t// in\n    tag_406:\n        /* \"#utility.yul\":1598:1717   */\n    tag_405:\n        /* \"#utility.yul\":1756:1757   */\n      0x00\n        /* \"#utility.yul\":1781:1834   */\n      tag_407\n        /* \"#utility.yul\":1826:1833   */\n      dup5\n        /* \"#utility.yul\":1817:1823   */\n      dup3\n        /* \"#utility.yul\":1806:1815   */\n      dup6\n        /* \"#utility.yul\":1802:1824   */\n      add\n        /* \"#utility.yul\":1781:1834   */\n      tag_340\n      jump\t// in\n    tag_407:\n        /* \"#utility.yul\":1771:1834   */\n      swap2\n      pop\n        /* \"#utility.yul\":1727:1844   */\n      pop\n        /* \"#utility.yul\":1522:1851   */\n      swap3\n      swap2\n      pop\n      pop\n      jump\t// out\n        /* \"#utility.yul\":1857:1983   */\n    tag_342:\n        /* \"#utility.yul\":1894:1901   */\n      0x00\n        /* \"#utility.yul\":1934:1976   */\n      0xffffffffffffffffffffffffffffffffffffffff\n        /* \"#utility.yul\":1927:1932   */\n      dup3\n        /* \"#utility.yul\":1923:1977   */\n      and\n        /* \"#utility.yul\":1912:1977   */\n      swap1\n      pop\n        /* \"#utility.yul\":1857:1983   */\n      swap2\n      swap1\n      pop\n      jump\t// out\n        /* \"#utility.yul\":1989:2085   */\n    tag_343:\n        /* \"#utility.yul\":2026:2033   */\n      0x00\n        /* \"#utility.yul\":2055:2079   */\n      tag_410\n        /* \"#utility.yul\":2073:2078   */\n      dup3\n        /* \"#utility.yul\":2055:2079   */\n      tag_342\n      jump\t// in\n    tag_410:\n        /* \"#utility.yul\":2044:2079   */\n      swap1\n      pop\n        /* \"#utility.yul\":1989:2085   */\n      swap2\n      swap1\n      pop\n      jump\t// out\n        /* \"#utility.yul\":2091:2213   */\n    tag_344:\n        /* \"#utility.yul\":2164:2188   */\n      tag_412\n        /* \"#utility.yul\":2182:2187   */\n      dup2\n        /* \"#utility.yul\":2164:2188   */\n      tag_343\n      jump\t// in\n    tag_412:\n        /* \"#utility.yul\":2157:2162   */\n      dup2\n        /* \"#utility.yul\":2154:2189   */\n      eq\n        /* \"#utility.yul\":2144:2207   */\n      tag_413\n      jumpi\n        /* \"#utility.yul\":2203:2204   */\n      0x00\n        /* \"#utility.yul\":2200:2201   */\n      0x00\n        /* \"#utility.yul\":2193:2205   */\n      revert\n        /* \"#utility.yul\":2144:2207   */\n    tag_413:\n        /* \"#utility.yul\":2091:2213   */\n      pop\n      jump\t// out\n        /* \"#utility.yul\":2219:2358   */\n    tag_345:\n        /* \"#utility.yul\":2265:2270   */\n      0x00\n        /* \"#utility.yul\":2303:2309   */\n      dup2\n        /* \"#utility.yul\":2290:2310   */\n      calldataload\n        /* \"#utility.yul\":2281:2310   */\n      swap1\n      pop\n        /* \"#utility.yul\":2319:2352   */\n      tag_415\n        /* \"#utility.yul\":2346:2351   */\n      dup2\n        /* \"#utility.yul\":2319:2352   */\n      tag_344\n      jump\t// in\n    tag_415:\n        /* \"#utility.yul\":2219:2358   */\n      swap3\n      swap2\n      pop\n      pop\n      jump\t// out\n        /* \"#utility.yul\":2364:2693   */\n    tag_61:\n        /* \"#utility.yul\":2423:2429   */\n      0x00\n        /* \"#utility.yul\":2472:2474   */\n      0x20\n        /* \"#utility.yul\":2460:2469   */\n      dup3\n        /* \"#utility.yul\":2451:2458   */\n      dup5\n        /* \"#utility.yul\":2447:2470   */\n      sub\n        /* \"#utility.yul\":2443:2475   */\n      slt\n        /* \"#utility.yul\":2440:2559   */\n      iszero\n      tag_417\n      jumpi\n        /* \"#utility.yul\":2478:2557   */\n      tag_418\n      tag_336\n      jump\t// in\n    tag_418:\n        /* \"#utility.yul\":2440:2559   */\n    tag_417:\n        /* \"#utility.yul\":2598:2599   */\n      0x00\n        /* \"#utility.yul\":2623:2676   */\n      tag_419\n        /* \"#utility.yul\":2668:2675   */\n      dup5\n        /* \"#utility.yul\":2659:2665   */\n      dup3\n        /* \"#utility.yul\":2648:2657   */\n      dup6\n        /* \"#utility.yul\":2644:2666   */\n      add\n        /* \"#utility.yul\":2623:2676   */\n      tag_345\n      jump\t// in\n    tag_419:\n        /* \"#utility.yul\":2613:2676   */\n      swap2\n      pop\n        /* \"#utility.yul\":2569:2686   */\n      pop\n        /* \"#utility.yul\":2364:2693   */\n      swap3\n      swap2\n      pop\n      pop\n      jump\t// out\n        /* \"#utility.yul\":2699:2789   */\n    tag_346:\n        /* \"#utility.yul\":2733:2740   */\n      0x00\n        /* \"#utility.yul\":2776:2781   */\n      dup2\n        /* \"#utility.yul\":2769:2782   */\n      iszero\n        /* \"#utility.yul\":2762:2783   */\n      iszero\n        /* \"#utility.yul\":2751:2783   */\n      swap1\n      pop\n        /* \"#utility.yul\":2699:2789   */\n      swap2\n      swap1\n      pop\n      jump\t// out\n        /* \"#utility.yul\":2795:2904   */\n    tag_347:\n        /* \"#utility.yul\":2876:2897   */\n      tag_422\n        /* \"#utility.yul\":2891:2896   */\n      dup2\n        /* \"#utility.yul\":2876:2897   */\n      tag_346\n      jump\t// in\n    tag_422:\n        /* \"#utility.yul\":2871:2874   */\n      dup3\n        /* \"#utility.yul\":2864:2898   */\n      mstore\n        /* \"#utility.yul\":2795:2904   */\n      pop\n      pop\n      jump\t// out\n        /* \"#utility.yul\":2910:3120   */\n    tag_68:\n        /* \"#utility.yul\":2997:3001   */\n      0x00\n        /* \"#utility.yul\":3035:3037   */\n      0x20\n        /* \"#utility.yul\":3024:3033   */\n      dup3\n        /* \"#utility.yul\":3020:3038   */\n      add\n        /* \"#utility.yul\":3012:3038   */\n      swap1\n      pop\n        /* \"#utility.yul\":3048:3113   */\n      tag_424\n        /* \"#utility.yul\":3110:3111   */\n      0x00\n        /* \"#utility.yul\":3099:3108   */\n      dup4\n        /* \"#utility.yul\":3095:3112   */\n      add\n        /* \"#utility.yul\":3086:3092   */\n      dup5\n        /* \"#utility.yul\":3048:3113   */\n      tag_347\n      jump\t// in\n    tag_424:\n        /* \"#utility.yul\":2910:3120   */\n      swap3\n      swap2\n      pop\n      pop\n      jump\t// out\n        /* \"#utility.yul\":3126:3186   */\n    tag_348:\n        /* \"#utility.yul\":3154:3157   */\n      0x00\n        /* \"#utility.yul\":3175:3180   */\n      dup2\n        /* \"#utility.yul\":3168:3180   */\n      swap1\n      pop\n        /* \"#utility.yul\":3126:3186   */\n      swap2\n      swap1\n      pop\n      jump\t// out\n        /* \"#utility.yul\":3192:3334   */\n    tag_349:\n        /* \"#utility.yul\":3242:3251   */\n      0x00\n        /* \"#utility.yul\":3275:3328   */\n      tag_427\n        /* \"#utility.yul\":3293:3327   */\n      tag_428\n        /* \"#utility.yul\":3302:3326   */\n      tag_429\n        /* \"#utility.yul\":3320:3325   */\n      dup5\n        /* \"#utility.yul\":3302:3326   */\n      tag_342\n      jump\t// in\n    tag_429:\n        /* \"#utility.yul\":3293:3327   */\n      tag_348\n      jump\t// in\n    tag_428:\n        /* \"#utility.yul\":3275:3328   */\n      tag_342\n      jump\t// in\n    tag_427:\n        /* \"#utility.yul\":3262:3328   */\n      swap1\n      pop\n        /* \"#utility.yul\":3192:3334   */\n      swap2\n      swap1\n      pop\n      jump\t// out\n        /* \"#utility.yul\":3340:3466   */\n    tag_350:\n        /* \"#utility.yul\":3390:3399   */\n      0x00\n        /* \"#utility.yul\":3423:3460   */\n      tag_431\n        /* \"#utility.yul\":3454:3459   */\n      dup3\n        /* \"#utility.yul\":3423:3460   */\n      tag_349\n      jump\t// in\n    tag_431:\n        /* \"#utility.yul\":3410:3460   */\n      swap1\n      pop\n        /* \"#utility.yul\":3340:3466   */\n      swap2\n      swap1\n      pop\n      jump\t// out\n        /* \"#utility.yul\":3472:3612   */\n    tag_351:\n        /* \"#utility.yul\":3536:3545   */\n      0x00\n        /* \"#utility.yul\":3569:3606   */\n      tag_433\n        /* \"#utility.yul\":3600:3605   */\n      dup3\n        /* \"#utility.yul\":3569:3606   */\n      tag_350\n      jump\t// in\n    tag_433:\n        /* \"#utility.yul\":3556:3606   */\n      swap1\n      pop\n        /* \"#utility.yul\":3472:3612   */\n      swap2\n      swap1\n      pop\n      jump\t// out\n        /* \"#utility.yul\":3618:3777   */\n    tag_352:\n        /* \"#utility.yul\":3719:3770   */\n      tag_435\n        /* \"#utility.yul\":3764:3769   */\n      dup2\n        /* \"#utility.yul\":3719:3770   */\n      tag_351\n      jump\t// in\n    tag_435:\n        /* \"#utility.yul\":3714:3717   */\n      dup3\n        /* \"#utility.yul\":3707:3771   */\n      mstore\n        /* \"#utility.yul\":3618:3777   */\n      pop\n      pop\n      jump\t// out\n        /* \"#utility.yul\":3783:4033   */\n    tag_76:\n        /* \"#utility.yul\":3890:3894   */\n      0x00\n        /* \"#utility.yul\":3928:3930   */\n      0x20\n        /* \"#utility.yul\":3917:3926   */\n      dup3\n        /* \"#utility.yul\":3913:3931   */\n      add\n        /* \"#utility.yul\":3905:3931   */\n      swap1\n      pop\n        /* \"#utility.yul\":3941:4026   */\n      tag_437\n        /* \"#utility.yul\":4023:4024   */\n      0x00\n        /* \"#utility.yul\":4012:4021   */\n      dup4\n        /* \"#utility.yul\":4008:4025   */\n      add\n        /* \"#utility.yul\":3999:4005   */\n      dup5\n        /* \"#utility.yul\":3941:4026   */\n      tag_352\n      jump\t// in\n    tag_437:\n        /* \"#utility.yul\":3783:4033   */\n      swap3\n      swap2\n      pop\n      pop\n      jump\t// out\n        /* \"#utility.yul\":4039:4157   */\n    tag_353:\n        /* \"#utility.yul\":4126:4150   */\n      tag_439\n        /* \"#utility.yul\":4144:4149   */\n      dup2\n        /* \"#utility.yul\":4126:4150   */\n      tag_343\n      jump\t// in\n    tag_439:\n        /* \"#utility.yul\":4121:4124   */\n      dup3\n        /* \"#utility.yul\":4114:4151   */\n      mstore\n        /* \"#utility.yul\":4039:4157   */\n      pop\n      pop\n      jump\t// out\n        /* \"#utility.yul\":4163:4385   */\n    tag_84:\n        /* \"#utility.yul\":4256:4260   */\n      0x00\n        /* \"#utility.yul\":4294:4296   */\n      0x20\n        /* \"#utility.yul\":4283:4292   */\n      dup3\n        /* \"#utility.yul\":4279:4297   */\n      add\n        /* \"#utility.yul\":4271:4297   */\n      swap1\n      pop\n        /* \"#utility.yul\":4307:4378   */\n      tag_441\n        /* \"#utility.yul\":4375:4376   */\n      0x00\n        /* \"#utility.yul\":4364:4373   */\n      dup4\n        /* \"#utility.yul\":4360:4377   */\n      add\n        /* \"#utility.yul\":4351:4357   */\n      dup5\n        /* \"#utility.yul\":4307:4378   */\n      tag_353\n      jump\t// in\n    tag_441:\n        /* \"#utility.yul\":4163:4385   */\n      swap3\n      swap2\n      pop\n      pop\n      jump\t// out\n        /* \"#utility.yul\":4391:4833   */\n    tag_90:\n        /* \"#utility.yul\":4540:4544   */\n      0x00\n        /* \"#utility.yul\":4578:4580   */\n      0x60\n        /* \"#utility.yul\":4567:4576   */\n      dup3\n        /* \"#utility.yul\":4563:4581   */\n      add\n        /* \"#utility.yul\":4555:4581   */\n      swap1\n      pop\n        /* \"#utility.yul\":4591:4662   */\n      tag_443\n        /* \"#utility.yul\":4659:4660   */\n      0x00\n        /* \"#utility.yul\":4648:4657   */\n      dup4\n        /* \"#utility.yul\":4644:4661   */\n      add\n        /* \"#utility.yul\":4635:4641   */\n      dup7\n        /* \"#utility.yul\":4591:4662   */\n      tag_341\n      jump\t// in\n    tag_443:\n        /* \"#utility.yul\":4672:4744   */\n      tag_444\n        /* \"#utility.yul\":4740:4742   */\n      0x20\n        /* \"#utility.yul\":4729:4738   */\n      dup4\n        /* \"#utility.yul\":4725:4743   */\n      add\n        /* \"#utility.yul\":4716:4722   */\n      dup6\n        /* \"#utility.yul\":4672:4744   */\n      tag_341\n      jump\t// in\n    tag_444:\n        /* \"#utility.yul\":4754:4826   */\n      tag_445\n        /* \"#utility.yul\":4822:4824   */\n      0x40\n        /* \"#utility.yul\":4811:4820   */\n      dup4\n        /* \"#utility.yul\":4807:4825   */\n      add\n        /* \"#utility.yul\":4798:4804   */\n      dup5\n        /* \"#utility.yul\":4754:4826   */\n      tag_341\n      jump\t// in\n    tag_445:\n        /* \"#utility.yul\":4391:4833   */\n      swap5\n      swap4\n      pop\n      pop\n      pop\n      pop\n      jump\t// out\n        /* \"#utility.yul\":4839:5008   */\n    tag_354:\n        /* \"#utility.yul\":4923:4934   */\n      0x00\n        /* \"#utility.yul\":4957:4963   */\n      dup3\n        /* \"#utility.yul\":4952:4955   */\n      dup3\n        /* \"#utility.yul\":4945:4964   */\n      mstore\n        /* \"#utility.yul\":4997:5001   */\n      0x20\n        /* \"#utility.yul\":4992:4995   */\n      dup3\n        /* \"#utility.yul\":4988:5002   */\n      add\n        /* \"#utility.yul\":4973:5002   */\n      swap1\n      pop\n        /* \"#utility.yul\":4839:5008   */\n      swap3\n      swap2\n      pop\n      pop\n      jump\t// out\n        /* \"#utility.yul\":5014:5184   */\n    tag_355:\n        /* \"#utility.yul\":5154:5176   */\n      0x44656e6f6d696e61746f72206d757374203e2030000000000000000000000000\n        /* \"#utility.yul\":5150:5151   */\n      0x00\n        /* \"#utility.yul\":5142:5148   */\n      dup3\n        /* \"#utility.yul\":5138:5152   */\n      add\n        /* \"#utility.yul\":5131:5177   */\n      mstore\n        /* \"#utility.yul\":5014:5184   */\n      pop\n      jump\t// out\n        /* \"#utility.yul\":5190:5556   */\n    tag_356:\n        /* \"#utility.yul\":5332:5335   */\n      0x00\n        /* \"#utility.yul\":5353:5420   */\n      tag_449\n        /* \"#utility.yul\":5417:5419   */\n      0x14\n        /* \"#utility.yul\":5412:5415   */\n      dup4\n        /* \"#utility.yul\":5353:5420   */\n      tag_354\n      jump\t// in\n    tag_449:\n        /* \"#utility.yul\":5346:5420   */\n      swap2\n      pop\n        /* \"#utility.yul\":5429:5522   */\n      tag_450\n        /* \"#utility.yul\":5518:5521   */\n      dup3\n        /* \"#utility.yul\":5429:5522   */\n      tag_355\n      jump\t// in\n    tag_450:\n        /* \"#utility.yul\":5547:5549   */\n      0x20\n        /* \"#utility.yul\":5542:5545   */\n      dup3\n        /* \"#utility.yul\":5538:5550   */\n      add\n        /* \"#utility.yul\":5531:5550   */\n      swap1\n      pop\n        /* \"#utility.yul\":5190:5556   */\n      swap2\n      swap1\n      pop\n      jump\t// out\n        /* \"#utility.yul\":5562:5981   */\n    tag_140:\n        /* \"#utility.yul\":5728:5732   */\n      0x00\n        /* \"#utility.yul\":5766:5768   */\n      0x20\n        /* \"#utility.yul\":5755:5764   */\n      dup3\n        /* \"#utility.yul\":5751:5769   */\n      add\n        /* \"#utility.yul\":5743:5769   */\n      swap1\n      pop\n        /* \"#utility.yul\":5815:5824   */\n      dup2\n        /* \"#utility.yul\":5809:5813   */\n      dup2\n        /* \"#utility.yul\":5805:5825   */\n      sub\n        /* \"#utility.yul\":5801:5802   */\n      0x00\n        /* \"#utility.yul\":5790:5799   */\n      dup4\n        /* \"#utility.yul\":5786:5803   */\n      add\n        /* \"#utility.yul\":5779:5826   */\n      mstore\n        /* \"#utility.yul\":5843:5974   */\n      tag_452\n        /* \"#utility.yul\":5969:5973   */\n      dup2\n        /* \"#utility.yul\":5843:5974   */\n      tag_356\n      jump\t// in\n    tag_452:\n        /* \"#utility.yul\":5835:5974   */\n      swap1\n      pop\n        /* \"#utility.yul\":5562:5981   */\n      swap2\n      swap1\n      pop\n      jump\t// out\n        /* \"#utility.yul\":5987:6319   */\n    tag_142:\n        /* \"#utility.yul\":6108:6112   */\n      0x00\n        /* \"#utility.yul\":6146:6148   */\n      0x40\n        /* \"#utility.yul\":6135:6144   */\n      dup3\n        /* \"#utility.yul\":6131:6149   */\n      add\n        /* \"#utility.yul\":6123:6149   */\n      swap1\n      pop\n        /* \"#utility.yul\":6159:6230   */\n      tag_454\n        /* \"#utility.yul\":6227:6228   */\n      0x00\n        /* \"#utility.yul\":6216:6225   */\n      dup4\n        /* \"#utility.yul\":6212:6229   */\n      add\n        /* \"#utility.yul\":6203:6209   */\n      dup6\n        /* \"#utility.yul\":6159:6230   */\n      tag_341\n      jump\t// in\n    tag_454:\n        /* \"#utility.yul\":6240:6312   */\n      tag_455\n        /* \"#utility.yul\":6308:6310   */\n      0x20\n        /* \"#utility.yul\":6297:6306   */\n      dup4\n        /* \"#utility.yul\":6293:6311   */\n      add\n        /* \"#utility.yul\":6284:6290   */\n      dup5\n        /* \"#utility.yul\":6240:6312   */\n      tag_341\n      jump\t// in\n    tag_455:\n        /* \"#utility.yul\":5987:6319   */\n      swap4\n      swap3\n      pop\n      pop\n      pop\n      jump\t// out\n        /* \"#utility.yul\":6325:6767   */\n    tag_148:\n        /* \"#utility.yul\":6474:6478   */\n      0x00\n        /* \"#utility.yul\":6512:6514   */\n      0x60\n        /* \"#utility.yul\":6501:6510   */\n      dup3\n        /* \"#utility.yul\":6497:6515   */\n      add\n        /* \"#utility.yul\":6489:6515   */\n      swap1\n      pop\n        /* \"#utility.yul\":6525:6596   */\n      tag_457\n        /* \"#utility.yul\":6593:6594   */\n      0x00\n        /* \"#utility.yul\":6582:6591   */\n      dup4\n        /* \"#utility.yul\":6578:6595   */\n      add\n        /* \"#utility.yul\":6569:6575   */\n      dup7\n        /* \"#utility.yul\":6525:6596   */\n      tag_353\n      jump\t// in\n    tag_457:\n        /* \"#utility.yul\":6606:6678   */\n      tag_458\n        /* \"#utility.yul\":6674:6676   */\n      0x20\n        /* \"#utility.yul\":6663:6672   */\n      dup4\n        /* \"#utility.yul\":6659:6677   */\n      add\n        /* \"#utility.yul\":6650:6656   */\n      dup6\n        /* \"#utility.yul\":6606:6678   */\n      tag_353\n      jump\t// in\n    tag_458:\n        /* \"#utility.yul\":6688:6760   */\n      tag_459\n        /* \"#utility.yul\":6756:6758   */\n      0x40\n        /* \"#utility.yul\":6745:6754   */\n      dup4\n        /* \"#utility.yul\":6741:6759   */\n      add\n        /* \"#utility.yul\":6732:6738   */\n      dup5\n        /* \"#utility.yul\":6688:6760   */\n      tag_341\n      jump\t// in\n    tag_459:\n        /* \"#utility.yul\":6325:6767   */\n      swap5\n      swap4\n      pop\n      pop\n      pop\n      pop\n      jump\t// out\n        /* \"#utility.yul\":6773:6889   */\n    tag_357:\n        /* \"#utility.yul\":6843:6864   */\n      tag_461\n        /* \"#utility.yul\":6858:6863   */\n      dup2\n        /* \"#utility.yul\":6843:6864   */\n      tag_346\n      jump\t// in\n    tag_461:\n        /* \"#utility.yul\":6836:6841   */\n      dup2\n        /* \"#utility.yul\":6833:6865   */\n      eq\n        /* \"#utility.yul\":6823:6883   */\n      tag_462\n      jumpi\n        /* \"#utility.yul\":6879:6880   */\n      0x00\n        /* \"#utility.yul\":6876:6877   */\n      0x00\n        /* \"#utility.yul\":6869:6881   */\n      revert\n        /* \"#utility.yul\":6823:6883   */\n    tag_462:\n        /* \"#utility.yul\":6773:6889   */\n      pop\n      jump\t// out\n        /* \"#utility.yul\":6895:7032   */\n    tag_358:\n        /* \"#utility.yul\":6949:6954   */\n      0x00\n        /* \"#utility.yul\":6980:6986   */\n      dup2\n        /* \"#utility.yul\":6974:6987   */\n      mload\n        /* \"#utility.yul\":6965:6987   */\n      swap1\n      pop\n        /* \"#utility.yul\":6996:7026   */\n      tag_464\n        /* \"#utility.yul\":7020:7025   */\n      dup2\n        /* \"#utility.yul\":6996:7026   */\n      tag_357\n      jump\t// in\n    tag_464:\n        /* \"#utility.yul\":6895:7032   */\n      swap3\n      swap2\n      pop\n      pop\n      jump\t// out\n        /* \"#utility.yul\":7038:7383   */\n    tag_152:\n        /* \"#utility.yul\":7105:7111   */\n      0x00\n        /* \"#utility.yul\":7154:7156   */\n      0x20\n        /* \"#utility.yul\":7142:7151   */\n      dup3\n        /* \"#utility.yul\":7133:7140   */\n      dup5\n        /* \"#utility.yul\":7129:7152   */\n      sub\n        /* \"#utility.yul\":7125:7157   */\n      slt\n        /* \"#utility.yul\":7122:7241   */\n      iszero\n      tag_466\n      jumpi\n        /* \"#utility.yul\":7160:7239   */\n      tag_467\n      tag_336\n      jump\t// in\n    tag_467:\n        /* \"#utility.yul\":7122:7241   */\n    tag_466:\n        /* \"#utility.yul\":7280:7281   */\n      0x00\n        /* \"#utility.yul\":7305:7366   */\n      tag_468\n        /* \"#utility.yul\":7358:7365   */\n      dup5\n        /* \"#utility.yul\":7349:7355   */\n      dup3\n        /* \"#utility.yul\":7338:7347   */\n      dup6\n        /* \"#utility.yul\":7334:7356   */\n      add\n        /* \"#utility.yul\":7305:7366   */\n      tag_358\n      jump\t// in\n    tag_468:\n        /* \"#utility.yul\":7295:7366   */\n      swap2\n      pop\n        /* \"#utility.yul\":7251:7376   */\n      pop\n        /* \"#utility.yul\":7038:7383   */\n      swap3\n      swap2\n      pop\n      pop\n      jump\t// out\n        /* \"#utility.yul\":7389:7553   */\n    tag_359:\n        /* \"#utility.yul\":7529:7545   */\n      0x4465706f736974206661696c6564000000000000000000000000000000000000\n        /* \"#utility.yul\":7525:7526   */\n      0x00\n        /* \"#utility.yul\":7517:7523   */\n      dup3\n        /* \"#utility.yul\":7513:7527   */\n      add\n        /* \"#utility.yul\":7506:7546   */\n      mstore\n        /* \"#utility.yul\":7389:7553   */\n      pop\n      jump\t// out\n        /* \"#utility.yul\":7559:7925   */\n    tag_360:\n        /* \"#utility.yul\":7701:7704   */\n      0x00\n        /* \"#utility.yul\":7722:7789   */\n      tag_471\n        /* \"#utility.yul\":7786:7788   */\n      0x0e\n        /* \"#utility.yul\":7781:7784   */\n      dup4\n        /* \"#utility.yul\":7722:7789   */\n      tag_354\n      jump\t// in\n    tag_471:\n        /* \"#utility.yul\":7715:7789   */\n      swap2\n      pop\n        /* \"#utility.yul\":7798:7891   */\n      tag_472\n        /* \"#utility.yul\":7887:7890   */\n      dup3\n        /* \"#utility.yul\":7798:7891   */\n      tag_359\n      jump\t// in\n    tag_472:\n        /* \"#utility.yul\":7916:7918   */\n      0x20\n        /* \"#utility.yul\":7911:7914   */\n      dup3\n        /* \"#utility.yul\":7907:7919   */\n      add\n        /* \"#utility.yul\":7900:7919   */\n      swap1\n      pop\n        /* \"#utility.yul\":7559:7925   */\n      swap2\n      swap1\n      pop\n      jump\t// out\n        /* \"#utility.yul\":7931:8350   */\n    tag_155:\n        /* \"#utility.yul\":8097:8101   */\n      0x00\n        /* \"#utility.yul\":8135:8137   */\n      0x20\n        /* \"#utility.yul\":8124:8133   */\n      dup3\n        /* \"#utility.yul\":8120:8138   */\n      add\n        /* \"#utility.yul\":8112:8138   */\n      swap1\n      pop\n        /* \"#utility.yul\":8184:8193   */\n      dup2\n        /* \"#utility.yul\":8178:8182   */\n      dup2\n        /* \"#utility.yul\":8174:8194   */\n      sub\n        /* \"#utility.yul\":8170:8171   */\n      0x00\n        /* \"#utility.yul\":8159:8168   */\n      dup4\n        /* \"#utility.yul\":8155:8172   */\n      add\n        /* \"#utility.yul\":8148:8195   */\n      mstore\n        /* \"#utility.yul\":8212:8343   */\n      tag_474\n        /* \"#utility.yul\":8338:8342   */\n      dup2\n        /* \"#utility.yul\":8212:8343   */\n      tag_360\n      jump\t// in\n    tag_474:\n        /* \"#utility.yul\":8204:8343   */\n      swap1\n      pop\n        /* \"#utility.yul\":7931:8350   */\n      swap2\n      swap1\n      pop\n      jump\t// out\n        /* \"#utility.yul\":8356:8524   */\n    tag_361:\n        /* \"#utility.yul\":8496:8516   */\n      0x496e73756666696369656e74207374616b650000000000000000000000000000\n        /* \"#utility.yul\":8492:8493   */\n      0x00\n        /* \"#utility.yul\":8484:8490   */\n      dup3\n        /* \"#utility.yul\":8480:8494   */\n      add\n        /* \"#utility.yul\":8473:8517   */\n      mstore\n        /* \"#utility.yul\":8356:8524   */\n      pop\n      jump\t// out\n        /* \"#utility.yul\":8530:8896   */\n    tag_362:\n        /* \"#utility.yul\":8672:8675   */\n      0x00\n        /* \"#utility.yul\":8693:8760   */\n      tag_477\n        /* \"#utility.yul\":8757:8759   */\n      0x12\n        /* \"#utility.yul\":8752:8755   */\n      dup4\n        /* \"#utility.yul\":8693:8760   */\n      tag_354\n      jump\t// in\n    tag_477:\n        /* \"#utility.yul\":8686:8760   */\n      swap2\n      pop\n        /* \"#utility.yul\":8769:8862   */\n      tag_478\n        /* \"#utility.yul\":8858:8861   */\n      dup3\n        /* \"#utility.yul\":8769:8862   */\n      tag_361\n      jump\t// in\n    tag_478:\n        /* \"#utility.yul\":8887:8889   */\n      0x20\n        /* \"#utility.yul\":8882:8885   */\n      dup3\n        /* \"#utility.yul\":8878:8890   */\n      add\n        /* \"#utility.yul\":8871:8890   */\n      swap1\n      pop\n        /* \"#utility.yul\":8530:8896   */\n      swap2\n      swap1\n      pop\n      jump\t// out\n        /* \"#utility.yul\":8902:9321   */\n    tag_166:\n        /* \"#utility.yul\":9068:9072   */\n      0x00\n        /* \"#utility.yul\":9106:9108   */\n      0x20\n        /* \"#utility.yul\":9095:9104   */\n      dup3\n        /* \"#utility.yul\":9091:9109   */\n      add\n        /* \"#utility.yul\":9083:9109   */\n      swap1\n      pop\n        /* \"#utility.yul\":9155:9164   */\n      dup2\n        /* \"#utility.yul\":9149:9153   */\n      dup2\n        /* \"#utility.yul\":9145:9165   */\n      sub\n        /* \"#utility.yul\":9141:9142   */\n      0x00\n        /* \"#utility.yul\":9130:9139   */\n      dup4\n        /* \"#utility.yul\":9126:9143   */\n      add\n        /* \"#utility.yul\":9119:9166   */\n      mstore\n        /* \"#utility.yul\":9183:9314   */\n      tag_480\n        /* \"#utility.yul\":9309:9313   */\n      dup2\n        /* \"#utility.yul\":9183:9314   */\n      tag_362\n      jump\t// in\n    tag_480:\n        /* \"#utility.yul\":9175:9314   */\n      swap1\n      pop\n        /* \"#utility.yul\":8902:9321   */\n      swap2\n      swap1\n      pop\n      jump\t// out\n        /* \"#utility.yul\":9327:9507   */\n    tag_363:\n        /* \"#utility.yul\":9375:9452   */\n      0x4e487b7100000000000000000000000000000000000000000000000000000000\n        /* \"#utility.yul\":9372:9373   */\n      0x00\n        /* \"#utility.yul\":9365:9453   */\n      mstore\n        /* \"#utility.yul\":9472:9476   */\n      0x11\n        /* \"#utility.yul\":9469:9470   */\n      0x04\n        /* \"#utility.yul\":9462:9477   */\n      mstore\n        /* \"#utility.yul\":9496:9500   */\n      0x24\n        /* \"#utility.yul\":9493:9494   */\n      0x00\n        /* \"#utility.yul\":9486:9501   */\n      revert\n        /* \"#utility.yul\":9513:9707   */\n    tag_170:\n        /* \"#utility.yul\":9553:9557   */\n      0x00\n        /* \"#utility.yul\":9573:9593   */\n      tag_483\n        /* \"#utility.yul\":9591:9592   */\n      dup3\n        /* \"#utility.yul\":9573:9593   */\n      tag_338\n      jump\t// in\n    tag_483:\n        /* \"#utility.yul\":9568:9593   */\n      swap2\n      pop\n        /* \"#utility.yul\":9607:9627   */\n      tag_484\n        /* \"#utility.yul\":9625:9626   */\n      dup4\n        /* \"#utility.yul\":9607:9627   */\n      tag_338\n      jump\t// in\n    tag_484:\n        /* \"#utility.yul\":9602:9627   */\n      swap3\n      pop\n        /* \"#utility.yul\":9651:9652   */\n      dup3\n        /* \"#utility.yul\":9648:9649   */\n      dup3\n        /* \"#utility.yul\":9644:9653   */\n      sub\n        /* \"#utility.yul\":9636:9653   */\n      swap1\n      pop\n        /* \"#utility.yul\":9675:9676   */\n      dup2\n        /* \"#utility.yul\":9669:9673   */\n      dup2\n        /* \"#utility.yul\":9666:9677   */\n      gt\n        /* \"#utility.yul\":9663:9700   */\n      iszero\n      tag_485\n      jumpi\n        /* \"#utility.yul\":9680:9698   */\n      tag_486\n      tag_363\n      jump\t// in\n    tag_486:\n        /* \"#utility.yul\":9663:9700   */\n    tag_485:\n        /* \"#utility.yul\":9513:9707   */\n      swap3\n      swap2\n      pop\n      pop\n      jump\t// out\n        /* \"#utility.yul\":9713:10045   */\n    tag_173:\n        /* \"#utility.yul\":9834:9838   */\n      0x00\n        /* \"#utility.yul\":9872:9874   */\n      0x40\n        /* \"#utility.yul\":9861:9870   */\n      dup3\n        /* \"#utility.yul\":9857:9875   */\n      add\n        /* \"#utility.yul\":9849:9875   */\n      swap1\n      pop\n        /* \"#utility.yul\":9885:9956   */\n      tag_488\n        /* \"#utility.yul\":9953:9954   */\n      0x00\n        /* \"#utility.yul\":9942:9951   */\n      dup4\n        /* \"#utility.yul\":9938:9955   */\n      add\n        /* \"#utility.yul\":9929:9935   */\n      dup6\n        /* \"#utility.yul\":9885:9956   */\n      tag_353\n      jump\t// in\n    tag_488:\n        /* \"#utility.yul\":9966:10038   */\n      tag_489\n        /* \"#utility.yul\":10034:10036   */\n      0x20\n        /* \"#utility.yul\":10023:10032   */\n      dup4\n        /* \"#utility.yul\":10019:10037   */\n      add\n        /* \"#utility.yul\":10010:10016   */\n      dup5\n        /* \"#utility.yul\":9966:10038   */\n      tag_341\n      jump\t// in\n    tag_489:\n        /* \"#utility.yul\":9713:10045   */\n      swap4\n      swap3\n      pop\n      pop\n      pop\n      jump\t// out\n        /* \"#utility.yul\":10051:10230   */\n    tag_364:\n        /* \"#utility.yul\":10191:10222   */\n      0x556e7374616b6520746f6b656e207472616e73666572206661696c6564000000\n        /* \"#utility.yul\":10187:10188   */\n      0x00\n        /* \"#utility.yul\":10179:10185   */\n      dup3\n        /* \"#utility.yul\":10175:10189   */\n      add\n        /* \"#utility.yul\":10168:10223   */\n      mstore\n        /* \"#utility.yul\":10051:10230   */\n      pop\n      jump\t// out\n        /* \"#utility.yul\":10236:10602   */\n    tag_365:\n        /* \"#utility.yul\":10378:10381   */\n      0x00\n        /* \"#utility.yul\":10399:10466   */\n      tag_492\n        /* \"#utility.yul\":10463:10465   */\n      0x1d\n        /* \"#utility.yul\":10458:10461   */\n      dup4\n        /* \"#utility.yul\":10399:10466   */\n      tag_354\n      jump\t// in\n    tag_492:\n        /* \"#utility.yul\":10392:10466   */\n      swap2\n      pop\n        /* \"#utility.yul\":10475:10568   */\n      tag_493\n        /* \"#utility.yul\":10564:10567   */\n      dup3\n        /* \"#utility.yul\":10475:10568   */\n      tag_364\n      jump\t// in\n    tag_493:\n        /* \"#utility.yul\":10593:10595   */\n      0x20\n        /* \"#utility.yul\":10588:10591   */\n      dup3\n        /* \"#utility.yul\":10584:10596   */\n      add\n        /* \"#utility.yul\":10577:10596   */\n      swap1\n      pop\n        /* \"#utility.yul\":10236:10602   */\n      swap2\n      swap1\n      pop\n      jump\t// out\n        /* \"#utility.yul\":10608:11027   */\n    tag_179:\n        /* \"#utility.yul\":10774:10778   */\n      0x00\n        /* \"#utility.yul\":10812:10814   */\n      0x20\n        /* \"#utility.yul\":10801:10810   */\n      dup3\n        /* \"#utility.yul\":10797:10815   */\n      add\n        /* \"#utility.yul\":10789:10815   */\n      swap1\n      pop\n        /* \"#utility.yul\":10861:10870   */\n      dup2\n        /* \"#utility.yul\":10855:10859   */\n      dup2\n        /* \"#utility.yul\":10851:10871   */\n      sub\n        /* \"#utility.yul\":10847:10848   */\n      0x00\n        /* \"#utility.yul\":10836:10845   */\n      dup4\n        /* \"#utility.yul\":10832:10849   */\n      add\n        /* \"#utility.yul\":10825:10872   */\n      mstore\n        /* \"#utility.yul\":10889:11020   */\n      tag_495\n        /* \"#utility.yul\":11015:11019   */\n      dup2\n        /* \"#utility.yul\":10889:11020   */\n      tag_365\n      jump\t// in\n    tag_495:\n        /* \"#utility.yul\":10881:11020   */\n      swap1\n      pop\n        /* \"#utility.yul\":10608:11027   */\n      swap2\n      swap1\n      pop\n      jump\t// out\n        /* \"#utility.yul\":11033:11202   */\n    tag_366:\n        /* \"#utility.yul\":11173:11194   */\n      0x4d75737420706179206e61746976652066656500000000000000000000000000\n        /* \"#utility.yul\":11169:11170   */\n      0x00\n        /* \"#utility.yul\":11161:11167   */\n      dup3\n        /* \"#utility.yul\":11157:11171   */\n      add\n        /* \"#utility.yul\":11150:11195   */\n      mstore\n        /* \"#utility.yul\":11033:11202   */\n      pop\n      jump\t// out\n        /* \"#utility.yul\":11208:11574   */\n    tag_367:\n        /* \"#utility.yul\":11350:11353   */\n      0x00\n        /* \"#utility.yul\":11371:11438   */\n      tag_498\n        /* \"#utility.yul\":11435:11437   */\n      0x13\n        /* \"#utility.yul\":11430:11433   */\n      dup4\n        /* \"#utility.yul\":11371:11438   */\n      tag_354\n      jump\t// in\n    tag_498:\n        /* \"#utility.yul\":11364:11438   */\n      swap2\n      pop\n        /* \"#utility.yul\":11447:11540   */\n      tag_499\n        /* \"#utility.yul\":11536:11539   */\n      dup3\n        /* \"#utility.yul\":11447:11540   */\n      tag_366\n      jump\t// in\n    tag_499:\n        /* \"#utility.yul\":11565:11567   */\n      0x20\n        /* \"#utility.yul\":11560:11563   */\n      dup3\n        /* \"#utility.yul\":11556:11568   */\n      add\n        /* \"#utility.yul\":11549:11568   */\n      swap1\n      pop\n        /* \"#utility.yul\":11208:11574   */\n      swap2\n      swap1\n      pop\n      jump\t// out\n        /* \"#utility.yul\":11580:11999   */\n    tag_210:\n        /* \"#utility.yul\":11746:11750   */\n      0x00\n        /* \"#utility.yul\":11784:11786   */\n      0x20\n        /* \"#utility.yul\":11773:11782   */\n      dup3\n        /* \"#utility.yul\":11769:11787   */\n      add\n        /* \"#utility.yul\":11761:11787   */\n      swap1\n      pop\n        /* \"#utility.yul\":11833:11842   */\n      dup2\n        /* \"#utility.yul\":11827:11831   */\n      dup2\n        /* \"#utility.yul\":11823:11843   */\n      sub\n        /* \"#utility.yul\":11819:11820   */\n      0x00\n        /* \"#utility.yul\":11808:11817   */\n      dup4\n        /* \"#utility.yul\":11804:11821   */\n      add\n        /* \"#utility.yul\":11797:11844   */\n      mstore\n        /* \"#utility.yul\":11861:11992   */\n      tag_501\n        /* \"#utility.yul\":11987:11991   */\n      dup2\n        /* \"#utility.yul\":11861:11992   */\n      tag_367\n      jump\t// in\n    tag_501:\n        /* \"#utility.yul\":11853:11992   */\n      swap1\n      pop\n        /* \"#utility.yul\":11580:11999   */\n      swap2\n      swap1\n      pop\n      jump\t// out\n        /* \"#utility.yul\":12005:12170   */\n    tag_368:\n        /* \"#utility.yul\":12145:12162   */\n      0x416d6f756e74206d757374203e20300000000000000000000000000000000000\n        /* \"#utility.yul\":12141:12142   */\n      0x00\n        /* \"#utility.yul\":12133:12139   */\n      dup3\n        /* \"#utility.yul\":12129:12143   */\n      add\n        /* \"#utility.yul\":12122:12163   */\n      mstore\n        /* \"#utility.yul\":12005:12170   */\n      pop\n      jump\t// out\n        /* \"#utility.yul\":12176:12542   */\n    tag_369:\n        /* \"#utility.yul\":12318:12321   */\n      0x00\n        /* \"#utility.yul\":12339:12406   */\n      tag_504\n        /* \"#utility.yul\":12403:12405   */\n      0x0f\n        /* \"#utility.yul\":12398:12401   */\n      dup4\n        /* \"#utility.yul\":12339:12406   */\n      tag_354\n      jump\t// in\n    tag_504:\n        /* \"#utility.yul\":12332:12406   */\n      swap2\n      pop\n        /* \"#utility.yul\":12415:12508   */\n      tag_505\n        /* \"#utility.yul\":12504:12507   */\n      dup3\n        /* \"#utility.yul\":12415:12508   */\n      tag_368\n      jump\t// in\n    tag_505:\n        /* \"#utility.yul\":12533:12535   */\n      0x20\n        /* \"#utility.yul\":12528:12531   */\n      dup3\n        /* \"#utility.yul\":12524:12536   */\n      add\n        /* \"#utility.yul\":12517:12536   */\n      swap1\n      pop\n        /* \"#utility.yul\":12176:12542   */\n      swap2\n      swap1\n      pop\n      jump\t// out\n        /* \"#utility.yul\":12548:12967   */\n    tag_213:\n        /* \"#utility.yul\":12714:12718   */\n      0x00\n        /* \"#utility.yul\":12752:12754   */\n      0x20\n        /* \"#utility.yul\":12741:12750   */\n      dup3\n        /* \"#utility.yul\":12737:12755   */\n      add\n        /* \"#utility.yul\":12729:12755   */\n      swap1\n      pop\n        /* \"#utility.yul\":12801:12810   */\n      dup2\n        /* \"#utility.yul\":12795:12799   */\n      dup2\n        /* \"#utility.yul\":12791:12811   */\n      sub\n        /* \"#utility.yul\":12787:12788   */\n      0x00\n        /* \"#utility.yul\":12776:12785   */\n      dup4\n        /* \"#utility.yul\":12772:12789   */\n      add\n        /* \"#utility.yul\":12765:12812   */\n      mstore\n        /* \"#utility.yul\":12829:12960   */\n      tag_507\n        /* \"#utility.yul\":12955:12959   */\n      dup2\n        /* \"#utility.yul\":12829:12960   */\n      tag_369\n      jump\t// in\n    tag_507:\n        /* \"#utility.yul\":12821:12960   */\n      swap1\n      pop\n        /* \"#utility.yul\":12548:12967   */\n      swap2\n      swap1\n      pop\n      jump\t// out\n        /* \"#utility.yul\":12973:13150   */\n    tag_370:\n        /* \"#utility.yul\":13113:13142   */\n      0x5374616b6520746f6b656e207472616e73666572206661696c65640000000000\n        /* \"#utility.yul\":13109:13110   */\n      0x00\n        /* \"#utility.yul\":13101:13107   */\n      dup3\n        /* \"#utility.yul\":13097:13111   */\n      add\n        /* \"#utility.yul\":13090:13143   */\n      mstore\n        /* \"#utility.yul\":12973:13150   */\n      pop\n      jump\t// out\n        /* \"#utility.yul\":13156:13522   */\n    tag_371:\n        /* \"#utility.yul\":13298:13301   */\n      0x00\n        /* \"#utility.yul\":13319:13386   */\n      tag_510\n        /* \"#utility.yul\":13383:13385   */\n      0x1b\n        /* \"#utility.yul\":13378:13381   */\n      dup4\n        /* \"#utility.yul\":13319:13386   */\n      tag_354\n      jump\t// in\n    tag_510:\n        /* \"#utility.yul\":13312:13386   */\n      swap2\n      pop\n        /* \"#utility.yul\":13395:13488   */\n      tag_511\n        /* \"#utility.yul\":13484:13487   */\n      dup3\n        /* \"#utility.yul\":13395:13488   */\n      tag_370\n      jump\t// in\n    tag_511:\n        /* \"#utility.yul\":13513:13515   */\n      0x20\n        /* \"#utility.yul\":13508:13511   */\n      dup3\n        /* \"#utility.yul\":13504:13516   */\n      add\n        /* \"#utility.yul\":13497:13516   */\n      swap1\n      pop\n        /* \"#utility.yul\":13156:13522   */\n      swap2\n      swap1\n      pop\n      jump\t// out\n        /* \"#utility.yul\":13528:13947   */\n    tag_224:\n        /* \"#utility.yul\":13694:13698   */\n      0x00\n        /* \"#utility.yul\":13732:13734   */\n      0x20\n        /* \"#utility.yul\":13721:13730   */\n      dup3\n        /* \"#utility.yul\":13717:13735   */\n      add\n        /* \"#utility.yul\":13709:13735   */\n      swap1\n      pop\n        /* \"#utility.yul\":13781:13790   */\n      dup2\n        /* \"#utility.yul\":13775:13779   */\n      dup2\n        /* \"#utility.yul\":13771:13791   */\n      sub\n        /* \"#utility.yul\":13767:13768   */\n      0x00\n        /* \"#utility.yul\":13756:13765   */\n      dup4\n        /* \"#utility.yul\":13752:13769   */\n      add\n        /* \"#utility.yul\":13745:13792   */\n      mstore\n        /* \"#utility.yul\":13809:13940   */\n      tag_513\n        /* \"#utility.yul\":13935:13939   */\n      dup2\n        /* \"#utility.yul\":13809:13940   */\n      tag_371\n      jump\t// in\n    tag_513:\n        /* \"#utility.yul\":13801:13940   */\n      swap1\n      pop\n        /* \"#utility.yul\":13528:13947   */\n      swap2\n      swap1\n      pop\n      jump\t// out\n        /* \"#utility.yul\":13953:14144   */\n    tag_226:\n        /* \"#utility.yul\":13993:13996   */\n      0x00\n        /* \"#utility.yul\":14012:14032   */\n      tag_515\n        /* \"#utility.yul\":14030:14031   */\n      dup3\n        /* \"#utility.yul\":14012:14032   */\n      tag_338\n      jump\t// in\n    tag_515:\n        /* \"#utility.yul\":14007:14032   */\n      swap2\n      pop\n        /* \"#utility.yul\":14046:14066   */\n      tag_516\n        /* \"#utility.yul\":14064:14065   */\n      dup4\n        /* \"#utility.yul\":14046:14066   */\n      tag_338\n      jump\t// in\n    tag_516:\n        /* \"#utility.yul\":14041:14066   */\n      swap3\n      pop\n        /* \"#utility.yul\":14089:14090   */\n      dup3\n        /* \"#utility.yul\":14086:14087   */\n      dup3\n        /* \"#utility.yul\":14082:14091   */\n      add\n        /* \"#utility.yul\":14075:14091   */\n      swap1\n      pop\n        /* \"#utility.yul\":14110:14113   */\n      dup1\n        /* \"#utility.yul\":14107:14108   */\n      dup3\n        /* \"#utility.yul\":14104:14114   */\n      gt\n        /* \"#utility.yul\":14101:14137   */\n      iszero\n      tag_517\n      jumpi\n        /* \"#utility.yul\":14117:14135   */\n      tag_518\n      tag_363\n      jump\t// in\n    tag_518:\n        /* \"#utility.yul\":14101:14137   */\n    tag_517:\n        /* \"#utility.yul\":13953:14144   */\n      swap3\n      swap2\n      pop\n      pop\n      jump\t// out\n        /* \"#utility.yul\":14150:14309   */\n    tag_372:\n        /* \"#utility.yul\":14290:14301   */\n      0x4e6f207265776172640000000000000000000000000000000000000000000000\n        /* \"#utility.yul\":14286:14287   */\n      0x00\n        /* \"#utility.yul\":14278:14284   */\n      dup3\n        /* \"#utility.yul\":14274:14288   */\n      add\n        /* \"#utility.yul\":14267:14302   */\n      mstore\n        /* \"#utility.yul\":14150:14309   */\n      pop\n      jump\t// out\n        /* \"#utility.yul\":14315:14680   */\n    tag_373:\n        /* \"#utility.yul\":14457:14460   */\n      0x00\n        /* \"#utility.yul\":14478:14544   */\n      tag_521\n        /* \"#utility.yul\":14542:14543   */\n      0x09\n        /* \"#utility.yul\":14537:14540   */\n      dup4\n        /* \"#utility.yul\":14478:14544   */\n      tag_354\n      jump\t// in\n    tag_521:\n        /* \"#utility.yul\":14471:14544   */\n      swap2\n      pop\n        /* \"#utility.yul\":14553:14646   */\n      tag_522\n        /* \"#utility.yul\":14642:14645   */\n      dup3\n        /* \"#utility.yul\":14553:14646   */\n      tag_372\n      jump\t// in\n    tag_522:\n        /* \"#utility.yul\":14671:14673   */\n      0x20\n        /* \"#utility.yul\":14666:14669   */\n      dup3\n        /* \"#utility.yul\":14662:14674   */\n      add\n        /* \"#utility.yul\":14655:14674   */\n      swap1\n      pop\n        /* \"#utility.yul\":14315:14680   */\n      swap2\n      swap1\n      pop\n      jump\t// out\n        /* \"#utility.yul\":14686:15105   */\n    tag_238:\n        /* \"#utility.yul\":14852:14856   */\n      0x00\n        /* \"#utility.yul\":14890:14892   */\n      0x20\n        /* \"#utility.yul\":14879:14888   */\n      dup3\n        /* \"#utility.yul\":14875:14893   */\n      add\n        /* \"#utility.yul\":14867:14893   */\n      swap1\n      pop\n        /* \"#utility.yul\":14939:14948   */\n      dup2\n        /* \"#utility.yul\":14933:14937   */\n      dup2\n        /* \"#utility.yul\":14929:14949   */\n      sub\n        /* \"#utility.yul\":14925:14926   */\n      0x00\n        /* \"#utility.yul\":14914:14923   */\n      dup4\n        /* \"#utility.yul\":14910:14927   */\n      add\n        /* \"#utility.yul\":14903:14950   */\n      mstore\n        /* \"#utility.yul\":14967:15098   */\n      tag_524\n        /* \"#utility.yul\":15093:15097   */\n      dup2\n        /* \"#utility.yul\":14967:15098   */\n      tag_373\n      jump\t// in\n    tag_524:\n        /* \"#utility.yul\":14959:15098   */\n      swap1\n      pop\n        /* \"#utility.yul\":14686:15105   */\n      swap2\n      swap1\n      pop\n      jump\t// out\n        /* \"#utility.yul\":15111:15283   */\n    tag_374:\n        /* \"#utility.yul\":15251:15275   */\n      0x526577617264207472616e73666572206661696c656400000000000000000000\n        /* \"#utility.yul\":15247:15248   */\n      0x00\n        /* \"#utility.yul\":15239:15245   */\n      dup3\n        /* \"#utility.yul\":15235:15249   */\n      add\n        /* \"#utility.yul\":15228:15276   */\n      mstore\n        /* \"#utility.yul\":15111:15283   */\n      pop\n      jump\t// out\n        /* \"#utility.yul\":15289:15655   */\n    tag_375:\n        /* \"#utility.yul\":15431:15434   */\n      0x00\n        /* \"#utility.yul\":15452:15519   */\n      tag_527\n        /* \"#utility.yul\":15516:15518   */\n      0x16\n        /* \"#utility.yul\":15511:15514   */\n      dup4\n        /* \"#utility.yul\":15452:15519   */\n      tag_354\n      jump\t// in\n    tag_527:\n        /* \"#utility.yul\":15445:15519   */\n      swap2\n      pop\n        /* \"#utility.yul\":15528:15621   */\n      tag_528\n        /* \"#utility.yul\":15617:15620   */\n      dup3\n        /* \"#utility.yul\":15528:15621   */\n      tag_374\n      jump\t// in\n    tag_528:\n        /* \"#utility.yul\":15646:15648   */\n      0x20\n        /* \"#utility.yul\":15641:15644   */\n      dup3\n        /* \"#utility.yul\":15637:15649   */\n      add\n        /* \"#utility.yul\":15630:15649   */\n      swap1\n      pop\n        /* \"#utility.yul\":15289:15655   */\n      swap2\n      swap1\n      pop\n      jump\t// out\n        /* \"#utility.yul\":15661:16080   */\n    tag_245:\n        /* \"#utility.yul\":15827:15831   */\n      0x00\n        /* \"#utility.yul\":15865:15867   */\n      0x20\n        /* \"#utility.yul\":15854:15863   */\n      dup3\n        /* \"#utility.yul\":15850:15868   */\n      add\n        /* \"#utility.yul\":15842:15868   */\n      swap1\n      pop\n        /* \"#utility.yul\":15914:15923   */\n      dup2\n        /* \"#utility.yul\":15908:15912   */\n      dup2\n        /* \"#utility.yul\":15904:15924   */\n      sub\n        /* \"#utility.yul\":15900:15901   */\n      0x00\n        /* \"#utility.yul\":15889:15898   */\n      dup4\n        /* \"#utility.yul\":15885:15902   */\n      add\n        /* \"#utility.yul\":15878:15925   */\n      mstore\n        /* \"#utility.yul\":15942:16073   */\n      tag_530\n        /* \"#utility.yul\":16068:16072   */\n      dup2\n        /* \"#utility.yul\":15942:16073   */\n      tag_375\n      jump\t// in\n    tag_530:\n        /* \"#utility.yul\":15934:16073   */\n      swap1\n      pop\n        /* \"#utility.yul\":15661:16080   */\n      swap2\n      swap1\n      pop\n      jump\t// out\n        /* \"#utility.yul\":16086:16496   */\n    tag_255:\n        /* \"#utility.yul\":16126:16133   */\n      0x00\n        /* \"#utility.yul\":16149:16169   */\n      tag_532\n        /* \"#utility.yul\":16167:16168   */\n      dup3\n        /* \"#utility.yul\":16149:16169   */\n      tag_338\n      jump\t// in\n    tag_532:\n        /* \"#utility.yul\":16144:16169   */\n      swap2\n      pop\n        /* \"#utility.yul\":16183:16203   */\n      tag_533\n        /* \"#utility.yul\":16201:16202   */\n      dup4\n        /* \"#utility.yul\":16183:16203   */\n      tag_338\n      jump\t// in\n    tag_533:\n        /* \"#utility.yul\":16178:16203   */\n      swap3\n      pop\n        /* \"#utility.yul\":16238:16239   */\n      dup3\n        /* \"#utility.yul\":16235:16236   */\n      dup3\n        /* \"#utility.yul\":16231:16240   */\n      mul\n        /* \"#utility.yul\":16260:16290   */\n      tag_534\n        /* \"#utility.yul\":16278:16289   */\n      dup2\n        /* \"#utility.yul\":16260:16290   */\n      tag_338\n      jump\t// in\n    tag_534:\n        /* \"#utility.yul\":16249:16290   */\n      swap2\n      pop\n        /* \"#utility.yul\":16439:16440   */\n      dup3\n        /* \"#utility.yul\":16430:16437   */\n      dup3\n        /* \"#utility.yul\":16426:16441   */\n      div\n        /* \"#utility.yul\":16423:16424   */\n      dup5\n        /* \"#utility.yul\":16420:16442   */\n      eq\n        /* \"#utility.yul\":16400:16401   */\n      dup4\n        /* \"#utility.yul\":16393:16402   */\n      iszero\n        /* \"#utility.yul\":16373:16456   */\n      or\n        /* \"#utility.yul\":16350:16489   */\n      tag_535\n      jumpi\n        /* \"#utility.yul\":16469:16487   */\n      tag_536\n      tag_363\n      jump\t// in\n    tag_536:\n        /* \"#utility.yul\":16350:16489   */\n    tag_535:\n        /* \"#utility.yul\":16134:16496   */\n      pop\n        /* \"#utility.yul\":16086:16496   */\n      swap3\n      swap2\n      pop\n      pop\n      jump\t// out\n        /* \"#utility.yul\":16502:16682   */\n    tag_376:\n        /* \"#utility.yul\":16550:16627   */\n      0x4e487b7100000000000000000000000000000000000000000000000000000000\n        /* \"#utility.yul\":16547:16548   */\n      0x00\n        /* \"#utility.yul\":16540:16628   */\n      mstore\n        /* \"#utility.yul\":16647:16651   */\n      0x12\n        /* \"#utility.yul\":16644:16645   */\n      0x04\n        /* \"#utility.yul\":16637:16652   */\n      mstore\n        /* \"#utility.yul\":16671:16675   */\n      0x24\n        /* \"#utility.yul\":16668:16669   */\n      0x00\n        /* \"#utility.yul\":16661:16676   */\n      revert\n        /* \"#utility.yul\":16688:16873   */\n    tag_257:\n        /* \"#utility.yul\":16728:16729   */\n      0x00\n        /* \"#utility.yul\":16745:16765   */\n      tag_539\n        /* \"#utility.yul\":16763:16764   */\n      dup3\n        /* \"#utility.yul\":16745:16765   */\n      tag_338\n      jump\t// in\n    tag_539:\n        /* \"#utility.yul\":16740:16765   */\n      swap2\n      pop\n        /* \"#utility.yul\":16779:16799   */\n      tag_540\n        /* \"#utility.yul\":16797:16798   */\n      dup4\n        /* \"#utility.yul\":16779:16799   */\n      tag_338\n      jump\t// in\n    tag_540:\n        /* \"#utility.yul\":16774:16799   */\n      swap3\n      pop\n        /* \"#utility.yul\":16818:16819   */\n      dup3\n        /* \"#utility.yul\":16808:16843   */\n      tag_541\n      jumpi\n        /* \"#utility.yul\":16823:16841   */\n      tag_542\n      tag_376\n      jump\t// in\n    tag_542:\n        /* \"#utility.yul\":16808:16843   */\n    tag_541:\n        /* \"#utility.yul\":16865:16866   */\n      dup3\n        /* \"#utility.yul\":16862:16863   */\n      dup3\n        /* \"#utility.yul\":16858:16867   */\n      div\n        /* \"#utility.yul\":16853:16867   */\n      swap1\n      pop\n        /* \"#utility.yul\":16688:16873   */\n      swap3\n      swap2\n      pop\n      pop\n      jump\t// out\n        /* \"#utility.yul\":16879:17044   */\n    tag_377:\n        /* \"#utility.yul\":17019:17036   */\n      0x5769746864726177206661696c65640000000000000000000000000000000000\n        /* \"#utility.yul\":17015:17016   */\n      0x00\n        /* \"#utility.yul\":17007:17013   */\n      dup3\n        /* \"#utility.yul\":17003:17017   */\n      add\n        /* \"#utility.yul\":16996:17037   */\n      mstore\n        /* \"#utility.yul\":16879:17044   */\n      pop\n      jump\t// out\n        /* \"#utility.yul\":17050:17416   */\n    tag_378:\n        /* \"#utility.yul\":17192:17195   */\n      0x00\n        /* \"#utility.yul\":17213:17280   */\n      tag_545\n        /* \"#utility.yul\":17277:17279   */\n      0x0f\n        /* \"#utility.yul\":17272:17275   */\n      dup4\n        /* \"#utility.yul\":17213:17280   */\n      tag_354\n      jump\t// in\n    tag_545:\n        /* \"#utility.yul\":17206:17280   */\n      swap2\n      pop\n        /* \"#utility.yul\":17289:17382   */\n      tag_546\n        /* \"#utility.yul\":17378:17381   */\n      dup3\n        /* \"#utility.yul\":17289:17382   */\n      tag_377\n      jump\t// in\n    tag_546:\n        /* \"#utility.yul\":17407:17409   */\n      0x20\n        /* \"#utility.yul\":17402:17405   */\n      dup3\n        /* \"#utility.yul\":17398:17410   */\n      add\n        /* \"#utility.yul\":17391:17410   */\n      swap1\n      pop\n        /* \"#utility.yul\":17050:17416   */\n      swap2\n      swap1\n      pop\n      jump\t// out\n        /* \"#utility.yul\":17422:17841   */\n    tag_272:\n        /* \"#utility.yul\":17588:17592   */\n      0x00\n        /* \"#utility.yul\":17626:17628   */\n      0x20\n        /* \"#utility.yul\":17615:17624   */\n      dup3\n        /* \"#utility.yul\":17611:17629   */\n      add\n        /* \"#utility.yul\":17603:17629   */\n      swap1\n      pop\n        /* \"#utility.yul\":17675:17684   */\n      dup2\n        /* \"#utility.yul\":17669:17673   */\n      dup2\n        /* \"#utility.yul\":17665:17685   */\n      sub\n        /* \"#utility.yul\":17661:17662   */\n      0x00\n        /* \"#utility.yul\":17650:17659   */\n      dup4\n        /* \"#utility.yul\":17646:17663   */\n      add\n        /* \"#utility.yul\":17639:17686   */\n      mstore\n        /* \"#utility.yul\":17703:17834   */\n      tag_548\n        /* \"#utility.yul\":17829:17833   */\n      dup2\n        /* \"#utility.yul\":17703:17834   */\n      tag_378\n      jump\t// in\n    tag_548:\n        /* \"#utility.yul\":17695:17834   */\n      swap1\n      pop\n        /* \"#utility.yul\":17422:17841   */\n      swap2\n      swap1\n      pop\n      jump\t// out\n        /* \"#utility.yul\":17847:18028   */\n    tag_379:\n        /* \"#utility.yul\":17987:18020   */\n      0x5265656e7472616e637947756172643a207265656e7472616e742063616c6c00\n        /* \"#utility.yul\":17983:17984   */\n      0x00\n        /* \"#utility.yul\":17975:17981   */\n      dup3\n        /* \"#utility.yul\":17971:17985   */\n      add\n        /* \"#utility.yul\":17964:18021   */\n      mstore\n        /* \"#utility.yul\":17847:18028   */\n      pop\n      jump\t// out\n        /* \"#utility.yul\":18034:18400   */\n    tag_380:\n        /* \"#utility.yul\":18176:18179   */\n      0x00\n        /* \"#utility.yul\":18197:18264   */\n      tag_551\n        /* \"#utility.yul\":18261:18263   */\n      0x1f\n        /* \"#utility.yul\":18256:18259   */\n      dup4\n        /* \"#utility.yul\":18197:18264   */\n      tag_354\n      jump\t// in\n    tag_551:\n        /* \"#utility.yul\":18190:18264   */\n      swap2\n      pop\n        /* \"#utility.yul\":18273:18366   */\n      tag_552\n        /* \"#utility.yul\":18362:18365   */\n      dup3\n        /* \"#utility.yul\":18273:18366   */\n      tag_379\n      jump\t// in\n    tag_552:\n        /* \"#utility.yul\":18391:18393   */\n      0x20\n        /* \"#utility.yul\":18386:18389   */\n      dup3\n        /* \"#utility.yul\":18382:18394   */\n      add\n        /* \"#utility.yul\":18375:18394   */\n      swap1\n      pop\n        /* \"#utility.yul\":18034:18400   */\n      swap2\n      swap1\n      pop\n      jump\t// out\n        /* \"#utility.yul\":18406:18825   */\n    tag_291:\n        /* \"#utility.yul\":18572:18576   */\n      0x00\n        /* \"#utility.yul\":18610:18612   */\n      0x20\n        /* \"#utility.yul\":18599:18608   */\n      dup3\n        /* \"#utility.yul\":18595:18613   */\n      add\n        /* \"#utility.yul\":18587:18613   */\n      swap1\n      pop\n        /* \"#utility.yul\":18659:18668   */\n      dup2\n        /* \"#utility.yul\":18653:18657   */\n      dup2\n        /* \"#utility.yul\":18649:18669   */\n      sub\n        /* \"#utility.yul\":18645:18646   */\n      0x00\n        /* \"#utility.yul\":18634:18643   */\n      dup4\n        /* \"#utility.yul\":18630:18647   */\n      add\n        /* \"#utility.yul\":18623:18670   */\n      mstore\n        /* \"#utility.yul\":18687:18818   */\n      tag_554\n        /* \"#utility.yul\":18813:18817   */\n      dup2\n        /* \"#utility.yul\":18687:18818   */\n      tag_380\n      jump\t// in\n    tag_554:\n        /* \"#utility.yul\":18679:18818   */\n      swap1\n      pop\n        /* \"#utility.yul\":18406:18825   */\n      swap2\n      swap1\n      pop\n      jump\t// out\n        /* \"#utility.yul\":18831:18997   */\n    tag_381:\n        /* \"#utility.yul\":18971:18989   */\n      0x5061757361626c653a2070617573656400000000000000000000000000000000\n        /* \"#utility.yul\":18967:18968   */\n      0x00\n        /* \"#utility.yul\":18959:18965   */\n      dup3\n        /* \"#utility.yul\":18955:18969   */\n      add\n        /* \"#utility.yul\":18948:18990   */\n      mstore\n        /* \"#utility.yul\":18831:18997   */\n      pop\n      jump\t// out\n        /* \"#utility.yul\":19003:19369   */\n    tag_382:\n        /* \"#utility.yul\":19145:19148   */\n      0x00\n        /* \"#utility.yul\":19166:19233   */\n      tag_557\n        /* \"#utility.yul\":19230:19232   */\n      0x10\n        /* \"#utility.yul\":19225:19228   */\n      dup4\n        /* \"#utility.yul\":19166:19233   */\n      tag_354\n      jump\t// in\n    tag_557:\n        /* \"#utility.yul\":19159:19233   */\n      swap2\n      pop\n        /* \"#utility.yul\":19242:19335   */\n      tag_558\n        /* \"#utility.yul\":19331:19334   */\n      dup3\n        /* \"#utility.yul\":19242:19335   */\n      tag_381\n      jump\t// in\n    tag_558:\n        /* \"#utility.yul\":19360:19362   */\n      0x20\n        /* \"#utility.yul\":19355:19358   */\n      dup3\n        /* \"#utility.yul\":19351:19363   */\n      add\n        /* \"#utility.yul\":19344:19363   */\n      swap1\n      pop\n        /* \"#utility.yul\":19003:19369   */\n      swap2\n      swap1\n      pop\n      jump\t// out\n        /* \"#utility.yul\":19375:19794   */\n    tag_296:\n        /* \"#utility.yul\":19541:19545   */\n      0x00\n        /* \"#utility.yul\":19579:19581   */\n      0x20\n        /* \"#utility.yul\":19568:19577   */\n      dup3\n        /* \"#utility.yul\":19564:19582   */\n      add\n        /* \"#utility.yul\":19556:19582   */\n      swap1\n      pop\n        /* \"#utility.yul\":19628:19637   */\n      dup2\n        /* \"#utility.yul\":19622:19626   */\n      dup2\n        /* \"#utility.yul\":19618:19638   */\n      sub\n        /* \"#utility.yul\":19614:19615   */\n      0x00\n        /* \"#utility.yul\":19603:19612   */\n      dup4\n        /* \"#utility.yul\":19599:19616   */\n      add\n        /* \"#utility.yul\":19592:19639   */\n      mstore\n        /* \"#utility.yul\":19656:19787   */\n      tag_560\n        /* \"#utility.yul\":19782:19786   */\n      dup2\n        /* \"#utility.yul\":19656:19787   */\n      tag_382\n      jump\t// in\n    tag_560:\n        /* \"#utility.yul\":19648:19787   */\n      swap1\n      pop\n        /* \"#utility.yul\":19375:19794   */\n      swap2\n      swap1\n      pop\n      jump\t// out\n        /* \"#utility.yul\":19800:19970   */\n    tag_383:\n        /* \"#utility.yul\":19940:19962   */\n      0x5061757361626c653a206e6f7420706175736564000000000000000000000000\n        /* \"#utility.yul\":19936:19937   */\n      0x00\n        /* \"#utility.yul\":19928:19934   */\n      dup3\n        /* \"#utility.yul\":19924:19938   */\n      add\n        /* \"#utility.yul\":19917:19963   */\n      mstore\n        /* \"#utility.yul\":19800:19970   */\n      pop\n      jump\t// out\n        /* \"#utility.yul\":19976:20342   */\n    tag_384:\n        /* \"#utility.yul\":20118:20121   */\n      0x00\n        /* \"#utility.yul\":20139:20206   */\n      tag_563\n        /* \"#utility.yul\":20203:20205   */\n      0x14\n        /* \"#utility.yul\":20198:20201   */\n      dup4\n        /* \"#utility.yul\":20139:20206   */\n      tag_354\n      jump\t// in\n    tag_563:\n        /* \"#utility.yul\":20132:20206   */\n      swap2\n      pop\n        /* \"#utility.yul\":20215:20308   */\n      tag_564\n        /* \"#utility.yul\":20304:20307   */\n      dup3\n        /* \"#utility.yul\":20215:20308   */\n      tag_383\n      jump\t// in\n    tag_564:\n        /* \"#utility.yul\":20333:20335   */\n      0x20\n        /* \"#utility.yul\":20328:20331   */\n      dup3\n        /* \"#utility.yul\":20324:20336   */\n      add\n        /* \"#utility.yul\":20317:20336   */\n      swap1\n      pop\n        /* \"#utility.yul\":19976:20342   */\n      swap2\n      swap1\n      pop\n      jump\t// out\n        /* \"#utility.yul\":20348:20767   */\n    tag_334:\n        /* \"#utility.yul\":20514:20518   */\n      0x00\n        /* \"#utility.yul\":20552:20554   */\n      0x20\n        /* \"#utility.yul\":20541:20550   */\n      dup3\n        /* \"#utility.yul\":20537:20555   */\n      add\n        /* \"#utility.yul\":20529:20555   */\n      swap1\n      pop\n        /* \"#utility.yul\":20601:20610   */\n      dup2\n        /* \"#utility.yul\":20595:20599   */\n      dup2\n        /* \"#utility.yul\":20591:20611   */\n      sub\n        /* \"#utility.yul\":20587:20588   */\n      0x00\n        /* \"#utility.yul\":20576:20585   */\n      dup4\n        /* \"#utility.yul\":20572:20589   */\n      add\n        /* \"#utility.yul\":20565:20612   */\n      mstore\n        /* \"#utility.yul\":20629:20760   */\n      tag_566\n        /* \"#utility.yul\":20755:20759   */\n      dup2\n        /* \"#utility.yul\":20629:20760   */\n      tag_384\n      jump\t// in\n    tag_566:\n        /* \"#utility.yul\":20621:20760   */\n      swap1\n      pop\n        /* \"#utility.yul\":20348:20767   */\n      swap2\n      swap1\n      pop\n      jump\t// out\n\n    auxdata: 0xa2646970667358221220d5bc74a21bf463bb9419cb9488d26fd27c9852561953d1b049853c9dfbde2c1964736f6c634300081e0033\n}\n",
				"bytecode": {
					"linkReferences": {},
					"object": "60c060405234801561000f575f5ffd5b506040516127df3803806127df83398181016040528101906100319190610414565b805f73ffffffffffffffffffffffffffffffffffffffff168173ffffffffffffffffffffffffffffffffffffffff16036100a2575f6040517f1e4fbdf700000000000000000000000000000000000000000000000000000000815260040161009991906104c0565b60405180910390fd5b6100b1816102c260201b60201c565b50600180819055505f60025f6101000a81548160ff0219169083151502179055505f73ffffffffffffffffffffffffffffffffffffffff168773ffffffffffffffffffffffffffffffffffffffff1603610140576040517f08c379a000000000000000000000000000000000000000000000000000000000815260040161013790610533565b60405180910390fd5b5f73ffffffffffffffffffffffffffffffffffffffff168673ffffffffffffffffffffffffffffffffffffffff16036101ae576040517f08c379a00000000000000000000000000000000000000000000000000000000081526004016101a59061059b565b60405180910390fd5b5f85116101f0576040517f08c379a00000000000000000000000000000000000000000000000000000000081526004016101e790610603565b60405180910390fd5b5f8311610232576040517f08c379a00000000000000000000000000000000000000000000000000000000081526004016102299061066b565b60405180910390fd5b8673ffffffffffffffffffffffffffffffffffffffff1660808173ffffffffffffffffffffffffffffffffffffffff16815250508573ffffffffffffffffffffffffffffffffffffffff1660a08173ffffffffffffffffffffffffffffffffffffffff16815250508460038190555083600481905550826005819055508160068190555050505050505050610689565b5f5f5f9054906101000a900473ffffffffffffffffffffffffffffffffffffffff169050815f5f6101000a81548173ffffffffffffffffffffffffffffffffffffffff021916908373ffffffffffffffffffffffffffffffffffffffff1602179055508173ffffffffffffffffffffffffffffffffffffffff168173ffffffffffffffffffffffffffffffffffffffff167f8be0079c531659141344cd1fd0a4f28419497f9722a3daafe3b4186f6b6457e060405160405180910390a35050565b5f5ffd5b5f73ffffffffffffffffffffffffffffffffffffffff82169050919050565b5f6103b082610387565b9050919050565b6103c0816103a6565b81146103ca575f5ffd5b50565b5f815190506103db816103b7565b92915050565b5f819050919050565b6103f3816103e1565b81146103fd575f5ffd5b50565b5f8151905061040e816103ea565b92915050565b5f5f5f5f5f5f5f60e0888a03121561042f5761042e610383565b5b5f61043c8a828b016103cd565b975050602061044d8a828b016103cd565b965050604061045e8a828b01610400565b955050606061046f8a828b01610400565b94505060806104808a828b01610400565b93505060a06104918a828b01610400565b92505060c06104a28a828b016103cd565b91505092959891949750929550565b6104ba816103a6565b82525050565b5f6020820190506104d35f8301846104b1565b92915050565b5f82825260208201905092915050565b7f5374616b696e6720746f6b656e207a65726f20616464726573730000000000005f82015250565b5f61051d601a836104d9565b9150610528826104e9565b602082019050919050565b5f6020820190508181035f83015261054a81610511565b9050919050565b7f52657761726420746f6b656e207a65726f2061646472657373000000000000005f82015250565b5f6105856019836104d9565b915061059082610551565b602082019050919050565b5f6020820190508181035f8301526105b281610579565b9050919050565b7f54696d6520756e6974206d757374203e203000000000000000000000000000005f82015250565b5f6105ed6012836104d9565b91506105f8826105b9565b602082019050919050565b5f6020820190508181035f83015261061a816105e1565b9050919050565b7f44656e6f6d696e61746f72206d757374203e20300000000000000000000000005f82015250565b5f6106556014836104d9565b915061066082610621565b602082019050919050565b5f6020820190508181035f83015261068281610649565b9050919050565b60805160a05161210b6106d45f395f81816105be01528181610d5401528181610f720152818161116f015261135101525f81816107bb015281816109400152610af6015261210b5ff3fe60806040526004361061014d575f3560e01c80639168ae72116100b5578063c89d5b8b1161006e578063c89d5b8b1461040c578063cb43b2dd14610436578063cc317f311461045e578063dac3fc3f14610488578063f2fde38b146104c4578063f7c618c1146104ec57610154565b80639168ae7214610320578063996f79c01461035e578063a694fc3a14610388578063b5d90dc0146103a4578063b88a802f146103ce578063b91a1e8f146103e457610154565b80634df9d6ba116101075780634df9d6ba1461023a5780635c975abb14610276578063715018a6146102a057806372f702f3146102b65780638456cb59146102e05780638da5cb5b146102f657610154565b80621b7934146101585780630917e7761461018057806316c621e0146101aa5780632e17de78146101d25780633c6a7f9b146101fa5780633f4ba83a1461022457610154565b3661015457005b5f5ffd5b348015610163575f5ffd5b5061017e6004803603810190610179919061175a565b610516565b005b34801561018b575f5ffd5b506101946105ab565b6040516101a191906117a7565b60405180910390f35b3480156101b5575f5ffd5b506101d060048036038101906101cb91906117c0565b6105b4565b005b3480156101dd575f5ffd5b506101f860048036038101906101f391906117c0565b6106e9565b005b348015610205575f5ffd5b5061020e6108ed565b60405161021b91906117a7565b60405180910390f35b34801561022f575f5ffd5b506102386108f3565b005b348015610245575f5ffd5b50610260600480360381019061025b9190611845565b610905565b60405161026d91906117a7565b60405180910390f35b348015610281575f5ffd5b5061028a610916565b604051610297919061188a565b60405180910390f35b3480156102ab575f5ffd5b506102b461092b565b005b3480156102c1575f5ffd5b506102ca61093e565b6040516102d791906118fe565b60405180910390f35b3480156102eb575f5ffd5b506102f4610962565b005b348015610301575f5ffd5b5061030a610974565b6040516103179190611926565b60405180910390f35b34801561032b575f5ffd5b5061034660048036038101906103419190611845565b61099b565b6040516103559392919061193f565b60405180910390f35b348015610369575f5ffd5b506103726109c1565b60405161037f91906117a7565b60405180910390f35b6103a2600480360381019061039d91906117c0565b6109c7565b005b3480156103af575f5ffd5b506103b8610c64565b6040516103c591906117a7565b60405180910390f35b3480156103d9575f5ffd5b506103e2610c6a565b005b3480156103ef575f5ffd5b5061040a600480360381019061040591906117c0565b610e85565b005b348015610417575f5ffd5b50610420610ece565b60405161042d91906117a7565b60405180910390f35b348015610441575f5ffd5b5061045c600480360381019061045791906117c0565b610f68565b005b348015610469575f5ffd5b5061047261109b565b60405161047f91906117a7565b60405180910390f35b348015610493575f5ffd5b506104ae60048036038101906104a99190611845565b6110a1565b6040516104bb91906117a7565b60405180910390f35b3480156104cf575f5ffd5b506104ea60048036038101906104e59190611845565b6110e9565b005b3480156104f7575f5ffd5b5061050061116d565b60405161050d91906118fe565b60405180910390f35b61051e611191565b5f8111610560576040517f08c379a0000000000000000000000000000000000000000000000000000000008152600401610557906119ce565b60405180910390fd5b81600481905550806005819055507f2cda5f90308a6ed0aad400f6ddc7575e31b5f1428c50c054ae54e1939ff164b8828260405161059f9291906119ec565b60405180910390a15050565b5f600754905090565b6105bc611191565b7f000000000000000000000000000000000000000000000000000000000000000073ffffffffffffffffffffffffffffffffffffffff166323b872dd3330846040518463ffffffff1660e01b815260040161061993929190611a13565b6020604051808303815f875af1158015610635573d5f5f3e3d5ffd5b505050506040513d601f19601f820116820180604052508101906106599190611a72565b610698576040517f08c379a000000000000000000000000000000000000000000000000000000000815260040161068f90611ae7565b60405180910390fd5b3373ffffffffffffffffffffffffffffffffffffffff167fac1f5f240b57fc014c4875ec0fa399f96ca891f85156ba195e6512ccd4ada548826040516106de91906117a7565b60405180910390a250565b6106f1611218565b6106f9611267565b5f60085f3373ffffffffffffffffffffffffffffffffffffffff1673ffffffffffffffffffffffffffffffffffffffff1681526020019081526020015f20905081815f0154101561077f576040517f08c379a000000000000000000000000000000000000000000000000000000000815260040161077690611b4f565b60405180910390fd5b610788336112b1565b81815f015f82825461079a9190611b9a565b925050819055508160075f8282546107b29190611b9a565b925050819055507f000000000000000000000000000000000000000000000000000000000000000073ffffffffffffffffffffffffffffffffffffffff1663a9059cbb33846040518363ffffffff1660e01b8152600401610814929190611bcd565b6020604051808303815f875af1158015610830573d5f5f3e3d5ffd5b505050506040513d601f19601f820116820180604052508101906108549190611a72565b610893576040517f08c379a000000000000000000000000000000000000000000000000000000000815260040161088a90611c3e565b60405180910390fd5b3373ffffffffffffffffffffffffffffffffffffffff167f0f5bb82176feb1b5e747e28471aa92156a04d9f3ab9f45f28e2d704232b93f75836040516108d991906117a7565b60405180910390a2506108ea61147c565b50565b60035481565b6108fb611191565b610903611485565b565b5f61090f826114e6565b9050919050565b5f60025f9054906101000a900460ff16905090565b610933611191565b61093c5f6115b0565b565b7f000000000000000000000000000000000000000000000000000000000000000081565b61096a611191565b610972611671565b565b5f5f5f9054906101000a900473ffffffffffffffffffffffffffffffffffffffff16905090565b6008602052805f5260405f205f91509050805f0154908060010154908060020154905083565b60065481565b6109cf611218565b6109d7611267565b600654341015610a1c576040517f08c379a0000000000000000000000000000000000000000000000000000000008152600401610a1390611ca6565b60405180910390fd5b5f8111610a5e576040517f08c379a0000000000000000000000000000000000000000000000000000000008152600401610a5590611d0e565b60405180910390fd5b610a66610974565b73ffffffffffffffffffffffffffffffffffffffff166108fc60065490811502906040515f60405180830381858888f19350505050158015610aaa573d5f5f3e3d5ffd5b505f60085f3373ffffffffffffffffffffffffffffffffffffffff1673ffffffffffffffffffffffffffffffffffffffff1681526020019081526020015f209050610af4336112b1565b7f000000000000000000000000000000000000000000000000000000000000000073ffffffffffffffffffffffffffffffffffffffff166323b872dd3330856040518463ffffffff1660e01b8152600401610b5193929190611a13565b6020604051808303815f875af1158015610b6d573d5f5f3e3d5ffd5b505050506040513d601f19601f82011682018060405250810190610b919190611a72565b610bd0576040517f08c379a0000000000000000000000000000000000000000000000000000000008152600401610bc790611d76565b60405180910390fd5b81815f015f828254610be29190611d94565b925050819055504281600101819055508160075f828254610c039190611d94565b925050819055503373ffffffffffffffffffffffffffffffffffffffff167f9e71bc8eea02a63969f509818f2dafb9254532904319f9dbda79b67bd34a5f3d83604051610c5091906117a7565b60405180910390a250610c6161147c565b50565b60055481565b610c72611218565b610c7a611267565b5f610c84336114e6565b90505f8111610cc8576040517f08c379a0000000000000000000000000000000000000000000000000000000008152600401610cbf90611e11565b60405180910390fd5b4260085f3373ffffffffffffffffffffffffffffffffffffffff1673ffffffffffffffffffffffffffffffffffffffff1681526020019081526020015f20600101819055505f60085f3373ffffffffffffffffffffffffffffffffffffffff1673ffffffffffffffffffffffffffffffffffffffff1681526020019081526020015f20600201819055507f000000000000000000000000000000000000000000000000000000000000000073ffffffffffffffffffffffffffffffffffffffff1663a9059cbb33836040518363ffffffff1660e01b8152600401610dad929190611bcd565b6020604051808303815f875af1158015610dc9573d5f5f3e3d5ffd5b505050506040513d601f19601f82011682018060405250810190610ded9190611a72565b610e2c576040517f08c379a0000000000000000000000000000000000000000000000000000000008152600401610e2390611e79565b60405180910390fd5b3373ffffffffffffffffffffffffffffffffffffffff167f106f923f993c2149d49b4255ff723acafa1f2d94393f561d3eda32ae348f724182604051610e7291906117a7565b60405180910390a250610e8361147c565b565b610e8d611191565b806006819055507f8b58a69c09c2dff0e67bea4782c73a9ff3c4bba6dc50dbe66643372b8ce9035d81604051610ec391906117a7565b60405180910390a150565b5f5f60075403610f0257600554670de0b6b3a7640000600454610ef19190611e97565b610efb9190611f05565b9050610f65565b5f600554670de0b6b3a7640000600454610f1c9190611e97565b610f269190611f05565b90505f670de0b6b3a7640000600754610f3f9190611d94565b670de0b6b3a764000083610f539190611e97565b610f5d9190611f05565b905080925050505b90565b610f70611191565b7f000000000000000000000000000000000000000000000000000000000000000073ffffffffffffffffffffffffffffffffffffffff1663a9059cbb33836040518363ffffffff1660e01b8152600401610fcb929190611bcd565b6020604051808303815f875af1158015610fe7573d5f5f3e3d5ffd5b505050506040513d601f19601f8201168201806040525081019061100b9190611a72565b61104a576040517f08c379a000000000000000000000000000000000000000000000000000000000815260040161104190611f7f565b60405180910390fd5b3373ffffffffffffffffffffffffffffffffffffffff167f5991a08bb51d1fc3f552255ed446f040dca378ad3ff91763507b63b185eb5d2e8260405161109091906117a7565b60405180910390a250565b60045481565b5f60085f8373ffffffffffffffffffffffffffffffffffffffff1673ffffffffffffffffffffffffffffffffffffffff1681526020019081526020015f205f01549050919050565b6110f1611191565b5f73ffffffffffffffffffffffffffffffffffffffff168173ffffffffffffffffffffffffffffffffffffffff1603611161575f6040517f1e4fbdf70000000000000000000000000000000000000000000000000000000081526004016111589190611926565b60405180910390fd5b61116a816115b0565b50565b7f000000000000000000000000000000000000000000000000000000000000000081565b6111996116d3565b73ffffffffffffffffffffffffffffffffffffffff166111b7610974565b73ffffffffffffffffffffffffffffffffffffffff1614611216576111da6116d3565b6040517f118cdaa700000000000000000000000000000000000000000000000000000000815260040161120d9190611926565b60405180910390fd5b565b60026001540361125d576040517f08c379a000000000000000000000000000000000000000000000000000000000815260040161125490611fe7565b60405180910390fd5b6002600181905550565b61126f610916565b156112af576040517f08c379a00000000000000000000000000000000000000000000000000000000081526004016112a69061204f565b60405180910390fd5b565b5f6112bb826114e6565b90505f811115611478574260085f8473ffffffffffffffffffffffffffffffffffffffff1673ffffffffffffffffffffffffffffffffffffffff1681526020019081526020015f20600101819055505f60085f8473ffffffffffffffffffffffffffffffffffffffff1673ffffffffffffffffffffffffffffffffffffffff1681526020019081526020015f20600201819055507f000000000000000000000000000000000000000000000000000000000000000073ffffffffffffffffffffffffffffffffffffffff1663a9059cbb83836040518363ffffffff1660e01b81526004016113aa929190611bcd565b6020604051808303815f875af11580156113c6573d5f5f3e3d5ffd5b505050506040513d601f19601f820116820180604052508101906113ea9190611a72565b611429576040517f08c379a000000000000000000000000000000000000000000000000000000000815260040161142090611e79565b60405180910390fd5b8173ffffffffffffffffffffffffffffffffffffffff167f106f923f993c2149d49b4255ff723acafa1f2d94393f561d3eda32ae348f72418260405161146f91906117a7565b60405180910390a25b5050565b60018081905550565b61148d6116da565b5f60025f6101000a81548160ff0219169083151502179055507f5db9ee0a495bf2e6ff9c91a7834c1ba4fdd244a5e8aa4e537bd38aeae4b073aa6114cf6116d3565b6040516114dc9190611926565b60405180910390a1565b5f5f60085f8473ffffffffffffffffffffffffffffffffffffffff1673ffffffffffffffffffffffffffffffffffffffff1681526020019081526020015f2090505f815f0154148061153b57505f8160010154145b15611549575f9150506115ab565b5f81600101544261155a9190611b9a565b90505f60055460035461156d9190611e97565b82600454855f015461157f9190611e97565b6115899190611e97565b6115939190611f05565b90508260020154816115a59190611d94565b93505050505b919050565b5f5f5f9054906101000a900473ffffffffffffffffffffffffffffffffffffffff169050815f5f6101000a81548173ffffffffffffffffffffffffffffffffffffffff021916908373ffffffffffffffffffffffffffffffffffffffff1602179055508173ffffffffffffffffffffffffffffffffffffffff168173ffffffffffffffffffffffffffffffffffffffff167f8be0079c531659141344cd1fd0a4f28419497f9722a3daafe3b4186f6b6457e060405160405180910390a35050565b611679611267565b600160025f6101000a81548160ff0219169083151502179055507f62e78cea01bee320cd4e420270b5ea74000d11b0c9f74754ebdbfc544b05a2586116bc6116d3565b6040516116c99190611926565b60405180910390a1565b5f33905090565b6116e2610916565b611721576040517f08c379a0000000000000000000000000000000000000000000000000000000008152600401611718906120b7565b60405180910390fd5b565b5f5ffd5b5f819050919050565b61173981611727565b8114611743575f5ffd5b50565b5f8135905061175481611730565b92915050565b5f5f604083850312156117705761176f611723565b5b5f61177d85828601611746565b925050602061178e85828601611746565b9150509250929050565b6117a181611727565b82525050565b5f6020820190506117ba5f830184611798565b92915050565b5f602082840312156117d5576117d4611723565b5b5f6117e284828501611746565b91505092915050565b5f73ffffffffffffffffffffffffffffffffffffffff82169050919050565b5f611814826117eb565b9050919050565b6118248161180a565b811461182e575f5ffd5b50565b5f8135905061183f8161181b565b92915050565b5f6020828403121561185a57611859611723565b5b5f61186784828501611831565b91505092915050565b5f8115159050919050565b61188481611870565b82525050565b5f60208201905061189d5f83018461187b565b92915050565b5f819050919050565b5f6118c66118c16118bc846117eb565b6118a3565b6117eb565b9050919050565b5f6118d7826118ac565b9050919050565b5f6118e8826118cd565b9050919050565b6118f8816118de565b82525050565b5f6020820190506119115f8301846118ef565b92915050565b6119208161180a565b82525050565b5f6020820190506119395f830184611917565b92915050565b5f6060820190506119525f830186611798565b61195f6020830185611798565b61196c6040830184611798565b949350505050565b5f82825260208201905092915050565b7f44656e6f6d696e61746f72206d757374203e20300000000000000000000000005f82015250565b5f6119b8601483611974565b91506119c382611984565b602082019050919050565b5f6020820190508181035f8301526119e5816119ac565b9050919050565b5f6040820190506119ff5f830185611798565b611a0c6020830184611798565b9392505050565b5f606082019050611a265f830186611917565b611a336020830185611917565b611a406040830184611798565b949350505050565b611a5181611870565b8114611a5b575f5ffd5b50565b5f81519050611a6c81611a48565b92915050565b5f60208284031215611a8757611a86611723565b5b5f611a9484828501611a5e565b91505092915050565b7f4465706f736974206661696c65640000000000000000000000000000000000005f82015250565b5f611ad1600e83611974565b9150611adc82611a9d565b602082019050919050565b5f6020820190508181035f830152611afe81611ac5565b9050919050565b7f496e73756666696369656e74207374616b6500000000000000000000000000005f82015250565b5f611b39601283611974565b9150611b4482611b05565b602082019050919050565b5f6020820190508181035f830152611b6681611b2d565b9050919050565b7f4e487b71000000000000000000000000000000000000000000000000000000005f52601160045260245ffd5b5f611ba482611727565b9150611baf83611727565b9250828203905081811115611bc757611bc6611b6d565b5b92915050565b5f604082019050611be05f830185611917565b611bed6020830184611798565b9392505050565b7f556e7374616b6520746f6b656e207472616e73666572206661696c65640000005f82015250565b5f611c28601d83611974565b9150611c3382611bf4565b602082019050919050565b5f6020820190508181035f830152611c5581611c1c565b9050919050565b7f4d75737420706179206e617469766520666565000000000000000000000000005f82015250565b5f611c90601383611974565b9150611c9b82611c5c565b602082019050919050565b5f6020820190508181035f830152611cbd81611c84565b9050919050565b7f416d6f756e74206d757374203e203000000000000000000000000000000000005f82015250565b5f611cf8600f83611974565b9150611d0382611cc4565b602082019050919050565b5f6020820190508181035f830152611d2581611cec565b9050919050565b7f5374616b6520746f6b656e207472616e73666572206661696c656400000000005f82015250565b5f611d60601b83611974565b9150611d6b82611d2c565b602082019050919050565b5f6020820190508181035f830152611d8d81611d54565b9050919050565b5f611d9e82611727565b9150611da983611727565b9250828201905080821115611dc157611dc0611b6d565b5b92915050565b7f4e6f2072657761726400000000000000000000000000000000000000000000005f82015250565b5f611dfb600983611974565b9150611e0682611dc7565b602082019050919050565b5f6020820190508181035f830152611e2881611def565b9050919050565b7f526577617264207472616e73666572206661696c6564000000000000000000005f82015250565b5f611e63601683611974565b9150611e6e82611e2f565b602082019050919050565b5f6020820190508181035f830152611e9081611e57565b9050919050565b5f611ea182611727565b9150611eac83611727565b9250828202611eba81611727565b91508282048414831517611ed157611ed0611b6d565b5b5092915050565b7f4e487b71000000000000000000000000000000000000000000000000000000005f52601260045260245ffd5b5f611f0f82611727565b9150611f1a83611727565b925082611f2a57611f29611ed8565b5b828204905092915050565b7f5769746864726177206661696c656400000000000000000000000000000000005f82015250565b5f611f69600f83611974565b9150611f7482611f35565b602082019050919050565b5f6020820190508181035f830152611f9681611f5d565b9050919050565b7f5265656e7472616e637947756172643a207265656e7472616e742063616c6c005f82015250565b5f611fd1601f83611974565b9150611fdc82611f9d565b602082019050919050565b5f6020820190508181035f830152611ffe81611fc5565b9050919050565b7f5061757361626c653a20706175736564000000000000000000000000000000005f82015250565b5f612039601083611974565b915061204482612005565b602082019050919050565b5f6020820190508181035f8301526120668161202d565b9050919050565b7f5061757361626c653a206e6f74207061757365640000000000000000000000005f82015250565b5f6120a1601483611974565b91506120ac8261206d565b602082019050919050565b5f6020820190508181035f8301526120ce81612095565b905091905056fea2646970667358221220d5bc74a21bf463bb9419cb9488d26fd27c9852561953d1b049853c9dfbde2c1964736f6c634300081e0033",
					"opcodes": "PUSH1 0xC0 PUSH1 0x40 MSTORE CALLVALUE DUP1 ISZERO PUSH2 0xF JUMPI PUSH0 PUSH0 REVERT JUMPDEST POP PUSH1 0x40 MLOAD PUSH2 0x27DF CODESIZE SUB DUP1 PUSH2 0x27DF DUP4 CODECOPY DUP2 DUP2 ADD PUSH1 0x40 MSTORE DUP2 ADD SWAP1 PUSH2 0x31 SWAP2 SWAP1 PUSH2 0x414 JUMP JUMPDEST DUP1 PUSH0 PUSH20 0xFFFFFFFFFFFFFFFFFFFFFFFFFFFFFFFFFFFFFFFF AND DUP2 PUSH20 0xFFFFFFFFFFFFFFFFFFFFFFFFFFFFFFFFFFFFFFFF AND SUB PUSH2 0xA2 JUMPI PUSH0 PUSH1 0x40 MLOAD PUSH32 0x1E4FBDF700000000000000000000000000000000000000000000000000000000 DUP2 MSTORE PUSH1 0x4 ADD PUSH2 0x99 SWAP2 SWAP1 PUSH2 0x4C0 JUMP JUMPDEST PUSH1 0x40 MLOAD DUP1 SWAP2 SUB SWAP1 REVERT JUMPDEST PUSH2 0xB1 DUP2 PUSH2 0x2C2 PUSH1 0x20 SHL PUSH1 0x20 SHR JUMP JUMPDEST POP PUSH1 0x1 DUP1 DUP2 SWAP1 SSTORE POP PUSH0 PUSH1 0x2 PUSH0 PUSH2 0x100 EXP DUP2 SLOAD DUP2 PUSH1 0xFF MUL NOT AND SWAP1 DUP4 ISZERO ISZERO MUL OR SWAP1 SSTORE POP PUSH0 PUSH20 0xFFFFFFFFFFFFFFFFFFFFFFFFFFFFFFFFFFFFFFFF AND DUP8 PUSH20 0xFFFFFFFFFFFFFFFFFFFFFFFFFFFFFFFFFFFFFFFF AND SUB PUSH2 0x140 JUMPI PUSH1 0x40 MLOAD PUSH32 0x8C379A000000000000000000000000000000000000000000000000000000000 DUP2 MSTORE PUSH1 0x4 ADD PUSH2 0x137 SWAP1 PUSH2 0x533 JUMP JUMPDEST PUSH1 0x40 MLOAD DUP1 SWAP2 SUB SWAP1 REVERT JUMPDEST PUSH0 PUSH20 0xFFFFFFFFFFFFFFFFFFFFFFFFFFFFFFFFFFFFFFFF AND DUP7 PUSH20 0xFFFFFFFFFFFFFFFFFFFFFFFFFFFFFFFFFFFFFFFF AND SUB PUSH2 0x1AE JUMPI PUSH1 0x40 MLOAD PUSH32 0x8C379A000000000000000000000000000000000000000000000000000000000 DUP2 MSTORE PUSH1 0x4 ADD PUSH2 0x1A5 SWAP1 PUSH2 0x59B JUMP JUMPDEST PUSH1 0x40 MLOAD DUP1 SWAP2 SUB SWAP1 REVERT JUMPDEST PUSH0 DUP6 GT PUSH2 0x1F0 JUMPI PUSH1 0x40 MLOAD PUSH32 0x8C379A000000000000000000000000000000000000000000000000000000000 DUP2 MSTORE PUSH1 0x4 ADD PUSH2 0x1E7 SWAP1 PUSH2 0x603 JUMP JUMPDEST PUSH1 0x40 MLOAD DUP1 SWAP2 SUB SWAP1 REVERT JUMPDEST PUSH0 DUP4 GT PUSH2 0x232 JUMPI PUSH1 0x40 MLOAD PUSH32 0x8C379A000000000000000000000000000000000000000000000000000000000 DUP2 MSTORE PUSH1 0x4 ADD PUSH2 0x229 SWAP1 PUSH2 0x66B JUMP JUMPDEST PUSH1 0x40 MLOAD DUP1 SWAP2 SUB SWAP1 REVERT JUMPDEST DUP7 PUSH20 0xFFFFFFFFFFFFFFFFFFFFFFFFFFFFFFFFFFFFFFFF AND PUSH1 0x80 DUP2 PUSH20 0xFFFFFFFFFFFFFFFFFFFFFFFFFFFFFFFFFFFFFFFF AND DUP2 MSTORE POP POP DUP6 PUSH20 0xFFFFFFFFFFFFFFFFFFFFFFFFFFFFFFFFFFFFFFFF AND PUSH1 0xA0 DUP2 PUSH20 0xFFFFFFFFFFFFFFFFFFFFFFFFFFFFFFFFFFFFFFFF AND DUP2 MSTORE POP POP DUP5 PUSH1 0x3 DUP2 SWAP1 SSTORE POP DUP4 PUSH1 0x4 DUP2 SWAP1 SSTORE POP DUP3 PUSH1 0x5 DUP2 SWAP1 SSTORE POP DUP2 PUSH1 0x6 DUP2 SWAP1 SSTORE POP POP POP POP POP POP POP POP PUSH2 0x689 JUMP JUMPDEST PUSH0 PUSH0 PUSH0 SWAP1 SLOAD SWAP1 PUSH2 0x100 EXP SWAP1 DIV PUSH20 0xFFFFFFFFFFFFFFFFFFFFFFFFFFFFFFFFFFFFFFFF AND SWAP1 POP DUP2 PUSH0 PUSH0 PUSH2 0x100 EXP DUP2 SLOAD DUP2 PUSH20 0xFFFFFFFFFFFFFFFFFFFFFFFFFFFFFFFFFFFFFFFF MUL NOT AND SWAP1 DUP4 PUSH20 0xFFFFFFFFFFFFFFFFFFFFFFFFFFFFFFFFFFFFFFFF AND MUL OR SWAP1 SSTORE POP DUP2 PUSH20 0xFFFFFFFFFFFFFFFFFFFFFFFFFFFFFFFFFFFFFFFF AND DUP2 PUSH20 0xFFFFFFFFFFFFFFFFFFFFFFFFFFFFFFFFFFFFFFFF AND PUSH32 0x8BE0079C531659141344CD1FD0A4F28419497F9722A3DAAFE3B4186F6B6457E0 PUSH1 0x40 MLOAD PUSH1 0x40 MLOAD DUP1 SWAP2 SUB SWAP1 LOG3 POP POP JUMP JUMPDEST PUSH0 PUSH0 REVERT JUMPDEST PUSH0 PUSH20 0xFFFFFFFFFFFFFFFFFFFFFFFFFFFFFFFFFFFFFFFF DUP3 AND SWAP1 POP SWAP2 SWAP1 POP JUMP JUMPDEST PUSH0 PUSH2 0x3B0 DUP3 PUSH2 0x387 JUMP JUMPDEST SWAP1 POP SWAP2 SWAP1 POP JUMP JUMPDEST PUSH2 0x3C0 DUP2 PUSH2 0x3A6 JUMP JUMPDEST DUP2 EQ PUSH2 0x3CA JUMPI PUSH0 PUSH0 REVERT JUMPDEST POP JUMP JUMPDEST PUSH0 DUP2 MLOAD SWAP1 POP PUSH2 0x3DB DUP2 PUSH2 0x3B7 JUMP JUMPDEST SWAP3 SWAP2 POP POP JUMP JUMPDEST PUSH0 DUP2 SWAP1 POP SWAP2 SWAP1 POP JUMP JUMPDEST PUSH2 0x3F3 DUP2 PUSH2 0x3E1 JUMP JUMPDEST DUP2 EQ PUSH2 0x3FD JUMPI PUSH0 PUSH0 REVERT JUMPDEST POP JUMP JUMPDEST PUSH0 DUP2 MLOAD SWAP1 POP PUSH2 0x40E DUP2 PUSH2 0x3EA JUMP JUMPDEST SWAP3 SWAP2 POP POP JUMP JUMPDEST PUSH0 PUSH0 PUSH0 PUSH0 PUSH0 PUSH0 PUSH0 PUSH1 0xE0 DUP9 DUP11 SUB SLT ISZERO PUSH2 0x42F JUMPI PUSH2 0x42E PUSH2 0x383 JUMP JUMPDEST JUMPDEST PUSH0 PUSH2 0x43C DUP11 DUP3 DUP12 ADD PUSH2 0x3CD JUMP JUMPDEST SWAP8 POP POP PUSH1 0x20 PUSH2 0x44D DUP11 DUP3 DUP12 ADD PUSH2 0x3CD JUMP JUMPDEST SWAP7 POP POP PUSH1 0x40 PUSH2 0x45E DUP11 DUP3 DUP12 ADD PUSH2 0x400 JUMP JUMPDEST SWAP6 POP POP PUSH1 0x60 PUSH2 0x46F DUP11 DUP3 DUP12 ADD PUSH2 0x400 JUMP JUMPDEST SWAP5 POP POP PUSH1 0x80 PUSH2 0x480 DUP11 DUP3 DUP12 ADD PUSH2 0x400 JUMP JUMPDEST SWAP4 POP POP PUSH1 0xA0 PUSH2 0x491 DUP11 DUP3 DUP12 ADD PUSH2 0x400 JUMP JUMPDEST SWAP3 POP POP PUSH1 0xC0 PUSH2 0x4A2 DUP11 DUP3 DUP12 ADD PUSH2 0x3CD JUMP JUMPDEST SWAP2 POP POP SWAP3 SWAP6 SWAP9 SWAP2 SWAP5 SWAP8 POP SWAP3 SWAP6 POP JUMP JUMPDEST PUSH2 0x4BA DUP2 PUSH2 0x3A6 JUMP JUMPDEST DUP3 MSTORE POP POP JUMP JUMPDEST PUSH0 PUSH1 0x20 DUP3 ADD SWAP1 POP PUSH2 0x4D3 PUSH0 DUP4 ADD DUP5 PUSH2 0x4B1 JUMP JUMPDEST SWAP3 SWAP2 POP POP JUMP JUMPDEST PUSH0 DUP3 DUP3 MSTORE PUSH1 0x20 DUP3 ADD SWAP1 POP SWAP3 SWAP2 POP POP JUMP JUMPDEST PUSH32 0x5374616B696E6720746F6B656E207A65726F2061646472657373000000000000 PUSH0 DUP3 ADD MSTORE POP JUMP JUMPDEST PUSH0 PUSH2 0x51D PUSH1 0x1A DUP4 PUSH2 0x4D9 JUMP JUMPDEST SWAP2 POP PUSH2 0x528 DUP3 PUSH2 0x4E9 JUMP JUMPDEST PUSH1 0x20 DUP3 ADD SWAP1 POP SWAP2 SWAP1 POP JUMP JUMPDEST PUSH0 PUSH1 0x20 DUP3 ADD SWAP1 POP DUP2 DUP2 SUB PUSH0 DUP4 ADD MSTORE PUSH2 0x54A DUP2 PUSH2 0x511 JUMP JUMPDEST SWAP1 POP SWAP2 SWAP1 POP JUMP JUMPDEST PUSH32 0x52657761726420746F6B656E207A65726F206164647265737300000000000000 PUSH0 DUP3 ADD MSTORE POP JUMP JUMPDEST PUSH0 PUSH2 0x585 PUSH1 0x19 DUP4 PUSH2 0x4D9 JUMP JUMPDEST SWAP2 POP PUSH2 0x590 DUP3 PUSH2 0x551 JUMP JUMPDEST PUSH1 0x20 DUP3 ADD SWAP1 POP SWAP2 SWAP1 POP JUMP JUMPDEST PUSH0 PUSH1 0x20 DUP3 ADD SWAP1 POP DUP2 DUP2 SUB PUSH0 DUP4 ADD MSTORE PUSH2 0x5B2 DUP2 PUSH2 0x579 JUMP JUMPDEST SWAP1 POP SWAP2 SWAP1 POP JUMP JUMPDEST PUSH32 0x54696D6520756E6974206D757374203E20300000000000000000000000000000 PUSH0 DUP3 ADD MSTORE POP JUMP JUMPDEST PUSH0 PUSH2 0x5ED PUSH1 0x12 DUP4 PUSH2 0x4D9 JUMP JUMPDEST SWAP2 POP PUSH2 0x5F8 DUP3 PUSH2 0x5B9 JUMP JUMPDEST PUSH1 0x20 DUP3 ADD SWAP1 POP SWAP2 SWAP1 POP JUMP JUMPDEST PUSH0 PUSH1 0x20 DUP3 ADD SWAP1 POP DUP2 DUP2 SUB PUSH0 DUP4 ADD MSTORE PUSH2 0x61A DUP2 PUSH2 0x5E1 JUMP JUMPDEST SWAP1 POP SWAP2 SWAP1 POP JUMP JUMPDEST PUSH32 0x44656E6F6D696E61746F72206D757374203E2030000000000000000000000000 PUSH0 DUP3 ADD MSTORE POP JUMP JUMPDEST PUSH0 PUSH2 0x655 PUSH1 0x14 DUP4 PUSH2 0x4D9 JUMP JUMPDEST SWAP2 POP PUSH2 0x660 DUP3 PUSH2 0x621 JUMP JUMPDEST PUSH1 0x20 DUP3 ADD SWAP1 POP SWAP2 SWAP1 POP JUMP JUMPDEST PUSH0 PUSH1 0x20 DUP3 ADD SWAP1 POP DUP2 DUP2 SUB PUSH0 DUP4 ADD MSTORE PUSH2 0x682 DUP2 PUSH2 0x649 JUMP JUMPDEST SWAP1 POP SWAP2 SWAP1 POP JUMP JUMPDEST PUSH1 0x80 MLOAD PUSH1 0xA0 MLOAD PUSH2 0x210B PUSH2 0x6D4 PUSH0 CODECOPY PUSH0 DUP2 DUP2 PUSH2 0x5BE ADD MSTORE DUP2 DUP2 PUSH2 0xD54 ADD MSTORE DUP2 DUP2 PUSH2 0xF72 ADD MSTORE DUP2 DUP2 PUSH2 0x116F ADD MSTORE PUSH2 0x1351 ADD MSTORE PUSH0 DUP2 DUP2 PUSH2 0x7BB ADD MSTORE DUP2 DUP2 PUSH2 0x940 ADD MSTORE PUSH2 0xAF6 ADD MSTORE PUSH2 0x210B PUSH0 RETURN INVALID PUSH1 0x80 PUSH1 0x40 MSTORE PUSH1 0x4 CALLDATASIZE LT PUSH2 0x14D JUMPI PUSH0 CALLDATALOAD PUSH1 0xE0 SHR DUP1 PUSH4 0x9168AE72 GT PUSH2 0xB5 JUMPI DUP1 PUSH4 0xC89D5B8B GT PUSH2 0x6E JUMPI DUP1 PUSH4 0xC89D5B8B EQ PUSH2 0x40C JUMPI DUP1 PUSH4 0xCB43B2DD EQ PUSH2 0x436 JUMPI DUP1 PUSH4 0xCC317F31 EQ PUSH2 0x45E JUMPI DUP1 PUSH4 0xDAC3FC3F EQ PUSH2 0x488 JUMPI DUP1 PUSH4 0xF2FDE38B EQ PUSH2 0x4C4 JUMPI DUP1 PUSH4 0xF7C618C1 EQ PUSH2 0x4EC JUMPI PUSH2 0x154 JUMP JUMPDEST DUP1 PUSH4 0x9168AE72 EQ PUSH2 0x320 JUMPI DUP1 PUSH4 0x996F79C0 EQ PUSH2 0x35E JUMPI DUP1 PUSH4 0xA694FC3A EQ PUSH2 0x388 JUMPI DUP1 PUSH4 0xB5D90DC0 EQ PUSH2 0x3A4 JUMPI DUP1 PUSH4 0xB88A802F EQ PUSH2 0x3CE JUMPI DUP1 PUSH4 0xB91A1E8F EQ PUSH2 0x3E4 JUMPI PUSH2 0x154 JUMP JUMPDEST DUP1 PUSH4 0x4DF9D6BA GT PUSH2 0x107 JUMPI DUP1 PUSH4 0x4DF9D6BA EQ PUSH2 0x23A JUMPI DUP1 PUSH4 0x5C975ABB EQ PUSH2 0x276 JUMPI DUP1 PUSH4 0x715018A6 EQ PUSH2 0x2A0 JUMPI DUP1 PUSH4 0x72F702F3 EQ PUSH2 0x2B6 JUMPI DUP1 PUSH4 0x8456CB59 EQ PUSH2 0x2E0 JUMPI DUP1 PUSH4 0x8DA5CB5B EQ PUSH2 0x2F6 JUMPI PUSH2 0x154 JUMP JUMPDEST DUP1 PUSH3 0x1B7934 EQ PUSH2 0x158 JUMPI DUP1 PUSH4 0x917E776 EQ PUSH2 0x180 JUMPI DUP1 PUSH4 0x16C621E0 EQ PUSH2 0x1AA JUMPI DUP1 PUSH4 0x2E17DE78 EQ PUSH2 0x1D2 JUMPI DUP1 PUSH4 0x3C6A7F9B EQ PUSH2 0x1FA JUMPI DUP1 PUSH4 0x3F4BA83A EQ PUSH2 0x224 JUMPI PUSH2 0x154 JUMP JUMPDEST CALLDATASIZE PUSH2 0x154 JUMPI STOP JUMPDEST PUSH0 PUSH0 REVERT JUMPDEST CALLVALUE DUP1 ISZERO PUSH2 0x163 JUMPI PUSH0 PUSH0 REVERT JUMPDEST POP PUSH2 0x17E PUSH1 0x4 DUP1 CALLDATASIZE SUB DUP2 ADD SWAP1 PUSH2 0x179 SWAP2 SWAP1 PUSH2 0x175A JUMP JUMPDEST PUSH2 0x516 JUMP JUMPDEST STOP JUMPDEST CALLVALUE DUP1 ISZERO PUSH2 0x18B JUMPI PUSH0 PUSH0 REVERT JUMPDEST POP PUSH2 0x194 PUSH2 0x5AB JUMP JUMPDEST PUSH1 0x40 MLOAD PUSH2 0x1A1 SWAP2 SWAP1 PUSH2 0x17A7 JUMP JUMPDEST PUSH1 0x40 MLOAD DUP1 SWAP2 SUB SWAP1 RETURN JUMPDEST CALLVALUE DUP1 ISZERO PUSH2 0x1B5 JUMPI PUSH0 PUSH0 REVERT JUMPDEST POP PUSH2 0x1D0 PUSH1 0x4 DUP1 CALLDATASIZE SUB DUP2 ADD SWAP1 PUSH2 0x1CB SWAP2 SWAP1 PUSH2 0x17C0 JUMP JUMPDEST PUSH2 0x5B4 JUMP JUMPDEST STOP JUMPDEST CALLVALUE DUP1 ISZERO PUSH2 0x1DD JUMPI PUSH0 PUSH0 REVERT JUMPDEST POP PUSH2 0x1F8 PUSH1 0x4 DUP1 CALLDATASIZE SUB DUP2 ADD SWAP1 PUSH2 0x1F3 SWAP2 SWAP1 PUSH2 0x17C0 JUMP JUMPDEST PUSH2 0x6E9 JUMP JUMPDEST STOP JUMPDEST CALLVALUE DUP1 ISZERO PUSH2 0x205 JUMPI PUSH0 PUSH0 REVERT JUMPDEST POP PUSH2 0x20E PUSH2 0x8ED JUMP JUMPDEST PUSH1 0x40 MLOAD PUSH2 0x21B SWAP2 SWAP1 PUSH2 0x17A7 JUMP JUMPDEST PUSH1 0x40 MLOAD DUP1 SWAP2 SUB SWAP1 RETURN JUMPDEST CALLVALUE DUP1 ISZERO PUSH2 0x22F JUMPI PUSH0 PUSH0 REVERT JUMPDEST POP PUSH2 0x238 PUSH2 0x8F3 JUMP JUMPDEST STOP JUMPDEST CALLVALUE DUP1 ISZERO PUSH2 0x245 JUMPI PUSH0 PUSH0 REVERT JUMPDEST POP PUSH2 0x260 PUSH1 0x4 DUP1 CALLDATASIZE SUB DUP2 ADD SWAP1 PUSH2 0x25B SWAP2 SWAP1 PUSH2 0x1845 JUMP JUMPDEST PUSH2 0x905 JUMP JUMPDEST PUSH1 0x40 MLOAD PUSH2 0x26D SWAP2 SWAP1 PUSH2 0x17A7 JUMP JUMPDEST PUSH1 0x40 MLOAD DUP1 SWAP2 SUB SWAP1 RETURN JUMPDEST CALLVALUE DUP1 ISZERO PUSH2 0x281 JUMPI PUSH0 PUSH0 REVERT JUMPDEST POP PUSH2 0x28A PUSH2 0x916 JUMP JUMPDEST PUSH1 0x40 MLOAD PUSH2 0x297 SWAP2 SWAP1 PUSH2 0x188A JUMP JUMPDEST PUSH1 0x40 MLOAD DUP1 SWAP2 SUB SWAP1 RETURN JUMPDEST CALLVALUE DUP1 ISZERO PUSH2 0x2AB JUMPI PUSH0 PUSH0 REVERT JUMPDEST POP PUSH2 0x2B4 PUSH2 0x92B JUMP JUMPDEST STOP JUMPDEST CALLVALUE DUP1 ISZERO PUSH2 0x2C1 JUMPI PUSH0 PUSH0 REVERT JUMPDEST POP PUSH2 0x2CA PUSH2 0x93E JUMP JUMPDEST PUSH1 0x40 MLOAD PUSH2 0x2D7 SWAP2 SWAP1 PUSH2 0x18FE JUMP JUMPDEST PUSH1 0x40 MLOAD DUP1 SWAP2 SUB SWAP1 RETURN JUMPDEST CALLVALUE DUP1 ISZERO PUSH2 0x2EB JUMPI PUSH0 PUSH0 REVERT JUMPDEST POP PUSH2 0x2F4 PUSH2 0x962 JUMP JUMPDEST STOP JUMPDEST CALLVALUE DUP1 ISZERO PUSH2 0x301 JUMPI PUSH0 PUSH0 REVERT JUMPDEST POP PUSH2 0x30A PUSH2 0x974 JUMP JUMPDEST PUSH1 0x40 MLOAD PUSH2 0x317 SWAP2 SWAP1 PUSH2 0x1926 JUMP JUMPDEST PUSH1 0x40 MLOAD DUP1 SWAP2 SUB SWAP1 RETURN JUMPDEST CALLVALUE DUP1 ISZERO PUSH2 0x32B JUMPI PUSH0 PUSH0 REVERT JUMPDEST POP PUSH2 0x346 PUSH1 0x4 DUP1 CALLDATASIZE SUB DUP2 ADD SWAP1 PUSH2 0x341 SWAP2 SWAP1 PUSH2 0x1845 JUMP JUMPDEST PUSH2 0x99B JUMP JUMPDEST PUSH1 0x40 MLOAD PUSH2 0x355 SWAP4 SWAP3 SWAP2 SWAP1 PUSH2 0x193F JUMP JUMPDEST PUSH1 0x40 MLOAD DUP1 SWAP2 SUB SWAP1 RETURN JUMPDEST CALLVALUE DUP1 ISZERO PUSH2 0x369 JUMPI PUSH0 PUSH0 REVERT JUMPDEST POP PUSH2 0x372 PUSH2 0x9C1 JUMP JUMPDEST PUSH1 0x40 MLOAD PUSH2 0x37F SWAP2 SWAP1 PUSH2 0x17A7 JUMP JUMPDEST PUSH1 0x40 MLOAD DUP1 SWAP2 SUB SWAP1 RETURN JUMPDEST PUSH2 0x3A2 PUSH1 0x4 DUP1 CALLDATASIZE SUB DUP2 ADD SWAP1 PUSH2 0x39D SWAP2 SWAP1 PUSH2 0x17C0 JUMP JUMPDEST PUSH2 0x9C7 JUMP JUMPDEST STOP JUMPDEST CALLVALUE DUP1 ISZERO PUSH2 0x3AF JUMPI PUSH0 PUSH0 REVERT JUMPDEST POP PUSH2 0x3B8 PUSH2 0xC64 JUMP JUMPDEST PUSH1 0x40 MLOAD PUSH2 0x3C5 SWAP2 SWAP1 PUSH2 0x17A7 JUMP JUMPDEST PUSH1 0x40 MLOAD DUP1 SWAP2 SUB SWAP1 RETURN JUMPDEST CALLVALUE DUP1 ISZERO PUSH2 0x3D9 JUMPI PUSH0 PUSH0 REVERT JUMPDEST POP PUSH2 0x3E2 PUSH2 0xC6A JUMP JUMPDEST STOP JUMPDEST CALLVALUE DUP1 ISZERO PUSH2 0x3EF JUMPI PUSH0 PUSH0 REVERT JUMPDEST POP PUSH2 0x40A PUSH1 0x4 DUP1 CALLDATASIZE SUB DUP2 ADD SWAP1 PUSH2 0x405 SWAP2 SWAP1 PUSH2 0x17C0 JUMP JUMPDEST PUSH2 0xE85 JUMP JUMPDEST STOP JUMPDEST CALLVALUE DUP1 ISZERO PUSH2 0x417 JUMPI PUSH0 PUSH0 REVERT JUMPDEST POP PUSH2 0x420 PUSH2 0xECE JUMP JUMPDEST PUSH1 0x40 MLOAD PUSH2 0x42D SWAP2 SWAP1 PUSH2 0x17A7 JUMP JUMPDEST PUSH1 0x40 MLOAD DUP1 SWAP2 SUB SWAP1 RETURN JUMPDEST CALLVALUE DUP1 ISZERO PUSH2 0x441 JUMPI PUSH0 PUSH0 REVERT JUMPDEST POP PUSH2 0x45C PUSH1 0x4 DUP1 CALLDATASIZE SUB DUP2 ADD SWAP1 PUSH2 0x457 SWAP2 SWAP1 PUSH2 0x17C0 JUMP JUMPDEST PUSH2 0xF68 JUMP JUMPDEST STOP JUMPDEST CALLVALUE DUP1 ISZERO PUSH2 0x469 JUMPI PUSH0 PUSH0 REVERT JUMPDEST POP PUSH2 0x472 PUSH2 0x109B JUMP JUMPDEST PUSH1 0x40 MLOAD PUSH2 0x47F SWAP2 SWAP1 PUSH2 0x17A7 JUMP JUMPDEST PUSH1 0x40 MLOAD DUP1 SWAP2 SUB SWAP1 RETURN JUMPDEST CALLVALUE DUP1 ISZERO PUSH2 0x493 JUMPI PUSH0 PUSH0 REVERT JUMPDEST POP PUSH2 0x4AE PUSH1 0x4 DUP1 CALLDATASIZE SUB DUP2 ADD SWAP1 PUSH2 0x4A9 SWAP2 SWAP1 PUSH2 0x1845 JUMP JUMPDEST PUSH2 0x10A1 JUMP JUMPDEST PUSH1 0x40 MLOAD PUSH2 0x4BB SWAP2 SWAP1 PUSH2 0x17A7 JUMP JUMPDEST PUSH1 0x40 MLOAD DUP1 SWAP2 SUB SWAP1 RETURN JUMPDEST CALLVALUE DUP1 ISZERO PUSH2 0x4CF JUMPI PUSH0 PUSH0 REVERT JUMPDEST POP PUSH2 0x4EA PUSH1 0x4 DUP1 CALLDATASIZE SUB DUP2 ADD SWAP1 PUSH2 0x4E5 SWAP2 SWAP1 PUSH2 0x1845 JUMP JUMPDEST PUSH2 0x10E9 JUMP JUMPDEST STOP JUMPDEST CALLVALUE DUP1 ISZERO PUSH2 0x4F7 JUMPI PUSH0 PUSH0 REVERT JUMPDEST POP PUSH2 0x500 PUSH2 0x116D JUMP JUMPDEST PUSH1 0x40 MLOAD PUSH2 0x50D SWAP2 SWAP1 PUSH2 0x18FE JUMP JUMPDEST PUSH1 0x40 MLOAD DUP1 SWAP2 SUB SWAP1 RETURN JUMPDEST PUSH2 0x51E PUSH2 0x1191 JUMP JUMPDEST PUSH0 DUP2 GT PUSH2 0x560 JUMPI PUSH1 0x40 MLOAD PUSH32 0x8C379A000000000000000000000000000000000000000000000000000000000 DUP2 MSTORE PUSH1 0x4 ADD PUSH2 0x557 SWAP1 PUSH2 0x19CE JUMP JUMPDEST PUSH1 0x40 MLOAD DUP1 SWAP2 SUB SWAP1 REVERT JUMPDEST DUP2 PUSH1 0x4 DUP2 SWAP1 SSTORE POP DUP1 PUSH1 0x5 DUP2 SWAP1 SSTORE POP PUSH32 0x2CDA5F90308A6ED0AAD400F6DDC7575E31B5F1428C50C054AE54E1939FF164B8 DUP3 DUP3 PUSH1 0x40 MLOAD PUSH2 0x59F SWAP3 SWAP2 SWAP1 PUSH2 0x19EC JUMP JUMPDEST PUSH1 0x40 MLOAD DUP1 SWAP2 SUB SWAP1 LOG1 POP POP JUMP JUMPDEST PUSH0 PUSH1 0x7 SLOAD SWAP1 POP SWAP1 JUMP JUMPDEST PUSH2 0x5BC PUSH2 0x1191 JUMP JUMPDEST PUSH32 0x0 PUSH20 0xFFFFFFFFFFFFFFFFFFFFFFFFFFFFFFFFFFFFFFFF AND PUSH4 0x23B872DD CALLER ADDRESS DUP5 PUSH1 0x40 MLOAD DUP5 PUSH4 0xFFFFFFFF AND PUSH1 0xE0 SHL DUP2 MSTORE PUSH1 0x4 ADD PUSH2 0x619 SWAP4 SWAP3 SWAP2 SWAP1 PUSH2 0x1A13 JUMP JUMPDEST PUSH1 0x20 PUSH1 0x40 MLOAD DUP1 DUP4 SUB DUP2 PUSH0 DUP8 GAS CALL ISZERO DUP1 ISZERO PUSH2 0x635 JUMPI RETURNDATASIZE PUSH0 PUSH0 RETURNDATACOPY RETURNDATASIZE PUSH0 REVERT JUMPDEST POP POP POP POP PUSH1 0x40 MLOAD RETURNDATASIZE PUSH1 0x1F NOT PUSH1 0x1F DUP3 ADD AND DUP3 ADD DUP1 PUSH1 0x40 MSTORE POP DUP2 ADD SWAP1 PUSH2 0x659 SWAP2 SWAP1 PUSH2 0x1A72 JUMP JUMPDEST PUSH2 0x698 JUMPI PUSH1 0x40 MLOAD PUSH32 0x8C379A000000000000000000000000000000000000000000000000000000000 DUP2 MSTORE PUSH1 0x4 ADD PUSH2 0x68F SWAP1 PUSH2 0x1AE7 JUMP JUMPDEST PUSH1 0x40 MLOAD DUP1 SWAP2 SUB SWAP1 REVERT JUMPDEST CALLER PUSH20 0xFFFFFFFFFFFFFFFFFFFFFFFFFFFFFFFFFFFFFFFF AND PUSH32 0xAC1F5F240B57FC014C4875EC0FA399F96CA891F85156BA195E6512CCD4ADA548 DUP3 PUSH1 0x40 MLOAD PUSH2 0x6DE SWAP2 SWAP1 PUSH2 0x17A7 JUMP JUMPDEST PUSH1 0x40 MLOAD DUP1 SWAP2 SUB SWAP1 LOG2 POP JUMP JUMPDEST PUSH2 0x6F1 PUSH2 0x1218 JUMP JUMPDEST PUSH2 0x6F9 PUSH2 0x1267 JUMP JUMPDEST PUSH0 PUSH1 0x8 PUSH0 CALLER PUSH20 0xFFFFFFFFFFFFFFFFFFFFFFFFFFFFFFFFFFFFFFFF AND PUSH20 0xFFFFFFFFFFFFFFFFFFFFFFFFFFFFFFFFFFFFFFFF AND DUP2 MSTORE PUSH1 0x20 ADD SWAP1 DUP2 MSTORE PUSH1 0x20 ADD PUSH0 KECCAK256 SWAP1 POP DUP2 DUP2 PUSH0 ADD SLOAD LT ISZERO PUSH2 0x77F JUMPI PUSH1 0x40 MLOAD PUSH32 0x8C379A000000000000000000000000000000000000000000000000000000000 DUP2 MSTORE PUSH1 0x4 ADD PUSH2 0x776 SWAP1 PUSH2 0x1B4F JUMP JUMPDEST PUSH1 0x40 MLOAD DUP1 SWAP2 SUB SWAP1 REVERT JUMPDEST PUSH2 0x788 CALLER PUSH2 0x12B1 JUMP JUMPDEST DUP2 DUP2 PUSH0 ADD PUSH0 DUP3 DUP3 SLOAD PUSH2 0x79A SWAP2 SWAP1 PUSH2 0x1B9A JUMP JUMPDEST SWAP3 POP POP DUP2 SWAP1 SSTORE POP DUP2 PUSH1 0x7 PUSH0 DUP3 DUP3 SLOAD PUSH2 0x7B2 SWAP2 SWAP1 PUSH2 0x1B9A JUMP JUMPDEST SWAP3 POP POP DUP2 SWAP1 SSTORE POP PUSH32 0x0 PUSH20 0xFFFFFFFFFFFFFFFFFFFFFFFFFFFFFFFFFFFFFFFF AND PUSH4 0xA9059CBB CALLER DUP5 PUSH1 0x40 MLOAD DUP4 PUSH4 0xFFFFFFFF AND PUSH1 0xE0 SHL DUP2 MSTORE PUSH1 0x4 ADD PUSH2 0x814 SWAP3 SWAP2 SWAP1 PUSH2 0x1BCD JUMP JUMPDEST PUSH1 0x20 PUSH1 0x40 MLOAD DUP1 DUP4 SUB DUP2 PUSH0 DUP8 GAS CALL ISZERO DUP1 ISZERO PUSH2 0x830 JUMPI RETURNDATASIZE PUSH0 PUSH0 RETURNDATACOPY RETURNDATASIZE PUSH0 REVERT JUMPDEST POP POP POP POP PUSH1 0x40 MLOAD RETURNDATASIZE PUSH1 0x1F NOT PUSH1 0x1F DUP3 ADD AND DUP3 ADD DUP1 PUSH1 0x40 MSTORE POP DUP2 ADD SWAP1 PUSH2 0x854 SWAP2 SWAP1 PUSH2 0x1A72 JUMP JUMPDEST PUSH2 0x893 JUMPI PUSH1 0x40 MLOAD PUSH32 0x8C379A000000000000000000000000000000000000000000000000000000000 DUP2 MSTORE PUSH1 0x4 ADD PUSH2 0x88A SWAP1 PUSH2 0x1C3E JUMP JUMPDEST PUSH1 0x40 MLOAD DUP1 SWAP2 SUB SWAP1 REVERT JUMPDEST CALLER PUSH20 0xFFFFFFFFFFFFFFFFFFFFFFFFFFFFFFFFFFFFFFFF AND PUSH32 0xF5BB82176FEB1B5E747E28471AA92156A04D9F3AB9F45F28E2D704232B93F75 DUP4 PUSH1 0x40 MLOAD PUSH2 0x8D9 SWAP2 SWAP1 PUSH2 0x17A7 JUMP JUMPDEST PUSH1 0x40 MLOAD DUP1 SWAP2 SUB SWAP1 LOG2 POP PUSH2 0x8EA PUSH2 0x147C JUMP JUMPDEST POP JUMP JUMPDEST PUSH1 0x3 SLOAD DUP2 JUMP JUMPDEST PUSH2 0x8FB PUSH2 0x1191 JUMP JUMPDEST PUSH2 0x903 PUSH2 0x1485 JUMP JUMPDEST JUMP JUMPDEST PUSH0 PUSH2 0x90F DUP3 PUSH2 0x14E6 JUMP JUMPDEST SWAP1 POP SWAP2 SWAP1 POP JUMP JUMPDEST PUSH0 PUSH1 0x2 PUSH0 SWAP1 SLOAD SWAP1 PUSH2 0x100 EXP SWAP1 DIV PUSH1 0xFF AND SWAP1 POP SWAP1 JUMP JUMPDEST PUSH2 0x933 PUSH2 0x1191 JUMP JUMPDEST PUSH2 0x93C PUSH0 PUSH2 0x15B0 JUMP JUMPDEST JUMP JUMPDEST PUSH32 0x0 DUP2 JUMP JUMPDEST PUSH2 0x96A PUSH2 0x1191 JUMP JUMPDEST PUSH2 0x972 PUSH2 0x1671 JUMP JUMPDEST JUMP JUMPDEST PUSH0 PUSH0 PUSH0 SWAP1 SLOAD SWAP1 PUSH2 0x100 EXP SWAP1 DIV PUSH20 0xFFFFFFFFFFFFFFFFFFFFFFFFFFFFFFFFFFFFFFFF AND SWAP1 POP SWAP1 JUMP JUMPDEST PUSH1 0x8 PUSH1 0x20 MSTORE DUP1 PUSH0 MSTORE PUSH1 0x40 PUSH0 KECCAK256 PUSH0 SWAP2 POP SWAP1 POP DUP1 PUSH0 ADD SLOAD SWAP1 DUP1 PUSH1 0x1 ADD SLOAD SWAP1 DUP1 PUSH1 0x2 ADD SLOAD SWAP1 POP DUP4 JUMP JUMPDEST PUSH1 0x6 SLOAD DUP2 JUMP JUMPDEST PUSH2 0x9CF PUSH2 0x1218 JUMP JUMPDEST PUSH2 0x9D7 PUSH2 0x1267 JUMP JUMPDEST PUSH1 0x6 SLOAD CALLVALUE LT ISZERO PUSH2 0xA1C JUMPI PUSH1 0x40 MLOAD PUSH32 0x8C379A000000000000000000000000000000000000000000000000000000000 DUP2 MSTORE PUSH1 0x4 ADD PUSH2 0xA13 SWAP1 PUSH2 0x1CA6 JUMP JUMPDEST PUSH1 0x40 MLOAD DUP1 SWAP2 SUB SWAP1 REVERT JUMPDEST PUSH0 DUP2 GT PUSH2 0xA5E JUMPI PUSH1 0x40 MLOAD PUSH32 0x8C379A000000000000000000000000000000000000000000000000000000000 DUP2 MSTORE PUSH1 0x4 ADD PUSH2 0xA55 SWAP1 PUSH2 0x1D0E JUMP JUMPDEST PUSH1 0x40 MLOAD DUP1 SWAP2 SUB SWAP1 REVERT JUMPDEST PUSH2 0xA66 PUSH2 0x974 JUMP JUMPDEST PUSH20 0xFFFFFFFFFFFFFFFFFFFFFFFFFFFFFFFFFFFFFFFF AND PUSH2 0x8FC PUSH1 0x6 SLOAD SWAP1 DUP2 ISZERO MUL SWAP1 PUSH1 0x40 MLOAD PUSH0 PUSH1 0x40 MLOAD DUP1 DUP4 SUB DUP2 DUP6 DUP9 DUP9 CALL SWAP4 POP POP POP POP ISZERO DUP1 ISZERO PUSH2 0xAAA JUMPI RETURNDATASIZE PUSH0 PUSH0 RETURNDATACOPY RETURNDATASIZE PUSH0 REVERT JUMPDEST POP PUSH0 PUSH1 0x8 PUSH0 CALLER PUSH20 0xFFFFFFFFFFFFFFFFFFFFFFFFFFFFFFFFFFFFFFFF AND PUSH20 0xFFFFFFFFFFFFFFFFFFFFFFFFFFFFFFFFFFFFFFFF AND DUP2 MSTORE PUSH1 0x20 ADD SWAP1 DUP2 MSTORE PUSH1 0x20 ADD PUSH0 KECCAK256 SWAP1 POP PUSH2 0xAF4 CALLER PUSH2 0x12B1 JUMP JUMPDEST PUSH32 0x0 PUSH20 0xFFFFFFFFFFFFFFFFFFFFFFFFFFFFFFFFFFFFFFFF AND PUSH4 0x23B872DD CALLER ADDRESS DUP6 PUSH1 0x40 MLOAD DUP5 PUSH4 0xFFFFFFFF AND PUSH1 0xE0 SHL DUP2 MSTORE PUSH1 0x4 ADD PUSH2 0xB51 SWAP4 SWAP3 SWAP2 SWAP1 PUSH2 0x1A13 JUMP JUMPDEST PUSH1 0x20 PUSH1 0x40 MLOAD DUP1 DUP4 SUB DUP2 PUSH0 DUP8 GAS CALL ISZERO DUP1 ISZERO PUSH2 0xB6D JUMPI RETURNDATASIZE PUSH0 PUSH0 RETURNDATACOPY RETURNDATASIZE PUSH0 REVERT JUMPDEST POP POP POP POP PUSH1 0x40 MLOAD RETURNDATASIZE PUSH1 0x1F NOT PUSH1 0x1F DUP3 ADD AND DUP3 ADD DUP1 PUSH1 0x40 MSTORE POP DUP2 ADD SWAP1 PUSH2 0xB91 SWAP2 SWAP1 PUSH2 0x1A72 JUMP JUMPDEST PUSH2 0xBD0 JUMPI PUSH1 0x40 MLOAD PUSH32 0x8C379A000000000000000000000000000000000000000000000000000000000 DUP2 MSTORE PUSH1 0x4 ADD PUSH2 0xBC7 SWAP1 PUSH2 0x1D76 JUMP JUMPDEST PUSH1 0x40 MLOAD DUP1 SWAP2 SUB SWAP1 REVERT JUMPDEST DUP2 DUP2 PUSH0 ADD PUSH0 DUP3 DUP3 SLOAD PUSH2 0xBE2 SWAP2 SWAP1 PUSH2 0x1D94 JUMP JUMPDEST SWAP3 POP POP DUP2 SWAP1 SSTORE POP TIMESTAMP DUP2 PUSH1 0x1 ADD DUP2 SWAP1 SSTORE POP DUP2 PUSH1 0x7 PUSH0 DUP3 DUP3 SLOAD PUSH2 0xC03 SWAP2 SWAP1 PUSH2 0x1D94 JUMP JUMPDEST SWAP3 POP POP DUP2 SWAP1 SSTORE POP CALLER PUSH20 0xFFFFFFFFFFFFFFFFFFFFFFFFFFFFFFFFFFFFFFFF AND PUSH32 0x9E71BC8EEA02A63969F509818F2DAFB9254532904319F9DBDA79B67BD34A5F3D DUP4 PUSH1 0x40 MLOAD PUSH2 0xC50 SWAP2 SWAP1 PUSH2 0x17A7 JUMP JUMPDEST PUSH1 0x40 MLOAD DUP1 SWAP2 SUB SWAP1 LOG2 POP PUSH2 0xC61 PUSH2 0x147C JUMP JUMPDEST POP JUMP JUMPDEST PUSH1 0x5 SLOAD DUP2 JUMP JUMPDEST PUSH2 0xC72 PUSH2 0x1218 JUMP JUMPDEST PUSH2 0xC7A PUSH2 0x1267 JUMP JUMPDEST PUSH0 PUSH2 0xC84 CALLER PUSH2 0x14E6 JUMP JUMPDEST SWAP1 POP PUSH0 DUP2 GT PUSH2 0xCC8 JUMPI PUSH1 0x40 MLOAD PUSH32 0x8C379A000000000000000000000000000000000000000000000000000000000 DUP2 MSTORE PUSH1 0x4 ADD PUSH2 0xCBF SWAP1 PUSH2 0x1E11 JUMP JUMPDEST PUSH1 0x40 MLOAD DUP1 SWAP2 SUB SWAP1 REVERT JUMPDEST TIMESTAMP PUSH1 0x8 PUSH0 CALLER PUSH20 0xFFFFFFFFFFFFFFFFFFFFFFFFFFFFFFFFFFFFFFFF AND PUSH20 0xFFFFFFFFFFFFFFFFFFFFFFFFFFFFFFFFFFFFFFFF AND DUP2 MSTORE PUSH1 0x20 ADD SWAP1 DUP2 MSTORE PUSH1 0x20 ADD PUSH0 KECCAK256 PUSH1 0x1 ADD DUP2 SWAP1 SSTORE POP PUSH0 PUSH1 0x8 PUSH0 CALLER PUSH20 0xFFFFFFFFFFFFFFFFFFFFFFFFFFFFFFFFFFFFFFFF AND PUSH20 0xFFFFFFFFFFFFFFFFFFFFFFFFFFFFFFFFFFFFFFFF AND DUP2 MSTORE PUSH1 0x20 ADD SWAP1 DUP2 MSTORE PUSH1 0x20 ADD PUSH0 KECCAK256 PUSH1 0x2 ADD DUP2 SWAP1 SSTORE POP PUSH32 0x0 PUSH20 0xFFFFFFFFFFFFFFFFFFFFFFFFFFFFFFFFFFFFFFFF AND PUSH4 0xA9059CBB CALLER DUP4 PUSH1 0x40 MLOAD DUP4 PUSH4 0xFFFFFFFF AND PUSH1 0xE0 SHL DUP2 MSTORE PUSH1 0x4 ADD PUSH2 0xDAD SWAP3 SWAP2 SWAP1 PUSH2 0x1BCD JUMP JUMPDEST PUSH1 0x20 PUSH1 0x40 MLOAD DUP1 DUP4 SUB DUP2 PUSH0 DUP8 GAS CALL ISZERO DUP1 ISZERO PUSH2 0xDC9 JUMPI RETURNDATASIZE PUSH0 PUSH0 RETURNDATACOPY RETURNDATASIZE PUSH0 REVERT JUMPDEST POP POP POP POP PUSH1 0x40 MLOAD RETURNDATASIZE PUSH1 0x1F NOT PUSH1 0x1F DUP3 ADD AND DUP3 ADD DUP1 PUSH1 0x40 MSTORE POP DUP2 ADD SWAP1 PUSH2 0xDED SWAP2 SWAP1 PUSH2 0x1A72 JUMP JUMPDEST PUSH2 0xE2C JUMPI PUSH1 0x40 MLOAD PUSH32 0x8C379A000000000000000000000000000000000000000000000000000000000 DUP2 MSTORE PUSH1 0x4 ADD PUSH2 0xE23 SWAP1 PUSH2 0x1E79 JUMP JUMPDEST PUSH1 0x40 MLOAD DUP1 SWAP2 SUB SWAP1 REVERT JUMPDEST CALLER PUSH20 0xFFFFFFFFFFFFFFFFFFFFFFFFFFFFFFFFFFFFFFFF AND PUSH32 0x106F923F993C2149D49B4255FF723ACAFA1F2D94393F561D3EDA32AE348F7241 DUP3 PUSH1 0x40 MLOAD PUSH2 0xE72 SWAP2 SWAP1 PUSH2 0x17A7 JUMP JUMPDEST PUSH1 0x40 MLOAD DUP1 SWAP2 SUB SWAP1 LOG2 POP PUSH2 0xE83 PUSH2 0x147C JUMP JUMPDEST JUMP JUMPDEST PUSH2 0xE8D PUSH2 0x1191 JUMP JUMPDEST DUP1 PUSH1 0x6 DUP2 SWAP1 SSTORE POP PUSH32 0x8B58A69C09C2DFF0E67BEA4782C73A9FF3C4BBA6DC50DBE66643372B8CE9035D DUP2 PUSH1 0x40 MLOAD PUSH2 0xEC3 SWAP2 SWAP1 PUSH2 0x17A7 JUMP JUMPDEST PUSH1 0x40 MLOAD DUP1 SWAP2 SUB SWAP1 LOG1 POP JUMP JUMPDEST PUSH0 PUSH0 PUSH1 0x7 SLOAD SUB PUSH2 0xF02 JUMPI PUSH1 0x5 SLOAD PUSH8 0xDE0B6B3A7640000 PUSH1 0x4 SLOAD PUSH2 0xEF1 SWAP2 SWAP1 PUSH2 0x1E97 JUMP JUMPDEST PUSH2 0xEFB SWAP2 SWAP1 PUSH2 0x1F05 JUMP JUMPDEST SWAP1 POP PUSH2 0xF65 JUMP JUMPDEST PUSH0 PUSH1 0x5 SLOAD PUSH8 0xDE0B6B3A7640000 PUSH1 0x4 SLOAD PUSH2 0xF1C SWAP2 SWAP1 PUSH2 0x1E97 JUMP JUMPDEST PUSH2 0xF26 SWAP2 SWAP1 PUSH2 0x1F05 JUMP JUMPDEST SWAP1 POP PUSH0 PUSH8 0xDE0B6B3A7640000 PUSH1 0x7 SLOAD PUSH2 0xF3F SWAP2 SWAP1 PUSH2 0x1D94 JUMP JUMPDEST PUSH8 0xDE0B6B3A7640000 DUP4 PUSH2 0xF53 SWAP2 SWAP1 PUSH2 0x1E97 JUMP JUMPDEST PUSH2 0xF5D SWAP2 SWAP1 PUSH2 0x1F05 JUMP JUMPDEST SWAP1 POP DUP1 SWAP3 POP POP POP JUMPDEST SWAP1 JUMP JUMPDEST PUSH2 0xF70 PUSH2 0x1191 JUMP JUMPDEST PUSH32 0x0 PUSH20 0xFFFFFFFFFFFFFFFFFFFFFFFFFFFFFFFFFFFFFFFF AND PUSH4 0xA9059CBB CALLER DUP4 PUSH1 0x40 MLOAD DUP4 PUSH4 0xFFFFFFFF AND PUSH1 0xE0 SHL DUP2 MSTORE PUSH1 0x4 ADD PUSH2 0xFCB SWAP3 SWAP2 SWAP1 PUSH2 0x1BCD JUMP JUMPDEST PUSH1 0x20 PUSH1 0x40 MLOAD DUP1 DUP4 SUB DUP2 PUSH0 DUP8 GAS CALL ISZERO DUP1 ISZERO PUSH2 0xFE7 JUMPI RETURNDATASIZE PUSH0 PUSH0 RETURNDATACOPY RETURNDATASIZE PUSH0 REVERT JUMPDEST POP POP POP POP PUSH1 0x40 MLOAD RETURNDATASIZE PUSH1 0x1F NOT PUSH1 0x1F DUP3 ADD AND DUP3 ADD DUP1 PUSH1 0x40 MSTORE POP DUP2 ADD SWAP1 PUSH2 0x100B SWAP2 SWAP1 PUSH2 0x1A72 JUMP JUMPDEST PUSH2 0x104A JUMPI PUSH1 0x40 MLOAD PUSH32 0x8C379A000000000000000000000000000000000000000000000000000000000 DUP2 MSTORE PUSH1 0x4 ADD PUSH2 0x1041 SWAP1 PUSH2 0x1F7F JUMP JUMPDEST PUSH1 0x40 MLOAD DUP1 SWAP2 SUB SWAP1 REVERT JUMPDEST CALLER PUSH20 0xFFFFFFFFFFFFFFFFFFFFFFFFFFFFFFFFFFFFFFFF AND PUSH32 0x5991A08BB51D1FC3F552255ED446F040DCA378AD3FF91763507B63B185EB5D2E DUP3 PUSH1 0x40 MLOAD PUSH2 0x1090 SWAP2 SWAP1 PUSH2 0x17A7 JUMP JUMPDEST PUSH1 0x40 MLOAD DUP1 SWAP2 SUB SWAP1 LOG2 POP JUMP JUMPDEST PUSH1 0x4 SLOAD DUP2 JUMP JUMPDEST PUSH0 PUSH1 0x8 PUSH0 DUP4 PUSH20 0xFFFFFFFFFFFFFFFFFFFFFFFFFFFFFFFFFFFFFFFF AND PUSH20 0xFFFFFFFFFFFFFFFFFFFFFFFFFFFFFFFFFFFFFFFF AND DUP2 MSTORE PUSH1 0x20 ADD SWAP1 DUP2 MSTORE PUSH1 0x20 ADD PUSH0 KECCAK256 PUSH0 ADD SLOAD SWAP1 POP SWAP2 SWAP1 POP JUMP JUMPDEST PUSH2 0x10F1 PUSH2 0x1191 JUMP JUMPDEST PUSH0 PUSH20 0xFFFFFFFFFFFFFFFFFFFFFFFFFFFFFFFFFFFFFFFF AND DUP2 PUSH20 0xFFFFFFFFFFFFFFFFFFFFFFFFFFFFFFFFFFFFFFFF AND SUB PUSH2 0x1161 JUMPI PUSH0 PUSH1 0x40 MLOAD PUSH32 0x1E4FBDF700000000000000000000000000000000000000000000000000000000 DUP2 MSTORE PUSH1 0x4 ADD PUSH2 0x1158 SWAP2 SWAP1 PUSH2 0x1926 JUMP JUMPDEST PUSH1 0x40 MLOAD DUP1 SWAP2 SUB SWAP1 REVERT JUMPDEST PUSH2 0x116A DUP2 PUSH2 0x15B0 JUMP JUMPDEST POP JUMP JUMPDEST PUSH32 0x0 DUP2 JUMP JUMPDEST PUSH2 0x1199 PUSH2 0x16D3 JUMP JUMPDEST PUSH20 0xFFFFFFFFFFFFFFFFFFFFFFFFFFFFFFFFFFFFFFFF AND PUSH2 0x11B7 PUSH2 0x974 JUMP JUMPDEST PUSH20 0xFFFFFFFFFFFFFFFFFFFFFFFFFFFFFFFFFFFFFFFF AND EQ PUSH2 0x1216 JUMPI PUSH2 0x11DA PUSH2 0x16D3 JUMP JUMPDEST PUSH1 0x40 MLOAD PUSH32 0x118CDAA700000000000000000000000000000000000000000000000000000000 DUP2 MSTORE PUSH1 0x4 ADD PUSH2 0x120D SWAP2 SWAP1 PUSH2 0x1926 JUMP JUMPDEST PUSH1 0x40 MLOAD DUP1 SWAP2 SUB SWAP1 REVERT JUMPDEST JUMP JUMPDEST PUSH1 0x2 PUSH1 0x1 SLOAD SUB PUSH2 0x125D JUMPI PUSH1 0x40 MLOAD PUSH32 0x8C379A000000000000000000000000000000000000000000000000000000000 DUP2 MSTORE PUSH1 0x4 ADD PUSH2 0x1254 SWAP1 PUSH2 0x1FE7 JUMP JUMPDEST PUSH1 0x40 MLOAD DUP1 SWAP2 SUB SWAP1 REVERT JUMPDEST PUSH1 0x2 PUSH1 0x1 DUP2 SWAP1 SSTORE POP JUMP JUMPDEST PUSH2 0x126F PUSH2 0x916 JUMP JUMPDEST ISZERO PUSH2 0x12AF JUMPI PUSH1 0x40 MLOAD PUSH32 0x8C379A000000000000000000000000000000000000000000000000000000000 DUP2 MSTORE PUSH1 0x4 ADD PUSH2 0x12A6 SWAP1 PUSH2 0x204F JUMP JUMPDEST PUSH1 0x40 MLOAD DUP1 SWAP2 SUB SWAP1 REVERT JUMPDEST JUMP JUMPDEST PUSH0 PUSH2 0x12BB DUP3 PUSH2 0x14E6 JUMP JUMPDEST SWAP1 POP PUSH0 DUP2 GT ISZERO PUSH2 0x1478 JUMPI TIMESTAMP PUSH1 0x8 PUSH0 DUP5 PUSH20 0xFFFFFFFFFFFFFFFFFFFFFFFFFFFFFFFFFFFFFFFF AND PUSH20 0xFFFFFFFFFFFFFFFFFFFFFFFFFFFFFFFFFFFFFFFF AND DUP2 MSTORE PUSH1 0x20 ADD SWAP1 DUP2 MSTORE PUSH1 0x20 ADD PUSH0 KECCAK256 PUSH1 0x1 ADD DUP2 SWAP1 SSTORE POP PUSH0 PUSH1 0x8 PUSH0 DUP5 PUSH20 0xFFFFFFFFFFFFFFFFFFFFFFFFFFFFFFFFFFFFFFFF AND PUSH20 0xFFFFFFFFFFFFFFFFFFFFFFFFFFFFFFFFFFFFFFFF AND DUP2 MSTORE PUSH1 0x20 ADD SWAP1 DUP2 MSTORE PUSH1 0x20 ADD PUSH0 KECCAK256 PUSH1 0x2 ADD DUP2 SWAP1 SSTORE POP PUSH32 0x0 PUSH20 0xFFFFFFFFFFFFFFFFFFFFFFFFFFFFFFFFFFFFFFFF AND PUSH4 0xA9059CBB DUP4 DUP4 PUSH1 0x40 MLOAD DUP4 PUSH4 0xFFFFFFFF AND PUSH1 0xE0 SHL DUP2 MSTORE PUSH1 0x4 ADD PUSH2 0x13AA SWAP3 SWAP2 SWAP1 PUSH2 0x1BCD JUMP JUMPDEST PUSH1 0x20 PUSH1 0x40 MLOAD DUP1 DUP4 SUB DUP2 PUSH0 DUP8 GAS CALL ISZERO DUP1 ISZERO PUSH2 0x13C6 JUMPI RETURNDATASIZE PUSH0 PUSH0 RETURNDATACOPY RETURNDATASIZE PUSH0 REVERT JUMPDEST POP POP POP POP PUSH1 0x40 MLOAD RETURNDATASIZE PUSH1 0x1F NOT PUSH1 0x1F DUP3 ADD AND DUP3 ADD DUP1 PUSH1 0x40 MSTORE POP DUP2 ADD SWAP1 PUSH2 0x13EA SWAP2 SWAP1 PUSH2 0x1A72 JUMP JUMPDEST PUSH2 0x1429 JUMPI PUSH1 0x40 MLOAD PUSH32 0x8C379A000000000000000000000000000000000000000000000000000000000 DUP2 MSTORE PUSH1 0x4 ADD PUSH2 0x1420 SWAP1 PUSH2 0x1E79 JUMP JUMPDEST PUSH1 0x40 MLOAD DUP1 SWAP2 SUB SWAP1 REVERT JUMPDEST DUP2 PUSH20 0xFFFFFFFFFFFFFFFFFFFFFFFFFFFFFFFFFFFFFFFF AND PUSH32 0x106F923F993C2149D49B4255FF723ACAFA1F2D94393F561D3EDA32AE348F7241 DUP3 PUSH1 0x40 MLOAD PUSH2 0x146F SWAP2 SWAP1 PUSH2 0x17A7 JUMP JUMPDEST PUSH1 0x40 MLOAD DUP1 SWAP2 SUB SWAP1 LOG2 JUMPDEST POP POP JUMP JUMPDEST PUSH1 0x1 DUP1 DUP2 SWAP1 SSTORE POP JUMP JUMPDEST PUSH2 0x148D PUSH2 0x16DA JUMP JUMPDEST PUSH0 PUSH1 0x2 PUSH0 PUSH2 0x100 EXP DUP2 SLOAD DUP2 PUSH1 0xFF MUL NOT AND SWAP1 DUP4 ISZERO ISZERO MUL OR SWAP1 SSTORE POP PUSH32 0x5DB9EE0A495BF2E6FF9C91A7834C1BA4FDD244A5E8AA4E537BD38AEAE4B073AA PUSH2 0x14CF PUSH2 0x16D3 JUMP JUMPDEST PUSH1 0x40 MLOAD PUSH2 0x14DC SWAP2 SWAP1 PUSH2 0x1926 JUMP JUMPDEST PUSH1 0x40 MLOAD DUP1 SWAP2 SUB SWAP1 LOG1 JUMP JUMPDEST PUSH0 PUSH0 PUSH1 0x8 PUSH0 DUP5 PUSH20 0xFFFFFFFFFFFFFFFFFFFFFFFFFFFFFFFFFFFFFFFF AND PUSH20 0xFFFFFFFFFFFFFFFFFFFFFFFFFFFFFFFFFFFFFFFF AND DUP2 MSTORE PUSH1 0x20 ADD SWAP1 DUP2 MSTORE PUSH1 0x20 ADD PUSH0 KECCAK256 SWAP1 POP PUSH0 DUP2 PUSH0 ADD SLOAD EQ DUP1 PUSH2 0x153B JUMPI POP PUSH0 DUP2 PUSH1 0x1 ADD SLOAD EQ JUMPDEST ISZERO PUSH2 0x1549 JUMPI PUSH0 SWAP2 POP POP PUSH2 0x15AB JUMP JUMPDEST PUSH0 DUP2 PUSH1 0x1 ADD SLOAD TIMESTAMP PUSH2 0x155A SWAP2 SWAP1 PUSH2 0x1B9A JUMP JUMPDEST SWAP1 POP PUSH0 PUSH1 0x5 SLOAD PUSH1 0x3 SLOAD PUSH2 0x156D SWAP2 SWAP1 PUSH2 0x1E97 JUMP JUMPDEST DUP3 PUSH1 0x4 SLOAD DUP6 PUSH0 ADD SLOAD PUSH2 0x157F SWAP2 SWAP1 PUSH2 0x1E97 JUMP JUMPDEST PUSH2 0x1589 SWAP2 SWAP1 PUSH2 0x1E97 JUMP JUMPDEST PUSH2 0x1593 SWAP2 SWAP1 PUSH2 0x1F05 JUMP JUMPDEST SWAP1 POP DUP3 PUSH1 0x2 ADD SLOAD DUP2 PUSH2 0x15A5 SWAP2 SWAP1 PUSH2 0x1D94 JUMP JUMPDEST SWAP4 POP POP POP POP JUMPDEST SWAP2 SWAP1 POP JUMP JUMPDEST PUSH0 PUSH0 PUSH0 SWAP1 SLOAD SWAP1 PUSH2 0x100 EXP SWAP1 DIV PUSH20 0xFFFFFFFFFFFFFFFFFFFFFFFFFFFFFFFFFFFFFFFF AND SWAP1 POP DUP2 PUSH0 PUSH0 PUSH2 0x100 EXP DUP2 SLOAD DUP2 PUSH20 0xFFFFFFFFFFFFFFFFFFFFFFFFFFFFFFFFFFFFFFFF MUL NOT AND SWAP1 DUP4 PUSH20 0xFFFFFFFFFFFFFFFFFFFFFFFFFFFFFFFFFFFFFFFF AND MUL OR SWAP1 SSTORE POP DUP2 PUSH20 0xFFFFFFFFFFFFFFFFFFFFFFFFFFFFFFFFFFFFFFFF AND DUP2 PUSH20 0xFFFFFFFFFFFFFFFFFFFFFFFFFFFFFFFFFFFFFFFF AND PUSH32 0x8BE0079C531659141344CD1FD0A4F28419497F9722A3DAAFE3B4186F6B6457E0 PUSH1 0x40 MLOAD PUSH1 0x40 MLOAD DUP1 SWAP2 SUB SWAP1 LOG3 POP POP JUMP JUMPDEST PUSH2 0x1679 PUSH2 0x1267 JUMP JUMPDEST PUSH1 0x1 PUSH1 0x2 PUSH0 PUSH2 0x100 EXP DUP2 SLOAD DUP2 PUSH1 0xFF MUL NOT AND SWAP1 DUP4 ISZERO ISZERO MUL OR SWAP1 SSTORE POP PUSH32 0x62E78CEA01BEE320CD4E420270B5EA74000D11B0C9F74754EBDBFC544B05A258 PUSH2 0x16BC PUSH2 0x16D3 JUMP JUMPDEST PUSH1 0x40 MLOAD PUSH2 0x16C9 SWAP2 SWAP1 PUSH2 0x1926 JUMP JUMPDEST PUSH1 0x40 MLOAD DUP1 SWAP2 SUB SWAP1 LOG1 JUMP JUMPDEST PUSH0 CALLER SWAP1 POP SWAP1 JUMP JUMPDEST PUSH2 0x16E2 PUSH2 0x916 JUMP JUMPDEST PUSH2 0x1721 JUMPI PUSH1 0x40 MLOAD PUSH32 0x8C379A000000000000000000000000000000000000000000000000000000000 DUP2 MSTORE PUSH1 0x4 ADD PUSH2 0x1718 SWAP1 PUSH2 0x20B7 JUMP JUMPDEST PUSH1 0x40 MLOAD DUP1 SWAP2 SUB SWAP1 REVERT JUMPDEST JUMP JUMPDEST PUSH0 PUSH0 REVERT JUMPDEST PUSH0 DUP2 SWAP1 POP SWAP2 SWAP1 POP JUMP JUMPDEST PUSH2 0x1739 DUP2 PUSH2 0x1727 JUMP JUMPDEST DUP2 EQ PUSH2 0x1743 JUMPI PUSH0 PUSH0 REVERT JUMPDEST POP JUMP JUMPDEST PUSH0 DUP2 CALLDATALOAD SWAP1 POP PUSH2 0x1754 DUP2 PUSH2 0x1730 JUMP JUMPDEST SWAP3 SWAP2 POP POP JUMP JUMPDEST PUSH0 PUSH0 PUSH1 0x40 DUP4 DUP6 SUB SLT ISZERO PUSH2 0x1770 JUMPI PUSH2 0x176F PUSH2 0x1723 JUMP JUMPDEST JUMPDEST PUSH0 PUSH2 0x177D DUP6 DUP3 DUP7 ADD PUSH2 0x1746 JUMP JUMPDEST SWAP3 POP POP PUSH1 0x20 PUSH2 0x178E DUP6 DUP3 DUP7 ADD PUSH2 0x1746 JUMP JUMPDEST SWAP2 POP POP SWAP3 POP SWAP3 SWAP1 POP JUMP JUMPDEST PUSH2 0x17A1 DUP2 PUSH2 0x1727 JUMP JUMPDEST DUP3 MSTORE POP POP JUMP JUMPDEST PUSH0 PUSH1 0x20 DUP3 ADD SWAP1 POP PUSH2 0x17BA PUSH0 DUP4 ADD DUP5 PUSH2 0x1798 JUMP JUMPDEST SWAP3 SWAP2 POP POP JUMP JUMPDEST PUSH0 PUSH1 0x20 DUP3 DUP5 SUB SLT ISZERO PUSH2 0x17D5 JUMPI PUSH2 0x17D4 PUSH2 0x1723 JUMP JUMPDEST JUMPDEST PUSH0 PUSH2 0x17E2 DUP5 DUP3 DUP6 ADD PUSH2 0x1746 JUMP JUMPDEST SWAP2 POP POP SWAP3 SWAP2 POP POP JUMP JUMPDEST PUSH0 PUSH20 0xFFFFFFFFFFFFFFFFFFFFFFFFFFFFFFFFFFFFFFFF DUP3 AND SWAP1 POP SWAP2 SWAP1 POP JUMP JUMPDEST PUSH0 PUSH2 0x1814 DUP3 PUSH2 0x17EB JUMP JUMPDEST SWAP1 POP SWAP2 SWAP1 POP JUMP JUMPDEST PUSH2 0x1824 DUP2 PUSH2 0x180A JUMP JUMPDEST DUP2 EQ PUSH2 0x182E JUMPI PUSH0 PUSH0 REVERT JUMPDEST POP JUMP JUMPDEST PUSH0 DUP2 CALLDATALOAD SWAP1 POP PUSH2 0x183F DUP2 PUSH2 0x181B JUMP JUMPDEST SWAP3 SWAP2 POP POP JUMP JUMPDEST PUSH0 PUSH1 0x20 DUP3 DUP5 SUB SLT ISZERO PUSH2 0x185A JUMPI PUSH2 0x1859 PUSH2 0x1723 JUMP JUMPDEST JUMPDEST PUSH0 PUSH2 0x1867 DUP5 DUP3 DUP6 ADD PUSH2 0x1831 JUMP JUMPDEST SWAP2 POP POP SWAP3 SWAP2 POP POP JUMP JUMPDEST PUSH0 DUP2 ISZERO ISZERO SWAP1 POP SWAP2 SWAP1 POP JUMP JUMPDEST PUSH2 0x1884 DUP2 PUSH2 0x1870 JUMP JUMPDEST DUP3 MSTORE POP POP JUMP JUMPDEST PUSH0 PUSH1 0x20 DUP3 ADD SWAP1 POP PUSH2 0x189D PUSH0 DUP4 ADD DUP5 PUSH2 0x187B JUMP JUMPDEST SWAP3 SWAP2 POP POP JUMP JUMPDEST PUSH0 DUP2 SWAP1 POP SWAP2 SWAP1 POP JUMP JUMPDEST PUSH0 PUSH2 0x18C6 PUSH2 0x18C1 PUSH2 0x18BC DUP5 PUSH2 0x17EB JUMP JUMPDEST PUSH2 0x18A3 JUMP JUMPDEST PUSH2 0x17EB JUMP JUMPDEST SWAP1 POP SWAP2 SWAP1 POP JUMP JUMPDEST PUSH0 PUSH2 0x18D7 DUP3 PUSH2 0x18AC JUMP JUMPDEST SWAP1 POP SWAP2 SWAP1 POP JUMP JUMPDEST PUSH0 PUSH2 0x18E8 DUP3 PUSH2 0x18CD JUMP JUMPDEST SWAP1 POP SWAP2 SWAP1 POP JUMP JUMPDEST PUSH2 0x18F8 DUP2 PUSH2 0x18DE JUMP JUMPDEST DUP3 MSTORE POP POP JUMP JUMPDEST PUSH0 PUSH1 0x20 DUP3 ADD SWAP1 POP PUSH2 0x1911 PUSH0 DUP4 ADD DUP5 PUSH2 0x18EF JUMP JUMPDEST SWAP3 SWAP2 POP POP JUMP JUMPDEST PUSH2 0x1920 DUP2 PUSH2 0x180A JUMP JUMPDEST DUP3 MSTORE POP POP JUMP JUMPDEST PUSH0 PUSH1 0x20 DUP3 ADD SWAP1 POP PUSH2 0x1939 PUSH0 DUP4 ADD DUP5 PUSH2 0x1917 JUMP JUMPDEST SWAP3 SWAP2 POP POP JUMP JUMPDEST PUSH0 PUSH1 0x60 DUP3 ADD SWAP1 POP PUSH2 0x1952 PUSH0 DUP4 ADD DUP7 PUSH2 0x1798 JUMP JUMPDEST PUSH2 0x195F PUSH1 0x20 DUP4 ADD DUP6 PUSH2 0x1798 JUMP JUMPDEST PUSH2 0x196C PUSH1 0x40 DUP4 ADD DUP5 PUSH2 0x1798 JUMP JUMPDEST SWAP5 SWAP4 POP POP POP POP JUMP JUMPDEST PUSH0 DUP3 DUP3 MSTORE PUSH1 0x20 DUP3 ADD SWAP1 POP SWAP3 SWAP2 POP POP JUMP JUMPDEST PUSH32 0x44656E6F6D696E61746F72206D757374203E2030000000000000000000000000 PUSH0 DUP3 ADD MSTORE POP JUMP JUMPDEST PUSH0 PUSH2 0x19B8 PUSH1 0x14 DUP4 PUSH2 0x1974 JUMP JUMPDEST SWAP2 POP PUSH2 0x19C3 DUP3 PUSH2 0x1984 JUMP JUMPDEST PUSH1 0x20 DUP3 ADD SWAP1 POP SWAP2 SWAP1 POP JUMP JUMPDEST PUSH0 PUSH1 0x20 DUP3 ADD SWAP1 POP DUP2 DUP2 SUB PUSH0 DUP4 ADD MSTORE PUSH2 0x19E5 DUP2 PUSH2 0x19AC JUMP JUMPDEST SWAP1 POP SWAP2 SWAP1 POP JUMP JUMPDEST PUSH0 PUSH1 0x40 DUP3 ADD SWAP1 POP PUSH2 0x19FF PUSH0 DUP4 ADD DUP6 PUSH2 0x1798 JUMP JUMPDEST PUSH2 0x1A0C PUSH1 0x20 DUP4 ADD DUP5 PUSH2 0x1798 JUMP JUMPDEST SWAP4 SWAP3 POP POP POP JUMP JUMPDEST PUSH0 PUSH1 0x60 DUP3 ADD SWAP1 POP PUSH2 0x1A26 PUSH0 DUP4 ADD DUP7 PUSH2 0x1917 JUMP JUMPDEST PUSH2 0x1A33 PUSH1 0x20 DUP4 ADD DUP6 PUSH2 0x1917 JUMP JUMPDEST PUSH2 0x1A40 PUSH1 0x40 DUP4 ADD DUP5 PUSH2 0x1798 JUMP JUMPDEST SWAP5 SWAP4 POP POP POP POP JUMP JUMPDEST PUSH2 0x1A51 DUP2 PUSH2 0x1870 JUMP JUMPDEST DUP2 EQ PUSH2 0x1A5B JUMPI PUSH0 PUSH0 REVERT JUMPDEST POP JUMP JUMPDEST PUSH0 DUP2 MLOAD SWAP1 POP PUSH2 0x1A6C DUP2 PUSH2 0x1A48 JUMP JUMPDEST SWAP3 SWAP2 POP POP JUMP JUMPDEST PUSH0 PUSH1 0x20 DUP3 DUP5 SUB SLT ISZERO PUSH2 0x1A87 JUMPI PUSH2 0x1A86 PUSH2 0x1723 JUMP JUMPDEST JUMPDEST PUSH0 PUSH2 0x1A94 DUP5 DUP3 DUP6 ADD PUSH2 0x1A5E JUMP JUMPDEST SWAP2 POP POP SWAP3 SWAP2 POP POP JUMP JUMPDEST PUSH32 0x4465706F736974206661696C6564000000000000000000000000000000000000 PUSH0 DUP3 ADD MSTORE POP JUMP JUMPDEST PUSH0 PUSH2 0x1AD1 PUSH1 0xE DUP4 PUSH2 0x1974 JUMP JUMPDEST SWAP2 POP PUSH2 0x1ADC DUP3 PUSH2 0x1A9D JUMP JUMPDEST PUSH1 0x20 DUP3 ADD SWAP1 POP SWAP2 SWAP1 POP JUMP JUMPDEST PUSH0 PUSH1 0x20 DUP3 ADD SWAP1 POP DUP2 DUP2 SUB PUSH0 DUP4 ADD MSTORE PUSH2 0x1AFE DUP2 PUSH2 0x1AC5 JUMP JUMPDEST SWAP1 POP SWAP2 SWAP1 POP JUMP JUMPDEST PUSH32 0x496E73756666696369656E74207374616B650000000000000000000000000000 PUSH0 DUP3 ADD MSTORE POP JUMP JUMPDEST PUSH0 PUSH2 0x1B39 PUSH1 0x12 DUP4 PUSH2 0x1974 JUMP JUMPDEST SWAP2 POP PUSH2 0x1B44 DUP3 PUSH2 0x1B05 JUMP JUMPDEST PUSH1 0x20 DUP3 ADD SWAP1 POP SWAP2 SWAP1 POP JUMP JUMPDEST PUSH0 PUSH1 0x20 DUP3 ADD SWAP1 POP DUP2 DUP2 SUB PUSH0 DUP4 ADD MSTORE PUSH2 0x1B66 DUP2 PUSH2 0x1B2D JUMP JUMPDEST SWAP1 POP SWAP2 SWAP1 POP JUMP JUMPDEST PUSH32 0x4E487B7100000000000000000000000000000000000000000000000000000000 PUSH0 MSTORE PUSH1 0x11 PUSH1 0x4 MSTORE PUSH1 0x24 PUSH0 REVERT JUMPDEST PUSH0 PUSH2 0x1BA4 DUP3 PUSH2 0x1727 JUMP JUMPDEST SWAP2 POP PUSH2 0x1BAF DUP4 PUSH2 0x1727 JUMP JUMPDEST SWAP3 POP DUP3 DUP3 SUB SWAP1 POP DUP2 DUP2 GT ISZERO PUSH2 0x1BC7 JUMPI PUSH2 0x1BC6 PUSH2 0x1B6D JUMP JUMPDEST JUMPDEST SWAP3 SWAP2 POP POP JUMP JUMPDEST PUSH0 PUSH1 0x40 DUP3 ADD SWAP1 POP PUSH2 0x1BE0 PUSH0 DUP4 ADD DUP6 PUSH2 0x1917 JUMP JUMPDEST PUSH2 0x1BED PUSH1 0x20 DUP4 ADD DUP5 PUSH2 0x1798 JUMP JUMPDEST SWAP4 SWAP3 POP POP POP JUMP JUMPDEST PUSH32 0x556E7374616B6520746F6B656E207472616E73666572206661696C6564000000 PUSH0 DUP3 ADD MSTORE POP JUMP JUMPDEST PUSH0 PUSH2 0x1C28 PUSH1 0x1D DUP4 PUSH2 0x1974 JUMP JUMPDEST SWAP2 POP PUSH2 0x1C33 DUP3 PUSH2 0x1BF4 JUMP JUMPDEST PUSH1 0x20 DUP3 ADD SWAP1 POP SWAP2 SWAP1 POP JUMP JUMPDEST PUSH0 PUSH1 0x20 DUP3 ADD SWAP1 POP DUP2 DUP2 SUB PUSH0 DUP4 ADD MSTORE PUSH2 0x1C55 DUP2 PUSH2 0x1C1C JUMP JUMPDEST SWAP1 POP SWAP2 SWAP1 POP JUMP JUMPDEST PUSH32 0x4D75737420706179206E61746976652066656500000000000000000000000000 PUSH0 DUP3 ADD MSTORE POP JUMP JUMPDEST PUSH0 PUSH2 0x1C90 PUSH1 0x13 DUP4 PUSH2 0x1974 JUMP JUMPDEST SWAP2 POP PUSH2 0x1C9B DUP3 PUSH2 0x1C5C JUMP JUMPDEST PUSH1 0x20 DUP3 ADD SWAP1 POP SWAP2 SWAP1 POP JUMP JUMPDEST PUSH0 PUSH1 0x20 DUP3 ADD SWAP1 POP DUP2 DUP2 SUB PUSH0 DUP4 ADD MSTORE PUSH2 0x1CBD DUP2 PUSH2 0x1C84 JUMP JUMPDEST SWAP1 POP SWAP2 SWAP1 POP JUMP JUMPDEST PUSH32 0x416D6F756E74206D757374203E20300000000000000000000000000000000000 PUSH0 DUP3 ADD MSTORE POP JUMP JUMPDEST PUSH0 PUSH2 0x1CF8 PUSH1 0xF DUP4 PUSH2 0x1974 JUMP JUMPDEST SWAP2 POP PUSH2 0x1D03 DUP3 PUSH2 0x1CC4 JUMP JUMPDEST PUSH1 0x20 DUP3 ADD SWAP1 POP SWAP2 SWAP1 POP JUMP JUMPDEST PUSH0 PUSH1 0x20 DUP3 ADD SWAP1 POP DUP2 DUP2 SUB PUSH0 DUP4 ADD MSTORE PUSH2 0x1D25 DUP2 PUSH2 0x1CEC JUMP JUMPDEST SWAP1 POP SWAP2 SWAP1 POP JUMP JUMPDEST PUSH32 0x5374616B6520746F6B656E207472616E73666572206661696C65640000000000 PUSH0 DUP3 ADD MSTORE POP JUMP JUMPDEST PUSH0 PUSH2 0x1D60 PUSH1 0x1B DUP4 PUSH2 0x1974 JUMP JUMPDEST SWAP2 POP PUSH2 0x1D6B DUP3 PUSH2 0x1D2C JUMP JUMPDEST PUSH1 0x20 DUP3 ADD SWAP1 POP SWAP2 SWAP1 POP JUMP JUMPDEST PUSH0 PUSH1 0x20 DUP3 ADD SWAP1 POP DUP2 DUP2 SUB PUSH0 DUP4 ADD MSTORE PUSH2 0x1D8D DUP2 PUSH2 0x1D54 JUMP JUMPDEST SWAP1 POP SWAP2 SWAP1 POP JUMP JUMPDEST PUSH0 PUSH2 0x1D9E DUP3 PUSH2 0x1727 JUMP JUMPDEST SWAP2 POP PUSH2 0x1DA9 DUP4 PUSH2 0x1727 JUMP JUMPDEST SWAP3 POP DUP3 DUP3 ADD SWAP1 POP DUP1 DUP3 GT ISZERO PUSH2 0x1DC1 JUMPI PUSH2 0x1DC0 PUSH2 0x1B6D JUMP JUMPDEST JUMPDEST SWAP3 SWAP2 POP POP JUMP JUMPDEST PUSH32 0x4E6F207265776172640000000000000000000000000000000000000000000000 PUSH0 DUP3 ADD MSTORE POP JUMP JUMPDEST PUSH0 PUSH2 0x1DFB PUSH1 0x9 DUP4 PUSH2 0x1974 JUMP JUMPDEST SWAP2 POP PUSH2 0x1E06 DUP3 PUSH2 0x1DC7 JUMP JUMPDEST PUSH1 0x20 DUP3 ADD SWAP1 POP SWAP2 SWAP1 POP JUMP JUMPDEST PUSH0 PUSH1 0x20 DUP3 ADD SWAP1 POP DUP2 DUP2 SUB PUSH0 DUP4 ADD MSTORE PUSH2 0x1E28 DUP2 PUSH2 0x1DEF JUMP JUMPDEST SWAP1 POP SWAP2 SWAP1 POP JUMP JUMPDEST PUSH32 0x526577617264207472616E73666572206661696C656400000000000000000000 PUSH0 DUP3 ADD MSTORE POP JUMP JUMPDEST PUSH0 PUSH2 0x1E63 PUSH1 0x16 DUP4 PUSH2 0x1974 JUMP JUMPDEST SWAP2 POP PUSH2 0x1E6E DUP3 PUSH2 0x1E2F JUMP JUMPDEST PUSH1 0x20 DUP3 ADD SWAP1 POP SWAP2 SWAP1 POP JUMP JUMPDEST PUSH0 PUSH1 0x20 DUP3 ADD SWAP1 POP DUP2 DUP2 SUB PUSH0 DUP4 ADD MSTORE PUSH2 0x1E90 DUP2 PUSH2 0x1E57 JUMP JUMPDEST SWAP1 POP SWAP2 SWAP1 POP JUMP JUMPDEST PUSH0 PUSH2 0x1EA1 DUP3 PUSH2 0x1727 JUMP JUMPDEST SWAP2 POP PUSH2 0x1EAC DUP4 PUSH2 0x1727 JUMP JUMPDEST SWAP3 POP DUP3 DUP3 MUL PUSH2 0x1EBA DUP2 PUSH2 0x1727 JUMP JUMPDEST SWAP2 POP DUP3 DUP3 DIV DUP5 EQ DUP4 ISZERO OR PUSH2 0x1ED1 JUMPI PUSH2 0x1ED0 PUSH2 0x1B6D JUMP JUMPDEST JUMPDEST POP SWAP3 SWAP2 POP POP JUMP JUMPDEST PUSH32 0x4E487B7100000000000000000000000000000000000000000000000000000000 PUSH0 MSTORE PUSH1 0x12 PUSH1 0x4 MSTORE PUSH1 0x24 PUSH0 REVERT JUMPDEST PUSH0 PUSH2 0x1F0F DUP3 PUSH2 0x1727 JUMP JUMPDEST SWAP2 POP PUSH2 0x1F1A DUP4 PUSH2 0x1727 JUMP JUMPDEST SWAP3 POP DUP3 PUSH2 0x1F2A JUMPI PUSH2 0x1F29 PUSH2 0x1ED8 JUMP JUMPDEST JUMPDEST DUP3 DUP3 DIV SWAP1 POP SWAP3 SWAP2 POP POP JUMP JUMPDEST PUSH32 0x5769746864726177206661696C65640000000000000000000000000000000000 PUSH0 DUP3 ADD MSTORE POP JUMP JUMPDEST PUSH0 PUSH2 0x1F69 PUSH1 0xF DUP4 PUSH2 0x1974 JUMP JUMPDEST SWAP2 POP PUSH2 0x1F74 DUP3 PUSH2 0x1F35 JUMP JUMPDEST PUSH1 0x20 DUP3 ADD SWAP1 POP SWAP2 SWAP1 POP JUMP JUMPDEST PUSH0 PUSH1 0x20 DUP3 ADD SWAP1 POP DUP2 DUP2 SUB PUSH0 DUP4 ADD MSTORE PUSH2 0x1F96 DUP2 PUSH2 0x1F5D JUMP JUMPDEST SWAP1 POP SWAP2 SWAP1 POP JUMP JUMPDEST PUSH32 0x5265656E7472616E637947756172643A207265656E7472616E742063616C6C00 PUSH0 DUP3 ADD MSTORE POP JUMP JUMPDEST PUSH0 PUSH2 0x1FD1 PUSH1 0x1F DUP4 PUSH2 0x1974 JUMP JUMPDEST SWAP2 POP PUSH2 0x1FDC DUP3 PUSH2 0x1F9D JUMP JUMPDEST PUSH1 0x20 DUP3 ADD SWAP1 POP SWAP2 SWAP1 POP JUMP JUMPDEST PUSH0 PUSH1 0x20 DUP3 ADD SWAP1 POP DUP2 DUP2 SUB PUSH0 DUP4 ADD MSTORE PUSH2 0x1FFE DUP2 PUSH2 0x1FC5 JUMP JUMPDEST SWAP1 POP SWAP2 SWAP1 POP JUMP JUMPDEST PUSH32 0x5061757361626C653A2070617573656400000000000000000000000000000000 PUSH0 DUP3 ADD MSTORE POP JUMP JUMPDEST PUSH0 PUSH2 0x2039 PUSH1 0x10 DUP4 PUSH2 0x1974 JUMP JUMPDEST SWAP2 POP PUSH2 0x2044 DUP3 PUSH2 0x2005 JUMP JUMPDEST PUSH1 0x20 DUP3 ADD SWAP1 POP SWAP2 SWAP1 POP JUMP JUMPDEST PUSH0 PUSH1 0x20 DUP3 ADD SWAP1 POP DUP2 DUP2 SUB PUSH0 DUP4 ADD MSTORE PUSH2 0x2066 DUP2 PUSH2 0x202D JUMP JUMPDEST SWAP1 POP SWAP2 SWAP1 POP JUMP JUMPDEST PUSH32 0x5061757361626C653A206E6F7420706175736564000000000000000000000000 PUSH0 DUP3 ADD MSTORE POP JUMP JUMPDEST PUSH0 PUSH2 0x20A1 PUSH1 0x14 DUP4 PUSH2 0x1974 JUMP JUMPDEST SWAP2 POP PUSH2 0x20AC DUP3 PUSH2 0x206D JUMP JUMPDEST PUSH1 0x20 DUP3 ADD SWAP1 POP SWAP2 SWAP1 POP JUMP JUMPDEST PUSH0 PUSH1 0x20 DUP3 ADD SWAP1 POP DUP2 DUP2 SUB PUSH0 DUP4 ADD MSTORE PUSH2 0x20CE DUP2 PUSH2 0x2095 JUMP JUMPDEST SWAP1 POP SWAP2 SWAP1 POP JUMP INVALID LOG2 PUSH5 0x6970667358 0x22 SLT KECCAK256 0xD5 0xBC PUSH21 0xA21BF463BB9419CB9488D26FD27C9852561953D1B0 BLOBHASH DUP6 EXTCODECOPY SWAP14 EXTSTATICCALL 0xDE 0x2C NOT PUSH5 0x736F6C6343 STOP ADDMOD 0x1E STOP CALLER "
				},
				"gasEstimates": {
					"creation": {
						"codeDepositCost": "1691800",
						"executionCost": "infinite",
						"totalCost": "infinite"
					},
					"external": {
						"claimReward()": "infinite",
						"depositRewardTokens(uint256)": "infinite",
						"getAPR()": "infinite",
						"getPendingReward(address)": "infinite",
						"getTotalStaked()": "2478",
						"getUserStaked(address)": "2922",
						"nativeFee()": "2470",
						"owner()": "2647",
						"pause()": "infinite",
						"paused()": "2518",
						"renounceOwnership()": "infinite",
						"rewardRatioDenominator()": "2514",
						"rewardRatioNumerator()": "2491",
						"rewardToken()": "infinite",
						"setNativeFee(uint256)": "infinite",
						"setRewardRatio(uint256,uint256)": "infinite",
						"stake(uint256)": "infinite",
						"stakers(address)": "infinite",
						"stakingToken()": "infinite",
						"timeUnit()": "2537",
						"transferOwnership(address)": "infinite",
						"unpause()": "infinite",
						"unstake(uint256)": "infinite",
						"withdrawRewardTokens(uint256)": "infinite"
					},
					"internal": {
						"_calculateReward(address)": "infinite",
						"_claimReward(address)": "infinite"
					}
				},
				"methodIdentifiers": {
					"claimReward()": "b88a802f",
					"depositRewardTokens(uint256)": "16c621e0",
					"getAPR()": "c89d5b8b",
					"getPendingReward(address)": "4df9d6ba",
					"getTotalStaked()": "0917e776",
					"getUserStaked(address)": "dac3fc3f",
					"nativeFee()": "996f79c0",
					"owner()": "8da5cb5b",
					"pause()": "8456cb59",
					"paused()": "5c975abb",
					"renounceOwnership()": "715018a6",
					"rewardRatioDenominator()": "b5d90dc0",
					"rewardRatioNumerator()": "cc317f31",
					"rewardToken()": "f7c618c1",
					"setNativeFee(uint256)": "b91a1e8f",
					"setRewardRatio(uint256,uint256)": "001b7934",
					"stake(uint256)": "a694fc3a",
					"stakers(address)": "9168ae72",
					"stakingToken()": "72f702f3",
					"timeUnit()": "3c6a7f9b",
					"transferOwnership(address)": "f2fde38b",
					"unpause()": "3f4ba83a",
					"unstake(uint256)": "2e17de78",
					"withdrawRewardTokens(uint256)": "cb43b2dd"
				}
			},
			"storageLayout": {
				"storage": [
					{
						"astId": 8,
						"contract": "Contract Pools/NekoPools.sol:NekoPools",
						"label": "_owner",
						"offset": 0,
						"slot": "0",
						"type": "t_address"
					},
					{
						"astId": 266,
						"contract": "Contract Pools/NekoPools.sol:NekoPools",
						"label": "_status",
						"offset": 0,
						"slot": "1",
						"type": "t_uint256"
					},
					{
						"astId": 165,
						"contract": "Contract Pools/NekoPools.sol:NekoPools",
						"label": "_paused",
						"offset": 0,
						"slot": "2",
						"type": "t_bool"
					},
					{
						"astId": 448,
						"contract": "Contract Pools/NekoPools.sol:NekoPools",
						"label": "timeUnit",
						"offset": 0,
						"slot": "3",
						"type": "t_uint256"
					},
					{
						"astId": 450,
						"contract": "Contract Pools/NekoPools.sol:NekoPools",
						"label": "rewardRatioNumerator",
						"offset": 0,
						"slot": "4",
						"type": "t_uint256"
					},
					{
						"astId": 452,
						"contract": "Contract Pools/NekoPools.sol:NekoPools",
						"label": "rewardRatioDenominator",
						"offset": 0,
						"slot": "5",
						"type": "t_uint256"
					},
					{
						"astId": 454,
						"contract": "Contract Pools/NekoPools.sol:NekoPools",
						"label": "nativeFee",
						"offset": 0,
						"slot": "6",
						"type": "t_uint256"
					},
					{
						"astId": 456,
						"contract": "Contract Pools/NekoPools.sol:NekoPools",
						"label": "totalStaked",
						"offset": 0,
						"slot": "7",
						"type": "t_uint256"
					},
					{
						"astId": 468,
						"contract": "Contract Pools/NekoPools.sol:NekoPools",
						"label": "stakers",
						"offset": 0,
						"slot": "8",
						"type": "t_mapping(t_address,t_struct(Staker)463_storage)"
					}
				],
				"types": {
					"t_address": {
						"encoding": "inplace",
						"label": "address",
						"numberOfBytes": "20"
					},
					"t_bool": {
						"encoding": "inplace",
						"label": "bool",
						"numberOfBytes": "1"
					},
					"t_mapping(t_address,t_struct(Staker)463_storage)": {
						"encoding": "mapping",
						"key": "t_address",
						"label": "mapping(address => struct NekoPools.Staker)",
						"numberOfBytes": "32",
						"value": "t_struct(Staker)463_storage"
					},
					"t_struct(Staker)463_storage": {
						"encoding": "inplace",
						"label": "struct NekoPools.Staker",
						"members": [
							{
								"astId": 458,
								"contract": "Contract Pools/NekoPools.sol:NekoPools",
								"label": "amountStaked",
								"offset": 0,
								"slot": "0",
								"type": "t_uint256"
							},
							{
								"astId": 460,
								"contract": "Contract Pools/NekoPools.sol:NekoPools",
								"label": "lastClaimedTime",
								"offset": 0,
								"slot": "1",
								"type": "t_uint256"
							},
							{
								"astId": 462,
								"contract": "Contract Pools/NekoPools.sol:NekoPools",
								"label": "rewardDebt",
								"offset": 0,
								"slot": "2",
								"type": "t_uint256"
							}
						],
						"numberOfBytes": "96"
					},
					"t_uint256": {
						"encoding": "inplace",
						"label": "uint256",
						"numberOfBytes": "32"
					}
				}
			},
			"userdoc": {
				"kind": "user",
				"methods": {},
				"version": 1
			}
		}
	}
}